{
	"Events.sol": {
		"My_bank_account": {
			"abi": [
				{
					"anonymous": false,
					"inputs": [
						{
							"indexed": false,
							"internalType": "string",
							"name": "message",
							"type": "string"
						}
					],
					"name": "depositSuccessful",
					"type": "event"
				},
				{
					"anonymous": false,
					"inputs": [
						{
							"indexed": false,
							"internalType": "string",
							"name": "message",
							"type": "string"
						}
					],
					"name": "withdrawSuccessful",
					"type": "event"
				},
				{
					"inputs": [],
					"name": "deposit",
					"outputs": [],
					"stateMutability": "payable",
					"type": "function"
				},
				{
					"inputs": [
						{
							"internalType": "uint256",
							"name": "_amount",
							"type": "uint256"
						}
					],
					"name": "withdraw",
					"outputs": [],
					"stateMutability": "payable",
					"type": "function"
				}
			],
			"devdoc": {
				"kind": "dev",
				"methods": {},
				"version": 1
			},
			"evm": {
				"assembly": "    /* \"Events.sol\":63:512  contract My_bank_account {... */\n  mstore(0x40, 0x80)\n  callvalue\n  dup1\n  iszero\n  tag_1\n  jumpi\n  0x00\n  dup1\n  revert\ntag_1:\n  pop\n  dataSize(sub_0)\n  dup1\n  dataOffset(sub_0)\n  0x00\n  codecopy\n  0x00\n  return\nstop\n\nsub_0: assembly {\n        /* \"Events.sol\":63:512  contract My_bank_account {... */\n      mstore(0x40, 0x80)\n      jumpi(tag_1, lt(calldatasize, 0x04))\n      shr(0xe0, calldataload(0x00))\n      dup1\n      0x2e1a7d4d\n      eq\n      tag_2\n      jumpi\n      dup1\n      0xd0e30db0\n      eq\n      tag_3\n      jumpi\n    tag_1:\n      0x00\n      dup1\n      revert\n        /* \"Events.sol\":298:507  function withdraw(uint256 _amount) external payable{... */\n    tag_2:\n      tag_4\n      0x04\n      dup1\n      calldatasize\n      sub\n      dup2\n      add\n      swap1\n      tag_5\n      swap2\n      swap1\n      tag_6\n      jump\t// in\n    tag_5:\n      tag_7\n      jump\t// in\n    tag_4:\n      stop\n        /* \"Events.sol\":192:290  function deposit() external payable {... */\n    tag_3:\n      tag_8\n      tag_9\n      jump\t// in\n    tag_8:\n      stop\n        /* \"Events.sol\":298:507  function withdraw(uint256 _amount) external payable{... */\n    tag_7:\n        /* \"Events.sol\":382:389  1 ether */\n      0x0de0b6b3a7640000\n        /* \"Events.sol\":372:379  _amount */\n      dup2\n        /* \"Events.sol\":372:389  _amount * 1 ether */\n      tag_11\n      swap2\n      swap1\n      tag_12\n      jump\t// in\n    tag_11:\n        /* \"Events.sol\":362:389  _amount = _amount * 1 ether */\n      swap1\n      pop\n        /* \"Events.sol\":408:418  msg.sender */\n      caller\n        /* \"Events.sol\":400:428  payable(msg.sender).transfer */\n      0xffffffffffffffffffffffffffffffffffffffff\n      and\n        /* \"Events.sol\":400:437  payable(msg.sender).transfer(_amount) */\n      0x08fc\n        /* \"Events.sol\":429:436  _amount */\n      dup3\n        /* \"Events.sol\":400:437  payable(msg.sender).transfer(_amount) */\n      swap1\n      dup2\n      iszero\n      mul\n      swap1\n      mload(0x40)\n      0x00\n      mload(0x40)\n      dup1\n      dup4\n      sub\n      dup2\n      dup6\n      dup9\n      dup9\n      call\n      swap4\n      pop\n      pop\n      pop\n      pop\n      iszero\n      dup1\n      iszero\n      tag_14\n      jumpi\n      returndatasize\n      0x00\n      dup1\n      returndatacopy\n      revert(0x00, returndatasize)\n    tag_14:\n      pop\n        /* \"Events.sol\":455:497  withdrawSuccessful(\"Withdrawal suceesful\") */\n      0xbc2c2a1393dc74603397ff24d6aad35c48238ce5a60b624928d5465191ffa4a8\n      mload(0x40)\n      tag_15\n      swap1\n      tag_16\n      jump\t// in\n    tag_15:\n      mload(0x40)\n      dup1\n      swap2\n      sub\n      swap1\n      log1\n        /* \"Events.sol\":298:507  function withdraw(uint256 _amount) external payable{... */\n      pop\n      jump\t// out\n        /* \"Events.sol\":192:290  function deposit() external payable {... */\n    tag_9:\n        /* \"Events.sol\":244:282  depositSuccessful(\"deposit suceesful\") */\n      0xfccb51693b11d25acc9bf2da6cccedbd28d9fedd37eb49df9638be2967a6112c\n      mload(0x40)\n      tag_18\n      swap1\n      tag_19\n      jump\t// in\n    tag_18:\n      mload(0x40)\n      dup1\n      swap2\n      sub\n      swap1\n      log1\n        /* \"Events.sol\":192:290  function deposit() external payable {... */\n      jump\t// out\n        /* \"#utility.yul\":88:205   */\n    tag_21:\n        /* \"#utility.yul\":197:198   */\n      0x00\n        /* \"#utility.yul\":194:195   */\n      dup1\n        /* \"#utility.yul\":187:199   */\n      revert\n        /* \"#utility.yul\":334:411   */\n    tag_23:\n        /* \"#utility.yul\":371:378   */\n      0x00\n        /* \"#utility.yul\":400:405   */\n      dup2\n        /* \"#utility.yul\":389:405   */\n      swap1\n      pop\n        /* \"#utility.yul\":334:411   */\n      swap2\n      swap1\n      pop\n      jump\t// out\n        /* \"#utility.yul\":417:539   */\n    tag_24:\n        /* \"#utility.yul\":490:514   */\n      tag_38\n        /* \"#utility.yul\":508:513   */\n      dup2\n        /* \"#utility.yul\":490:514   */\n      tag_23\n      jump\t// in\n    tag_38:\n        /* \"#utility.yul\":483:488   */\n      dup2\n        /* \"#utility.yul\":480:515   */\n      eq\n        /* \"#utility.yul\":470:533   */\n      tag_39\n      jumpi\n        /* \"#utility.yul\":529:530   */\n      0x00\n        /* \"#utility.yul\":526:527   */\n      dup1\n        /* \"#utility.yul\":519:531   */\n      revert\n        /* \"#utility.yul\":470:533   */\n    tag_39:\n        /* \"#utility.yul\":417:539   */\n      pop\n      jump\t// out\n        /* \"#utility.yul\":545:684   */\n    tag_25:\n        /* \"#utility.yul\":591:596   */\n      0x00\n        /* \"#utility.yul\":629:635   */\n      dup2\n        /* \"#utility.yul\":616:636   */\n      calldataload\n        /* \"#utility.yul\":607:636   */\n      swap1\n      pop\n        /* \"#utility.yul\":645:678   */\n      tag_41\n        /* \"#utility.yul\":672:677   */\n      dup2\n        /* \"#utility.yul\":645:678   */\n      tag_24\n      jump\t// in\n    tag_41:\n        /* \"#utility.yul\":545:684   */\n      swap3\n      swap2\n      pop\n      pop\n      jump\t// out\n        /* \"#utility.yul\":690:1019   */\n    tag_6:\n        /* \"#utility.yul\":749:755   */\n      0x00\n        /* \"#utility.yul\":798:800   */\n      0x20\n        /* \"#utility.yul\":786:795   */\n      dup3\n        /* \"#utility.yul\":777:784   */\n      dup5\n        /* \"#utility.yul\":773:796   */\n      sub\n        /* \"#utility.yul\":769:801   */\n      slt\n        /* \"#utility.yul\":766:885   */\n      iszero\n      tag_43\n      jumpi\n        /* \"#utility.yul\":804:883   */\n      tag_44\n      tag_21\n      jump\t// in\n    tag_44:\n        /* \"#utility.yul\":766:885   */\n    tag_43:\n        /* \"#utility.yul\":924:925   */\n      0x00\n        /* \"#utility.yul\":949:1002   */\n      tag_45\n        /* \"#utility.yul\":994:1001   */\n      dup5\n        /* \"#utility.yul\":985:991   */\n      dup3\n        /* \"#utility.yul\":974:983   */\n      dup6\n        /* \"#utility.yul\":970:992   */\n      add\n        /* \"#utility.yul\":949:1002   */\n      tag_25\n      jump\t// in\n    tag_45:\n        /* \"#utility.yul\":939:1002   */\n      swap2\n      pop\n        /* \"#utility.yul\":895:1012   */\n      pop\n        /* \"#utility.yul\":690:1019   */\n      swap3\n      swap2\n      pop\n      pop\n      jump\t// out\n        /* \"#utility.yul\":1025:1205   */\n    tag_26:\n        /* \"#utility.yul\":1073:1150   */\n      0x4e487b7100000000000000000000000000000000000000000000000000000000\n        /* \"#utility.yul\":1070:1071   */\n      0x00\n        /* \"#utility.yul\":1063:1151   */\n      mstore\n        /* \"#utility.yul\":1170:1174   */\n      0x11\n        /* \"#utility.yul\":1167:1168   */\n      0x04\n        /* \"#utility.yul\":1160:1175   */\n      mstore\n        /* \"#utility.yul\":1194:1198   */\n      0x24\n        /* \"#utility.yul\":1191:1192   */\n      0x00\n        /* \"#utility.yul\":1184:1199   */\n      revert\n        /* \"#utility.yul\":1211:1621   */\n    tag_12:\n        /* \"#utility.yul\":1251:1258   */\n      0x00\n        /* \"#utility.yul\":1274:1294   */\n      tag_48\n        /* \"#utility.yul\":1292:1293   */\n      dup3\n        /* \"#utility.yul\":1274:1294   */\n      tag_23\n      jump\t// in\n    tag_48:\n        /* \"#utility.yul\":1269:1294   */\n      swap2\n      pop\n        /* \"#utility.yul\":1308:1328   */\n      tag_49\n        /* \"#utility.yul\":1326:1327   */\n      dup4\n        /* \"#utility.yul\":1308:1328   */\n      tag_23\n      jump\t// in\n    tag_49:\n        /* \"#utility.yul\":1303:1328   */\n      swap3\n      pop\n        /* \"#utility.yul\":1363:1364   */\n      dup3\n        /* \"#utility.yul\":1360:1361   */\n      dup3\n        /* \"#utility.yul\":1356:1365   */\n      mul\n        /* \"#utility.yul\":1385:1415   */\n      tag_50\n        /* \"#utility.yul\":1403:1414   */\n      dup2\n        /* \"#utility.yul\":1385:1415   */\n      tag_23\n      jump\t// in\n    tag_50:\n        /* \"#utility.yul\":1374:1415   */\n      swap2\n      pop\n        /* \"#utility.yul\":1564:1565   */\n      dup3\n        /* \"#utility.yul\":1555:1562   */\n      dup3\n        /* \"#utility.yul\":1551:1566   */\n      div\n        /* \"#utility.yul\":1548:1549   */\n      dup5\n        /* \"#utility.yul\":1545:1567   */\n      eq\n        /* \"#utility.yul\":1525:1526   */\n      dup4\n        /* \"#utility.yul\":1518:1527   */\n      iszero\n        /* \"#utility.yul\":1498:1581   */\n      or\n        /* \"#utility.yul\":1475:1614   */\n      tag_51\n      jumpi\n        /* \"#utility.yul\":1594:1612   */\n      tag_52\n      tag_26\n      jump\t// in\n    tag_52:\n        /* \"#utility.yul\":1475:1614   */\n    tag_51:\n        /* \"#utility.yul\":1259:1621   */\n      pop\n        /* \"#utility.yul\":1211:1621   */\n      swap3\n      swap2\n      pop\n      pop\n      jump\t// out\n        /* \"#utility.yul\":1627:1796   */\n    tag_27:\n        /* \"#utility.yul\":1711:1722   */\n      0x00\n        /* \"#utility.yul\":1745:1751   */\n      dup3\n        /* \"#utility.yul\":1740:1743   */\n      dup3\n        /* \"#utility.yul\":1733:1752   */\n      mstore\n        /* \"#utility.yul\":1785:1789   */\n      0x20\n        /* \"#utility.yul\":1780:1783   */\n      dup3\n        /* \"#utility.yul\":1776:1790   */\n      add\n        /* \"#utility.yul\":1761:1790   */\n      swap1\n      pop\n        /* \"#utility.yul\":1627:1796   */\n      swap3\n      swap2\n      pop\n      pop\n      jump\t// out\n        /* \"#utility.yul\":1802:1972   */\n    tag_28:\n        /* \"#utility.yul\":1942:1964   */\n      0x5769746864726177616c2073756365657366756c000000000000000000000000\n        /* \"#utility.yul\":1938:1939   */\n      0x00\n        /* \"#utility.yul\":1930:1936   */\n      dup3\n        /* \"#utility.yul\":1926:1940   */\n      add\n        /* \"#utility.yul\":1919:1965   */\n      mstore\n        /* \"#utility.yul\":1802:1972   */\n      pop\n      jump\t// out\n        /* \"#utility.yul\":1978:2344   */\n    tag_29:\n        /* \"#utility.yul\":2120:2123   */\n      0x00\n        /* \"#utility.yul\":2141:2208   */\n      tag_56\n        /* \"#utility.yul\":2205:2207   */\n      0x14\n        /* \"#utility.yul\":2200:2203   */\n      dup4\n        /* \"#utility.yul\":2141:2208   */\n      tag_27\n      jump\t// in\n    tag_56:\n        /* \"#utility.yul\":2134:2208   */\n      swap2\n      pop\n        /* \"#utility.yul\":2217:2310   */\n      tag_57\n        /* \"#utility.yul\":2306:2309   */\n      dup3\n        /* \"#utility.yul\":2217:2310   */\n      tag_28\n      jump\t// in\n    tag_57:\n        /* \"#utility.yul\":2335:2337   */\n      0x20\n        /* \"#utility.yul\":2330:2333   */\n      dup3\n        /* \"#utility.yul\":2326:2338   */\n      add\n        /* \"#utility.yul\":2319:2338   */\n      swap1\n      pop\n        /* \"#utility.yul\":1978:2344   */\n      swap2\n      swap1\n      pop\n      jump\t// out\n        /* \"#utility.yul\":2350:2769   */\n    tag_16:\n        /* \"#utility.yul\":2516:2520   */\n      0x00\n        /* \"#utility.yul\":2554:2556   */\n      0x20\n        /* \"#utility.yul\":2543:2552   */\n      dup3\n        /* \"#utility.yul\":2539:2557   */\n      add\n        /* \"#utility.yul\":2531:2557   */\n      swap1\n      pop\n        /* \"#utility.yul\":2603:2612   */\n      dup2\n        /* \"#utility.yul\":2597:2601   */\n      dup2\n        /* \"#utility.yul\":2593:2613   */\n      sub\n        /* \"#utility.yul\":2589:2590   */\n      0x00\n        /* \"#utility.yul\":2578:2587   */\n      dup4\n        /* \"#utility.yul\":2574:2591   */\n      add\n        /* \"#utility.yul\":2567:2614   */\n      mstore\n        /* \"#utility.yul\":2631:2762   */\n      tag_59\n        /* \"#utility.yul\":2757:2761   */\n      dup2\n        /* \"#utility.yul\":2631:2762   */\n      tag_29\n      jump\t// in\n    tag_59:\n        /* \"#utility.yul\":2623:2762   */\n      swap1\n      pop\n        /* \"#utility.yul\":2350:2769   */\n      swap2\n      swap1\n      pop\n      jump\t// out\n        /* \"#utility.yul\":2775:2942   */\n    tag_30:\n        /* \"#utility.yul\":2915:2934   */\n      0x6465706f7369742073756365657366756c000000000000000000000000000000\n        /* \"#utility.yul\":2911:2912   */\n      0x00\n        /* \"#utility.yul\":2903:2909   */\n      dup3\n        /* \"#utility.yul\":2899:2913   */\n      add\n        /* \"#utility.yul\":2892:2935   */\n      mstore\n        /* \"#utility.yul\":2775:2942   */\n      pop\n      jump\t// out\n        /* \"#utility.yul\":2948:3314   */\n    tag_31:\n        /* \"#utility.yul\":3090:3093   */\n      0x00\n        /* \"#utility.yul\":3111:3178   */\n      tag_62\n        /* \"#utility.yul\":3175:3177   */\n      0x11\n        /* \"#utility.yul\":3170:3173   */\n      dup4\n        /* \"#utility.yul\":3111:3178   */\n      tag_27\n      jump\t// in\n    tag_62:\n        /* \"#utility.yul\":3104:3178   */\n      swap2\n      pop\n        /* \"#utility.yul\":3187:3280   */\n      tag_63\n        /* \"#utility.yul\":3276:3279   */\n      dup3\n        /* \"#utility.yul\":3187:3280   */\n      tag_30\n      jump\t// in\n    tag_63:\n        /* \"#utility.yul\":3305:3307   */\n      0x20\n        /* \"#utility.yul\":3300:3303   */\n      dup3\n        /* \"#utility.yul\":3296:3308   */\n      add\n        /* \"#utility.yul\":3289:3308   */\n      swap1\n      pop\n        /* \"#utility.yul\":2948:3314   */\n      swap2\n      swap1\n      pop\n      jump\t// out\n        /* \"#utility.yul\":3320:3739   */\n    tag_19:\n        /* \"#utility.yul\":3486:3490   */\n      0x00\n        /* \"#utility.yul\":3524:3526   */\n      0x20\n        /* \"#utility.yul\":3513:3522   */\n      dup3\n        /* \"#utility.yul\":3509:3527   */\n      add\n        /* \"#utility.yul\":3501:3527   */\n      swap1\n      pop\n        /* \"#utility.yul\":3573:3582   */\n      dup2\n        /* \"#utility.yul\":3567:3571   */\n      dup2\n        /* \"#utility.yul\":3563:3583   */\n      sub\n        /* \"#utility.yul\":3559:3560   */\n      0x00\n        /* \"#utility.yul\":3548:3557   */\n      dup4\n        /* \"#utility.yul\":3544:3561   */\n      add\n        /* \"#utility.yul\":3537:3584   */\n      mstore\n        /* \"#utility.yul\":3601:3732   */\n      tag_65\n        /* \"#utility.yul\":3727:3731   */\n      dup2\n        /* \"#utility.yul\":3601:3732   */\n      tag_31\n      jump\t// in\n    tag_65:\n        /* \"#utility.yul\":3593:3732   */\n      swap1\n      pop\n        /* \"#utility.yul\":3320:3739   */\n      swap2\n      swap1\n      pop\n      jump\t// out\n\n    auxdata: 0xa2646970667358221220e0f9bb323770752a08be29a5a53b0d5ee8ca4289fe4813e7165c87c49f79967364736f6c63430008120033\n}\n",
				"bytecode": {
					"linkReferences": {},
					"object": "608060405234801561001057600080fd5b50610318806100206000396000f3fe6080604052600436106100295760003560e01c80632e1a7d4d1461002e578063d0e30db01461004a575b600080fd5b6100486004803603810190610043919061015b565b610054565b005b6100526100e9565b005b670de0b6b3a76400008161006891906101b7565b90503373ffffffffffffffffffffffffffffffffffffffff166108fc829081150290604051600060405180830381858888f193505050501580156100b0573d6000803e3d6000fd5b507fbc2c2a1393dc74603397ff24d6aad35c48238ce5a60b624928d5465191ffa4a86040516100de90610256565b60405180910390a150565b7ffccb51693b11d25acc9bf2da6cccedbd28d9fedd37eb49df9638be2967a6112c604051610116906102c2565b60405180910390a1565b600080fd5b6000819050919050565b61013881610125565b811461014357600080fd5b50565b6000813590506101558161012f565b92915050565b60006020828403121561017157610170610120565b5b600061017f84828501610146565b91505092915050565b7f4e487b7100000000000000000000000000000000000000000000000000000000600052601160045260246000fd5b60006101c282610125565b91506101cd83610125565b92508282026101db81610125565b915082820484148315176101f2576101f1610188565b5b5092915050565b600082825260208201905092915050565b7f5769746864726177616c2073756365657366756c000000000000000000000000600082015250565b60006102406014836101f9565b915061024b8261020a565b602082019050919050565b6000602082019050818103600083015261026f81610233565b9050919050565b7f6465706f7369742073756365657366756c000000000000000000000000000000600082015250565b60006102ac6011836101f9565b91506102b782610276565b602082019050919050565b600060208201905081810360008301526102db8161029f565b905091905056fea2646970667358221220e0f9bb323770752a08be29a5a53b0d5ee8ca4289fe4813e7165c87c49f79967364736f6c63430008120033",
					"opcodes": "PUSH1 0x80 PUSH1 0x40 MSTORE CALLVALUE DUP1 ISZERO PUSH2 0x10 JUMPI PUSH1 0x0 DUP1 REVERT JUMPDEST POP PUSH2 0x318 DUP1 PUSH2 0x20 PUSH1 0x0 CODECOPY PUSH1 0x0 RETURN INVALID PUSH1 0x80 PUSH1 0x40 MSTORE PUSH1 0x4 CALLDATASIZE LT PUSH2 0x29 JUMPI PUSH1 0x0 CALLDATALOAD PUSH1 0xE0 SHR DUP1 PUSH4 0x2E1A7D4D EQ PUSH2 0x2E JUMPI DUP1 PUSH4 0xD0E30DB0 EQ PUSH2 0x4A JUMPI JUMPDEST PUSH1 0x0 DUP1 REVERT JUMPDEST PUSH2 0x48 PUSH1 0x4 DUP1 CALLDATASIZE SUB DUP2 ADD SWAP1 PUSH2 0x43 SWAP2 SWAP1 PUSH2 0x15B JUMP JUMPDEST PUSH2 0x54 JUMP JUMPDEST STOP JUMPDEST PUSH2 0x52 PUSH2 0xE9 JUMP JUMPDEST STOP JUMPDEST PUSH8 0xDE0B6B3A7640000 DUP2 PUSH2 0x68 SWAP2 SWAP1 PUSH2 0x1B7 JUMP JUMPDEST SWAP1 POP CALLER PUSH20 0xFFFFFFFFFFFFFFFFFFFFFFFFFFFFFFFFFFFFFFFF AND PUSH2 0x8FC DUP3 SWAP1 DUP2 ISZERO MUL SWAP1 PUSH1 0x40 MLOAD PUSH1 0x0 PUSH1 0x40 MLOAD DUP1 DUP4 SUB DUP2 DUP6 DUP9 DUP9 CALL SWAP4 POP POP POP POP ISZERO DUP1 ISZERO PUSH2 0xB0 JUMPI RETURNDATASIZE PUSH1 0x0 DUP1 RETURNDATACOPY RETURNDATASIZE PUSH1 0x0 REVERT JUMPDEST POP PUSH32 0xBC2C2A1393DC74603397FF24D6AAD35C48238CE5A60B624928D5465191FFA4A8 PUSH1 0x40 MLOAD PUSH2 0xDE SWAP1 PUSH2 0x256 JUMP JUMPDEST PUSH1 0x40 MLOAD DUP1 SWAP2 SUB SWAP1 LOG1 POP JUMP JUMPDEST PUSH32 0xFCCB51693B11D25ACC9BF2DA6CCCEDBD28D9FEDD37EB49DF9638BE2967A6112C PUSH1 0x40 MLOAD PUSH2 0x116 SWAP1 PUSH2 0x2C2 JUMP JUMPDEST PUSH1 0x40 MLOAD DUP1 SWAP2 SUB SWAP1 LOG1 JUMP JUMPDEST PUSH1 0x0 DUP1 REVERT JUMPDEST PUSH1 0x0 DUP2 SWAP1 POP SWAP2 SWAP1 POP JUMP JUMPDEST PUSH2 0x138 DUP2 PUSH2 0x125 JUMP JUMPDEST DUP2 EQ PUSH2 0x143 JUMPI PUSH1 0x0 DUP1 REVERT JUMPDEST POP JUMP JUMPDEST PUSH1 0x0 DUP2 CALLDATALOAD SWAP1 POP PUSH2 0x155 DUP2 PUSH2 0x12F JUMP JUMPDEST SWAP3 SWAP2 POP POP JUMP JUMPDEST PUSH1 0x0 PUSH1 0x20 DUP3 DUP5 SUB SLT ISZERO PUSH2 0x171 JUMPI PUSH2 0x170 PUSH2 0x120 JUMP JUMPDEST JUMPDEST PUSH1 0x0 PUSH2 0x17F DUP5 DUP3 DUP6 ADD PUSH2 0x146 JUMP JUMPDEST SWAP2 POP POP SWAP3 SWAP2 POP POP JUMP JUMPDEST PUSH32 0x4E487B7100000000000000000000000000000000000000000000000000000000 PUSH1 0x0 MSTORE PUSH1 0x11 PUSH1 0x4 MSTORE PUSH1 0x24 PUSH1 0x0 REVERT JUMPDEST PUSH1 0x0 PUSH2 0x1C2 DUP3 PUSH2 0x125 JUMP JUMPDEST SWAP2 POP PUSH2 0x1CD DUP4 PUSH2 0x125 JUMP JUMPDEST SWAP3 POP DUP3 DUP3 MUL PUSH2 0x1DB DUP2 PUSH2 0x125 JUMP JUMPDEST SWAP2 POP DUP3 DUP3 DIV DUP5 EQ DUP4 ISZERO OR PUSH2 0x1F2 JUMPI PUSH2 0x1F1 PUSH2 0x188 JUMP JUMPDEST JUMPDEST POP SWAP3 SWAP2 POP POP JUMP JUMPDEST PUSH1 0x0 DUP3 DUP3 MSTORE PUSH1 0x20 DUP3 ADD SWAP1 POP SWAP3 SWAP2 POP POP JUMP JUMPDEST PUSH32 0x5769746864726177616C2073756365657366756C000000000000000000000000 PUSH1 0x0 DUP3 ADD MSTORE POP JUMP JUMPDEST PUSH1 0x0 PUSH2 0x240 PUSH1 0x14 DUP4 PUSH2 0x1F9 JUMP JUMPDEST SWAP2 POP PUSH2 0x24B DUP3 PUSH2 0x20A JUMP JUMPDEST PUSH1 0x20 DUP3 ADD SWAP1 POP SWAP2 SWAP1 POP JUMP JUMPDEST PUSH1 0x0 PUSH1 0x20 DUP3 ADD SWAP1 POP DUP2 DUP2 SUB PUSH1 0x0 DUP4 ADD MSTORE PUSH2 0x26F DUP2 PUSH2 0x233 JUMP JUMPDEST SWAP1 POP SWAP2 SWAP1 POP JUMP JUMPDEST PUSH32 0x6465706F7369742073756365657366756C000000000000000000000000000000 PUSH1 0x0 DUP3 ADD MSTORE POP JUMP JUMPDEST PUSH1 0x0 PUSH2 0x2AC PUSH1 0x11 DUP4 PUSH2 0x1F9 JUMP JUMPDEST SWAP2 POP PUSH2 0x2B7 DUP3 PUSH2 0x276 JUMP JUMPDEST PUSH1 0x20 DUP3 ADD SWAP1 POP SWAP2 SWAP1 POP JUMP JUMPDEST PUSH1 0x0 PUSH1 0x20 DUP3 ADD SWAP1 POP DUP2 DUP2 SUB PUSH1 0x0 DUP4 ADD MSTORE PUSH2 0x2DB DUP2 PUSH2 0x29F JUMP JUMPDEST SWAP1 POP SWAP2 SWAP1 POP JUMP INVALID LOG2 PUSH5 0x6970667358 0x22 SLT KECCAK256 0xE0 0xF9 0xBB ORIGIN CALLDATACOPY PUSH17 0x752A08BE29A5A53B0D5EE8CA4289FE4813 0xE7 AND 0x5C DUP8 0xC4 SWAP16 PUSH26 0x967364736F6C6343000812003300000000000000000000000000 "
				},
				"gasEstimates": {
					"creation": {
						"codeDepositCost": "158400",
						"executionCost": "202",
						"totalCost": "158602"
					},
					"external": {
						"deposit()": "1922",
						"withdraw(uint256)": "infinite"
					}
				},
				"methodIdentifiers": {
					"deposit()": "d0e30db0",
					"withdraw(uint256)": "2e1a7d4d"
				}
			},
			"storageLayout": {
				"storage": [],
				"types": null
			},
			"userdoc": {
				"kind": "user",
				"methods": {},
				"version": 1
			}
		}
	}
}