{
	"Loops.sol": {
		"Loops": {
			"abi": [
				{
					"inputs": [],
					"name": "counter2",
					"outputs": [
						{
							"internalType": "uint256",
							"name": "",
							"type": "uint256"
						}
					],
					"stateMutability": "view",
					"type": "function"
				},
				{
					"inputs": [],
					"name": "counter3",
					"outputs": [
						{
							"internalType": "uint256",
							"name": "",
							"type": "uint256"
						}
					],
					"stateMutability": "view",
					"type": "function"
				},
				{
					"inputs": [
						{
							"internalType": "uint256",
							"name": "_num",
							"type": "uint256"
						}
					],
					"name": "do_while_loop",
					"outputs": [
						{
							"internalType": "uint256",
							"name": "",
							"type": "uint256"
						}
					],
					"stateMutability": "nonpayable",
					"type": "function"
				},
				{
					"inputs": [
						{
							"internalType": "int256",
							"name": "_num",
							"type": "int256"
						}
					],
					"name": "for_loop",
					"outputs": [
						{
							"internalType": "uint256",
							"name": "",
							"type": "uint256"
						}
					],
					"stateMutability": "view",
					"type": "function"
				},
				{
					"inputs": [
						{
							"internalType": "uint256",
							"name": "_num",
							"type": "uint256"
						}
					],
					"name": "while_loop",
					"outputs": [
						{
							"internalType": "uint256",
							"name": "",
							"type": "uint256"
						}
					],
					"stateMutability": "nonpayable",
					"type": "function"
				}
			],
			"devdoc": {
				"kind": "dev",
				"methods": {},
				"version": 1
			},
			"evm": {
				"assembly": "    /* \"Loops.sol\":59:826  contract Loops {... */\n  mstore(0x40, 0x80)\n    /* \"Loops.sol\":96:147  int256[] numbers = [-1, 3, 6, 5, 23, 64, 31, 9, 87] */\n  mload(0x40)\n  dup1\n  0x0120\n  add\n  0x40\n  mstore\n  dup1\n    /* \"Loops.sol\":116:118  -1 */\n  0xffffffffffffffffffffffffffffffffffffffffffffffffffffffffffffffff\n    /* \"Loops.sol\":96:147  int256[] numbers = [-1, 3, 6, 5, 23, 64, 31, 9, 87] */\n  0x00\n  signextend\n  dup2\n  mstore\n  0x20\n  add\n    /* \"Loops.sol\":120:121  3 */\n  0x03\n    /* \"Loops.sol\":96:147  int256[] numbers = [-1, 3, 6, 5, 23, 64, 31, 9, 87] */\n  0x00\n  signextend\n  dup2\n  mstore\n  0x20\n  add\n    /* \"Loops.sol\":123:124  6 */\n  0x06\n    /* \"Loops.sol\":96:147  int256[] numbers = [-1, 3, 6, 5, 23, 64, 31, 9, 87] */\n  0x00\n  signextend\n  dup2\n  mstore\n  0x20\n  add\n    /* \"Loops.sol\":126:127  5 */\n  0x05\n    /* \"Loops.sol\":96:147  int256[] numbers = [-1, 3, 6, 5, 23, 64, 31, 9, 87] */\n  0x00\n  signextend\n  dup2\n  mstore\n  0x20\n  add\n    /* \"Loops.sol\":129:131  23 */\n  0x17\n    /* \"Loops.sol\":96:147  int256[] numbers = [-1, 3, 6, 5, 23, 64, 31, 9, 87] */\n  0x00\n  signextend\n  dup2\n  mstore\n  0x20\n  add\n    /* \"Loops.sol\":133:135  64 */\n  0x40\n    /* \"Loops.sol\":96:147  int256[] numbers = [-1, 3, 6, 5, 23, 64, 31, 9, 87] */\n  0x00\n  signextend\n  dup2\n  mstore\n  0x20\n  add\n    /* \"Loops.sol\":137:139  31 */\n  0x1f\n    /* \"Loops.sol\":96:147  int256[] numbers = [-1, 3, 6, 5, 23, 64, 31, 9, 87] */\n  0x00\n  signextend\n  dup2\n  mstore\n  0x20\n  add\n    /* \"Loops.sol\":141:142  9 */\n  0x09\n    /* \"Loops.sol\":96:147  int256[] numbers = [-1, 3, 6, 5, 23, 64, 31, 9, 87] */\n  0x00\n  signextend\n  dup2\n  mstore\n  0x20\n  add\n    /* \"Loops.sol\":144:146  87 */\n  0x57\n    /* \"Loops.sol\":96:147  int256[] numbers = [-1, 3, 6, 5, 23, 64, 31, 9, 87] */\n  0x00\n  signextend\n  dup2\n  mstore\n  pop\n  0x00\n  swap1\n  0x09\n  tag_1\n  swap3\n  swap2\n  swap1\n  tag_2\n  jump\t// in\ntag_1:\n  pop\n    /* \"Loops.sol\":59:826  contract Loops {... */\n  callvalue\n  dup1\n  iszero\n  tag_3\n  jumpi\n  0x00\n  dup1\n  revert\ntag_3:\n  pop\n  jump(tag_4)\ntag_2:\n  dup3\n  dup1\n  sload\n  dup3\n  dup3\n  sstore\n  swap1\n  0x00\n  mstore\n  keccak256(0x00, 0x20)\n  swap1\n  dup2\n  add\n  swap3\n  dup3\n  iszero\n  tag_5\n  jumpi\n  swap2\n  0x20\n  mul\n  dup3\n  add\ntag_6:\n  dup3\n  dup2\n  gt\n  iszero\n  tag_7\n  jumpi\n  dup3\n  mload\n  dup3\n  swap1\n  0x00\n  signextend\n  swap1\n  sstore\n  swap2\n  0x20\n  add\n  swap2\n  swap1\n  0x01\n  add\n  swap1\n  jump(tag_6)\ntag_7:\ntag_5:\n  pop\n  swap1\n  pop\n  tag_8\n  swap2\n  swap1\n  tag_9\n  jump\t// in\ntag_8:\n  pop\n  swap1\n  jump\t// out\ntag_9:\ntag_10:\n  dup1\n  dup3\n  gt\n  iszero\n  tag_11\n  jumpi\n  0x00\n  dup2\n  0x00\n  swap1\n  sstore\n  pop\n  0x01\n  add\n  jump(tag_10)\ntag_11:\n  pop\n  swap1\n  jump\t// out\ntag_4:\n  dataSize(sub_0)\n  dup1\n  dataOffset(sub_0)\n  0x00\n  codecopy\n  0x00\n  return\nstop\n\nsub_0: assembly {\n        /* \"Loops.sol\":59:826  contract Loops {... */\n      mstore(0x40, 0x80)\n      callvalue\n      dup1\n      iszero\n      tag_1\n      jumpi\n      0x00\n      dup1\n      revert\n    tag_1:\n      pop\n      jumpi(tag_2, lt(calldatasize, 0x04))\n      shr(0xe0, calldataload(0x00))\n      dup1\n      0x449b4cf4\n      eq\n      tag_3\n      jumpi\n      dup1\n      0xa17d256a\n      eq\n      tag_4\n      jumpi\n      dup1\n      0xc080d8d0\n      eq\n      tag_5\n      jumpi\n      dup1\n      0xdf823901\n      eq\n      tag_6\n      jumpi\n      dup1\n      0xf722ff7e\n      eq\n      tag_7\n      jumpi\n    tag_2:\n      0x00\n      dup1\n      revert\n        /* \"Loops.sol\":438:597  function while_loop(uint256 _num) public returns (uint256) {... */\n    tag_3:\n      tag_8\n      0x04\n      dup1\n      calldatasize\n      sub\n      dup2\n      add\n      swap1\n      tag_9\n      swap2\n      swap1\n      tag_10\n      jump\t// in\n    tag_9:\n      tag_11\n      jump\t// in\n    tag_8:\n      mload(0x40)\n      tag_12\n      swap2\n      swap1\n      tag_13\n      jump\t// in\n    tag_12:\n      mload(0x40)\n      dup1\n      swap2\n      sub\n      swap1\n      return\n        /* \"Loops.sol\":408:431  uint256 public counter2 */\n    tag_4:\n      tag_14\n      tag_15\n      jump\t// in\n    tag_14:\n      mload(0x40)\n      tag_16\n      swap2\n      swap1\n      tag_13\n      jump\t// in\n    tag_16:\n      mload(0x40)\n      dup1\n      swap2\n      sub\n      swap1\n      return\n        /* \"Loops.sol\":154:383  function for_loop(int256 _num) public view returns (uint256) {... */\n    tag_5:\n      tag_17\n      0x04\n      dup1\n      calldatasize\n      sub\n      dup2\n      add\n      swap1\n      tag_18\n      swap2\n      swap1\n      tag_19\n      jump\t// in\n    tag_18:\n      tag_20\n      jump\t// in\n    tag_17:\n      mload(0x40)\n      tag_21\n      swap2\n      swap1\n      tag_13\n      jump\t// in\n    tag_21:\n      mload(0x40)\n      dup1\n      swap2\n      sub\n      swap1\n      return\n        /* \"Loops.sol\":655:822  function do_while_loop(uint256 _num) public returns (uint256) {... */\n    tag_6:\n      tag_22\n      0x04\n      dup1\n      calldatasize\n      sub\n      dup2\n      add\n      swap1\n      tag_23\n      swap2\n      swap1\n      tag_10\n      jump\t// in\n    tag_23:\n      tag_24\n      jump\t// in\n    tag_22:\n      mload(0x40)\n      tag_25\n      swap2\n      swap1\n      tag_13\n      jump\t// in\n    tag_25:\n      mload(0x40)\n      dup1\n      swap2\n      sub\n      swap1\n      return\n        /* \"Loops.sol\":625:648  uint256 public counter3 */\n    tag_7:\n      tag_26\n      tag_27\n      jump\t// in\n    tag_26:\n      mload(0x40)\n      tag_28\n      swap2\n      swap1\n      tag_13\n      jump\t// in\n    tag_28:\n      mload(0x40)\n      dup1\n      swap2\n      sub\n      swap1\n      return\n        /* \"Loops.sol\":438:597  function while_loop(uint256 _num) public returns (uint256) {... */\n    tag_11:\n        /* \"Loops.sol\":488:495  uint256 */\n      0x00\n        /* \"Loops.sol\":507:566  while (counter2 < _num) {... */\n    tag_30:\n        /* \"Loops.sol\":525:529  _num */\n      dup2\n        /* \"Loops.sol\":514:522  counter2 */\n      sload(0x01)\n        /* \"Loops.sol\":514:529  counter2 < _num */\n      lt\n        /* \"Loops.sol\":507:566  while (counter2 < _num) {... */\n      iszero\n      tag_31\n      jumpi\n        /* \"Loops.sol\":545:553  counter2 */\n      0x01\n      0x00\n        /* \"Loops.sol\":545:555  counter2++ */\n      dup2\n      sload\n      dup1\n      swap3\n      swap2\n      swap1\n      tag_32\n      swap1\n      tag_33\n      jump\t// in\n    tag_32:\n      swap2\n      swap1\n      pop\n      sstore\n      pop\n        /* \"Loops.sol\":507:566  while (counter2 < _num) {... */\n      jump(tag_30)\n    tag_31:\n        /* \"Loops.sol\":582:590  counter2 */\n      sload(0x01)\n        /* \"Loops.sol\":575:590  return counter2 */\n      swap1\n      pop\n        /* \"Loops.sol\":438:597  function while_loop(uint256 _num) public returns (uint256) {... */\n      swap2\n      swap1\n      pop\n      jump\t// out\n        /* \"Loops.sol\":408:431  uint256 public counter2 */\n    tag_15:\n      sload(0x01)\n      dup2\n      jump\t// out\n        /* \"Loops.sol\":154:383  function for_loop(int256 _num) public view returns (uint256) {... */\n    tag_20:\n        /* \"Loops.sol\":206:213  uint256 */\n      0x00\n        /* \"Loops.sol\":230:239  uint256 i */\n      dup1\n        /* \"Loops.sol\":242:243  0 */\n      0x00\n        /* \"Loops.sol\":230:243  uint256 i = 0 */\n      swap1\n      pop\n        /* \"Loops.sol\":225:359  for (uint256 i = 0; i < numbers.length; i++) {... */\n    tag_35:\n        /* \"Loops.sol\":249:256  numbers */\n      0x00\n        /* \"Loops.sol\":249:263  numbers.length */\n      dup1\n      sload\n      swap1\n      pop\n        /* \"Loops.sol\":245:246  i */\n      dup2\n        /* \"Loops.sol\":245:263  i < numbers.length */\n      lt\n        /* \"Loops.sol\":225:359  for (uint256 i = 0; i < numbers.length; i++) {... */\n      iszero\n      tag_36\n      jumpi\n        /* \"Loops.sol\":302:306  _num */\n      dup3\n        /* \"Loops.sol\":288:295  numbers */\n      0x00\n        /* \"Loops.sol\":296:297  i */\n      dup3\n        /* \"Loops.sol\":288:298  numbers[i] */\n      dup2\n      sload\n      dup2\n      lt\n      tag_38\n      jumpi\n      tag_39\n      tag_40\n      jump\t// in\n    tag_39:\n    tag_38:\n      swap1\n      0x00\n      mstore\n      keccak256(0x00, 0x20)\n      add\n      sload\n        /* \"Loops.sol\":288:306  numbers[i] == _num */\n      sub\n        /* \"Loops.sol\":284:349  if (numbers[i] == _num) {... */\n      tag_42\n      jumpi\n        /* \"Loops.sol\":333:334  1 */\n      0x01\n        /* \"Loops.sol\":326:334  return 1 */\n      swap2\n      pop\n      pop\n      jump(tag_34)\n        /* \"Loops.sol\":284:349  if (numbers[i] == _num) {... */\n    tag_42:\n        /* \"Loops.sol\":265:268  i++ */\n      dup1\n      dup1\n      tag_43\n      swap1\n      tag_33\n      jump\t// in\n    tag_43:\n      swap2\n      pop\n      pop\n        /* \"Loops.sol\":225:359  for (uint256 i = 0; i < numbers.length; i++) {... */\n      jump(tag_35)\n    tag_36:\n      pop\n        /* \"Loops.sol\":375:376  0 */\n      0x00\n        /* \"Loops.sol\":368:376  return 0 */\n      swap1\n      pop\n        /* \"Loops.sol\":154:383  function for_loop(int256 _num) public view returns (uint256) {... */\n    tag_34:\n      swap2\n      swap1\n      pop\n      jump\t// out\n        /* \"Loops.sol\":655:822  function do_while_loop(uint256 _num) public returns (uint256) {... */\n    tag_24:\n        /* \"Loops.sol\":708:715  uint256 */\n      0x00\n        /* \"Loops.sol\":727:790  do {... */\n    tag_45:\n        /* \"Loops.sol\":744:752  counter3 */\n      0x02\n      0x00\n        /* \"Loops.sol\":744:754  counter3++ */\n      dup2\n      sload\n      dup1\n      swap3\n      swap2\n      swap1\n      tag_48\n      swap1\n      tag_33\n      jump\t// in\n    tag_48:\n      swap2\n      swap1\n      pop\n      sstore\n      pop\n        /* \"Loops.sol\":784:788  _num */\n      dup2\n        /* \"Loops.sol\":773:781  counter3 */\n      sload(0x02)\n        /* \"Loops.sol\":773:788  counter3 < _num */\n      lt\n        /* \"Loops.sol\":727:790  do {... */\n      tag_45\n      jumpi\n        /* \"Loops.sol\":807:815  counter3 */\n      sload(0x02)\n        /* \"Loops.sol\":800:815  return counter3 */\n      swap1\n      pop\n        /* \"Loops.sol\":655:822  function do_while_loop(uint256 _num) public returns (uint256) {... */\n      swap2\n      swap1\n      pop\n      jump\t// out\n        /* \"Loops.sol\":625:648  uint256 public counter3 */\n    tag_27:\n      sload(0x02)\n      dup2\n      jump\t// out\n        /* \"#utility.yul\":88:205   */\n    tag_50:\n        /* \"#utility.yul\":197:198   */\n      0x00\n        /* \"#utility.yul\":194:195   */\n      dup1\n        /* \"#utility.yul\":187:199   */\n      revert\n        /* \"#utility.yul\":334:411   */\n    tag_52:\n        /* \"#utility.yul\":371:378   */\n      0x00\n        /* \"#utility.yul\":400:405   */\n      dup2\n        /* \"#utility.yul\":389:405   */\n      swap1\n      pop\n        /* \"#utility.yul\":334:411   */\n      swap2\n      swap1\n      pop\n      jump\t// out\n        /* \"#utility.yul\":417:539   */\n    tag_53:\n        /* \"#utility.yul\":490:514   */\n      tag_66\n        /* \"#utility.yul\":508:513   */\n      dup2\n        /* \"#utility.yul\":490:514   */\n      tag_52\n      jump\t// in\n    tag_66:\n        /* \"#utility.yul\":483:488   */\n      dup2\n        /* \"#utility.yul\":480:515   */\n      eq\n        /* \"#utility.yul\":470:533   */\n      tag_67\n      jumpi\n        /* \"#utility.yul\":529:530   */\n      0x00\n        /* \"#utility.yul\":526:527   */\n      dup1\n        /* \"#utility.yul\":519:531   */\n      revert\n        /* \"#utility.yul\":470:533   */\n    tag_67:\n        /* \"#utility.yul\":417:539   */\n      pop\n      jump\t// out\n        /* \"#utility.yul\":545:684   */\n    tag_54:\n        /* \"#utility.yul\":591:596   */\n      0x00\n        /* \"#utility.yul\":629:635   */\n      dup2\n        /* \"#utility.yul\":616:636   */\n      calldataload\n        /* \"#utility.yul\":607:636   */\n      swap1\n      pop\n        /* \"#utility.yul\":645:678   */\n      tag_69\n        /* \"#utility.yul\":672:677   */\n      dup2\n        /* \"#utility.yul\":645:678   */\n      tag_53\n      jump\t// in\n    tag_69:\n        /* \"#utility.yul\":545:684   */\n      swap3\n      swap2\n      pop\n      pop\n      jump\t// out\n        /* \"#utility.yul\":690:1019   */\n    tag_10:\n        /* \"#utility.yul\":749:755   */\n      0x00\n        /* \"#utility.yul\":798:800   */\n      0x20\n        /* \"#utility.yul\":786:795   */\n      dup3\n        /* \"#utility.yul\":777:784   */\n      dup5\n        /* \"#utility.yul\":773:796   */\n      sub\n        /* \"#utility.yul\":769:801   */\n      slt\n        /* \"#utility.yul\":766:885   */\n      iszero\n      tag_71\n      jumpi\n        /* \"#utility.yul\":804:883   */\n      tag_72\n      tag_50\n      jump\t// in\n    tag_72:\n        /* \"#utility.yul\":766:885   */\n    tag_71:\n        /* \"#utility.yul\":924:925   */\n      0x00\n        /* \"#utility.yul\":949:1002   */\n      tag_73\n        /* \"#utility.yul\":994:1001   */\n      dup5\n        /* \"#utility.yul\":985:991   */\n      dup3\n        /* \"#utility.yul\":974:983   */\n      dup6\n        /* \"#utility.yul\":970:992   */\n      add\n        /* \"#utility.yul\":949:1002   */\n      tag_54\n      jump\t// in\n    tag_73:\n        /* \"#utility.yul\":939:1002   */\n      swap2\n      pop\n        /* \"#utility.yul\":895:1012   */\n      pop\n        /* \"#utility.yul\":690:1019   */\n      swap3\n      swap2\n      pop\n      pop\n      jump\t// out\n        /* \"#utility.yul\":1025:1143   */\n    tag_55:\n        /* \"#utility.yul\":1112:1136   */\n      tag_75\n        /* \"#utility.yul\":1130:1135   */\n      dup2\n        /* \"#utility.yul\":1112:1136   */\n      tag_52\n      jump\t// in\n    tag_75:\n        /* \"#utility.yul\":1107:1110   */\n      dup3\n        /* \"#utility.yul\":1100:1137   */\n      mstore\n        /* \"#utility.yul\":1025:1143   */\n      pop\n      pop\n      jump\t// out\n        /* \"#utility.yul\":1149:1371   */\n    tag_13:\n        /* \"#utility.yul\":1242:1246   */\n      0x00\n        /* \"#utility.yul\":1280:1282   */\n      0x20\n        /* \"#utility.yul\":1269:1278   */\n      dup3\n        /* \"#utility.yul\":1265:1283   */\n      add\n        /* \"#utility.yul\":1257:1283   */\n      swap1\n      pop\n        /* \"#utility.yul\":1293:1364   */\n      tag_77\n        /* \"#utility.yul\":1361:1362   */\n      0x00\n        /* \"#utility.yul\":1350:1359   */\n      dup4\n        /* \"#utility.yul\":1346:1363   */\n      add\n        /* \"#utility.yul\":1337:1343   */\n      dup5\n        /* \"#utility.yul\":1293:1364   */\n      tag_55\n      jump\t// in\n    tag_77:\n        /* \"#utility.yul\":1149:1371   */\n      swap3\n      swap2\n      pop\n      pop\n      jump\t// out\n        /* \"#utility.yul\":1377:1453   */\n    tag_56:\n        /* \"#utility.yul\":1413:1420   */\n      0x00\n        /* \"#utility.yul\":1442:1447   */\n      dup2\n        /* \"#utility.yul\":1431:1447   */\n      swap1\n      pop\n        /* \"#utility.yul\":1377:1453   */\n      swap2\n      swap1\n      pop\n      jump\t// out\n        /* \"#utility.yul\":1459:1579   */\n    tag_57:\n        /* \"#utility.yul\":1531:1554   */\n      tag_80\n        /* \"#utility.yul\":1548:1553   */\n      dup2\n        /* \"#utility.yul\":1531:1554   */\n      tag_56\n      jump\t// in\n    tag_80:\n        /* \"#utility.yul\":1524:1529   */\n      dup2\n        /* \"#utility.yul\":1521:1555   */\n      eq\n        /* \"#utility.yul\":1511:1573   */\n      tag_81\n      jumpi\n        /* \"#utility.yul\":1569:1570   */\n      0x00\n        /* \"#utility.yul\":1566:1567   */\n      dup1\n        /* \"#utility.yul\":1559:1571   */\n      revert\n        /* \"#utility.yul\":1511:1573   */\n    tag_81:\n        /* \"#utility.yul\":1459:1579   */\n      pop\n      jump\t// out\n        /* \"#utility.yul\":1585:1722   */\n    tag_58:\n        /* \"#utility.yul\":1630:1635   */\n      0x00\n        /* \"#utility.yul\":1668:1674   */\n      dup2\n        /* \"#utility.yul\":1655:1675   */\n      calldataload\n        /* \"#utility.yul\":1646:1675   */\n      swap1\n      pop\n        /* \"#utility.yul\":1684:1716   */\n      tag_83\n        /* \"#utility.yul\":1710:1715   */\n      dup2\n        /* \"#utility.yul\":1684:1716   */\n      tag_57\n      jump\t// in\n    tag_83:\n        /* \"#utility.yul\":1585:1722   */\n      swap3\n      swap2\n      pop\n      pop\n      jump\t// out\n        /* \"#utility.yul\":1728:2055   */\n    tag_19:\n        /* \"#utility.yul\":1786:1792   */\n      0x00\n        /* \"#utility.yul\":1835:1837   */\n      0x20\n        /* \"#utility.yul\":1823:1832   */\n      dup3\n        /* \"#utility.yul\":1814:1821   */\n      dup5\n        /* \"#utility.yul\":1810:1833   */\n      sub\n        /* \"#utility.yul\":1806:1838   */\n      slt\n        /* \"#utility.yul\":1803:1922   */\n      iszero\n      tag_85\n      jumpi\n        /* \"#utility.yul\":1841:1920   */\n      tag_86\n      tag_50\n      jump\t// in\n    tag_86:\n        /* \"#utility.yul\":1803:1922   */\n    tag_85:\n        /* \"#utility.yul\":1961:1962   */\n      0x00\n        /* \"#utility.yul\":1986:2038   */\n      tag_87\n        /* \"#utility.yul\":2030:2037   */\n      dup5\n        /* \"#utility.yul\":2021:2027   */\n      dup3\n        /* \"#utility.yul\":2010:2019   */\n      dup6\n        /* \"#utility.yul\":2006:2028   */\n      add\n        /* \"#utility.yul\":1986:2038   */\n      tag_58\n      jump\t// in\n    tag_87:\n        /* \"#utility.yul\":1976:2038   */\n      swap2\n      pop\n        /* \"#utility.yul\":1932:2048   */\n      pop\n        /* \"#utility.yul\":1728:2055   */\n      swap3\n      swap2\n      pop\n      pop\n      jump\t// out\n        /* \"#utility.yul\":2061:2241   */\n    tag_59:\n        /* \"#utility.yul\":2109:2186   */\n      0x4e487b7100000000000000000000000000000000000000000000000000000000\n        /* \"#utility.yul\":2106:2107   */\n      0x00\n        /* \"#utility.yul\":2099:2187   */\n      mstore\n        /* \"#utility.yul\":2206:2210   */\n      0x11\n        /* \"#utility.yul\":2203:2204   */\n      0x04\n        /* \"#utility.yul\":2196:2211   */\n      mstore\n        /* \"#utility.yul\":2230:2234   */\n      0x24\n        /* \"#utility.yul\":2227:2228   */\n      0x00\n        /* \"#utility.yul\":2220:2235   */\n      revert\n        /* \"#utility.yul\":2247:2480   */\n    tag_33:\n        /* \"#utility.yul\":2286:2289   */\n      0x00\n        /* \"#utility.yul\":2309:2333   */\n      tag_90\n        /* \"#utility.yul\":2327:2332   */\n      dup3\n        /* \"#utility.yul\":2309:2333   */\n      tag_52\n      jump\t// in\n    tag_90:\n        /* \"#utility.yul\":2300:2333   */\n      swap2\n      pop\n        /* \"#utility.yul\":2355:2421   */\n      0xffffffffffffffffffffffffffffffffffffffffffffffffffffffffffffffff\n        /* \"#utility.yul\":2348:2353   */\n      dup3\n        /* \"#utility.yul\":2345:2422   */\n      sub\n        /* \"#utility.yul\":2342:2445   */\n      tag_91\n      jumpi\n        /* \"#utility.yul\":2425:2443   */\n      tag_92\n      tag_59\n      jump\t// in\n    tag_92:\n        /* \"#utility.yul\":2342:2445   */\n    tag_91:\n        /* \"#utility.yul\":2472:2473   */\n      0x01\n        /* \"#utility.yul\":2465:2470   */\n      dup3\n        /* \"#utility.yul\":2461:2474   */\n      add\n        /* \"#utility.yul\":2454:2474   */\n      swap1\n      pop\n        /* \"#utility.yul\":2247:2480   */\n      swap2\n      swap1\n      pop\n      jump\t// out\n        /* \"#utility.yul\":2486:2666   */\n    tag_40:\n        /* \"#utility.yul\":2534:2611   */\n      0x4e487b7100000000000000000000000000000000000000000000000000000000\n        /* \"#utility.yul\":2531:2532   */\n      0x00\n        /* \"#utility.yul\":2524:2612   */\n      mstore\n        /* \"#utility.yul\":2631:2635   */\n      0x32\n        /* \"#utility.yul\":2628:2629   */\n      0x04\n        /* \"#utility.yul\":2621:2636   */\n      mstore\n        /* \"#utility.yul\":2655:2659   */\n      0x24\n        /* \"#utility.yul\":2652:2653   */\n      0x00\n        /* \"#utility.yul\":2645:2660   */\n      revert\n\n    auxdata: 0xa2646970667358221220128432bfe3751a22dbc88e5b78d38908d52caa923239a5f7358907329dfd786364736f6c63430008120033\n}\n",
				"bytecode": {
					"linkReferences": {},
					"object": "60806040526040518061012001604052807fffffffffffffffffffffffffffffffffffffffffffffffffffffffffffffffff60000b8152602001600360000b8152602001600660000b8152602001600560000b8152602001601760000b8152602001604060000b8152602001601f60000b8152602001600960000b8152602001605760000b81525060009060096100979291906100aa565b503480156100a457600080fd5b50610119565b8280548282559060005260206000209081019282156100eb579160200282015b828111156100ea578251829060000b9055916020019190600101906100ca565b5b5090506100f891906100fc565b5090565b5b808211156101155760008160009055506001016100fd565b5090565b6103c9806101286000396000f3fe608060405234801561001057600080fd5b50600436106100575760003560e01c8063449b4cf41461005c578063a17d256a1461008c578063c080d8d0146100aa578063df823901146100da578063f722ff7e1461010a575b600080fd5b61007660048036038101906100719190610233565b610128565b604051610083919061026f565b60405180910390f35b61009461015c565b6040516100a1919061026f565b60405180910390f35b6100c460048036038101906100bf91906102c0565b610162565b6040516100d1919061026f565b60405180910390f35b6100f460048036038101906100ef9190610233565b6101c4565b604051610101919061026f565b60405180910390f35b6101126101f2565b60405161011f919061026f565b60405180910390f35b60005b81600154101561015257600160008154809291906101489061031c565b919050555061012b565b6001549050919050565b60015481565b600080600090505b6000805490508110156101b957826000828154811061018c5761018b610364565b5b9060005260206000200154036101a65760019150506101bf565b80806101b19061031c565b91505061016a565b50600090505b919050565b60005b600260008154809291906101da9061031c565b919050555081600254106101c7576002549050919050565b60025481565b600080fd5b6000819050919050565b610210816101fd565b811461021b57600080fd5b50565b60008135905061022d81610207565b92915050565b600060208284031215610249576102486101f8565b5b60006102578482850161021e565b91505092915050565b610269816101fd565b82525050565b60006020820190506102846000830184610260565b92915050565b6000819050919050565b61029d8161028a565b81146102a857600080fd5b50565b6000813590506102ba81610294565b92915050565b6000602082840312156102d6576102d56101f8565b5b60006102e4848285016102ab565b91505092915050565b7f4e487b7100000000000000000000000000000000000000000000000000000000600052601160045260246000fd5b6000610327826101fd565b91507fffffffffffffffffffffffffffffffffffffffffffffffffffffffffffffffff8203610359576103586102ed565b5b600182019050919050565b7f4e487b7100000000000000000000000000000000000000000000000000000000600052603260045260246000fdfea2646970667358221220128432bfe3751a22dbc88e5b78d38908d52caa923239a5f7358907329dfd786364736f6c63430008120033",
					"opcodes": "PUSH1 0x80 PUSH1 0x40 MSTORE PUSH1 0x40 MLOAD DUP1 PUSH2 0x120 ADD PUSH1 0x40 MSTORE DUP1 PUSH32 0xFFFFFFFFFFFFFFFFFFFFFFFFFFFFFFFFFFFFFFFFFFFFFFFFFFFFFFFFFFFFFFFF PUSH1 0x0 SIGNEXTEND DUP2 MSTORE PUSH1 0x20 ADD PUSH1 0x3 PUSH1 0x0 SIGNEXTEND DUP2 MSTORE PUSH1 0x20 ADD PUSH1 0x6 PUSH1 0x0 SIGNEXTEND DUP2 MSTORE PUSH1 0x20 ADD PUSH1 0x5 PUSH1 0x0 SIGNEXTEND DUP2 MSTORE PUSH1 0x20 ADD PUSH1 0x17 PUSH1 0x0 SIGNEXTEND DUP2 MSTORE PUSH1 0x20 ADD PUSH1 0x40 PUSH1 0x0 SIGNEXTEND DUP2 MSTORE PUSH1 0x20 ADD PUSH1 0x1F PUSH1 0x0 SIGNEXTEND DUP2 MSTORE PUSH1 0x20 ADD PUSH1 0x9 PUSH1 0x0 SIGNEXTEND DUP2 MSTORE PUSH1 0x20 ADD PUSH1 0x57 PUSH1 0x0 SIGNEXTEND DUP2 MSTORE POP PUSH1 0x0 SWAP1 PUSH1 0x9 PUSH2 0x97 SWAP3 SWAP2 SWAP1 PUSH2 0xAA JUMP JUMPDEST POP CALLVALUE DUP1 ISZERO PUSH2 0xA4 JUMPI PUSH1 0x0 DUP1 REVERT JUMPDEST POP PUSH2 0x119 JUMP JUMPDEST DUP3 DUP1 SLOAD DUP3 DUP3 SSTORE SWAP1 PUSH1 0x0 MSTORE PUSH1 0x20 PUSH1 0x0 KECCAK256 SWAP1 DUP2 ADD SWAP3 DUP3 ISZERO PUSH2 0xEB JUMPI SWAP2 PUSH1 0x20 MUL DUP3 ADD JUMPDEST DUP3 DUP2 GT ISZERO PUSH2 0xEA JUMPI DUP3 MLOAD DUP3 SWAP1 PUSH1 0x0 SIGNEXTEND SWAP1 SSTORE SWAP2 PUSH1 0x20 ADD SWAP2 SWAP1 PUSH1 0x1 ADD SWAP1 PUSH2 0xCA JUMP JUMPDEST JUMPDEST POP SWAP1 POP PUSH2 0xF8 SWAP2 SWAP1 PUSH2 0xFC JUMP JUMPDEST POP SWAP1 JUMP JUMPDEST JUMPDEST DUP1 DUP3 GT ISZERO PUSH2 0x115 JUMPI PUSH1 0x0 DUP2 PUSH1 0x0 SWAP1 SSTORE POP PUSH1 0x1 ADD PUSH2 0xFD JUMP JUMPDEST POP SWAP1 JUMP JUMPDEST PUSH2 0x3C9 DUP1 PUSH2 0x128 PUSH1 0x0 CODECOPY PUSH1 0x0 RETURN INVALID PUSH1 0x80 PUSH1 0x40 MSTORE CALLVALUE DUP1 ISZERO PUSH2 0x10 JUMPI PUSH1 0x0 DUP1 REVERT JUMPDEST POP PUSH1 0x4 CALLDATASIZE LT PUSH2 0x57 JUMPI PUSH1 0x0 CALLDATALOAD PUSH1 0xE0 SHR DUP1 PUSH4 0x449B4CF4 EQ PUSH2 0x5C JUMPI DUP1 PUSH4 0xA17D256A EQ PUSH2 0x8C JUMPI DUP1 PUSH4 0xC080D8D0 EQ PUSH2 0xAA JUMPI DUP1 PUSH4 0xDF823901 EQ PUSH2 0xDA JUMPI DUP1 PUSH4 0xF722FF7E EQ PUSH2 0x10A JUMPI JUMPDEST PUSH1 0x0 DUP1 REVERT JUMPDEST PUSH2 0x76 PUSH1 0x4 DUP1 CALLDATASIZE SUB DUP2 ADD SWAP1 PUSH2 0x71 SWAP2 SWAP1 PUSH2 0x233 JUMP JUMPDEST PUSH2 0x128 JUMP JUMPDEST PUSH1 0x40 MLOAD PUSH2 0x83 SWAP2 SWAP1 PUSH2 0x26F JUMP JUMPDEST PUSH1 0x40 MLOAD DUP1 SWAP2 SUB SWAP1 RETURN JUMPDEST PUSH2 0x94 PUSH2 0x15C JUMP JUMPDEST PUSH1 0x40 MLOAD PUSH2 0xA1 SWAP2 SWAP1 PUSH2 0x26F JUMP JUMPDEST PUSH1 0x40 MLOAD DUP1 SWAP2 SUB SWAP1 RETURN JUMPDEST PUSH2 0xC4 PUSH1 0x4 DUP1 CALLDATASIZE SUB DUP2 ADD SWAP1 PUSH2 0xBF SWAP2 SWAP1 PUSH2 0x2C0 JUMP JUMPDEST PUSH2 0x162 JUMP JUMPDEST PUSH1 0x40 MLOAD PUSH2 0xD1 SWAP2 SWAP1 PUSH2 0x26F JUMP JUMPDEST PUSH1 0x40 MLOAD DUP1 SWAP2 SUB SWAP1 RETURN JUMPDEST PUSH2 0xF4 PUSH1 0x4 DUP1 CALLDATASIZE SUB DUP2 ADD SWAP1 PUSH2 0xEF SWAP2 SWAP1 PUSH2 0x233 JUMP JUMPDEST PUSH2 0x1C4 JUMP JUMPDEST PUSH1 0x40 MLOAD PUSH2 0x101 SWAP2 SWAP1 PUSH2 0x26F JUMP JUMPDEST PUSH1 0x40 MLOAD DUP1 SWAP2 SUB SWAP1 RETURN JUMPDEST PUSH2 0x112 PUSH2 0x1F2 JUMP JUMPDEST PUSH1 0x40 MLOAD PUSH2 0x11F SWAP2 SWAP1 PUSH2 0x26F JUMP JUMPDEST PUSH1 0x40 MLOAD DUP1 SWAP2 SUB SWAP1 RETURN JUMPDEST PUSH1 0x0 JUMPDEST DUP2 PUSH1 0x1 SLOAD LT ISZERO PUSH2 0x152 JUMPI PUSH1 0x1 PUSH1 0x0 DUP2 SLOAD DUP1 SWAP3 SWAP2 SWAP1 PUSH2 0x148 SWAP1 PUSH2 0x31C JUMP JUMPDEST SWAP2 SWAP1 POP SSTORE POP PUSH2 0x12B JUMP JUMPDEST PUSH1 0x1 SLOAD SWAP1 POP SWAP2 SWAP1 POP JUMP JUMPDEST PUSH1 0x1 SLOAD DUP2 JUMP JUMPDEST PUSH1 0x0 DUP1 PUSH1 0x0 SWAP1 POP JUMPDEST PUSH1 0x0 DUP1 SLOAD SWAP1 POP DUP2 LT ISZERO PUSH2 0x1B9 JUMPI DUP3 PUSH1 0x0 DUP3 DUP2 SLOAD DUP2 LT PUSH2 0x18C JUMPI PUSH2 0x18B PUSH2 0x364 JUMP JUMPDEST JUMPDEST SWAP1 PUSH1 0x0 MSTORE PUSH1 0x20 PUSH1 0x0 KECCAK256 ADD SLOAD SUB PUSH2 0x1A6 JUMPI PUSH1 0x1 SWAP2 POP POP PUSH2 0x1BF JUMP JUMPDEST DUP1 DUP1 PUSH2 0x1B1 SWAP1 PUSH2 0x31C JUMP JUMPDEST SWAP2 POP POP PUSH2 0x16A JUMP JUMPDEST POP PUSH1 0x0 SWAP1 POP JUMPDEST SWAP2 SWAP1 POP JUMP JUMPDEST PUSH1 0x0 JUMPDEST PUSH1 0x2 PUSH1 0x0 DUP2 SLOAD DUP1 SWAP3 SWAP2 SWAP1 PUSH2 0x1DA SWAP1 PUSH2 0x31C JUMP JUMPDEST SWAP2 SWAP1 POP SSTORE POP DUP2 PUSH1 0x2 SLOAD LT PUSH2 0x1C7 JUMPI PUSH1 0x2 SLOAD SWAP1 POP SWAP2 SWAP1 POP JUMP JUMPDEST PUSH1 0x2 SLOAD DUP2 JUMP JUMPDEST PUSH1 0x0 DUP1 REVERT JUMPDEST PUSH1 0x0 DUP2 SWAP1 POP SWAP2 SWAP1 POP JUMP JUMPDEST PUSH2 0x210 DUP2 PUSH2 0x1FD JUMP JUMPDEST DUP2 EQ PUSH2 0x21B JUMPI PUSH1 0x0 DUP1 REVERT JUMPDEST POP JUMP JUMPDEST PUSH1 0x0 DUP2 CALLDATALOAD SWAP1 POP PUSH2 0x22D DUP2 PUSH2 0x207 JUMP JUMPDEST SWAP3 SWAP2 POP POP JUMP JUMPDEST PUSH1 0x0 PUSH1 0x20 DUP3 DUP5 SUB SLT ISZERO PUSH2 0x249 JUMPI PUSH2 0x248 PUSH2 0x1F8 JUMP JUMPDEST JUMPDEST PUSH1 0x0 PUSH2 0x257 DUP5 DUP3 DUP6 ADD PUSH2 0x21E JUMP JUMPDEST SWAP2 POP POP SWAP3 SWAP2 POP POP JUMP JUMPDEST PUSH2 0x269 DUP2 PUSH2 0x1FD JUMP JUMPDEST DUP3 MSTORE POP POP JUMP JUMPDEST PUSH1 0x0 PUSH1 0x20 DUP3 ADD SWAP1 POP PUSH2 0x284 PUSH1 0x0 DUP4 ADD DUP5 PUSH2 0x260 JUMP JUMPDEST SWAP3 SWAP2 POP POP JUMP JUMPDEST PUSH1 0x0 DUP2 SWAP1 POP SWAP2 SWAP1 POP JUMP JUMPDEST PUSH2 0x29D DUP2 PUSH2 0x28A JUMP JUMPDEST DUP2 EQ PUSH2 0x2A8 JUMPI PUSH1 0x0 DUP1 REVERT JUMPDEST POP JUMP JUMPDEST PUSH1 0x0 DUP2 CALLDATALOAD SWAP1 POP PUSH2 0x2BA DUP2 PUSH2 0x294 JUMP JUMPDEST SWAP3 SWAP2 POP POP JUMP JUMPDEST PUSH1 0x0 PUSH1 0x20 DUP3 DUP5 SUB SLT ISZERO PUSH2 0x2D6 JUMPI PUSH2 0x2D5 PUSH2 0x1F8 JUMP JUMPDEST JUMPDEST PUSH1 0x0 PUSH2 0x2E4 DUP5 DUP3 DUP6 ADD PUSH2 0x2AB JUMP JUMPDEST SWAP2 POP POP SWAP3 SWAP2 POP POP JUMP JUMPDEST PUSH32 0x4E487B7100000000000000000000000000000000000000000000000000000000 PUSH1 0x0 MSTORE PUSH1 0x11 PUSH1 0x4 MSTORE PUSH1 0x24 PUSH1 0x0 REVERT JUMPDEST PUSH1 0x0 PUSH2 0x327 DUP3 PUSH2 0x1FD JUMP JUMPDEST SWAP2 POP PUSH32 0xFFFFFFFFFFFFFFFFFFFFFFFFFFFFFFFFFFFFFFFFFFFFFFFFFFFFFFFFFFFFFFFF DUP3 SUB PUSH2 0x359 JUMPI PUSH2 0x358 PUSH2 0x2ED JUMP JUMPDEST JUMPDEST PUSH1 0x1 DUP3 ADD SWAP1 POP SWAP2 SWAP1 POP JUMP JUMPDEST PUSH32 0x4E487B7100000000000000000000000000000000000000000000000000000000 PUSH1 0x0 MSTORE PUSH1 0x32 PUSH1 0x4 MSTORE PUSH1 0x24 PUSH1 0x0 REVERT INVALID LOG2 PUSH5 0x6970667358 0x22 SLT KECCAK256 SLT DUP5 ORIGIN 0xBF 0xE3 PUSH22 0x1A22DBC88E5B78D38908D52CAA923239A5F735890732 SWAP14 REVERT PUSH25 0x6364736F6C6343000812003300000000000000000000000000 "
				},
				"gasEstimates": {
					"creation": {
						"codeDepositCost": "193800",
						"executionCost": "infinite",
						"totalCost": "infinite"
					},
					"external": {
						"counter2()": "2429",
						"counter3()": "2495",
						"do_while_loop(uint256)": "infinite",
						"for_loop(int256)": "infinite",
						"while_loop(uint256)": "infinite"
					}
				},
				"methodIdentifiers": {
					"counter2()": "a17d256a",
					"counter3()": "f722ff7e",
					"do_while_loop(uint256)": "df823901",
					"for_loop(int256)": "c080d8d0",
					"while_loop(uint256)": "449b4cf4"
				}
			},
			"storageLayout": {
				"storage": [
					{
						"astId": 15,
						"contract": "Loops.sol:Loops",
						"label": "numbers",
						"offset": 0,
						"slot": "0",
						"type": "t_array(t_int256)dyn_storage"
					},
					{
						"astId": 49,
						"contract": "Loops.sol:Loops",
						"label": "counter2",
						"offset": 0,
						"slot": "1",
						"type": "t_uint256"
					},
					{
						"astId": 69,
						"contract": "Loops.sol:Loops",
						"label": "counter3",
						"offset": 0,
						"slot": "2",
						"type": "t_uint256"
					}
				],
				"types": {
					"t_array(t_int256)dyn_storage": {
						"base": "t_int256",
						"encoding": "dynamic_array",
						"label": "int256[]",
						"numberOfBytes": "32"
					},
					"t_int256": {
						"encoding": "inplace",
						"label": "int256",
						"numberOfBytes": "32"
					},
					"t_uint256": {
						"encoding": "inplace",
						"label": "uint256",
						"numberOfBytes": "32"
					}
				}
			},
			"userdoc": {
				"kind": "user",
				"methods": {},
				"version": 1
			}
		}
	}
}