{
	"Functions.sol": {
		"Functions": {
			"abi": [
				{
					"inputs": [
						{
							"internalType": "uint256",
							"name": "_num1",
							"type": "uint256"
						},
						{
							"internalType": "uint256",
							"name": "_num2",
							"type": "uint256"
						}
					],
					"name": "add",
					"outputs": [
						{
							"internalType": "uint256",
							"name": "",
							"type": "uint256"
						}
					],
					"stateMutability": "pure",
					"type": "function"
				},
				{
					"inputs": [
						{
							"internalType": "uint256",
							"name": "_num",
							"type": "uint256"
						}
					],
					"name": "change",
					"outputs": [],
					"stateMutability": "nonpayable",
					"type": "function"
				},
				{
					"inputs": [
						{
							"internalType": "string",
							"name": "_name",
							"type": "string"
						}
					],
					"name": "changeName",
					"outputs": [],
					"stateMutability": "nonpayable",
					"type": "function"
				},
				{
					"inputs": [
						{
							"internalType": "address",
							"name": "_address",
							"type": "address"
						}
					],
					"name": "changeOwner",
					"outputs": [],
					"stateMutability": "nonpayable",
					"type": "function"
				},
				{
					"inputs": [],
					"name": "count",
					"outputs": [
						{
							"internalType": "uint256",
							"name": "",
							"type": "uint256"
						}
					],
					"stateMutability": "view",
					"type": "function"
				},
				{
					"inputs": [],
					"name": "decrement",
					"outputs": [],
					"stateMutability": "nonpayable",
					"type": "function"
				},
				{
					"inputs": [],
					"name": "getCount",
					"outputs": [
						{
							"internalType": "uint256",
							"name": "",
							"type": "uint256"
						}
					],
					"stateMutability": "view",
					"type": "function"
				},
				{
					"inputs": [],
					"name": "increment",
					"outputs": [],
					"stateMutability": "nonpayable",
					"type": "function"
				},
				{
					"inputs": [],
					"name": "name",
					"outputs": [
						{
							"internalType": "string",
							"name": "",
							"type": "string"
						}
					],
					"stateMutability": "view",
					"type": "function"
				},
				{
					"inputs": [],
					"name": "owner",
					"outputs": [
						{
							"internalType": "address",
							"name": "",
							"type": "address"
						}
					],
					"stateMutability": "view",
					"type": "function"
				}
			],
			"devdoc": {
				"kind": "dev",
				"methods": {},
				"version": 1
			},
			"evm": {
				"assembly": "    /* \"Functions.sol\":63:815  contract Functions {... */\n  mstore(0x40, 0x80)\n    /* \"Functions.sol\":111:112  0 */\n  0x00\n    /* \"Functions.sol\":91:112  uint public count = 0 */\n  dup1\n  sstore\n    /* \"Functions.sol\":119:147  string public name = \"Vikas\" */\n  mload(0x40)\n  dup1\n  0x40\n  add\n  0x40\n  mstore\n  dup1\n  0x05\n  dup2\n  mstore\n  0x20\n  add\n  0x56696b6173000000000000000000000000000000000000000000000000000000\n  dup2\n  mstore\n  pop\n  0x01\n  swap1\n  dup2\n  tag_1\n  swap2\n  swap1\n  tag_2\n  jump\t// in\ntag_1:\n  pop\n    /* \"Functions.sol\":177:219  0x5B38Da6a701c568545dCfcB03FcB875f56beddC4 */\n  0x5b38da6a701c568545dcfcb03fcb875f56beddc4\n    /* \"Functions.sol\":154:219  address public owner = 0x5B38Da6a701c568545dCfcB03FcB875f56beddC4 */\n  0x02\n  exp(0x0100, 0x00)\n  dup2\n  sload\n  dup2\n  0xffffffffffffffffffffffffffffffffffffffff\n  mul\n  not\n  and\n  swap1\n  dup4\n  0xffffffffffffffffffffffffffffffffffffffff\n  and\n  mul\n  or\n  swap1\n  sstore\n  pop\n    /* \"Functions.sol\":63:815  contract Functions {... */\n  callvalue\n  dup1\n  iszero\n  tag_3\n  jumpi\n  0x00\n  dup1\n  revert\ntag_3:\n  pop\n  jump(tag_4)\n    /* \"#utility.yul\":7:106   */\ntag_5:\n    /* \"#utility.yul\":59:65   */\n  0x00\n    /* \"#utility.yul\":93:98   */\n  dup2\n    /* \"#utility.yul\":87:99   */\n  mload\n    /* \"#utility.yul\":77:99   */\n  swap1\n  pop\n    /* \"#utility.yul\":7:106   */\n  swap2\n  swap1\n  pop\n  jump\t// out\n    /* \"#utility.yul\":112:292   */\ntag_6:\n    /* \"#utility.yul\":160:237   */\n  0x4e487b7100000000000000000000000000000000000000000000000000000000\n    /* \"#utility.yul\":157:158   */\n  0x00\n    /* \"#utility.yul\":150:238   */\n  mstore\n    /* \"#utility.yul\":257:261   */\n  0x41\n    /* \"#utility.yul\":254:255   */\n  0x04\n    /* \"#utility.yul\":247:262   */\n  mstore\n    /* \"#utility.yul\":281:285   */\n  0x24\n    /* \"#utility.yul\":278:279   */\n  0x00\n    /* \"#utility.yul\":271:286   */\n  revert\n    /* \"#utility.yul\":298:478   */\ntag_7:\n    /* \"#utility.yul\":346:423   */\n  0x4e487b7100000000000000000000000000000000000000000000000000000000\n    /* \"#utility.yul\":343:344   */\n  0x00\n    /* \"#utility.yul\":336:424   */\n  mstore\n    /* \"#utility.yul\":443:447   */\n  0x22\n    /* \"#utility.yul\":440:441   */\n  0x04\n    /* \"#utility.yul\":433:448   */\n  mstore\n    /* \"#utility.yul\":467:471   */\n  0x24\n    /* \"#utility.yul\":464:465   */\n  0x00\n    /* \"#utility.yul\":457:472   */\n  revert\n    /* \"#utility.yul\":484:804   */\ntag_8:\n    /* \"#utility.yul\":528:534   */\n  0x00\n    /* \"#utility.yul\":565:566   */\n  0x02\n    /* \"#utility.yul\":559:563   */\n  dup3\n    /* \"#utility.yul\":555:567   */\n  div\n    /* \"#utility.yul\":545:567   */\n  swap1\n  pop\n    /* \"#utility.yul\":612:613   */\n  0x01\n    /* \"#utility.yul\":606:610   */\n  dup3\n    /* \"#utility.yul\":602:614   */\n  and\n    /* \"#utility.yul\":633:651   */\n  dup1\n    /* \"#utility.yul\":623:704   */\n  tag_30\n  jumpi\n    /* \"#utility.yul\":689:693   */\n  0x7f\n    /* \"#utility.yul\":681:687   */\n  dup3\n    /* \"#utility.yul\":677:694   */\n  and\n    /* \"#utility.yul\":667:694   */\n  swap2\n  pop\n    /* \"#utility.yul\":623:704   */\ntag_30:\n    /* \"#utility.yul\":751:753   */\n  0x20\n    /* \"#utility.yul\":743:749   */\n  dup3\n    /* \"#utility.yul\":740:754   */\n  lt\n    /* \"#utility.yul\":720:738   */\n  dup2\n    /* \"#utility.yul\":717:755   */\n  sub\n    /* \"#utility.yul\":714:798   */\n  tag_31\n  jumpi\n    /* \"#utility.yul\":770:788   */\n  tag_32\n  tag_7\n  jump\t// in\ntag_32:\n    /* \"#utility.yul\":714:798   */\ntag_31:\n    /* \"#utility.yul\":535:804   */\n  pop\n    /* \"#utility.yul\":484:804   */\n  swap2\n  swap1\n  pop\n  jump\t// out\n    /* \"#utility.yul\":810:951   */\ntag_9:\n    /* \"#utility.yul\":859:863   */\n  0x00\n    /* \"#utility.yul\":882:885   */\n  dup2\n    /* \"#utility.yul\":874:885   */\n  swap1\n  pop\n    /* \"#utility.yul\":905:908   */\n  dup2\n    /* \"#utility.yul\":902:903   */\n  0x00\n    /* \"#utility.yul\":895:909   */\n  mstore\n    /* \"#utility.yul\":939:943   */\n  0x20\n    /* \"#utility.yul\":936:937   */\n  0x00\n    /* \"#utility.yul\":926:944   */\n  keccak256\n    /* \"#utility.yul\":918:944   */\n  swap1\n  pop\n    /* \"#utility.yul\":810:951   */\n  swap2\n  swap1\n  pop\n  jump\t// out\n    /* \"#utility.yul\":957:1050   */\ntag_10:\n    /* \"#utility.yul\":994:1000   */\n  0x00\n    /* \"#utility.yul\":1041:1043   */\n  0x20\n    /* \"#utility.yul\":1036:1038   */\n  0x1f\n    /* \"#utility.yul\":1029:1034   */\n  dup4\n    /* \"#utility.yul\":1025:1039   */\n  add\n    /* \"#utility.yul\":1021:1044   */\n  div\n    /* \"#utility.yul\":1011:1044   */\n  swap1\n  pop\n    /* \"#utility.yul\":957:1050   */\n  swap2\n  swap1\n  pop\n  jump\t// out\n    /* \"#utility.yul\":1056:1163   */\ntag_11:\n    /* \"#utility.yul\":1100:1108   */\n  0x00\n    /* \"#utility.yul\":1150:1155   */\n  dup3\n    /* \"#utility.yul\":1144:1148   */\n  dup3\n    /* \"#utility.yul\":1140:1156   */\n  shl\n    /* \"#utility.yul\":1119:1156   */\n  swap1\n  pop\n    /* \"#utility.yul\":1056:1163   */\n  swap3\n  swap2\n  pop\n  pop\n  jump\t// out\n    /* \"#utility.yul\":1169:1562   */\ntag_12:\n    /* \"#utility.yul\":1238:1244   */\n  0x00\n    /* \"#utility.yul\":1288:1289   */\n  0x08\n    /* \"#utility.yul\":1276:1286   */\n  dup4\n    /* \"#utility.yul\":1272:1290   */\n  mul\n    /* \"#utility.yul\":1311:1408   */\n  tag_37\n    /* \"#utility.yul\":1341:1407   */\n  0xffffffffffffffffffffffffffffffffffffffffffffffffffffffffffffffff\n    /* \"#utility.yul\":1330:1339   */\n  dup3\n    /* \"#utility.yul\":1311:1408   */\n  tag_11\n  jump\t// in\ntag_37:\n    /* \"#utility.yul\":1429:1468   */\n  tag_38\n    /* \"#utility.yul\":1459:1467   */\n  dup7\n    /* \"#utility.yul\":1448:1457   */\n  dup4\n    /* \"#utility.yul\":1429:1468   */\n  tag_11\n  jump\t// in\ntag_38:\n    /* \"#utility.yul\":1417:1468   */\n  swap6\n  pop\n    /* \"#utility.yul\":1501:1505   */\n  dup1\n    /* \"#utility.yul\":1497:1506   */\n  not\n    /* \"#utility.yul\":1490:1495   */\n  dup5\n    /* \"#utility.yul\":1486:1507   */\n  and\n    /* \"#utility.yul\":1477:1507   */\n  swap4\n  pop\n    /* \"#utility.yul\":1550:1554   */\n  dup1\n    /* \"#utility.yul\":1540:1548   */\n  dup7\n    /* \"#utility.yul\":1536:1555   */\n  and\n    /* \"#utility.yul\":1529:1534   */\n  dup5\n    /* \"#utility.yul\":1526:1556   */\n  or\n    /* \"#utility.yul\":1516:1556   */\n  swap3\n  pop\n    /* \"#utility.yul\":1245:1562   */\n  pop\n  pop\n    /* \"#utility.yul\":1169:1562   */\n  swap4\n  swap3\n  pop\n  pop\n  pop\n  jump\t// out\n    /* \"#utility.yul\":1568:1645   */\ntag_13:\n    /* \"#utility.yul\":1605:1612   */\n  0x00\n    /* \"#utility.yul\":1634:1639   */\n  dup2\n    /* \"#utility.yul\":1623:1639   */\n  swap1\n  pop\n    /* \"#utility.yul\":1568:1645   */\n  swap2\n  swap1\n  pop\n  jump\t// out\n    /* \"#utility.yul\":1651:1711   */\ntag_14:\n    /* \"#utility.yul\":1679:1682   */\n  0x00\n    /* \"#utility.yul\":1700:1705   */\n  dup2\n    /* \"#utility.yul\":1693:1705   */\n  swap1\n  pop\n    /* \"#utility.yul\":1651:1711   */\n  swap2\n  swap1\n  pop\n  jump\t// out\n    /* \"#utility.yul\":1717:1859   */\ntag_15:\n    /* \"#utility.yul\":1767:1776   */\n  0x00\n    /* \"#utility.yul\":1800:1853   */\n  tag_42\n    /* \"#utility.yul\":1818:1852   */\n  tag_43\n    /* \"#utility.yul\":1827:1851   */\n  tag_44\n    /* \"#utility.yul\":1845:1850   */\n  dup5\n    /* \"#utility.yul\":1827:1851   */\n  tag_13\n  jump\t// in\ntag_44:\n    /* \"#utility.yul\":1818:1852   */\n  tag_14\n  jump\t// in\ntag_43:\n    /* \"#utility.yul\":1800:1853   */\n  tag_13\n  jump\t// in\ntag_42:\n    /* \"#utility.yul\":1787:1853   */\n  swap1\n  pop\n    /* \"#utility.yul\":1717:1859   */\n  swap2\n  swap1\n  pop\n  jump\t// out\n    /* \"#utility.yul\":1865:1940   */\ntag_16:\n    /* \"#utility.yul\":1908:1911   */\n  0x00\n    /* \"#utility.yul\":1929:1934   */\n  dup2\n    /* \"#utility.yul\":1922:1934   */\n  swap1\n  pop\n    /* \"#utility.yul\":1865:1940   */\n  swap2\n  swap1\n  pop\n  jump\t// out\n    /* \"#utility.yul\":1946:2215   */\ntag_17:\n    /* \"#utility.yul\":2056:2095   */\n  tag_47\n    /* \"#utility.yul\":2087:2094   */\n  dup4\n    /* \"#utility.yul\":2056:2095   */\n  tag_15\n  jump\t// in\ntag_47:\n    /* \"#utility.yul\":2117:2208   */\n  tag_48\n    /* \"#utility.yul\":2166:2207   */\n  tag_49\n    /* \"#utility.yul\":2190:2206   */\n  dup3\n    /* \"#utility.yul\":2166:2207   */\n  tag_16\n  jump\t// in\ntag_49:\n    /* \"#utility.yul\":2158:2164   */\n  dup5\n    /* \"#utility.yul\":2151:2155   */\n  dup5\n    /* \"#utility.yul\":2145:2156   */\n  sload\n    /* \"#utility.yul\":2117:2208   */\n  tag_12\n  jump\t// in\ntag_48:\n    /* \"#utility.yul\":2111:2115   */\n  dup3\n    /* \"#utility.yul\":2104:2209   */\n  sstore\n    /* \"#utility.yul\":2022:2215   */\n  pop\n    /* \"#utility.yul\":1946:2215   */\n  pop\n  pop\n  pop\n  jump\t// out\n    /* \"#utility.yul\":2221:2294   */\ntag_18:\n    /* \"#utility.yul\":2266:2269   */\n  0x00\n    /* \"#utility.yul\":2221:2294   */\n  swap1\n  jump\t// out\n    /* \"#utility.yul\":2300:2489   */\ntag_19:\n    /* \"#utility.yul\":2377:2409   */\n  tag_52\n  tag_18\n  jump\t// in\ntag_52:\n    /* \"#utility.yul\":2418:2483   */\n  tag_53\n    /* \"#utility.yul\":2476:2482   */\n  dup2\n    /* \"#utility.yul\":2468:2474   */\n  dup5\n    /* \"#utility.yul\":2462:2466   */\n  dup5\n    /* \"#utility.yul\":2418:2483   */\n  tag_17\n  jump\t// in\ntag_53:\n    /* \"#utility.yul\":2353:2489   */\n  pop\n    /* \"#utility.yul\":2300:2489   */\n  pop\n  pop\n  jump\t// out\n    /* \"#utility.yul\":2495:2681   */\ntag_20:\n    /* \"#utility.yul\":2555:2675   */\ntag_55:\n    /* \"#utility.yul\":2572:2575   */\n  dup2\n    /* \"#utility.yul\":2565:2570   */\n  dup2\n    /* \"#utility.yul\":2562:2576   */\n  lt\n    /* \"#utility.yul\":2555:2675   */\n  iszero\n  tag_57\n  jumpi\n    /* \"#utility.yul\":2626:2665   */\n  tag_58\n    /* \"#utility.yul\":2663:2664   */\n  0x00\n    /* \"#utility.yul\":2656:2661   */\n  dup3\n    /* \"#utility.yul\":2626:2665   */\n  tag_19\n  jump\t// in\ntag_58:\n    /* \"#utility.yul\":2599:2600   */\n  0x01\n    /* \"#utility.yul\":2592:2597   */\n  dup2\n    /* \"#utility.yul\":2588:2601   */\n  add\n    /* \"#utility.yul\":2579:2601   */\n  swap1\n  pop\n    /* \"#utility.yul\":2555:2675   */\n  jump(tag_55)\ntag_57:\n    /* \"#utility.yul\":2495:2681   */\n  pop\n  pop\n  jump\t// out\n    /* \"#utility.yul\":2687:3230   */\ntag_21:\n    /* \"#utility.yul\":2788:2790   */\n  0x1f\n    /* \"#utility.yul\":2783:2786   */\n  dup3\n    /* \"#utility.yul\":2780:2791   */\n  gt\n    /* \"#utility.yul\":2777:3223   */\n  iszero\n  tag_60\n  jumpi\n    /* \"#utility.yul\":2822:2860   */\n  tag_61\n    /* \"#utility.yul\":2854:2859   */\n  dup2\n    /* \"#utility.yul\":2822:2860   */\n  tag_9\n  jump\t// in\ntag_61:\n    /* \"#utility.yul\":2906:2935   */\n  tag_62\n    /* \"#utility.yul\":2924:2934   */\n  dup5\n    /* \"#utility.yul\":2906:2935   */\n  tag_10\n  jump\t// in\ntag_62:\n    /* \"#utility.yul\":2896:2904   */\n  dup2\n    /* \"#utility.yul\":2892:2936   */\n  add\n    /* \"#utility.yul\":3089:3091   */\n  0x20\n    /* \"#utility.yul\":3077:3087   */\n  dup6\n    /* \"#utility.yul\":3074:3092   */\n  lt\n    /* \"#utility.yul\":3071:3120   */\n  iszero\n  tag_63\n  jumpi\n    /* \"#utility.yul\":3110:3118   */\n  dup2\n    /* \"#utility.yul\":3095:3118   */\n  swap1\n  pop\n    /* \"#utility.yul\":3071:3120   */\ntag_63:\n    /* \"#utility.yul\":3133:3213   */\n  tag_64\n    /* \"#utility.yul\":3189:3211   */\n  tag_65\n    /* \"#utility.yul\":3207:3210   */\n  dup6\n    /* \"#utility.yul\":3189:3211   */\n  tag_10\n  jump\t// in\ntag_65:\n    /* \"#utility.yul\":3179:3187   */\n  dup4\n    /* \"#utility.yul\":3175:3212   */\n  add\n    /* \"#utility.yul\":3162:3173   */\n  dup3\n    /* \"#utility.yul\":3133:3213   */\n  tag_20\n  jump\t// in\ntag_64:\n    /* \"#utility.yul\":2792:3223   */\n  pop\n  pop\n    /* \"#utility.yul\":2777:3223   */\ntag_60:\n    /* \"#utility.yul\":2687:3230   */\n  pop\n  pop\n  pop\n  jump\t// out\n    /* \"#utility.yul\":3236:3353   */\ntag_22:\n    /* \"#utility.yul\":3290:3298   */\n  0x00\n    /* \"#utility.yul\":3340:3345   */\n  dup3\n    /* \"#utility.yul\":3334:3338   */\n  dup3\n    /* \"#utility.yul\":3330:3346   */\n  shr\n    /* \"#utility.yul\":3309:3346   */\n  swap1\n  pop\n    /* \"#utility.yul\":3236:3353   */\n  swap3\n  swap2\n  pop\n  pop\n  jump\t// out\n    /* \"#utility.yul\":3359:3528   */\ntag_23:\n    /* \"#utility.yul\":3403:3409   */\n  0x00\n    /* \"#utility.yul\":3436:3487   */\n  tag_68\n    /* \"#utility.yul\":3484:3485   */\n  0x00\n    /* \"#utility.yul\":3480:3486   */\n  not\n    /* \"#utility.yul\":3472:3477   */\n  dup5\n    /* \"#utility.yul\":3469:3470   */\n  0x08\n    /* \"#utility.yul\":3465:3478   */\n  mul\n    /* \"#utility.yul\":3436:3487   */\n  tag_22\n  jump\t// in\ntag_68:\n    /* \"#utility.yul\":3432:3488   */\n  not\n    /* \"#utility.yul\":3517:3521   */\n  dup1\n    /* \"#utility.yul\":3511:3515   */\n  dup4\n    /* \"#utility.yul\":3507:3522   */\n  and\n    /* \"#utility.yul\":3497:3522   */\n  swap2\n  pop\n    /* \"#utility.yul\":3410:3528   */\n  pop\n    /* \"#utility.yul\":3359:3528   */\n  swap3\n  swap2\n  pop\n  pop\n  jump\t// out\n    /* \"#utility.yul\":3533:3828   */\ntag_24:\n    /* \"#utility.yul\":3609:3613   */\n  0x00\n    /* \"#utility.yul\":3755:3784   */\n  tag_70\n    /* \"#utility.yul\":3780:3783   */\n  dup4\n    /* \"#utility.yul\":3774:3778   */\n  dup4\n    /* \"#utility.yul\":3755:3784   */\n  tag_23\n  jump\t// in\ntag_70:\n    /* \"#utility.yul\":3747:3784   */\n  swap2\n  pop\n    /* \"#utility.yul\":3817:3820   */\n  dup3\n    /* \"#utility.yul\":3814:3815   */\n  0x02\n    /* \"#utility.yul\":3810:3821   */\n  mul\n    /* \"#utility.yul\":3804:3808   */\n  dup3\n    /* \"#utility.yul\":3801:3822   */\n  or\n    /* \"#utility.yul\":3793:3822   */\n  swap1\n  pop\n    /* \"#utility.yul\":3533:3828   */\n  swap3\n  swap2\n  pop\n  pop\n  jump\t// out\n    /* \"#utility.yul\":3833:5228   */\ntag_2:\n    /* \"#utility.yul\":3950:3987   */\n  tag_72\n    /* \"#utility.yul\":3983:3986   */\n  dup3\n    /* \"#utility.yul\":3950:3987   */\n  tag_5\n  jump\t// in\ntag_72:\n    /* \"#utility.yul\":4052:4070   */\n  0xffffffffffffffff\n    /* \"#utility.yul\":4044:4050   */\n  dup2\n    /* \"#utility.yul\":4041:4071   */\n  gt\n    /* \"#utility.yul\":4038:4094   */\n  iszero\n  tag_73\n  jumpi\n    /* \"#utility.yul\":4074:4092   */\n  tag_74\n  tag_6\n  jump\t// in\ntag_74:\n    /* \"#utility.yul\":4038:4094   */\ntag_73:\n    /* \"#utility.yul\":4118:4156   */\n  tag_75\n    /* \"#utility.yul\":4150:4154   */\n  dup3\n    /* \"#utility.yul\":4144:4155   */\n  sload\n    /* \"#utility.yul\":4118:4156   */\n  tag_8\n  jump\t// in\ntag_75:\n    /* \"#utility.yul\":4203:4270   */\n  tag_76\n    /* \"#utility.yul\":4263:4269   */\n  dup3\n    /* \"#utility.yul\":4255:4261   */\n  dup3\n    /* \"#utility.yul\":4249:4253   */\n  dup6\n    /* \"#utility.yul\":4203:4270   */\n  tag_21\n  jump\t// in\ntag_76:\n    /* \"#utility.yul\":4297:4298   */\n  0x00\n    /* \"#utility.yul\":4321:4325   */\n  0x20\n    /* \"#utility.yul\":4308:4325   */\n  swap1\n  pop\n    /* \"#utility.yul\":4353:4355   */\n  0x1f\n    /* \"#utility.yul\":4345:4351   */\n  dup4\n    /* \"#utility.yul\":4342:4356   */\n  gt\n    /* \"#utility.yul\":4370:4371   */\n  0x01\n    /* \"#utility.yul\":4365:4983   */\n  dup2\n  eq\n  tag_78\n  jumpi\n    /* \"#utility.yul\":5027:5028   */\n  0x00\n    /* \"#utility.yul\":5044:5050   */\n  dup5\n    /* \"#utility.yul\":5041:5118   */\n  iszero\n  tag_79\n  jumpi\n    /* \"#utility.yul\":5093:5102   */\n  dup3\n    /* \"#utility.yul\":5088:5091   */\n  dup8\n    /* \"#utility.yul\":5084:5103   */\n  add\n    /* \"#utility.yul\":5078:5104   */\n  mload\n    /* \"#utility.yul\":5069:5104   */\n  swap1\n  pop\n    /* \"#utility.yul\":5041:5118   */\ntag_79:\n    /* \"#utility.yul\":5144:5211   */\n  tag_80\n    /* \"#utility.yul\":5204:5210   */\n  dup6\n    /* \"#utility.yul\":5197:5202   */\n  dup3\n    /* \"#utility.yul\":5144:5211   */\n  tag_24\n  jump\t// in\ntag_80:\n    /* \"#utility.yul\":5138:5142   */\n  dup7\n    /* \"#utility.yul\":5131:5212   */\n  sstore\n    /* \"#utility.yul\":5000:5222   */\n  pop\n    /* \"#utility.yul\":4335:5222   */\n  jump(tag_77)\n    /* \"#utility.yul\":4365:4983   */\ntag_78:\n    /* \"#utility.yul\":4417:4421   */\n  0x1f\n    /* \"#utility.yul\":4413:4422   */\n  not\n    /* \"#utility.yul\":4405:4411   */\n  dup5\n    /* \"#utility.yul\":4401:4423   */\n  and\n    /* \"#utility.yul\":4451:4488   */\n  tag_81\n    /* \"#utility.yul\":4483:4487   */\n  dup7\n    /* \"#utility.yul\":4451:4488   */\n  tag_9\n  jump\t// in\ntag_81:\n    /* \"#utility.yul\":4510:4511   */\n  0x00\n    /* \"#utility.yul\":4524:4732   */\ntag_82:\n    /* \"#utility.yul\":4538:4545   */\n  dup3\n    /* \"#utility.yul\":4535:4536   */\n  dup2\n    /* \"#utility.yul\":4532:4546   */\n  lt\n    /* \"#utility.yul\":4524:4732   */\n  iszero\n  tag_84\n  jumpi\n    /* \"#utility.yul\":4617:4626   */\n  dup5\n    /* \"#utility.yul\":4612:4615   */\n  dup10\n    /* \"#utility.yul\":4608:4627   */\n  add\n    /* \"#utility.yul\":4602:4628   */\n  mload\n    /* \"#utility.yul\":4594:4600   */\n  dup3\n    /* \"#utility.yul\":4587:4629   */\n  sstore\n    /* \"#utility.yul\":4668:4669   */\n  0x01\n    /* \"#utility.yul\":4660:4666   */\n  dup3\n    /* \"#utility.yul\":4656:4670   */\n  add\n    /* \"#utility.yul\":4646:4670   */\n  swap2\n  pop\n    /* \"#utility.yul\":4715:4717   */\n  0x20\n    /* \"#utility.yul\":4704:4713   */\n  dup6\n    /* \"#utility.yul\":4700:4718   */\n  add\n    /* \"#utility.yul\":4687:4718   */\n  swap5\n  pop\n    /* \"#utility.yul\":4561:4565   */\n  0x20\n    /* \"#utility.yul\":4558:4559   */\n  dup2\n    /* \"#utility.yul\":4554:4566   */\n  add\n    /* \"#utility.yul\":4549:4566   */\n  swap1\n  pop\n    /* \"#utility.yul\":4524:4732   */\n  jump(tag_82)\ntag_84:\n    /* \"#utility.yul\":4760:4766   */\n  dup7\n    /* \"#utility.yul\":4751:4758   */\n  dup4\n    /* \"#utility.yul\":4748:4767   */\n  lt\n    /* \"#utility.yul\":4745:4924   */\n  iszero\n  tag_85\n  jumpi\n    /* \"#utility.yul\":4818:4827   */\n  dup5\n    /* \"#utility.yul\":4813:4816   */\n  dup10\n    /* \"#utility.yul\":4809:4828   */\n  add\n    /* \"#utility.yul\":4803:4829   */\n  mload\n    /* \"#utility.yul\":4861:4909   */\n  tag_86\n    /* \"#utility.yul\":4903:4907   */\n  0x1f\n    /* \"#utility.yul\":4895:4901   */\n  dup10\n    /* \"#utility.yul\":4891:4908   */\n  and\n    /* \"#utility.yul\":4880:4889   */\n  dup3\n    /* \"#utility.yul\":4861:4909   */\n  tag_23\n  jump\t// in\ntag_86:\n    /* \"#utility.yul\":4853:4859   */\n  dup4\n    /* \"#utility.yul\":4846:4910   */\n  sstore\n    /* \"#utility.yul\":4768:4924   */\n  pop\n    /* \"#utility.yul\":4745:4924   */\ntag_85:\n    /* \"#utility.yul\":4970:4971   */\n  0x01\n    /* \"#utility.yul\":4966:4967   */\n  0x02\n    /* \"#utility.yul\":4958:4964   */\n  dup9\n    /* \"#utility.yul\":4954:4968   */\n  mul\n    /* \"#utility.yul\":4950:4972   */\n  add\n    /* \"#utility.yul\":4944:4948   */\n  dup9\n    /* \"#utility.yul\":4937:4973   */\n  sstore\n    /* \"#utility.yul\":4372:4983   */\n  pop\n  pop\n  pop\n    /* \"#utility.yul\":4335:5222   */\ntag_77:\n  pop\n    /* \"#utility.yul\":3925:5228   */\n  pop\n  pop\n  pop\n    /* \"#utility.yul\":3833:5228   */\n  pop\n  pop\n  jump\t// out\n    /* \"Functions.sol\":63:815  contract Functions {... */\ntag_4:\n  dataSize(sub_0)\n  dup1\n  dataOffset(sub_0)\n  0x00\n  codecopy\n  0x00\n  return\nstop\n\nsub_0: assembly {\n        /* \"Functions.sol\":63:815  contract Functions {... */\n      mstore(0x40, 0x80)\n      callvalue\n      dup1\n      iszero\n      tag_1\n      jumpi\n      0x00\n      dup1\n      revert\n    tag_1:\n      pop\n      jumpi(tag_2, lt(calldatasize, 0x04))\n      shr(0xe0, calldataload(0x00))\n      dup1\n      0x771602f7\n      gt\n      tag_13\n      jumpi\n      dup1\n      0x771602f7\n      eq\n      tag_8\n      jumpi\n      dup1\n      0x8da5cb5b\n      eq\n      tag_9\n      jumpi\n      dup1\n      0xa6f9dae1\n      eq\n      tag_10\n      jumpi\n      dup1\n      0xa87d942c\n      eq\n      tag_11\n      jumpi\n      dup1\n      0xd09de08a\n      eq\n      tag_12\n      jumpi\n      jump(tag_2)\n    tag_13:\n      dup1\n      0x06661abd\n      eq\n      tag_3\n      jumpi\n      dup1\n      0x06fdde03\n      eq\n      tag_4\n      jumpi\n      dup1\n      0x2baeceb7\n      eq\n      tag_5\n      jumpi\n      dup1\n      0x5353a2d8\n      eq\n      tag_6\n      jumpi\n      dup1\n      0x75322e47\n      eq\n      tag_7\n      jumpi\n    tag_2:\n      0x00\n      dup1\n      revert\n        /* \"Functions.sol\":91:112  uint public count = 0 */\n    tag_3:\n      tag_14\n      tag_15\n      jump\t// in\n    tag_14:\n      mload(0x40)\n      tag_16\n      swap2\n      swap1\n      tag_17\n      jump\t// in\n    tag_16:\n      mload(0x40)\n      dup1\n      swap2\n      sub\n      swap1\n      return\n        /* \"Functions.sol\":119:147  string public name = \"Vikas\" */\n    tag_4:\n      tag_18\n      tag_19\n      jump\t// in\n    tag_18:\n      mload(0x40)\n      tag_20\n      swap2\n      swap1\n      tag_21\n      jump\t// in\n    tag_20:\n      mload(0x40)\n      dup1\n      swap2\n      sub\n      swap1\n      return\n        /* \"Functions.sol\":300:364  function decrement() public {... */\n    tag_5:\n      tag_22\n      tag_23\n      jump\t// in\n    tag_22:\n      stop\n        /* \"Functions.sol\":447:526  function changeName( string memory _name) public{... */\n    tag_6:\n      tag_24\n      0x04\n      dup1\n      calldatasize\n      sub\n      dup2\n      add\n      swap1\n      tag_25\n      swap2\n      swap1\n      tag_26\n      jump\t// in\n    tag_25:\n      tag_27\n      jump\t// in\n    tag_24:\n      stop\n        /* \"Functions.sol\":372:439  function change( uint _num ) public {... */\n    tag_7:\n      tag_28\n      0x04\n      dup1\n      calldatasize\n      sub\n      dup2\n      add\n      swap1\n      tag_29\n      swap2\n      swap1\n      tag_30\n      jump\t// in\n    tag_29:\n      tag_31\n      jump\t// in\n    tag_28:\n      stop\n        /* \"Functions.sol\":624:726  function add(uint _num1, uint _num2) pure public returns(uint) {... */\n    tag_8:\n      tag_32\n      0x04\n      dup1\n      calldatasize\n      sub\n      dup2\n      add\n      swap1\n      tag_33\n      swap2\n      swap1\n      tag_34\n      jump\t// in\n    tag_33:\n      tag_35\n      jump\t// in\n    tag_32:\n      mload(0x40)\n      tag_36\n      swap2\n      swap1\n      tag_17\n      jump\t// in\n    tag_36:\n      mload(0x40)\n      dup1\n      swap2\n      sub\n      swap1\n      return\n        /* \"Functions.sol\":154:219  address public owner = 0x5B38Da6a701c568545dCfcB03FcB875f56beddC4 */\n    tag_9:\n      tag_37\n      tag_38\n      jump\t// in\n    tag_37:\n      mload(0x40)\n      tag_39\n      swap2\n      swap1\n      tag_40\n      jump\t// in\n    tag_39:\n      mload(0x40)\n      dup1\n      swap2\n      sub\n      swap1\n      return\n        /* \"Functions.sol\":534:616  function changeOwner( address _address) public {... */\n    tag_10:\n      tag_41\n      0x04\n      dup1\n      calldatasize\n      sub\n      dup2\n      add\n      swap1\n      tag_42\n      swap2\n      swap1\n      tag_43\n      jump\t// in\n    tag_42:\n      tag_44\n      jump\t// in\n    tag_41:\n      stop\n        /* \"Functions.sol\":734:810  function getCount() view public returns(uint){... */\n    tag_11:\n      tag_45\n      tag_46\n      jump\t// in\n    tag_45:\n      mload(0x40)\n      tag_47\n      swap2\n      swap1\n      tag_17\n      jump\t// in\n    tag_47:\n      mload(0x40)\n      dup1\n      swap2\n      sub\n      swap1\n      return\n        /* \"Functions.sol\":228:292  function increment() public {... */\n    tag_12:\n      tag_48\n      tag_49\n      jump\t// in\n    tag_48:\n      stop\n        /* \"Functions.sol\":91:112  uint public count = 0 */\n    tag_15:\n      sload(0x00)\n      dup2\n      jump\t// out\n        /* \"Functions.sol\":119:147  string public name = \"Vikas\" */\n    tag_19:\n      0x01\n      dup1\n      sload\n      tag_50\n      swap1\n      tag_51\n      jump\t// in\n    tag_50:\n      dup1\n      0x1f\n      add\n      0x20\n      dup1\n      swap2\n      div\n      mul\n      0x20\n      add\n      mload(0x40)\n      swap1\n      dup2\n      add\n      0x40\n      mstore\n      dup1\n      swap3\n      swap2\n      swap1\n      dup2\n      dup2\n      mstore\n      0x20\n      add\n      dup3\n      dup1\n      sload\n      tag_52\n      swap1\n      tag_51\n      jump\t// in\n    tag_52:\n      dup1\n      iszero\n      tag_53\n      jumpi\n      dup1\n      0x1f\n      lt\n      tag_54\n      jumpi\n      0x0100\n      dup1\n      dup4\n      sload\n      div\n      mul\n      dup4\n      mstore\n      swap2\n      0x20\n      add\n      swap2\n      jump(tag_53)\n    tag_54:\n      dup3\n      add\n      swap2\n      swap1\n      0x00\n      mstore\n      keccak256(0x00, 0x20)\n      swap1\n    tag_55:\n      dup2\n      sload\n      dup2\n      mstore\n      swap1\n      0x01\n      add\n      swap1\n      0x20\n      add\n      dup1\n      dup4\n      gt\n      tag_55\n      jumpi\n      dup3\n      swap1\n      sub\n      0x1f\n      and\n      dup3\n      add\n      swap2\n    tag_53:\n      pop\n      pop\n      pop\n      pop\n      pop\n      dup2\n      jump\t// out\n        /* \"Functions.sol\":300:364  function decrement() public {... */\n    tag_23:\n        /* \"Functions.sol\":355:356  1 */\n      0x01\n        /* \"Functions.sol\":347:352  count */\n      sload(0x00)\n        /* \"Functions.sol\":347:356  count - 1 */\n      tag_57\n      swap2\n      swap1\n      tag_58\n      jump\t// in\n    tag_57:\n        /* \"Functions.sol\":339:344  count */\n      0x00\n        /* \"Functions.sol\":339:356  count = count - 1 */\n      dup2\n      swap1\n      sstore\n      pop\n        /* \"Functions.sol\":300:364  function decrement() public {... */\n      jump\t// out\n        /* \"Functions.sol\":447:526  function changeName( string memory _name) public{... */\n    tag_27:\n        /* \"Functions.sol\":513:518  _name */\n      dup1\n        /* \"Functions.sol\":506:510  name */\n      0x01\n        /* \"Functions.sol\":506:518  name = _name */\n      swap1\n      dup2\n      tag_60\n      swap2\n      swap1\n      tag_61\n      jump\t// in\n    tag_60:\n      pop\n        /* \"Functions.sol\":447:526  function changeName( string memory _name) public{... */\n      pop\n      jump\t// out\n        /* \"Functions.sol\":372:439  function change( uint _num ) public {... */\n    tag_31:\n        /* \"Functions.sol\":427:431  _num */\n      dup1\n        /* \"Functions.sol\":419:424  count */\n      0x00\n        /* \"Functions.sol\":419:431  count = _num */\n      dup2\n      swap1\n      sstore\n      pop\n        /* \"Functions.sol\":372:439  function change( uint _num ) public {... */\n      pop\n      jump\t// out\n        /* \"Functions.sol\":624:726  function add(uint _num1, uint _num2) pure public returns(uint) {... */\n    tag_35:\n        /* \"Functions.sol\":681:685  uint */\n      0x00\n        /* \"Functions.sol\":713:718  _num2 */\n      dup2\n        /* \"Functions.sol\":705:710  _num1 */\n      dup4\n        /* \"Functions.sol\":705:718  _num1 + _num2 */\n      tag_64\n      swap2\n      swap1\n      tag_65\n      jump\t// in\n    tag_64:\n        /* \"Functions.sol\":698:718  return _num1 + _num2 */\n      swap1\n      pop\n        /* \"Functions.sol\":624:726  function add(uint _num1, uint _num2) pure public returns(uint) {... */\n      swap3\n      swap2\n      pop\n      pop\n      jump\t// out\n        /* \"Functions.sol\":154:219  address public owner = 0x5B38Da6a701c568545dCfcB03FcB875f56beddC4 */\n    tag_38:\n      0x02\n      0x00\n      swap1\n      sload\n      swap1\n      0x0100\n      exp\n      swap1\n      div\n      0xffffffffffffffffffffffffffffffffffffffff\n      and\n      dup2\n      jump\t// out\n        /* \"Functions.sol\":534:616  function changeOwner( address _address) public {... */\n    tag_44:\n        /* \"Functions.sol\":600:608  _address */\n      dup1\n        /* \"Functions.sol\":592:597  owner */\n      0x02\n      0x00\n        /* \"Functions.sol\":592:608  owner = _address */\n      0x0100\n      exp\n      dup2\n      sload\n      dup2\n      0xffffffffffffffffffffffffffffffffffffffff\n      mul\n      not\n      and\n      swap1\n      dup4\n      0xffffffffffffffffffffffffffffffffffffffff\n      and\n      mul\n      or\n      swap1\n      sstore\n      pop\n        /* \"Functions.sol\":534:616  function changeOwner( address _address) public {... */\n      pop\n      jump\t// out\n        /* \"Functions.sol\":734:810  function getCount() view public returns(uint){... */\n    tag_46:\n        /* \"Functions.sol\":774:778  uint */\n      0x00\n        /* \"Functions.sol\":797:802  count */\n      dup1\n      sload\n        /* \"Functions.sol\":790:802  return count */\n      swap1\n      pop\n        /* \"Functions.sol\":734:810  function getCount() view public returns(uint){... */\n      swap1\n      jump\t// out\n        /* \"Functions.sol\":228:292  function increment() public {... */\n    tag_49:\n        /* \"Functions.sol\":283:284  1 */\n      0x01\n        /* \"Functions.sol\":275:280  count */\n      sload(0x00)\n        /* \"Functions.sol\":275:284  count + 1 */\n      tag_69\n      swap2\n      swap1\n      tag_65\n      jump\t// in\n    tag_69:\n        /* \"Functions.sol\":267:272  count */\n      0x00\n        /* \"Functions.sol\":267:284  count = count + 1 */\n      dup2\n      swap1\n      sstore\n      pop\n        /* \"Functions.sol\":228:292  function increment() public {... */\n      jump\t// out\n        /* \"#utility.yul\":7:84   */\n    tag_70:\n        /* \"#utility.yul\":44:51   */\n      0x00\n        /* \"#utility.yul\":73:78   */\n      dup2\n        /* \"#utility.yul\":62:78   */\n      swap1\n      pop\n        /* \"#utility.yul\":7:84   */\n      swap2\n      swap1\n      pop\n      jump\t// out\n        /* \"#utility.yul\":90:208   */\n    tag_71:\n        /* \"#utility.yul\":177:201   */\n      tag_116\n        /* \"#utility.yul\":195:200   */\n      dup2\n        /* \"#utility.yul\":177:201   */\n      tag_70\n      jump\t// in\n    tag_116:\n        /* \"#utility.yul\":172:175   */\n      dup3\n        /* \"#utility.yul\":165:202   */\n      mstore\n        /* \"#utility.yul\":90:208   */\n      pop\n      pop\n      jump\t// out\n        /* \"#utility.yul\":214:436   */\n    tag_17:\n        /* \"#utility.yul\":307:311   */\n      0x00\n        /* \"#utility.yul\":345:347   */\n      0x20\n        /* \"#utility.yul\":334:343   */\n      dup3\n        /* \"#utility.yul\":330:348   */\n      add\n        /* \"#utility.yul\":322:348   */\n      swap1\n      pop\n        /* \"#utility.yul\":358:429   */\n      tag_118\n        /* \"#utility.yul\":426:427   */\n      0x00\n        /* \"#utility.yul\":415:424   */\n      dup4\n        /* \"#utility.yul\":411:428   */\n      add\n        /* \"#utility.yul\":402:408   */\n      dup5\n        /* \"#utility.yul\":358:429   */\n      tag_71\n      jump\t// in\n    tag_118:\n        /* \"#utility.yul\":214:436   */\n      swap3\n      swap2\n      pop\n      pop\n      jump\t// out\n        /* \"#utility.yul\":442:541   */\n    tag_72:\n        /* \"#utility.yul\":494:500   */\n      0x00\n        /* \"#utility.yul\":528:533   */\n      dup2\n        /* \"#utility.yul\":522:534   */\n      mload\n        /* \"#utility.yul\":512:534   */\n      swap1\n      pop\n        /* \"#utility.yul\":442:541   */\n      swap2\n      swap1\n      pop\n      jump\t// out\n        /* \"#utility.yul\":547:716   */\n    tag_73:\n        /* \"#utility.yul\":631:642   */\n      0x00\n        /* \"#utility.yul\":665:671   */\n      dup3\n        /* \"#utility.yul\":660:663   */\n      dup3\n        /* \"#utility.yul\":653:672   */\n      mstore\n        /* \"#utility.yul\":705:709   */\n      0x20\n        /* \"#utility.yul\":700:703   */\n      dup3\n        /* \"#utility.yul\":696:710   */\n      add\n        /* \"#utility.yul\":681:710   */\n      swap1\n      pop\n        /* \"#utility.yul\":547:716   */\n      swap3\n      swap2\n      pop\n      pop\n      jump\t// out\n        /* \"#utility.yul\":722:968   */\n    tag_74:\n        /* \"#utility.yul\":803:804   */\n      0x00\n        /* \"#utility.yul\":813:926   */\n    tag_122:\n        /* \"#utility.yul\":827:833   */\n      dup4\n        /* \"#utility.yul\":824:825   */\n      dup2\n        /* \"#utility.yul\":821:834   */\n      lt\n        /* \"#utility.yul\":813:926   */\n      iszero\n      tag_124\n      jumpi\n        /* \"#utility.yul\":912:913   */\n      dup1\n        /* \"#utility.yul\":907:910   */\n      dup3\n        /* \"#utility.yul\":903:914   */\n      add\n        /* \"#utility.yul\":897:915   */\n      mload\n        /* \"#utility.yul\":893:894   */\n      dup2\n        /* \"#utility.yul\":888:891   */\n      dup5\n        /* \"#utility.yul\":884:895   */\n      add\n        /* \"#utility.yul\":877:916   */\n      mstore\n        /* \"#utility.yul\":849:851   */\n      0x20\n        /* \"#utility.yul\":846:847   */\n      dup2\n        /* \"#utility.yul\":842:852   */\n      add\n        /* \"#utility.yul\":837:852   */\n      swap1\n      pop\n        /* \"#utility.yul\":813:926   */\n      jump(tag_122)\n    tag_124:\n        /* \"#utility.yul\":960:961   */\n      0x00\n        /* \"#utility.yul\":951:957   */\n      dup5\n        /* \"#utility.yul\":946:949   */\n      dup5\n        /* \"#utility.yul\":942:958   */\n      add\n        /* \"#utility.yul\":935:962   */\n      mstore\n        /* \"#utility.yul\":784:968   */\n      pop\n        /* \"#utility.yul\":722:968   */\n      pop\n      pop\n      pop\n      jump\t// out\n        /* \"#utility.yul\":974:1076   */\n    tag_75:\n        /* \"#utility.yul\":1015:1021   */\n      0x00\n        /* \"#utility.yul\":1066:1068   */\n      0x1f\n        /* \"#utility.yul\":1062:1069   */\n      not\n        /* \"#utility.yul\":1057:1059   */\n      0x1f\n        /* \"#utility.yul\":1050:1055   */\n      dup4\n        /* \"#utility.yul\":1046:1060   */\n      add\n        /* \"#utility.yul\":1042:1070   */\n      and\n        /* \"#utility.yul\":1032:1070   */\n      swap1\n      pop\n        /* \"#utility.yul\":974:1076   */\n      swap2\n      swap1\n      pop\n      jump\t// out\n        /* \"#utility.yul\":1082:1459   */\n    tag_76:\n        /* \"#utility.yul\":1170:1173   */\n      0x00\n        /* \"#utility.yul\":1198:1237   */\n      tag_127\n        /* \"#utility.yul\":1231:1236   */\n      dup3\n        /* \"#utility.yul\":1198:1237   */\n      tag_72\n      jump\t// in\n    tag_127:\n        /* \"#utility.yul\":1253:1324   */\n      tag_128\n        /* \"#utility.yul\":1317:1323   */\n      dup2\n        /* \"#utility.yul\":1312:1315   */\n      dup6\n        /* \"#utility.yul\":1253:1324   */\n      tag_73\n      jump\t// in\n    tag_128:\n        /* \"#utility.yul\":1246:1324   */\n      swap4\n      pop\n        /* \"#utility.yul\":1333:1398   */\n      tag_129\n        /* \"#utility.yul\":1391:1397   */\n      dup2\n        /* \"#utility.yul\":1386:1389   */\n      dup6\n        /* \"#utility.yul\":1379:1383   */\n      0x20\n        /* \"#utility.yul\":1372:1377   */\n      dup7\n        /* \"#utility.yul\":1368:1384   */\n      add\n        /* \"#utility.yul\":1333:1398   */\n      tag_74\n      jump\t// in\n    tag_129:\n        /* \"#utility.yul\":1423:1452   */\n      tag_130\n        /* \"#utility.yul\":1445:1451   */\n      dup2\n        /* \"#utility.yul\":1423:1452   */\n      tag_75\n      jump\t// in\n    tag_130:\n        /* \"#utility.yul\":1418:1421   */\n      dup5\n        /* \"#utility.yul\":1414:1453   */\n      add\n        /* \"#utility.yul\":1407:1453   */\n      swap2\n      pop\n        /* \"#utility.yul\":1174:1459   */\n      pop\n        /* \"#utility.yul\":1082:1459   */\n      swap3\n      swap2\n      pop\n      pop\n      jump\t// out\n        /* \"#utility.yul\":1465:1778   */\n    tag_21:\n        /* \"#utility.yul\":1578:1582   */\n      0x00\n        /* \"#utility.yul\":1616:1618   */\n      0x20\n        /* \"#utility.yul\":1605:1614   */\n      dup3\n        /* \"#utility.yul\":1601:1619   */\n      add\n        /* \"#utility.yul\":1593:1619   */\n      swap1\n      pop\n        /* \"#utility.yul\":1665:1674   */\n      dup2\n        /* \"#utility.yul\":1659:1663   */\n      dup2\n        /* \"#utility.yul\":1655:1675   */\n      sub\n        /* \"#utility.yul\":1651:1652   */\n      0x00\n        /* \"#utility.yul\":1640:1649   */\n      dup4\n        /* \"#utility.yul\":1636:1653   */\n      add\n        /* \"#utility.yul\":1629:1676   */\n      mstore\n        /* \"#utility.yul\":1693:1771   */\n      tag_132\n        /* \"#utility.yul\":1766:1770   */\n      dup2\n        /* \"#utility.yul\":1757:1763   */\n      dup5\n        /* \"#utility.yul\":1693:1771   */\n      tag_76\n      jump\t// in\n    tag_132:\n        /* \"#utility.yul\":1685:1771   */\n      swap1\n      pop\n        /* \"#utility.yul\":1465:1778   */\n      swap3\n      swap2\n      pop\n      pop\n      jump\t// out\n        /* \"#utility.yul\":1784:1859   */\n    tag_77:\n        /* \"#utility.yul\":1817:1823   */\n      0x00\n        /* \"#utility.yul\":1850:1852   */\n      0x40\n        /* \"#utility.yul\":1844:1853   */\n      mload\n        /* \"#utility.yul\":1834:1853   */\n      swap1\n      pop\n        /* \"#utility.yul\":1784:1859   */\n      swap1\n      jump\t// out\n        /* \"#utility.yul\":1865:1982   */\n    tag_78:\n        /* \"#utility.yul\":1974:1975   */\n      0x00\n        /* \"#utility.yul\":1971:1972   */\n      dup1\n        /* \"#utility.yul\":1964:1976   */\n      revert\n        /* \"#utility.yul\":1988:2105   */\n    tag_79:\n        /* \"#utility.yul\":2097:2098   */\n      0x00\n        /* \"#utility.yul\":2094:2095   */\n      dup1\n        /* \"#utility.yul\":2087:2099   */\n      revert\n        /* \"#utility.yul\":2111:2228   */\n    tag_80:\n        /* \"#utility.yul\":2220:2221   */\n      0x00\n        /* \"#utility.yul\":2217:2218   */\n      dup1\n        /* \"#utility.yul\":2210:2222   */\n      revert\n        /* \"#utility.yul\":2234:2351   */\n    tag_81:\n        /* \"#utility.yul\":2343:2344   */\n      0x00\n        /* \"#utility.yul\":2340:2341   */\n      dup1\n        /* \"#utility.yul\":2333:2345   */\n      revert\n        /* \"#utility.yul\":2357:2537   */\n    tag_82:\n        /* \"#utility.yul\":2405:2482   */\n      0x4e487b7100000000000000000000000000000000000000000000000000000000\n        /* \"#utility.yul\":2402:2403   */\n      0x00\n        /* \"#utility.yul\":2395:2483   */\n      mstore\n        /* \"#utility.yul\":2502:2506   */\n      0x41\n        /* \"#utility.yul\":2499:2500   */\n      0x04\n        /* \"#utility.yul\":2492:2507   */\n      mstore\n        /* \"#utility.yul\":2526:2530   */\n      0x24\n        /* \"#utility.yul\":2523:2524   */\n      0x00\n        /* \"#utility.yul\":2516:2531   */\n      revert\n        /* \"#utility.yul\":2543:2824   */\n    tag_83:\n        /* \"#utility.yul\":2626:2653   */\n      tag_140\n        /* \"#utility.yul\":2648:2652   */\n      dup3\n        /* \"#utility.yul\":2626:2653   */\n      tag_75\n      jump\t// in\n    tag_140:\n        /* \"#utility.yul\":2618:2624   */\n      dup2\n        /* \"#utility.yul\":2614:2654   */\n      add\n        /* \"#utility.yul\":2756:2762   */\n      dup2\n        /* \"#utility.yul\":2744:2754   */\n      dup2\n        /* \"#utility.yul\":2741:2763   */\n      lt\n        /* \"#utility.yul\":2720:2738   */\n      0xffffffffffffffff\n        /* \"#utility.yul\":2708:2718   */\n      dup3\n        /* \"#utility.yul\":2705:2739   */\n      gt\n        /* \"#utility.yul\":2702:2764   */\n      or\n        /* \"#utility.yul\":2699:2787   */\n      iszero\n      tag_141\n      jumpi\n        /* \"#utility.yul\":2767:2785   */\n      tag_142\n      tag_82\n      jump\t// in\n    tag_142:\n        /* \"#utility.yul\":2699:2787   */\n    tag_141:\n        /* \"#utility.yul\":2807:2817   */\n      dup1\n        /* \"#utility.yul\":2803:2805   */\n      0x40\n        /* \"#utility.yul\":2796:2818   */\n      mstore\n        /* \"#utility.yul\":2586:2824   */\n      pop\n        /* \"#utility.yul\":2543:2824   */\n      pop\n      pop\n      jump\t// out\n        /* \"#utility.yul\":2830:2959   */\n    tag_84:\n        /* \"#utility.yul\":2864:2870   */\n      0x00\n        /* \"#utility.yul\":2891:2911   */\n      tag_144\n      tag_77\n      jump\t// in\n    tag_144:\n        /* \"#utility.yul\":2881:2911   */\n      swap1\n      pop\n        /* \"#utility.yul\":2920:2953   */\n      tag_145\n        /* \"#utility.yul\":2948:2952   */\n      dup3\n        /* \"#utility.yul\":2940:2946   */\n      dup3\n        /* \"#utility.yul\":2920:2953   */\n      tag_83\n      jump\t// in\n    tag_145:\n        /* \"#utility.yul\":2830:2959   */\n      swap2\n      swap1\n      pop\n      jump\t// out\n        /* \"#utility.yul\":2965:3273   */\n    tag_85:\n        /* \"#utility.yul\":3027:3031   */\n      0x00\n        /* \"#utility.yul\":3117:3135   */\n      0xffffffffffffffff\n        /* \"#utility.yul\":3109:3115   */\n      dup3\n        /* \"#utility.yul\":3106:3136   */\n      gt\n        /* \"#utility.yul\":3103:3159   */\n      iszero\n      tag_147\n      jumpi\n        /* \"#utility.yul\":3139:3157   */\n      tag_148\n      tag_82\n      jump\t// in\n    tag_148:\n        /* \"#utility.yul\":3103:3159   */\n    tag_147:\n        /* \"#utility.yul\":3177:3206   */\n      tag_149\n        /* \"#utility.yul\":3199:3205   */\n      dup3\n        /* \"#utility.yul\":3177:3206   */\n      tag_75\n      jump\t// in\n    tag_149:\n        /* \"#utility.yul\":3169:3206   */\n      swap1\n      pop\n        /* \"#utility.yul\":3261:3265   */\n      0x20\n        /* \"#utility.yul\":3255:3259   */\n      dup2\n        /* \"#utility.yul\":3251:3266   */\n      add\n        /* \"#utility.yul\":3243:3266   */\n      swap1\n      pop\n        /* \"#utility.yul\":2965:3273   */\n      swap2\n      swap1\n      pop\n      jump\t// out\n        /* \"#utility.yul\":3279:3425   */\n    tag_86:\n        /* \"#utility.yul\":3376:3382   */\n      dup3\n        /* \"#utility.yul\":3371:3374   */\n      dup2\n        /* \"#utility.yul\":3366:3369   */\n      dup4\n        /* \"#utility.yul\":3353:3383   */\n      calldatacopy\n        /* \"#utility.yul\":3417:3418   */\n      0x00\n        /* \"#utility.yul\":3408:3414   */\n      dup4\n        /* \"#utility.yul\":3403:3406   */\n      dup4\n        /* \"#utility.yul\":3399:3415   */\n      add\n        /* \"#utility.yul\":3392:3419   */\n      mstore\n        /* \"#utility.yul\":3279:3425   */\n      pop\n      pop\n      pop\n      jump\t// out\n        /* \"#utility.yul\":3431:3856   */\n    tag_87:\n        /* \"#utility.yul\":3509:3514   */\n      0x00\n        /* \"#utility.yul\":3534:3600   */\n      tag_152\n        /* \"#utility.yul\":3550:3599   */\n      tag_153\n        /* \"#utility.yul\":3592:3598   */\n      dup5\n        /* \"#utility.yul\":3550:3599   */\n      tag_85\n      jump\t// in\n    tag_153:\n        /* \"#utility.yul\":3534:3600   */\n      tag_84\n      jump\t// in\n    tag_152:\n        /* \"#utility.yul\":3525:3600   */\n      swap1\n      pop\n        /* \"#utility.yul\":3623:3629   */\n      dup3\n        /* \"#utility.yul\":3616:3621   */\n      dup2\n        /* \"#utility.yul\":3609:3630   */\n      mstore\n        /* \"#utility.yul\":3661:3665   */\n      0x20\n        /* \"#utility.yul\":3654:3659   */\n      dup2\n        /* \"#utility.yul\":3650:3666   */\n      add\n        /* \"#utility.yul\":3699:3702   */\n      dup5\n        /* \"#utility.yul\":3690:3696   */\n      dup5\n        /* \"#utility.yul\":3685:3688   */\n      dup5\n        /* \"#utility.yul\":3681:3697   */\n      add\n        /* \"#utility.yul\":3678:3703   */\n      gt\n        /* \"#utility.yul\":3675:3787   */\n      iszero\n      tag_154\n      jumpi\n        /* \"#utility.yul\":3706:3785   */\n      tag_155\n      tag_81\n      jump\t// in\n    tag_155:\n        /* \"#utility.yul\":3675:3787   */\n    tag_154:\n        /* \"#utility.yul\":3796:3850   */\n      tag_156\n        /* \"#utility.yul\":3843:3849   */\n      dup5\n        /* \"#utility.yul\":3838:3841   */\n      dup3\n        /* \"#utility.yul\":3833:3836   */\n      dup6\n        /* \"#utility.yul\":3796:3850   */\n      tag_86\n      jump\t// in\n    tag_156:\n        /* \"#utility.yul\":3515:3856   */\n      pop\n        /* \"#utility.yul\":3431:3856   */\n      swap4\n      swap3\n      pop\n      pop\n      pop\n      jump\t// out\n        /* \"#utility.yul\":3876:4216   */\n    tag_88:\n        /* \"#utility.yul\":3932:3937   */\n      0x00\n        /* \"#utility.yul\":3981:3984   */\n      dup3\n        /* \"#utility.yul\":3974:3978   */\n      0x1f\n        /* \"#utility.yul\":3966:3972   */\n      dup4\n        /* \"#utility.yul\":3962:3979   */\n      add\n        /* \"#utility.yul\":3958:3985   */\n      slt\n        /* \"#utility.yul\":3948:4070   */\n      tag_158\n      jumpi\n        /* \"#utility.yul\":3989:4068   */\n      tag_159\n      tag_80\n      jump\t// in\n    tag_159:\n        /* \"#utility.yul\":3948:4070   */\n    tag_158:\n        /* \"#utility.yul\":4106:4112   */\n      dup2\n        /* \"#utility.yul\":4093:4113   */\n      calldataload\n        /* \"#utility.yul\":4131:4210   */\n      tag_160\n        /* \"#utility.yul\":4206:4209   */\n      dup5\n        /* \"#utility.yul\":4198:4204   */\n      dup3\n        /* \"#utility.yul\":4191:4195   */\n      0x20\n        /* \"#utility.yul\":4183:4189   */\n      dup7\n        /* \"#utility.yul\":4179:4196   */\n      add\n        /* \"#utility.yul\":4131:4210   */\n      tag_87\n      jump\t// in\n    tag_160:\n        /* \"#utility.yul\":4122:4210   */\n      swap2\n      pop\n        /* \"#utility.yul\":3938:4216   */\n      pop\n        /* \"#utility.yul\":3876:4216   */\n      swap3\n      swap2\n      pop\n      pop\n      jump\t// out\n        /* \"#utility.yul\":4222:4731   */\n    tag_26:\n        /* \"#utility.yul\":4291:4297   */\n      0x00\n        /* \"#utility.yul\":4340:4342   */\n      0x20\n        /* \"#utility.yul\":4328:4337   */\n      dup3\n        /* \"#utility.yul\":4319:4326   */\n      dup5\n        /* \"#utility.yul\":4315:4338   */\n      sub\n        /* \"#utility.yul\":4311:4343   */\n      slt\n        /* \"#utility.yul\":4308:4427   */\n      iszero\n      tag_162\n      jumpi\n        /* \"#utility.yul\":4346:4425   */\n      tag_163\n      tag_78\n      jump\t// in\n    tag_163:\n        /* \"#utility.yul\":4308:4427   */\n    tag_162:\n        /* \"#utility.yul\":4494:4495   */\n      0x00\n        /* \"#utility.yul\":4483:4492   */\n      dup3\n        /* \"#utility.yul\":4479:4496   */\n      add\n        /* \"#utility.yul\":4466:4497   */\n      calldataload\n        /* \"#utility.yul\":4524:4542   */\n      0xffffffffffffffff\n        /* \"#utility.yul\":4516:4522   */\n      dup2\n        /* \"#utility.yul\":4513:4543   */\n      gt\n        /* \"#utility.yul\":4510:4627   */\n      iszero\n      tag_164\n      jumpi\n        /* \"#utility.yul\":4546:4625   */\n      tag_165\n      tag_79\n      jump\t// in\n    tag_165:\n        /* \"#utility.yul\":4510:4627   */\n    tag_164:\n        /* \"#utility.yul\":4651:4714   */\n      tag_166\n        /* \"#utility.yul\":4706:4713   */\n      dup5\n        /* \"#utility.yul\":4697:4703   */\n      dup3\n        /* \"#utility.yul\":4686:4695   */\n      dup6\n        /* \"#utility.yul\":4682:4704   */\n      add\n        /* \"#utility.yul\":4651:4714   */\n      tag_88\n      jump\t// in\n    tag_166:\n        /* \"#utility.yul\":4641:4714   */\n      swap2\n      pop\n        /* \"#utility.yul\":4437:4724   */\n      pop\n        /* \"#utility.yul\":4222:4731   */\n      swap3\n      swap2\n      pop\n      pop\n      jump\t// out\n        /* \"#utility.yul\":4737:4859   */\n    tag_89:\n        /* \"#utility.yul\":4810:4834   */\n      tag_168\n        /* \"#utility.yul\":4828:4833   */\n      dup2\n        /* \"#utility.yul\":4810:4834   */\n      tag_70\n      jump\t// in\n    tag_168:\n        /* \"#utility.yul\":4803:4808   */\n      dup2\n        /* \"#utility.yul\":4800:4835   */\n      eq\n        /* \"#utility.yul\":4790:4853   */\n      tag_169\n      jumpi\n        /* \"#utility.yul\":4849:4850   */\n      0x00\n        /* \"#utility.yul\":4846:4847   */\n      dup1\n        /* \"#utility.yul\":4839:4851   */\n      revert\n        /* \"#utility.yul\":4790:4853   */\n    tag_169:\n        /* \"#utility.yul\":4737:4859   */\n      pop\n      jump\t// out\n        /* \"#utility.yul\":4865:5004   */\n    tag_90:\n        /* \"#utility.yul\":4911:4916   */\n      0x00\n        /* \"#utility.yul\":4949:4955   */\n      dup2\n        /* \"#utility.yul\":4936:4956   */\n      calldataload\n        /* \"#utility.yul\":4927:4956   */\n      swap1\n      pop\n        /* \"#utility.yul\":4965:4998   */\n      tag_171\n        /* \"#utility.yul\":4992:4997   */\n      dup2\n        /* \"#utility.yul\":4965:4998   */\n      tag_89\n      jump\t// in\n    tag_171:\n        /* \"#utility.yul\":4865:5004   */\n      swap3\n      swap2\n      pop\n      pop\n      jump\t// out\n        /* \"#utility.yul\":5010:5339   */\n    tag_30:\n        /* \"#utility.yul\":5069:5075   */\n      0x00\n        /* \"#utility.yul\":5118:5120   */\n      0x20\n        /* \"#utility.yul\":5106:5115   */\n      dup3\n        /* \"#utility.yul\":5097:5104   */\n      dup5\n        /* \"#utility.yul\":5093:5116   */\n      sub\n        /* \"#utility.yul\":5089:5121   */\n      slt\n        /* \"#utility.yul\":5086:5205   */\n      iszero\n      tag_173\n      jumpi\n        /* \"#utility.yul\":5124:5203   */\n      tag_174\n      tag_78\n      jump\t// in\n    tag_174:\n        /* \"#utility.yul\":5086:5205   */\n    tag_173:\n        /* \"#utility.yul\":5244:5245   */\n      0x00\n        /* \"#utility.yul\":5269:5322   */\n      tag_175\n        /* \"#utility.yul\":5314:5321   */\n      dup5\n        /* \"#utility.yul\":5305:5311   */\n      dup3\n        /* \"#utility.yul\":5294:5303   */\n      dup6\n        /* \"#utility.yul\":5290:5312   */\n      add\n        /* \"#utility.yul\":5269:5322   */\n      tag_90\n      jump\t// in\n    tag_175:\n        /* \"#utility.yul\":5259:5322   */\n      swap2\n      pop\n        /* \"#utility.yul\":5215:5332   */\n      pop\n        /* \"#utility.yul\":5010:5339   */\n      swap3\n      swap2\n      pop\n      pop\n      jump\t// out\n        /* \"#utility.yul\":5345:5819   */\n    tag_34:\n        /* \"#utility.yul\":5413:5419   */\n      0x00\n        /* \"#utility.yul\":5421:5427   */\n      dup1\n        /* \"#utility.yul\":5470:5472   */\n      0x40\n        /* \"#utility.yul\":5458:5467   */\n      dup4\n        /* \"#utility.yul\":5449:5456   */\n      dup6\n        /* \"#utility.yul\":5445:5468   */\n      sub\n        /* \"#utility.yul\":5441:5473   */\n      slt\n        /* \"#utility.yul\":5438:5557   */\n      iszero\n      tag_177\n      jumpi\n        /* \"#utility.yul\":5476:5555   */\n      tag_178\n      tag_78\n      jump\t// in\n    tag_178:\n        /* \"#utility.yul\":5438:5557   */\n    tag_177:\n        /* \"#utility.yul\":5596:5597   */\n      0x00\n        /* \"#utility.yul\":5621:5674   */\n      tag_179\n        /* \"#utility.yul\":5666:5673   */\n      dup6\n        /* \"#utility.yul\":5657:5663   */\n      dup3\n        /* \"#utility.yul\":5646:5655   */\n      dup7\n        /* \"#utility.yul\":5642:5664   */\n      add\n        /* \"#utility.yul\":5621:5674   */\n      tag_90\n      jump\t// in\n    tag_179:\n        /* \"#utility.yul\":5611:5674   */\n      swap3\n      pop\n        /* \"#utility.yul\":5567:5684   */\n      pop\n        /* \"#utility.yul\":5723:5725   */\n      0x20\n        /* \"#utility.yul\":5749:5802   */\n      tag_180\n        /* \"#utility.yul\":5794:5801   */\n      dup6\n        /* \"#utility.yul\":5785:5791   */\n      dup3\n        /* \"#utility.yul\":5774:5783   */\n      dup7\n        /* \"#utility.yul\":5770:5792   */\n      add\n        /* \"#utility.yul\":5749:5802   */\n      tag_90\n      jump\t// in\n    tag_180:\n        /* \"#utility.yul\":5739:5802   */\n      swap2\n      pop\n        /* \"#utility.yul\":5694:5812   */\n      pop\n        /* \"#utility.yul\":5345:5819   */\n      swap3\n      pop\n      swap3\n      swap1\n      pop\n      jump\t// out\n        /* \"#utility.yul\":5825:5951   */\n    tag_91:\n        /* \"#utility.yul\":5862:5869   */\n      0x00\n        /* \"#utility.yul\":5902:5944   */\n      0xffffffffffffffffffffffffffffffffffffffff\n        /* \"#utility.yul\":5895:5900   */\n      dup3\n        /* \"#utility.yul\":5891:5945   */\n      and\n        /* \"#utility.yul\":5880:5945   */\n      swap1\n      pop\n        /* \"#utility.yul\":5825:5951   */\n      swap2\n      swap1\n      pop\n      jump\t// out\n        /* \"#utility.yul\":5957:6053   */\n    tag_92:\n        /* \"#utility.yul\":5994:6001   */\n      0x00\n        /* \"#utility.yul\":6023:6047   */\n      tag_183\n        /* \"#utility.yul\":6041:6046   */\n      dup3\n        /* \"#utility.yul\":6023:6047   */\n      tag_91\n      jump\t// in\n    tag_183:\n        /* \"#utility.yul\":6012:6047   */\n      swap1\n      pop\n        /* \"#utility.yul\":5957:6053   */\n      swap2\n      swap1\n      pop\n      jump\t// out\n        /* \"#utility.yul\":6059:6177   */\n    tag_93:\n        /* \"#utility.yul\":6146:6170   */\n      tag_185\n        /* \"#utility.yul\":6164:6169   */\n      dup2\n        /* \"#utility.yul\":6146:6170   */\n      tag_92\n      jump\t// in\n    tag_185:\n        /* \"#utility.yul\":6141:6144   */\n      dup3\n        /* \"#utility.yul\":6134:6171   */\n      mstore\n        /* \"#utility.yul\":6059:6177   */\n      pop\n      pop\n      jump\t// out\n        /* \"#utility.yul\":6183:6405   */\n    tag_40:\n        /* \"#utility.yul\":6276:6280   */\n      0x00\n        /* \"#utility.yul\":6314:6316   */\n      0x20\n        /* \"#utility.yul\":6303:6312   */\n      dup3\n        /* \"#utility.yul\":6299:6317   */\n      add\n        /* \"#utility.yul\":6291:6317   */\n      swap1\n      pop\n        /* \"#utility.yul\":6327:6398   */\n      tag_187\n        /* \"#utility.yul\":6395:6396   */\n      0x00\n        /* \"#utility.yul\":6384:6393   */\n      dup4\n        /* \"#utility.yul\":6380:6397   */\n      add\n        /* \"#utility.yul\":6371:6377   */\n      dup5\n        /* \"#utility.yul\":6327:6398   */\n      tag_93\n      jump\t// in\n    tag_187:\n        /* \"#utility.yul\":6183:6405   */\n      swap3\n      swap2\n      pop\n      pop\n      jump\t// out\n        /* \"#utility.yul\":6411:6533   */\n    tag_94:\n        /* \"#utility.yul\":6484:6508   */\n      tag_189\n        /* \"#utility.yul\":6502:6507   */\n      dup2\n        /* \"#utility.yul\":6484:6508   */\n      tag_92\n      jump\t// in\n    tag_189:\n        /* \"#utility.yul\":6477:6482   */\n      dup2\n        /* \"#utility.yul\":6474:6509   */\n      eq\n        /* \"#utility.yul\":6464:6527   */\n      tag_190\n      jumpi\n        /* \"#utility.yul\":6523:6524   */\n      0x00\n        /* \"#utility.yul\":6520:6521   */\n      dup1\n        /* \"#utility.yul\":6513:6525   */\n      revert\n        /* \"#utility.yul\":6464:6527   */\n    tag_190:\n        /* \"#utility.yul\":6411:6533   */\n      pop\n      jump\t// out\n        /* \"#utility.yul\":6539:6678   */\n    tag_95:\n        /* \"#utility.yul\":6585:6590   */\n      0x00\n        /* \"#utility.yul\":6623:6629   */\n      dup2\n        /* \"#utility.yul\":6610:6630   */\n      calldataload\n        /* \"#utility.yul\":6601:6630   */\n      swap1\n      pop\n        /* \"#utility.yul\":6639:6672   */\n      tag_192\n        /* \"#utility.yul\":6666:6671   */\n      dup2\n        /* \"#utility.yul\":6639:6672   */\n      tag_94\n      jump\t// in\n    tag_192:\n        /* \"#utility.yul\":6539:6678   */\n      swap3\n      swap2\n      pop\n      pop\n      jump\t// out\n        /* \"#utility.yul\":6684:7013   */\n    tag_43:\n        /* \"#utility.yul\":6743:6749   */\n      0x00\n        /* \"#utility.yul\":6792:6794   */\n      0x20\n        /* \"#utility.yul\":6780:6789   */\n      dup3\n        /* \"#utility.yul\":6771:6778   */\n      dup5\n        /* \"#utility.yul\":6767:6790   */\n      sub\n        /* \"#utility.yul\":6763:6795   */\n      slt\n        /* \"#utility.yul\":6760:6879   */\n      iszero\n      tag_194\n      jumpi\n        /* \"#utility.yul\":6798:6877   */\n      tag_195\n      tag_78\n      jump\t// in\n    tag_195:\n        /* \"#utility.yul\":6760:6879   */\n    tag_194:\n        /* \"#utility.yul\":6918:6919   */\n      0x00\n        /* \"#utility.yul\":6943:6996   */\n      tag_196\n        /* \"#utility.yul\":6988:6995   */\n      dup5\n        /* \"#utility.yul\":6979:6985   */\n      dup3\n        /* \"#utility.yul\":6968:6977   */\n      dup6\n        /* \"#utility.yul\":6964:6986   */\n      add\n        /* \"#utility.yul\":6943:6996   */\n      tag_95\n      jump\t// in\n    tag_196:\n        /* \"#utility.yul\":6933:6996   */\n      swap2\n      pop\n        /* \"#utility.yul\":6889:7006   */\n      pop\n        /* \"#utility.yul\":6684:7013   */\n      swap3\n      swap2\n      pop\n      pop\n      jump\t// out\n        /* \"#utility.yul\":7019:7199   */\n    tag_96:\n        /* \"#utility.yul\":7067:7144   */\n      0x4e487b7100000000000000000000000000000000000000000000000000000000\n        /* \"#utility.yul\":7064:7065   */\n      0x00\n        /* \"#utility.yul\":7057:7145   */\n      mstore\n        /* \"#utility.yul\":7164:7168   */\n      0x22\n        /* \"#utility.yul\":7161:7162   */\n      0x04\n        /* \"#utility.yul\":7154:7169   */\n      mstore\n        /* \"#utility.yul\":7188:7192   */\n      0x24\n        /* \"#utility.yul\":7185:7186   */\n      0x00\n        /* \"#utility.yul\":7178:7193   */\n      revert\n        /* \"#utility.yul\":7205:7525   */\n    tag_51:\n        /* \"#utility.yul\":7249:7255   */\n      0x00\n        /* \"#utility.yul\":7286:7287   */\n      0x02\n        /* \"#utility.yul\":7280:7284   */\n      dup3\n        /* \"#utility.yul\":7276:7288   */\n      div\n        /* \"#utility.yul\":7266:7288   */\n      swap1\n      pop\n        /* \"#utility.yul\":7333:7334   */\n      0x01\n        /* \"#utility.yul\":7327:7331   */\n      dup3\n        /* \"#utility.yul\":7323:7335   */\n      and\n        /* \"#utility.yul\":7354:7372   */\n      dup1\n        /* \"#utility.yul\":7344:7425   */\n      tag_199\n      jumpi\n        /* \"#utility.yul\":7410:7414   */\n      0x7f\n        /* \"#utility.yul\":7402:7408   */\n      dup3\n        /* \"#utility.yul\":7398:7415   */\n      and\n        /* \"#utility.yul\":7388:7415   */\n      swap2\n      pop\n        /* \"#utility.yul\":7344:7425   */\n    tag_199:\n        /* \"#utility.yul\":7472:7474   */\n      0x20\n        /* \"#utility.yul\":7464:7470   */\n      dup3\n        /* \"#utility.yul\":7461:7475   */\n      lt\n        /* \"#utility.yul\":7441:7459   */\n      dup2\n        /* \"#utility.yul\":7438:7476   */\n      sub\n        /* \"#utility.yul\":7435:7519   */\n      tag_200\n      jumpi\n        /* \"#utility.yul\":7491:7509   */\n      tag_201\n      tag_96\n      jump\t// in\n    tag_201:\n        /* \"#utility.yul\":7435:7519   */\n    tag_200:\n        /* \"#utility.yul\":7256:7525   */\n      pop\n        /* \"#utility.yul\":7205:7525   */\n      swap2\n      swap1\n      pop\n      jump\t// out\n        /* \"#utility.yul\":7531:7711   */\n    tag_97:\n        /* \"#utility.yul\":7579:7656   */\n      0x4e487b7100000000000000000000000000000000000000000000000000000000\n        /* \"#utility.yul\":7576:7577   */\n      0x00\n        /* \"#utility.yul\":7569:7657   */\n      mstore\n        /* \"#utility.yul\":7676:7680   */\n      0x11\n        /* \"#utility.yul\":7673:7674   */\n      0x04\n        /* \"#utility.yul\":7666:7681   */\n      mstore\n        /* \"#utility.yul\":7700:7704   */\n      0x24\n        /* \"#utility.yul\":7697:7698   */\n      0x00\n        /* \"#utility.yul\":7690:7705   */\n      revert\n        /* \"#utility.yul\":7717:7911   */\n    tag_58:\n        /* \"#utility.yul\":7757:7761   */\n      0x00\n        /* \"#utility.yul\":7777:7797   */\n      tag_204\n        /* \"#utility.yul\":7795:7796   */\n      dup3\n        /* \"#utility.yul\":7777:7797   */\n      tag_70\n      jump\t// in\n    tag_204:\n        /* \"#utility.yul\":7772:7797   */\n      swap2\n      pop\n        /* \"#utility.yul\":7811:7831   */\n      tag_205\n        /* \"#utility.yul\":7829:7830   */\n      dup4\n        /* \"#utility.yul\":7811:7831   */\n      tag_70\n      jump\t// in\n    tag_205:\n        /* \"#utility.yul\":7806:7831   */\n      swap3\n      pop\n        /* \"#utility.yul\":7855:7856   */\n      dup3\n        /* \"#utility.yul\":7852:7853   */\n      dup3\n        /* \"#utility.yul\":7848:7857   */\n      sub\n        /* \"#utility.yul\":7840:7857   */\n      swap1\n      pop\n        /* \"#utility.yul\":7879:7880   */\n      dup2\n        /* \"#utility.yul\":7873:7877   */\n      dup2\n        /* \"#utility.yul\":7870:7881   */\n      gt\n        /* \"#utility.yul\":7867:7904   */\n      iszero\n      tag_206\n      jumpi\n        /* \"#utility.yul\":7884:7902   */\n      tag_207\n      tag_97\n      jump\t// in\n    tag_207:\n        /* \"#utility.yul\":7867:7904   */\n    tag_206:\n        /* \"#utility.yul\":7717:7911   */\n      swap3\n      swap2\n      pop\n      pop\n      jump\t// out\n        /* \"#utility.yul\":7917:8058   */\n    tag_98:\n        /* \"#utility.yul\":7966:7970   */\n      0x00\n        /* \"#utility.yul\":7989:7992   */\n      dup2\n        /* \"#utility.yul\":7981:7992   */\n      swap1\n      pop\n        /* \"#utility.yul\":8012:8015   */\n      dup2\n        /* \"#utility.yul\":8009:8010   */\n      0x00\n        /* \"#utility.yul\":8002:8016   */\n      mstore\n        /* \"#utility.yul\":8046:8050   */\n      0x20\n        /* \"#utility.yul\":8043:8044   */\n      0x00\n        /* \"#utility.yul\":8033:8051   */\n      keccak256\n        /* \"#utility.yul\":8025:8051   */\n      swap1\n      pop\n        /* \"#utility.yul\":7917:8058   */\n      swap2\n      swap1\n      pop\n      jump\t// out\n        /* \"#utility.yul\":8064:8157   */\n    tag_99:\n        /* \"#utility.yul\":8101:8107   */\n      0x00\n        /* \"#utility.yul\":8148:8150   */\n      0x20\n        /* \"#utility.yul\":8143:8145   */\n      0x1f\n        /* \"#utility.yul\":8136:8141   */\n      dup4\n        /* \"#utility.yul\":8132:8146   */\n      add\n        /* \"#utility.yul\":8128:8151   */\n      div\n        /* \"#utility.yul\":8118:8151   */\n      swap1\n      pop\n        /* \"#utility.yul\":8064:8157   */\n      swap2\n      swap1\n      pop\n      jump\t// out\n        /* \"#utility.yul\":8163:8270   */\n    tag_100:\n        /* \"#utility.yul\":8207:8215   */\n      0x00\n        /* \"#utility.yul\":8257:8262   */\n      dup3\n        /* \"#utility.yul\":8251:8255   */\n      dup3\n        /* \"#utility.yul\":8247:8263   */\n      shl\n        /* \"#utility.yul\":8226:8263   */\n      swap1\n      pop\n        /* \"#utility.yul\":8163:8270   */\n      swap3\n      swap2\n      pop\n      pop\n      jump\t// out\n        /* \"#utility.yul\":8276:8669   */\n    tag_101:\n        /* \"#utility.yul\":8345:8351   */\n      0x00\n        /* \"#utility.yul\":8395:8396   */\n      0x08\n        /* \"#utility.yul\":8383:8393   */\n      dup4\n        /* \"#utility.yul\":8379:8397   */\n      mul\n        /* \"#utility.yul\":8418:8515   */\n      tag_212\n        /* \"#utility.yul\":8448:8514   */\n      0xffffffffffffffffffffffffffffffffffffffffffffffffffffffffffffffff\n        /* \"#utility.yul\":8437:8446   */\n      dup3\n        /* \"#utility.yul\":8418:8515   */\n      tag_100\n      jump\t// in\n    tag_212:\n        /* \"#utility.yul\":8536:8575   */\n      tag_213\n        /* \"#utility.yul\":8566:8574   */\n      dup7\n        /* \"#utility.yul\":8555:8564   */\n      dup4\n        /* \"#utility.yul\":8536:8575   */\n      tag_100\n      jump\t// in\n    tag_213:\n        /* \"#utility.yul\":8524:8575   */\n      swap6\n      pop\n        /* \"#utility.yul\":8608:8612   */\n      dup1\n        /* \"#utility.yul\":8604:8613   */\n      not\n        /* \"#utility.yul\":8597:8602   */\n      dup5\n        /* \"#utility.yul\":8593:8614   */\n      and\n        /* \"#utility.yul\":8584:8614   */\n      swap4\n      pop\n        /* \"#utility.yul\":8657:8661   */\n      dup1\n        /* \"#utility.yul\":8647:8655   */\n      dup7\n        /* \"#utility.yul\":8643:8662   */\n      and\n        /* \"#utility.yul\":8636:8641   */\n      dup5\n        /* \"#utility.yul\":8633:8663   */\n      or\n        /* \"#utility.yul\":8623:8663   */\n      swap3\n      pop\n        /* \"#utility.yul\":8352:8669   */\n      pop\n      pop\n        /* \"#utility.yul\":8276:8669   */\n      swap4\n      swap3\n      pop\n      pop\n      pop\n      jump\t// out\n        /* \"#utility.yul\":8675:8735   */\n    tag_102:\n        /* \"#utility.yul\":8703:8706   */\n      0x00\n        /* \"#utility.yul\":8724:8729   */\n      dup2\n        /* \"#utility.yul\":8717:8729   */\n      swap1\n      pop\n        /* \"#utility.yul\":8675:8735   */\n      swap2\n      swap1\n      pop\n      jump\t// out\n        /* \"#utility.yul\":8741:8883   */\n    tag_103:\n        /* \"#utility.yul\":8791:8800   */\n      0x00\n        /* \"#utility.yul\":8824:8877   */\n      tag_216\n        /* \"#utility.yul\":8842:8876   */\n      tag_217\n        /* \"#utility.yul\":8851:8875   */\n      tag_218\n        /* \"#utility.yul\":8869:8874   */\n      dup5\n        /* \"#utility.yul\":8851:8875   */\n      tag_70\n      jump\t// in\n    tag_218:\n        /* \"#utility.yul\":8842:8876   */\n      tag_102\n      jump\t// in\n    tag_217:\n        /* \"#utility.yul\":8824:8877   */\n      tag_70\n      jump\t// in\n    tag_216:\n        /* \"#utility.yul\":8811:8877   */\n      swap1\n      pop\n        /* \"#utility.yul\":8741:8883   */\n      swap2\n      swap1\n      pop\n      jump\t// out\n        /* \"#utility.yul\":8889:8964   */\n    tag_104:\n        /* \"#utility.yul\":8932:8935   */\n      0x00\n        /* \"#utility.yul\":8953:8958   */\n      dup2\n        /* \"#utility.yul\":8946:8958   */\n      swap1\n      pop\n        /* \"#utility.yul\":8889:8964   */\n      swap2\n      swap1\n      pop\n      jump\t// out\n        /* \"#utility.yul\":8970:9239   */\n    tag_105:\n        /* \"#utility.yul\":9080:9119   */\n      tag_221\n        /* \"#utility.yul\":9111:9118   */\n      dup4\n        /* \"#utility.yul\":9080:9119   */\n      tag_103\n      jump\t// in\n    tag_221:\n        /* \"#utility.yul\":9141:9232   */\n      tag_222\n        /* \"#utility.yul\":9190:9231   */\n      tag_223\n        /* \"#utility.yul\":9214:9230   */\n      dup3\n        /* \"#utility.yul\":9190:9231   */\n      tag_104\n      jump\t// in\n    tag_223:\n        /* \"#utility.yul\":9182:9188   */\n      dup5\n        /* \"#utility.yul\":9175:9179   */\n      dup5\n        /* \"#utility.yul\":9169:9180   */\n      sload\n        /* \"#utility.yul\":9141:9232   */\n      tag_101\n      jump\t// in\n    tag_222:\n        /* \"#utility.yul\":9135:9139   */\n      dup3\n        /* \"#utility.yul\":9128:9233   */\n      sstore\n        /* \"#utility.yul\":9046:9239   */\n      pop\n        /* \"#utility.yul\":8970:9239   */\n      pop\n      pop\n      pop\n      jump\t// out\n        /* \"#utility.yul\":9245:9318   */\n    tag_106:\n        /* \"#utility.yul\":9290:9293   */\n      0x00\n        /* \"#utility.yul\":9245:9318   */\n      swap1\n      jump\t// out\n        /* \"#utility.yul\":9324:9513   */\n    tag_107:\n        /* \"#utility.yul\":9401:9433   */\n      tag_226\n      tag_106\n      jump\t// in\n    tag_226:\n        /* \"#utility.yul\":9442:9507   */\n      tag_227\n        /* \"#utility.yul\":9500:9506   */\n      dup2\n        /* \"#utility.yul\":9492:9498   */\n      dup5\n        /* \"#utility.yul\":9486:9490   */\n      dup5\n        /* \"#utility.yul\":9442:9507   */\n      tag_105\n      jump\t// in\n    tag_227:\n        /* \"#utility.yul\":9377:9513   */\n      pop\n        /* \"#utility.yul\":9324:9513   */\n      pop\n      pop\n      jump\t// out\n        /* \"#utility.yul\":9519:9705   */\n    tag_108:\n        /* \"#utility.yul\":9579:9699   */\n    tag_229:\n        /* \"#utility.yul\":9596:9599   */\n      dup2\n        /* \"#utility.yul\":9589:9594   */\n      dup2\n        /* \"#utility.yul\":9586:9600   */\n      lt\n        /* \"#utility.yul\":9579:9699   */\n      iszero\n      tag_231\n      jumpi\n        /* \"#utility.yul\":9650:9689   */\n      tag_232\n        /* \"#utility.yul\":9687:9688   */\n      0x00\n        /* \"#utility.yul\":9680:9685   */\n      dup3\n        /* \"#utility.yul\":9650:9689   */\n      tag_107\n      jump\t// in\n    tag_232:\n        /* \"#utility.yul\":9623:9624   */\n      0x01\n        /* \"#utility.yul\":9616:9621   */\n      dup2\n        /* \"#utility.yul\":9612:9625   */\n      add\n        /* \"#utility.yul\":9603:9625   */\n      swap1\n      pop\n        /* \"#utility.yul\":9579:9699   */\n      jump(tag_229)\n    tag_231:\n        /* \"#utility.yul\":9519:9705   */\n      pop\n      pop\n      jump\t// out\n        /* \"#utility.yul\":9711:10254   */\n    tag_109:\n        /* \"#utility.yul\":9812:9814   */\n      0x1f\n        /* \"#utility.yul\":9807:9810   */\n      dup3\n        /* \"#utility.yul\":9804:9815   */\n      gt\n        /* \"#utility.yul\":9801:10247   */\n      iszero\n      tag_234\n      jumpi\n        /* \"#utility.yul\":9846:9884   */\n      tag_235\n        /* \"#utility.yul\":9878:9883   */\n      dup2\n        /* \"#utility.yul\":9846:9884   */\n      tag_98\n      jump\t// in\n    tag_235:\n        /* \"#utility.yul\":9930:9959   */\n      tag_236\n        /* \"#utility.yul\":9948:9958   */\n      dup5\n        /* \"#utility.yul\":9930:9959   */\n      tag_99\n      jump\t// in\n    tag_236:\n        /* \"#utility.yul\":9920:9928   */\n      dup2\n        /* \"#utility.yul\":9916:9960   */\n      add\n        /* \"#utility.yul\":10113:10115   */\n      0x20\n        /* \"#utility.yul\":10101:10111   */\n      dup6\n        /* \"#utility.yul\":10098:10116   */\n      lt\n        /* \"#utility.yul\":10095:10144   */\n      iszero\n      tag_237\n      jumpi\n        /* \"#utility.yul\":10134:10142   */\n      dup2\n        /* \"#utility.yul\":10119:10142   */\n      swap1\n      pop\n        /* \"#utility.yul\":10095:10144   */\n    tag_237:\n        /* \"#utility.yul\":10157:10237   */\n      tag_238\n        /* \"#utility.yul\":10213:10235   */\n      tag_239\n        /* \"#utility.yul\":10231:10234   */\n      dup6\n        /* \"#utility.yul\":10213:10235   */\n      tag_99\n      jump\t// in\n    tag_239:\n        /* \"#utility.yul\":10203:10211   */\n      dup4\n        /* \"#utility.yul\":10199:10236   */\n      add\n        /* \"#utility.yul\":10186:10197   */\n      dup3\n        /* \"#utility.yul\":10157:10237   */\n      tag_108\n      jump\t// in\n    tag_238:\n        /* \"#utility.yul\":9816:10247   */\n      pop\n      pop\n        /* \"#utility.yul\":9801:10247   */\n    tag_234:\n        /* \"#utility.yul\":9711:10254   */\n      pop\n      pop\n      pop\n      jump\t// out\n        /* \"#utility.yul\":10260:10377   */\n    tag_110:\n        /* \"#utility.yul\":10314:10322   */\n      0x00\n        /* \"#utility.yul\":10364:10369   */\n      dup3\n        /* \"#utility.yul\":10358:10362   */\n      dup3\n        /* \"#utility.yul\":10354:10370   */\n      shr\n        /* \"#utility.yul\":10333:10370   */\n      swap1\n      pop\n        /* \"#utility.yul\":10260:10377   */\n      swap3\n      swap2\n      pop\n      pop\n      jump\t// out\n        /* \"#utility.yul\":10383:10552   */\n    tag_111:\n        /* \"#utility.yul\":10427:10433   */\n      0x00\n        /* \"#utility.yul\":10460:10511   */\n      tag_242\n        /* \"#utility.yul\":10508:10509   */\n      0x00\n        /* \"#utility.yul\":10504:10510   */\n      not\n        /* \"#utility.yul\":10496:10501   */\n      dup5\n        /* \"#utility.yul\":10493:10494   */\n      0x08\n        /* \"#utility.yul\":10489:10502   */\n      mul\n        /* \"#utility.yul\":10460:10511   */\n      tag_110\n      jump\t// in\n    tag_242:\n        /* \"#utility.yul\":10456:10512   */\n      not\n        /* \"#utility.yul\":10541:10545   */\n      dup1\n        /* \"#utility.yul\":10535:10539   */\n      dup4\n        /* \"#utility.yul\":10531:10546   */\n      and\n        /* \"#utility.yul\":10521:10546   */\n      swap2\n      pop\n        /* \"#utility.yul\":10434:10552   */\n      pop\n        /* \"#utility.yul\":10383:10552   */\n      swap3\n      swap2\n      pop\n      pop\n      jump\t// out\n        /* \"#utility.yul\":10557:10852   */\n    tag_112:\n        /* \"#utility.yul\":10633:10637   */\n      0x00\n        /* \"#utility.yul\":10779:10808   */\n      tag_244\n        /* \"#utility.yul\":10804:10807   */\n      dup4\n        /* \"#utility.yul\":10798:10802   */\n      dup4\n        /* \"#utility.yul\":10779:10808   */\n      tag_111\n      jump\t// in\n    tag_244:\n        /* \"#utility.yul\":10771:10808   */\n      swap2\n      pop\n        /* \"#utility.yul\":10841:10844   */\n      dup3\n        /* \"#utility.yul\":10838:10839   */\n      0x02\n        /* \"#utility.yul\":10834:10845   */\n      mul\n        /* \"#utility.yul\":10828:10832   */\n      dup3\n        /* \"#utility.yul\":10825:10846   */\n      or\n        /* \"#utility.yul\":10817:10846   */\n      swap1\n      pop\n        /* \"#utility.yul\":10557:10852   */\n      swap3\n      swap2\n      pop\n      pop\n      jump\t// out\n        /* \"#utility.yul\":10857:12252   */\n    tag_61:\n        /* \"#utility.yul\":10974:11011   */\n      tag_246\n        /* \"#utility.yul\":11007:11010   */\n      dup3\n        /* \"#utility.yul\":10974:11011   */\n      tag_72\n      jump\t// in\n    tag_246:\n        /* \"#utility.yul\":11076:11094   */\n      0xffffffffffffffff\n        /* \"#utility.yul\":11068:11074   */\n      dup2\n        /* \"#utility.yul\":11065:11095   */\n      gt\n        /* \"#utility.yul\":11062:11118   */\n      iszero\n      tag_247\n      jumpi\n        /* \"#utility.yul\":11098:11116   */\n      tag_248\n      tag_82\n      jump\t// in\n    tag_248:\n        /* \"#utility.yul\":11062:11118   */\n    tag_247:\n        /* \"#utility.yul\":11142:11180   */\n      tag_249\n        /* \"#utility.yul\":11174:11178   */\n      dup3\n        /* \"#utility.yul\":11168:11179   */\n      sload\n        /* \"#utility.yul\":11142:11180   */\n      tag_51\n      jump\t// in\n    tag_249:\n        /* \"#utility.yul\":11227:11294   */\n      tag_250\n        /* \"#utility.yul\":11287:11293   */\n      dup3\n        /* \"#utility.yul\":11279:11285   */\n      dup3\n        /* \"#utility.yul\":11273:11277   */\n      dup6\n        /* \"#utility.yul\":11227:11294   */\n      tag_109\n      jump\t// in\n    tag_250:\n        /* \"#utility.yul\":11321:11322   */\n      0x00\n        /* \"#utility.yul\":11345:11349   */\n      0x20\n        /* \"#utility.yul\":11332:11349   */\n      swap1\n      pop\n        /* \"#utility.yul\":11377:11379   */\n      0x1f\n        /* \"#utility.yul\":11369:11375   */\n      dup4\n        /* \"#utility.yul\":11366:11380   */\n      gt\n        /* \"#utility.yul\":11394:11395   */\n      0x01\n        /* \"#utility.yul\":11389:12007   */\n      dup2\n      eq\n      tag_252\n      jumpi\n        /* \"#utility.yul\":12051:12052   */\n      0x00\n        /* \"#utility.yul\":12068:12074   */\n      dup5\n        /* \"#utility.yul\":12065:12142   */\n      iszero\n      tag_253\n      jumpi\n        /* \"#utility.yul\":12117:12126   */\n      dup3\n        /* \"#utility.yul\":12112:12115   */\n      dup8\n        /* \"#utility.yul\":12108:12127   */\n      add\n        /* \"#utility.yul\":12102:12128   */\n      mload\n        /* \"#utility.yul\":12093:12128   */\n      swap1\n      pop\n        /* \"#utility.yul\":12065:12142   */\n    tag_253:\n        /* \"#utility.yul\":12168:12235   */\n      tag_254\n        /* \"#utility.yul\":12228:12234   */\n      dup6\n        /* \"#utility.yul\":12221:12226   */\n      dup3\n        /* \"#utility.yul\":12168:12235   */\n      tag_112\n      jump\t// in\n    tag_254:\n        /* \"#utility.yul\":12162:12166   */\n      dup7\n        /* \"#utility.yul\":12155:12236   */\n      sstore\n        /* \"#utility.yul\":12024:12246   */\n      pop\n        /* \"#utility.yul\":11359:12246   */\n      jump(tag_251)\n        /* \"#utility.yul\":11389:12007   */\n    tag_252:\n        /* \"#utility.yul\":11441:11445   */\n      0x1f\n        /* \"#utility.yul\":11437:11446   */\n      not\n        /* \"#utility.yul\":11429:11435   */\n      dup5\n        /* \"#utility.yul\":11425:11447   */\n      and\n        /* \"#utility.yul\":11475:11512   */\n      tag_255\n        /* \"#utility.yul\":11507:11511   */\n      dup7\n        /* \"#utility.yul\":11475:11512   */\n      tag_98\n      jump\t// in\n    tag_255:\n        /* \"#utility.yul\":11534:11535   */\n      0x00\n        /* \"#utility.yul\":11548:11756   */\n    tag_256:\n        /* \"#utility.yul\":11562:11569   */\n      dup3\n        /* \"#utility.yul\":11559:11560   */\n      dup2\n        /* \"#utility.yul\":11556:11570   */\n      lt\n        /* \"#utility.yul\":11548:11756   */\n      iszero\n      tag_258\n      jumpi\n        /* \"#utility.yul\":11641:11650   */\n      dup5\n        /* \"#utility.yul\":11636:11639   */\n      dup10\n        /* \"#utility.yul\":11632:11651   */\n      add\n        /* \"#utility.yul\":11626:11652   */\n      mload\n        /* \"#utility.yul\":11618:11624   */\n      dup3\n        /* \"#utility.yul\":11611:11653   */\n      sstore\n        /* \"#utility.yul\":11692:11693   */\n      0x01\n        /* \"#utility.yul\":11684:11690   */\n      dup3\n        /* \"#utility.yul\":11680:11694   */\n      add\n        /* \"#utility.yul\":11670:11694   */\n      swap2\n      pop\n        /* \"#utility.yul\":11739:11741   */\n      0x20\n        /* \"#utility.yul\":11728:11737   */\n      dup6\n        /* \"#utility.yul\":11724:11742   */\n      add\n        /* \"#utility.yul\":11711:11742   */\n      swap5\n      pop\n        /* \"#utility.yul\":11585:11589   */\n      0x20\n        /* \"#utility.yul\":11582:11583   */\n      dup2\n        /* \"#utility.yul\":11578:11590   */\n      add\n        /* \"#utility.yul\":11573:11590   */\n      swap1\n      pop\n        /* \"#utility.yul\":11548:11756   */\n      jump(tag_256)\n    tag_258:\n        /* \"#utility.yul\":11784:11790   */\n      dup7\n        /* \"#utility.yul\":11775:11782   */\n      dup4\n        /* \"#utility.yul\":11772:11791   */\n      lt\n        /* \"#utility.yul\":11769:11948   */\n      iszero\n      tag_259\n      jumpi\n        /* \"#utility.yul\":11842:11851   */\n      dup5\n        /* \"#utility.yul\":11837:11840   */\n      dup10\n        /* \"#utility.yul\":11833:11852   */\n      add\n        /* \"#utility.yul\":11827:11853   */\n      mload\n        /* \"#utility.yul\":11885:11933   */\n      tag_260\n        /* \"#utility.yul\":11927:11931   */\n      0x1f\n        /* \"#utility.yul\":11919:11925   */\n      dup10\n        /* \"#utility.yul\":11915:11932   */\n      and\n        /* \"#utility.yul\":11904:11913   */\n      dup3\n        /* \"#utility.yul\":11885:11933   */\n      tag_111\n      jump\t// in\n    tag_260:\n        /* \"#utility.yul\":11877:11883   */\n      dup4\n        /* \"#utility.yul\":11870:11934   */\n      sstore\n        /* \"#utility.yul\":11792:11948   */\n      pop\n        /* \"#utility.yul\":11769:11948   */\n    tag_259:\n        /* \"#utility.yul\":11994:11995   */\n      0x01\n        /* \"#utility.yul\":11990:11991   */\n      0x02\n        /* \"#utility.yul\":11982:11988   */\n      dup9\n        /* \"#utility.yul\":11978:11992   */\n      mul\n        /* \"#utility.yul\":11974:11996   */\n      add\n        /* \"#utility.yul\":11968:11972   */\n      dup9\n        /* \"#utility.yul\":11961:11997   */\n      sstore\n        /* \"#utility.yul\":11396:12007   */\n      pop\n      pop\n      pop\n        /* \"#utility.yul\":11359:12246   */\n    tag_251:\n      pop\n        /* \"#utility.yul\":10949:12252   */\n      pop\n      pop\n      pop\n        /* \"#utility.yul\":10857:12252   */\n      pop\n      pop\n      jump\t// out\n        /* \"#utility.yul\":12258:12449   */\n    tag_65:\n        /* \"#utility.yul\":12298:12301   */\n      0x00\n        /* \"#utility.yul\":12317:12337   */\n      tag_262\n        /* \"#utility.yul\":12335:12336   */\n      dup3\n        /* \"#utility.yul\":12317:12337   */\n      tag_70\n      jump\t// in\n    tag_262:\n        /* \"#utility.yul\":12312:12337   */\n      swap2\n      pop\n        /* \"#utility.yul\":12351:12371   */\n      tag_263\n        /* \"#utility.yul\":12369:12370   */\n      dup4\n        /* \"#utility.yul\":12351:12371   */\n      tag_70\n      jump\t// in\n    tag_263:\n        /* \"#utility.yul\":12346:12371   */\n      swap3\n      pop\n        /* \"#utility.yul\":12394:12395   */\n      dup3\n        /* \"#utility.yul\":12391:12392   */\n      dup3\n        /* \"#utility.yul\":12387:12396   */\n      add\n        /* \"#utility.yul\":12380:12396   */\n      swap1\n      pop\n        /* \"#utility.yul\":12415:12418   */\n      dup1\n        /* \"#utility.yul\":12412:12413   */\n      dup3\n        /* \"#utility.yul\":12409:12419   */\n      gt\n        /* \"#utility.yul\":12406:12442   */\n      iszero\n      tag_264\n      jumpi\n        /* \"#utility.yul\":12422:12440   */\n      tag_265\n      tag_97\n      jump\t// in\n    tag_265:\n        /* \"#utility.yul\":12406:12442   */\n    tag_264:\n        /* \"#utility.yul\":12258:12449   */\n      swap3\n      swap2\n      pop\n      pop\n      jump\t// out\n\n    auxdata: 0xa26469706673582212201b9b3625d61f8ecd7197cd124b20eadeb0044c6a228c6849ce4aebc8ae6cf8e464736f6c63430008120033\n}\n",
				"bytecode": {
					"linkReferences": {},
					"object": "6080604052600080556040518060400160405280600581526020017f56696b6173000000000000000000000000000000000000000000000000000000815250600190816200004e919062000332565b50735b38da6a701c568545dcfcb03fcb875f56beddc4600260006101000a81548173ffffffffffffffffffffffffffffffffffffffff021916908373ffffffffffffffffffffffffffffffffffffffff160217905550348015620000b157600080fd5b5062000419565b600081519050919050565b7f4e487b7100000000000000000000000000000000000000000000000000000000600052604160045260246000fd5b7f4e487b7100000000000000000000000000000000000000000000000000000000600052602260045260246000fd5b600060028204905060018216806200013a57607f821691505b60208210810362000150576200014f620000f2565b5b50919050565b60008190508160005260206000209050919050565b60006020601f8301049050919050565b600082821b905092915050565b600060088302620001ba7fffffffffffffffffffffffffffffffffffffffffffffffffffffffffffffffff826200017b565b620001c686836200017b565b95508019841693508086168417925050509392505050565b6000819050919050565b6000819050919050565b6000620002136200020d6200020784620001de565b620001e8565b620001de565b9050919050565b6000819050919050565b6200022f83620001f2565b620002476200023e826200021a565b84845462000188565b825550505050565b600090565b6200025e6200024f565b6200026b81848462000224565b505050565b5b8181101562000293576200028760008262000254565b60018101905062000271565b5050565b601f821115620002e257620002ac8162000156565b620002b7846200016b565b81016020851015620002c7578190505b620002df620002d6856200016b565b83018262000270565b50505b505050565b600082821c905092915050565b60006200030760001984600802620002e7565b1980831691505092915050565b6000620003228383620002f4565b9150826002028217905092915050565b6200033d82620000b8565b67ffffffffffffffff811115620003595762000358620000c3565b5b62000365825462000121565b6200037282828562000297565b600060209050601f831160018114620003aa576000841562000395578287015190505b620003a1858262000314565b86555062000411565b601f198416620003ba8662000156565b60005b82811015620003e457848901518255600182019150602085019450602081019050620003bd565b8683101562000404578489015162000400601f891682620002f4565b8355505b6001600288020188555050505b505050505050565b610a8c80620004296000396000f3fe608060405234801561001057600080fd5b506004361061009e5760003560e01c8063771602f711610066578063771602f7146101215780638da5cb5b14610151578063a6f9dae11461016f578063a87d942c1461018b578063d09de08a146101a95761009e565b806306661abd146100a357806306fdde03146100c15780632baeceb7146100df5780635353a2d8146100e957806375322e4714610105575b600080fd5b6100ab6101b3565b6040516100b89190610334565b60405180910390f35b6100c96101b9565b6040516100d691906103df565b60405180910390f35b6100e7610247565b005b61010360048036038101906100fe919061054a565b61025e565b005b61011f600480360381019061011a91906105bf565b610271565b005b61013b600480360381019061013691906105ec565b61027b565b6040516101489190610334565b60405180910390f35b610159610291565b604051610166919061066d565b60405180910390f35b610189600480360381019061018491906106b4565b6102b7565b005b6101936102fb565b6040516101a09190610334565b60405180910390f35b6101b1610304565b005b60005481565b600180546101c690610710565b80601f01602080910402602001604051908101604052809291908181526020018280546101f290610710565b801561023f5780601f106102145761010080835404028352916020019161023f565b820191906000526020600020905b81548152906001019060200180831161022257829003601f168201915b505050505081565b60016000546102569190610770565b600081905550565b806001908161026d9190610950565b5050565b8060008190555050565b600081836102899190610a22565b905092915050565b600260009054906101000a900473ffffffffffffffffffffffffffffffffffffffff1681565b80600260006101000a81548173ffffffffffffffffffffffffffffffffffffffff021916908373ffffffffffffffffffffffffffffffffffffffff16021790555050565b60008054905090565b60016000546103139190610a22565b600081905550565b6000819050919050565b61032e8161031b565b82525050565b60006020820190506103496000830184610325565b92915050565b600081519050919050565b600082825260208201905092915050565b60005b8381101561038957808201518184015260208101905061036e565b60008484015250505050565b6000601f19601f8301169050919050565b60006103b18261034f565b6103bb818561035a565b93506103cb81856020860161036b565b6103d481610395565b840191505092915050565b600060208201905081810360008301526103f981846103a6565b905092915050565b6000604051905090565b600080fd5b600080fd5b600080fd5b600080fd5b7f4e487b7100000000000000000000000000000000000000000000000000000000600052604160045260246000fd5b61045782610395565b810181811067ffffffffffffffff821117156104765761047561041f565b5b80604052505050565b6000610489610401565b9050610495828261044e565b919050565b600067ffffffffffffffff8211156104b5576104b461041f565b5b6104be82610395565b9050602081019050919050565b82818337600083830152505050565b60006104ed6104e88461049a565b61047f565b9050828152602081018484840111156105095761050861041a565b5b6105148482856104cb565b509392505050565b600082601f83011261053157610530610415565b5b81356105418482602086016104da565b91505092915050565b6000602082840312156105605761055f61040b565b5b600082013567ffffffffffffffff81111561057e5761057d610410565b5b61058a8482850161051c565b91505092915050565b61059c8161031b565b81146105a757600080fd5b50565b6000813590506105b981610593565b92915050565b6000602082840312156105d5576105d461040b565b5b60006105e3848285016105aa565b91505092915050565b600080604083850312156106035761060261040b565b5b6000610611858286016105aa565b9250506020610622858286016105aa565b9150509250929050565b600073ffffffffffffffffffffffffffffffffffffffff82169050919050565b60006106578261062c565b9050919050565b6106678161064c565b82525050565b6000602082019050610682600083018461065e565b92915050565b6106918161064c565b811461069c57600080fd5b50565b6000813590506106ae81610688565b92915050565b6000602082840312156106ca576106c961040b565b5b60006106d88482850161069f565b91505092915050565b7f4e487b7100000000000000000000000000000000000000000000000000000000600052602260045260246000fd5b6000600282049050600182168061072857607f821691505b60208210810361073b5761073a6106e1565b5b50919050565b7f4e487b7100000000000000000000000000000000000000000000000000000000600052601160045260246000fd5b600061077b8261031b565b91506107868361031b565b925082820390508181111561079e5761079d610741565b5b92915050565b60008190508160005260206000209050919050565b60006020601f8301049050919050565b600082821b905092915050565b6000600883026108067fffffffffffffffffffffffffffffffffffffffffffffffffffffffffffffffff826107c9565b61081086836107c9565b95508019841693508086168417925050509392505050565b6000819050919050565b600061084d6108486108438461031b565b610828565b61031b565b9050919050565b6000819050919050565b61086783610832565b61087b61087382610854565b8484546107d6565b825550505050565b600090565b610890610883565b61089b81848461085e565b505050565b5b818110156108bf576108b4600082610888565b6001810190506108a1565b5050565b601f821115610904576108d5816107a4565b6108de846107b9565b810160208510156108ed578190505b6109016108f9856107b9565b8301826108a0565b50505b505050565b600082821c905092915050565b600061092760001984600802610909565b1980831691505092915050565b60006109408383610916565b9150826002028217905092915050565b6109598261034f565b67ffffffffffffffff8111156109725761097161041f565b5b61097c8254610710565b6109878282856108c3565b600060209050601f8311600181146109ba57600084156109a8578287015190505b6109b28582610934565b865550610a1a565b601f1984166109c8866107a4565b60005b828110156109f0578489015182556001820191506020850194506020810190506109cb565b86831015610a0d5784890151610a09601f891682610916565b8355505b6001600288020188555050505b505050505050565b6000610a2d8261031b565b9150610a388361031b565b9250828201905080821115610a5057610a4f610741565b5b9291505056fea26469706673582212201b9b3625d61f8ecd7197cd124b20eadeb0044c6a228c6849ce4aebc8ae6cf8e464736f6c63430008120033",
					"opcodes": "PUSH1 0x80 PUSH1 0x40 MSTORE PUSH1 0x0 DUP1 SSTORE PUSH1 0x40 MLOAD DUP1 PUSH1 0x40 ADD PUSH1 0x40 MSTORE DUP1 PUSH1 0x5 DUP2 MSTORE PUSH1 0x20 ADD PUSH32 0x56696B6173000000000000000000000000000000000000000000000000000000 DUP2 MSTORE POP PUSH1 0x1 SWAP1 DUP2 PUSH3 0x4E SWAP2 SWAP1 PUSH3 0x332 JUMP JUMPDEST POP PUSH20 0x5B38DA6A701C568545DCFCB03FCB875F56BEDDC4 PUSH1 0x2 PUSH1 0x0 PUSH2 0x100 EXP DUP2 SLOAD DUP2 PUSH20 0xFFFFFFFFFFFFFFFFFFFFFFFFFFFFFFFFFFFFFFFF MUL NOT AND SWAP1 DUP4 PUSH20 0xFFFFFFFFFFFFFFFFFFFFFFFFFFFFFFFFFFFFFFFF AND MUL OR SWAP1 SSTORE POP CALLVALUE DUP1 ISZERO PUSH3 0xB1 JUMPI PUSH1 0x0 DUP1 REVERT JUMPDEST POP PUSH3 0x419 JUMP JUMPDEST PUSH1 0x0 DUP2 MLOAD SWAP1 POP SWAP2 SWAP1 POP JUMP JUMPDEST PUSH32 0x4E487B7100000000000000000000000000000000000000000000000000000000 PUSH1 0x0 MSTORE PUSH1 0x41 PUSH1 0x4 MSTORE PUSH1 0x24 PUSH1 0x0 REVERT JUMPDEST PUSH32 0x4E487B7100000000000000000000000000000000000000000000000000000000 PUSH1 0x0 MSTORE PUSH1 0x22 PUSH1 0x4 MSTORE PUSH1 0x24 PUSH1 0x0 REVERT JUMPDEST PUSH1 0x0 PUSH1 0x2 DUP3 DIV SWAP1 POP PUSH1 0x1 DUP3 AND DUP1 PUSH3 0x13A JUMPI PUSH1 0x7F DUP3 AND SWAP2 POP JUMPDEST PUSH1 0x20 DUP3 LT DUP2 SUB PUSH3 0x150 JUMPI PUSH3 0x14F PUSH3 0xF2 JUMP JUMPDEST JUMPDEST POP SWAP2 SWAP1 POP JUMP JUMPDEST PUSH1 0x0 DUP2 SWAP1 POP DUP2 PUSH1 0x0 MSTORE PUSH1 0x20 PUSH1 0x0 KECCAK256 SWAP1 POP SWAP2 SWAP1 POP JUMP JUMPDEST PUSH1 0x0 PUSH1 0x20 PUSH1 0x1F DUP4 ADD DIV SWAP1 POP SWAP2 SWAP1 POP JUMP JUMPDEST PUSH1 0x0 DUP3 DUP3 SHL SWAP1 POP SWAP3 SWAP2 POP POP JUMP JUMPDEST PUSH1 0x0 PUSH1 0x8 DUP4 MUL PUSH3 0x1BA PUSH32 0xFFFFFFFFFFFFFFFFFFFFFFFFFFFFFFFFFFFFFFFFFFFFFFFFFFFFFFFFFFFFFFFF DUP3 PUSH3 0x17B JUMP JUMPDEST PUSH3 0x1C6 DUP7 DUP4 PUSH3 0x17B JUMP JUMPDEST SWAP6 POP DUP1 NOT DUP5 AND SWAP4 POP DUP1 DUP7 AND DUP5 OR SWAP3 POP POP POP SWAP4 SWAP3 POP POP POP JUMP JUMPDEST PUSH1 0x0 DUP2 SWAP1 POP SWAP2 SWAP1 POP JUMP JUMPDEST PUSH1 0x0 DUP2 SWAP1 POP SWAP2 SWAP1 POP JUMP JUMPDEST PUSH1 0x0 PUSH3 0x213 PUSH3 0x20D PUSH3 0x207 DUP5 PUSH3 0x1DE JUMP JUMPDEST PUSH3 0x1E8 JUMP JUMPDEST PUSH3 0x1DE JUMP JUMPDEST SWAP1 POP SWAP2 SWAP1 POP JUMP JUMPDEST PUSH1 0x0 DUP2 SWAP1 POP SWAP2 SWAP1 POP JUMP JUMPDEST PUSH3 0x22F DUP4 PUSH3 0x1F2 JUMP JUMPDEST PUSH3 0x247 PUSH3 0x23E DUP3 PUSH3 0x21A JUMP JUMPDEST DUP5 DUP5 SLOAD PUSH3 0x188 JUMP JUMPDEST DUP3 SSTORE POP POP POP POP JUMP JUMPDEST PUSH1 0x0 SWAP1 JUMP JUMPDEST PUSH3 0x25E PUSH3 0x24F JUMP JUMPDEST PUSH3 0x26B DUP2 DUP5 DUP5 PUSH3 0x224 JUMP JUMPDEST POP POP POP JUMP JUMPDEST JUMPDEST DUP2 DUP2 LT ISZERO PUSH3 0x293 JUMPI PUSH3 0x287 PUSH1 0x0 DUP3 PUSH3 0x254 JUMP JUMPDEST PUSH1 0x1 DUP2 ADD SWAP1 POP PUSH3 0x271 JUMP JUMPDEST POP POP JUMP JUMPDEST PUSH1 0x1F DUP3 GT ISZERO PUSH3 0x2E2 JUMPI PUSH3 0x2AC DUP2 PUSH3 0x156 JUMP JUMPDEST PUSH3 0x2B7 DUP5 PUSH3 0x16B JUMP JUMPDEST DUP2 ADD PUSH1 0x20 DUP6 LT ISZERO PUSH3 0x2C7 JUMPI DUP2 SWAP1 POP JUMPDEST PUSH3 0x2DF PUSH3 0x2D6 DUP6 PUSH3 0x16B JUMP JUMPDEST DUP4 ADD DUP3 PUSH3 0x270 JUMP JUMPDEST POP POP JUMPDEST POP POP POP JUMP JUMPDEST PUSH1 0x0 DUP3 DUP3 SHR SWAP1 POP SWAP3 SWAP2 POP POP JUMP JUMPDEST PUSH1 0x0 PUSH3 0x307 PUSH1 0x0 NOT DUP5 PUSH1 0x8 MUL PUSH3 0x2E7 JUMP JUMPDEST NOT DUP1 DUP4 AND SWAP2 POP POP SWAP3 SWAP2 POP POP JUMP JUMPDEST PUSH1 0x0 PUSH3 0x322 DUP4 DUP4 PUSH3 0x2F4 JUMP JUMPDEST SWAP2 POP DUP3 PUSH1 0x2 MUL DUP3 OR SWAP1 POP SWAP3 SWAP2 POP POP JUMP JUMPDEST PUSH3 0x33D DUP3 PUSH3 0xB8 JUMP JUMPDEST PUSH8 0xFFFFFFFFFFFFFFFF DUP2 GT ISZERO PUSH3 0x359 JUMPI PUSH3 0x358 PUSH3 0xC3 JUMP JUMPDEST JUMPDEST PUSH3 0x365 DUP3 SLOAD PUSH3 0x121 JUMP JUMPDEST PUSH3 0x372 DUP3 DUP3 DUP6 PUSH3 0x297 JUMP JUMPDEST PUSH1 0x0 PUSH1 0x20 SWAP1 POP PUSH1 0x1F DUP4 GT PUSH1 0x1 DUP2 EQ PUSH3 0x3AA JUMPI PUSH1 0x0 DUP5 ISZERO PUSH3 0x395 JUMPI DUP3 DUP8 ADD MLOAD SWAP1 POP JUMPDEST PUSH3 0x3A1 DUP6 DUP3 PUSH3 0x314 JUMP JUMPDEST DUP7 SSTORE POP PUSH3 0x411 JUMP JUMPDEST PUSH1 0x1F NOT DUP5 AND PUSH3 0x3BA DUP7 PUSH3 0x156 JUMP JUMPDEST PUSH1 0x0 JUMPDEST DUP3 DUP2 LT ISZERO PUSH3 0x3E4 JUMPI DUP5 DUP10 ADD MLOAD DUP3 SSTORE PUSH1 0x1 DUP3 ADD SWAP2 POP PUSH1 0x20 DUP6 ADD SWAP5 POP PUSH1 0x20 DUP2 ADD SWAP1 POP PUSH3 0x3BD JUMP JUMPDEST DUP7 DUP4 LT ISZERO PUSH3 0x404 JUMPI DUP5 DUP10 ADD MLOAD PUSH3 0x400 PUSH1 0x1F DUP10 AND DUP3 PUSH3 0x2F4 JUMP JUMPDEST DUP4 SSTORE POP JUMPDEST PUSH1 0x1 PUSH1 0x2 DUP9 MUL ADD DUP9 SSTORE POP POP POP JUMPDEST POP POP POP POP POP POP JUMP JUMPDEST PUSH2 0xA8C DUP1 PUSH3 0x429 PUSH1 0x0 CODECOPY PUSH1 0x0 RETURN INVALID PUSH1 0x80 PUSH1 0x40 MSTORE CALLVALUE DUP1 ISZERO PUSH2 0x10 JUMPI PUSH1 0x0 DUP1 REVERT JUMPDEST POP PUSH1 0x4 CALLDATASIZE LT PUSH2 0x9E JUMPI PUSH1 0x0 CALLDATALOAD PUSH1 0xE0 SHR DUP1 PUSH4 0x771602F7 GT PUSH2 0x66 JUMPI DUP1 PUSH4 0x771602F7 EQ PUSH2 0x121 JUMPI DUP1 PUSH4 0x8DA5CB5B EQ PUSH2 0x151 JUMPI DUP1 PUSH4 0xA6F9DAE1 EQ PUSH2 0x16F JUMPI DUP1 PUSH4 0xA87D942C EQ PUSH2 0x18B JUMPI DUP1 PUSH4 0xD09DE08A EQ PUSH2 0x1A9 JUMPI PUSH2 0x9E JUMP JUMPDEST DUP1 PUSH4 0x6661ABD EQ PUSH2 0xA3 JUMPI DUP1 PUSH4 0x6FDDE03 EQ PUSH2 0xC1 JUMPI DUP1 PUSH4 0x2BAECEB7 EQ PUSH2 0xDF JUMPI DUP1 PUSH4 0x5353A2D8 EQ PUSH2 0xE9 JUMPI DUP1 PUSH4 0x75322E47 EQ PUSH2 0x105 JUMPI JUMPDEST PUSH1 0x0 DUP1 REVERT JUMPDEST PUSH2 0xAB PUSH2 0x1B3 JUMP JUMPDEST PUSH1 0x40 MLOAD PUSH2 0xB8 SWAP2 SWAP1 PUSH2 0x334 JUMP JUMPDEST PUSH1 0x40 MLOAD DUP1 SWAP2 SUB SWAP1 RETURN JUMPDEST PUSH2 0xC9 PUSH2 0x1B9 JUMP JUMPDEST PUSH1 0x40 MLOAD PUSH2 0xD6 SWAP2 SWAP1 PUSH2 0x3DF JUMP JUMPDEST PUSH1 0x40 MLOAD DUP1 SWAP2 SUB SWAP1 RETURN JUMPDEST PUSH2 0xE7 PUSH2 0x247 JUMP JUMPDEST STOP JUMPDEST PUSH2 0x103 PUSH1 0x4 DUP1 CALLDATASIZE SUB DUP2 ADD SWAP1 PUSH2 0xFE SWAP2 SWAP1 PUSH2 0x54A JUMP JUMPDEST PUSH2 0x25E JUMP JUMPDEST STOP JUMPDEST PUSH2 0x11F PUSH1 0x4 DUP1 CALLDATASIZE SUB DUP2 ADD SWAP1 PUSH2 0x11A SWAP2 SWAP1 PUSH2 0x5BF JUMP JUMPDEST PUSH2 0x271 JUMP JUMPDEST STOP JUMPDEST PUSH2 0x13B PUSH1 0x4 DUP1 CALLDATASIZE SUB DUP2 ADD SWAP1 PUSH2 0x136 SWAP2 SWAP1 PUSH2 0x5EC JUMP JUMPDEST PUSH2 0x27B JUMP JUMPDEST PUSH1 0x40 MLOAD PUSH2 0x148 SWAP2 SWAP1 PUSH2 0x334 JUMP JUMPDEST PUSH1 0x40 MLOAD DUP1 SWAP2 SUB SWAP1 RETURN JUMPDEST PUSH2 0x159 PUSH2 0x291 JUMP JUMPDEST PUSH1 0x40 MLOAD PUSH2 0x166 SWAP2 SWAP1 PUSH2 0x66D JUMP JUMPDEST PUSH1 0x40 MLOAD DUP1 SWAP2 SUB SWAP1 RETURN JUMPDEST PUSH2 0x189 PUSH1 0x4 DUP1 CALLDATASIZE SUB DUP2 ADD SWAP1 PUSH2 0x184 SWAP2 SWAP1 PUSH2 0x6B4 JUMP JUMPDEST PUSH2 0x2B7 JUMP JUMPDEST STOP JUMPDEST PUSH2 0x193 PUSH2 0x2FB JUMP JUMPDEST PUSH1 0x40 MLOAD PUSH2 0x1A0 SWAP2 SWAP1 PUSH2 0x334 JUMP JUMPDEST PUSH1 0x40 MLOAD DUP1 SWAP2 SUB SWAP1 RETURN JUMPDEST PUSH2 0x1B1 PUSH2 0x304 JUMP JUMPDEST STOP JUMPDEST PUSH1 0x0 SLOAD DUP2 JUMP JUMPDEST PUSH1 0x1 DUP1 SLOAD PUSH2 0x1C6 SWAP1 PUSH2 0x710 JUMP JUMPDEST DUP1 PUSH1 0x1F ADD PUSH1 0x20 DUP1 SWAP2 DIV MUL PUSH1 0x20 ADD PUSH1 0x40 MLOAD SWAP1 DUP2 ADD PUSH1 0x40 MSTORE DUP1 SWAP3 SWAP2 SWAP1 DUP2 DUP2 MSTORE PUSH1 0x20 ADD DUP3 DUP1 SLOAD PUSH2 0x1F2 SWAP1 PUSH2 0x710 JUMP JUMPDEST DUP1 ISZERO PUSH2 0x23F JUMPI DUP1 PUSH1 0x1F LT PUSH2 0x214 JUMPI PUSH2 0x100 DUP1 DUP4 SLOAD DIV MUL DUP4 MSTORE SWAP2 PUSH1 0x20 ADD SWAP2 PUSH2 0x23F JUMP JUMPDEST DUP3 ADD SWAP2 SWAP1 PUSH1 0x0 MSTORE PUSH1 0x20 PUSH1 0x0 KECCAK256 SWAP1 JUMPDEST DUP2 SLOAD DUP2 MSTORE SWAP1 PUSH1 0x1 ADD SWAP1 PUSH1 0x20 ADD DUP1 DUP4 GT PUSH2 0x222 JUMPI DUP3 SWAP1 SUB PUSH1 0x1F AND DUP3 ADD SWAP2 JUMPDEST POP POP POP POP POP DUP2 JUMP JUMPDEST PUSH1 0x1 PUSH1 0x0 SLOAD PUSH2 0x256 SWAP2 SWAP1 PUSH2 0x770 JUMP JUMPDEST PUSH1 0x0 DUP2 SWAP1 SSTORE POP JUMP JUMPDEST DUP1 PUSH1 0x1 SWAP1 DUP2 PUSH2 0x26D SWAP2 SWAP1 PUSH2 0x950 JUMP JUMPDEST POP POP JUMP JUMPDEST DUP1 PUSH1 0x0 DUP2 SWAP1 SSTORE POP POP JUMP JUMPDEST PUSH1 0x0 DUP2 DUP4 PUSH2 0x289 SWAP2 SWAP1 PUSH2 0xA22 JUMP JUMPDEST SWAP1 POP SWAP3 SWAP2 POP POP JUMP JUMPDEST PUSH1 0x2 PUSH1 0x0 SWAP1 SLOAD SWAP1 PUSH2 0x100 EXP SWAP1 DIV PUSH20 0xFFFFFFFFFFFFFFFFFFFFFFFFFFFFFFFFFFFFFFFF AND DUP2 JUMP JUMPDEST DUP1 PUSH1 0x2 PUSH1 0x0 PUSH2 0x100 EXP DUP2 SLOAD DUP2 PUSH20 0xFFFFFFFFFFFFFFFFFFFFFFFFFFFFFFFFFFFFFFFF MUL NOT AND SWAP1 DUP4 PUSH20 0xFFFFFFFFFFFFFFFFFFFFFFFFFFFFFFFFFFFFFFFF AND MUL OR SWAP1 SSTORE POP POP JUMP JUMPDEST PUSH1 0x0 DUP1 SLOAD SWAP1 POP SWAP1 JUMP JUMPDEST PUSH1 0x1 PUSH1 0x0 SLOAD PUSH2 0x313 SWAP2 SWAP1 PUSH2 0xA22 JUMP JUMPDEST PUSH1 0x0 DUP2 SWAP1 SSTORE POP JUMP JUMPDEST PUSH1 0x0 DUP2 SWAP1 POP SWAP2 SWAP1 POP JUMP JUMPDEST PUSH2 0x32E DUP2 PUSH2 0x31B JUMP JUMPDEST DUP3 MSTORE POP POP JUMP JUMPDEST PUSH1 0x0 PUSH1 0x20 DUP3 ADD SWAP1 POP PUSH2 0x349 PUSH1 0x0 DUP4 ADD DUP5 PUSH2 0x325 JUMP JUMPDEST SWAP3 SWAP2 POP POP JUMP JUMPDEST PUSH1 0x0 DUP2 MLOAD SWAP1 POP SWAP2 SWAP1 POP JUMP JUMPDEST PUSH1 0x0 DUP3 DUP3 MSTORE PUSH1 0x20 DUP3 ADD SWAP1 POP SWAP3 SWAP2 POP POP JUMP JUMPDEST PUSH1 0x0 JUMPDEST DUP4 DUP2 LT ISZERO PUSH2 0x389 JUMPI DUP1 DUP3 ADD MLOAD DUP2 DUP5 ADD MSTORE PUSH1 0x20 DUP2 ADD SWAP1 POP PUSH2 0x36E JUMP JUMPDEST PUSH1 0x0 DUP5 DUP5 ADD MSTORE POP POP POP POP JUMP JUMPDEST PUSH1 0x0 PUSH1 0x1F NOT PUSH1 0x1F DUP4 ADD AND SWAP1 POP SWAP2 SWAP1 POP JUMP JUMPDEST PUSH1 0x0 PUSH2 0x3B1 DUP3 PUSH2 0x34F JUMP JUMPDEST PUSH2 0x3BB DUP2 DUP6 PUSH2 0x35A JUMP JUMPDEST SWAP4 POP PUSH2 0x3CB DUP2 DUP6 PUSH1 0x20 DUP7 ADD PUSH2 0x36B JUMP JUMPDEST PUSH2 0x3D4 DUP2 PUSH2 0x395 JUMP JUMPDEST DUP5 ADD SWAP2 POP POP SWAP3 SWAP2 POP POP JUMP JUMPDEST PUSH1 0x0 PUSH1 0x20 DUP3 ADD SWAP1 POP DUP2 DUP2 SUB PUSH1 0x0 DUP4 ADD MSTORE PUSH2 0x3F9 DUP2 DUP5 PUSH2 0x3A6 JUMP JUMPDEST SWAP1 POP SWAP3 SWAP2 POP POP JUMP JUMPDEST PUSH1 0x0 PUSH1 0x40 MLOAD SWAP1 POP SWAP1 JUMP JUMPDEST PUSH1 0x0 DUP1 REVERT JUMPDEST PUSH1 0x0 DUP1 REVERT JUMPDEST PUSH1 0x0 DUP1 REVERT JUMPDEST PUSH1 0x0 DUP1 REVERT JUMPDEST PUSH32 0x4E487B7100000000000000000000000000000000000000000000000000000000 PUSH1 0x0 MSTORE PUSH1 0x41 PUSH1 0x4 MSTORE PUSH1 0x24 PUSH1 0x0 REVERT JUMPDEST PUSH2 0x457 DUP3 PUSH2 0x395 JUMP JUMPDEST DUP2 ADD DUP2 DUP2 LT PUSH8 0xFFFFFFFFFFFFFFFF DUP3 GT OR ISZERO PUSH2 0x476 JUMPI PUSH2 0x475 PUSH2 0x41F JUMP JUMPDEST JUMPDEST DUP1 PUSH1 0x40 MSTORE POP POP POP JUMP JUMPDEST PUSH1 0x0 PUSH2 0x489 PUSH2 0x401 JUMP JUMPDEST SWAP1 POP PUSH2 0x495 DUP3 DUP3 PUSH2 0x44E JUMP JUMPDEST SWAP2 SWAP1 POP JUMP JUMPDEST PUSH1 0x0 PUSH8 0xFFFFFFFFFFFFFFFF DUP3 GT ISZERO PUSH2 0x4B5 JUMPI PUSH2 0x4B4 PUSH2 0x41F JUMP JUMPDEST JUMPDEST PUSH2 0x4BE DUP3 PUSH2 0x395 JUMP JUMPDEST SWAP1 POP PUSH1 0x20 DUP2 ADD SWAP1 POP SWAP2 SWAP1 POP JUMP JUMPDEST DUP3 DUP2 DUP4 CALLDATACOPY PUSH1 0x0 DUP4 DUP4 ADD MSTORE POP POP POP JUMP JUMPDEST PUSH1 0x0 PUSH2 0x4ED PUSH2 0x4E8 DUP5 PUSH2 0x49A JUMP JUMPDEST PUSH2 0x47F JUMP JUMPDEST SWAP1 POP DUP3 DUP2 MSTORE PUSH1 0x20 DUP2 ADD DUP5 DUP5 DUP5 ADD GT ISZERO PUSH2 0x509 JUMPI PUSH2 0x508 PUSH2 0x41A JUMP JUMPDEST JUMPDEST PUSH2 0x514 DUP5 DUP3 DUP6 PUSH2 0x4CB JUMP JUMPDEST POP SWAP4 SWAP3 POP POP POP JUMP JUMPDEST PUSH1 0x0 DUP3 PUSH1 0x1F DUP4 ADD SLT PUSH2 0x531 JUMPI PUSH2 0x530 PUSH2 0x415 JUMP JUMPDEST JUMPDEST DUP2 CALLDATALOAD PUSH2 0x541 DUP5 DUP3 PUSH1 0x20 DUP7 ADD PUSH2 0x4DA JUMP JUMPDEST SWAP2 POP POP SWAP3 SWAP2 POP POP JUMP JUMPDEST PUSH1 0x0 PUSH1 0x20 DUP3 DUP5 SUB SLT ISZERO PUSH2 0x560 JUMPI PUSH2 0x55F PUSH2 0x40B JUMP JUMPDEST JUMPDEST PUSH1 0x0 DUP3 ADD CALLDATALOAD PUSH8 0xFFFFFFFFFFFFFFFF DUP2 GT ISZERO PUSH2 0x57E JUMPI PUSH2 0x57D PUSH2 0x410 JUMP JUMPDEST JUMPDEST PUSH2 0x58A DUP5 DUP3 DUP6 ADD PUSH2 0x51C JUMP JUMPDEST SWAP2 POP POP SWAP3 SWAP2 POP POP JUMP JUMPDEST PUSH2 0x59C DUP2 PUSH2 0x31B JUMP JUMPDEST DUP2 EQ PUSH2 0x5A7 JUMPI PUSH1 0x0 DUP1 REVERT JUMPDEST POP JUMP JUMPDEST PUSH1 0x0 DUP2 CALLDATALOAD SWAP1 POP PUSH2 0x5B9 DUP2 PUSH2 0x593 JUMP JUMPDEST SWAP3 SWAP2 POP POP JUMP JUMPDEST PUSH1 0x0 PUSH1 0x20 DUP3 DUP5 SUB SLT ISZERO PUSH2 0x5D5 JUMPI PUSH2 0x5D4 PUSH2 0x40B JUMP JUMPDEST JUMPDEST PUSH1 0x0 PUSH2 0x5E3 DUP5 DUP3 DUP6 ADD PUSH2 0x5AA JUMP JUMPDEST SWAP2 POP POP SWAP3 SWAP2 POP POP JUMP JUMPDEST PUSH1 0x0 DUP1 PUSH1 0x40 DUP4 DUP6 SUB SLT ISZERO PUSH2 0x603 JUMPI PUSH2 0x602 PUSH2 0x40B JUMP JUMPDEST JUMPDEST PUSH1 0x0 PUSH2 0x611 DUP6 DUP3 DUP7 ADD PUSH2 0x5AA JUMP JUMPDEST SWAP3 POP POP PUSH1 0x20 PUSH2 0x622 DUP6 DUP3 DUP7 ADD PUSH2 0x5AA JUMP JUMPDEST SWAP2 POP POP SWAP3 POP SWAP3 SWAP1 POP JUMP JUMPDEST PUSH1 0x0 PUSH20 0xFFFFFFFFFFFFFFFFFFFFFFFFFFFFFFFFFFFFFFFF DUP3 AND SWAP1 POP SWAP2 SWAP1 POP JUMP JUMPDEST PUSH1 0x0 PUSH2 0x657 DUP3 PUSH2 0x62C JUMP JUMPDEST SWAP1 POP SWAP2 SWAP1 POP JUMP JUMPDEST PUSH2 0x667 DUP2 PUSH2 0x64C JUMP JUMPDEST DUP3 MSTORE POP POP JUMP JUMPDEST PUSH1 0x0 PUSH1 0x20 DUP3 ADD SWAP1 POP PUSH2 0x682 PUSH1 0x0 DUP4 ADD DUP5 PUSH2 0x65E JUMP JUMPDEST SWAP3 SWAP2 POP POP JUMP JUMPDEST PUSH2 0x691 DUP2 PUSH2 0x64C JUMP JUMPDEST DUP2 EQ PUSH2 0x69C JUMPI PUSH1 0x0 DUP1 REVERT JUMPDEST POP JUMP JUMPDEST PUSH1 0x0 DUP2 CALLDATALOAD SWAP1 POP PUSH2 0x6AE DUP2 PUSH2 0x688 JUMP JUMPDEST SWAP3 SWAP2 POP POP JUMP JUMPDEST PUSH1 0x0 PUSH1 0x20 DUP3 DUP5 SUB SLT ISZERO PUSH2 0x6CA JUMPI PUSH2 0x6C9 PUSH2 0x40B JUMP JUMPDEST JUMPDEST PUSH1 0x0 PUSH2 0x6D8 DUP5 DUP3 DUP6 ADD PUSH2 0x69F JUMP JUMPDEST SWAP2 POP POP SWAP3 SWAP2 POP POP JUMP JUMPDEST PUSH32 0x4E487B7100000000000000000000000000000000000000000000000000000000 PUSH1 0x0 MSTORE PUSH1 0x22 PUSH1 0x4 MSTORE PUSH1 0x24 PUSH1 0x0 REVERT JUMPDEST PUSH1 0x0 PUSH1 0x2 DUP3 DIV SWAP1 POP PUSH1 0x1 DUP3 AND DUP1 PUSH2 0x728 JUMPI PUSH1 0x7F DUP3 AND SWAP2 POP JUMPDEST PUSH1 0x20 DUP3 LT DUP2 SUB PUSH2 0x73B JUMPI PUSH2 0x73A PUSH2 0x6E1 JUMP JUMPDEST JUMPDEST POP SWAP2 SWAP1 POP JUMP JUMPDEST PUSH32 0x4E487B7100000000000000000000000000000000000000000000000000000000 PUSH1 0x0 MSTORE PUSH1 0x11 PUSH1 0x4 MSTORE PUSH1 0x24 PUSH1 0x0 REVERT JUMPDEST PUSH1 0x0 PUSH2 0x77B DUP3 PUSH2 0x31B JUMP JUMPDEST SWAP2 POP PUSH2 0x786 DUP4 PUSH2 0x31B JUMP JUMPDEST SWAP3 POP DUP3 DUP3 SUB SWAP1 POP DUP2 DUP2 GT ISZERO PUSH2 0x79E JUMPI PUSH2 0x79D PUSH2 0x741 JUMP JUMPDEST JUMPDEST SWAP3 SWAP2 POP POP JUMP JUMPDEST PUSH1 0x0 DUP2 SWAP1 POP DUP2 PUSH1 0x0 MSTORE PUSH1 0x20 PUSH1 0x0 KECCAK256 SWAP1 POP SWAP2 SWAP1 POP JUMP JUMPDEST PUSH1 0x0 PUSH1 0x20 PUSH1 0x1F DUP4 ADD DIV SWAP1 POP SWAP2 SWAP1 POP JUMP JUMPDEST PUSH1 0x0 DUP3 DUP3 SHL SWAP1 POP SWAP3 SWAP2 POP POP JUMP JUMPDEST PUSH1 0x0 PUSH1 0x8 DUP4 MUL PUSH2 0x806 PUSH32 0xFFFFFFFFFFFFFFFFFFFFFFFFFFFFFFFFFFFFFFFFFFFFFFFFFFFFFFFFFFFFFFFF DUP3 PUSH2 0x7C9 JUMP JUMPDEST PUSH2 0x810 DUP7 DUP4 PUSH2 0x7C9 JUMP JUMPDEST SWAP6 POP DUP1 NOT DUP5 AND SWAP4 POP DUP1 DUP7 AND DUP5 OR SWAP3 POP POP POP SWAP4 SWAP3 POP POP POP JUMP JUMPDEST PUSH1 0x0 DUP2 SWAP1 POP SWAP2 SWAP1 POP JUMP JUMPDEST PUSH1 0x0 PUSH2 0x84D PUSH2 0x848 PUSH2 0x843 DUP5 PUSH2 0x31B JUMP JUMPDEST PUSH2 0x828 JUMP JUMPDEST PUSH2 0x31B JUMP JUMPDEST SWAP1 POP SWAP2 SWAP1 POP JUMP JUMPDEST PUSH1 0x0 DUP2 SWAP1 POP SWAP2 SWAP1 POP JUMP JUMPDEST PUSH2 0x867 DUP4 PUSH2 0x832 JUMP JUMPDEST PUSH2 0x87B PUSH2 0x873 DUP3 PUSH2 0x854 JUMP JUMPDEST DUP5 DUP5 SLOAD PUSH2 0x7D6 JUMP JUMPDEST DUP3 SSTORE POP POP POP POP JUMP JUMPDEST PUSH1 0x0 SWAP1 JUMP JUMPDEST PUSH2 0x890 PUSH2 0x883 JUMP JUMPDEST PUSH2 0x89B DUP2 DUP5 DUP5 PUSH2 0x85E JUMP JUMPDEST POP POP POP JUMP JUMPDEST JUMPDEST DUP2 DUP2 LT ISZERO PUSH2 0x8BF JUMPI PUSH2 0x8B4 PUSH1 0x0 DUP3 PUSH2 0x888 JUMP JUMPDEST PUSH1 0x1 DUP2 ADD SWAP1 POP PUSH2 0x8A1 JUMP JUMPDEST POP POP JUMP JUMPDEST PUSH1 0x1F DUP3 GT ISZERO PUSH2 0x904 JUMPI PUSH2 0x8D5 DUP2 PUSH2 0x7A4 JUMP JUMPDEST PUSH2 0x8DE DUP5 PUSH2 0x7B9 JUMP JUMPDEST DUP2 ADD PUSH1 0x20 DUP6 LT ISZERO PUSH2 0x8ED JUMPI DUP2 SWAP1 POP JUMPDEST PUSH2 0x901 PUSH2 0x8F9 DUP6 PUSH2 0x7B9 JUMP JUMPDEST DUP4 ADD DUP3 PUSH2 0x8A0 JUMP JUMPDEST POP POP JUMPDEST POP POP POP JUMP JUMPDEST PUSH1 0x0 DUP3 DUP3 SHR SWAP1 POP SWAP3 SWAP2 POP POP JUMP JUMPDEST PUSH1 0x0 PUSH2 0x927 PUSH1 0x0 NOT DUP5 PUSH1 0x8 MUL PUSH2 0x909 JUMP JUMPDEST NOT DUP1 DUP4 AND SWAP2 POP POP SWAP3 SWAP2 POP POP JUMP JUMPDEST PUSH1 0x0 PUSH2 0x940 DUP4 DUP4 PUSH2 0x916 JUMP JUMPDEST SWAP2 POP DUP3 PUSH1 0x2 MUL DUP3 OR SWAP1 POP SWAP3 SWAP2 POP POP JUMP JUMPDEST PUSH2 0x959 DUP3 PUSH2 0x34F JUMP JUMPDEST PUSH8 0xFFFFFFFFFFFFFFFF DUP2 GT ISZERO PUSH2 0x972 JUMPI PUSH2 0x971 PUSH2 0x41F JUMP JUMPDEST JUMPDEST PUSH2 0x97C DUP3 SLOAD PUSH2 0x710 JUMP JUMPDEST PUSH2 0x987 DUP3 DUP3 DUP6 PUSH2 0x8C3 JUMP JUMPDEST PUSH1 0x0 PUSH1 0x20 SWAP1 POP PUSH1 0x1F DUP4 GT PUSH1 0x1 DUP2 EQ PUSH2 0x9BA JUMPI PUSH1 0x0 DUP5 ISZERO PUSH2 0x9A8 JUMPI DUP3 DUP8 ADD MLOAD SWAP1 POP JUMPDEST PUSH2 0x9B2 DUP6 DUP3 PUSH2 0x934 JUMP JUMPDEST DUP7 SSTORE POP PUSH2 0xA1A JUMP JUMPDEST PUSH1 0x1F NOT DUP5 AND PUSH2 0x9C8 DUP7 PUSH2 0x7A4 JUMP JUMPDEST PUSH1 0x0 JUMPDEST DUP3 DUP2 LT ISZERO PUSH2 0x9F0 JUMPI DUP5 DUP10 ADD MLOAD DUP3 SSTORE PUSH1 0x1 DUP3 ADD SWAP2 POP PUSH1 0x20 DUP6 ADD SWAP5 POP PUSH1 0x20 DUP2 ADD SWAP1 POP PUSH2 0x9CB JUMP JUMPDEST DUP7 DUP4 LT ISZERO PUSH2 0xA0D JUMPI DUP5 DUP10 ADD MLOAD PUSH2 0xA09 PUSH1 0x1F DUP10 AND DUP3 PUSH2 0x916 JUMP JUMPDEST DUP4 SSTORE POP JUMPDEST PUSH1 0x1 PUSH1 0x2 DUP9 MUL ADD DUP9 SSTORE POP POP POP JUMPDEST POP POP POP POP POP POP JUMP JUMPDEST PUSH1 0x0 PUSH2 0xA2D DUP3 PUSH2 0x31B JUMP JUMPDEST SWAP2 POP PUSH2 0xA38 DUP4 PUSH2 0x31B JUMP JUMPDEST SWAP3 POP DUP3 DUP3 ADD SWAP1 POP DUP1 DUP3 GT ISZERO PUSH2 0xA50 JUMPI PUSH2 0xA4F PUSH2 0x741 JUMP JUMPDEST JUMPDEST SWAP3 SWAP2 POP POP JUMP INVALID LOG2 PUSH5 0x6970667358 0x22 SLT KECCAK256 SHL SWAP12 CALLDATASIZE 0x25 0xD6 0x1F DUP15 0xCD PUSH18 0x97CD124B20EADEB0044C6A228C6849CE4AEB 0xC8 0xAE PUSH13 0xF8E464736F6C63430008120033 "
				},
				"gasEstimates": {
					"creation": {
						"codeDepositCost": "540000",
						"executionCost": "infinite",
						"totalCost": "infinite"
					},
					"external": {
						"add(uint256,uint256)": "infinite",
						"change(uint256)": "22609",
						"changeName(string)": "infinite",
						"changeOwner(address)": "24766",
						"count()": "2430",
						"decrement()": "infinite",
						"getCount()": "2503",
						"increment()": "infinite",
						"name()": "infinite",
						"owner()": "2536"
					}
				},
				"methodIdentifiers": {
					"add(uint256,uint256)": "771602f7",
					"change(uint256)": "75322e47",
					"changeName(string)": "5353a2d8",
					"changeOwner(address)": "a6f9dae1",
					"count()": "06661abd",
					"decrement()": "2baeceb7",
					"getCount()": "a87d942c",
					"increment()": "d09de08a",
					"name()": "06fdde03",
					"owner()": "8da5cb5b"
				}
			},
			"storageLayout": {
				"storage": [
					{
						"astId": 4,
						"contract": "Functions.sol:Functions",
						"label": "count",
						"offset": 0,
						"slot": "0",
						"type": "t_uint256"
					},
					{
						"astId": 7,
						"contract": "Functions.sol:Functions",
						"label": "name",
						"offset": 0,
						"slot": "1",
						"type": "t_string_storage"
					},
					{
						"astId": 10,
						"contract": "Functions.sol:Functions",
						"label": "owner",
						"offset": 0,
						"slot": "2",
						"type": "t_address"
					}
				],
				"types": {
					"t_address": {
						"encoding": "inplace",
						"label": "address",
						"numberOfBytes": "20"
					},
					"t_string_storage": {
						"encoding": "bytes",
						"label": "string",
						"numberOfBytes": "32"
					},
					"t_uint256": {
						"encoding": "inplace",
						"label": "uint256",
						"numberOfBytes": "32"
					}
				}
			},
			"userdoc": {
				"kind": "user",
				"methods": {},
				"version": 1
			}
		}
	}
}