{
	"CrowdFunding.sol": {
		"CrowdFunding": {
			"abi": [
				{
					"anonymous": false,
					"inputs": [
						{
							"indexed": true,
							"internalType": "address",
							"name": "owner",
							"type": "address"
						},
						{
							"indexed": false,
							"internalType": "string",
							"name": "title",
							"type": "string"
						},
						{
							"indexed": false,
							"internalType": "string",
							"name": "description",
							"type": "string"
						},
						{
							"indexed": false,
							"internalType": "uint256",
							"name": "target",
							"type": "uint256"
						},
						{
							"indexed": false,
							"internalType": "uint256",
							"name": "deadline",
							"type": "uint256"
						},
						{
							"indexed": false,
							"internalType": "string",
							"name": "image",
							"type": "string"
						}
					],
					"name": "CampaignCreated",
					"type": "event"
				},
				{
					"anonymous": false,
					"inputs": [
						{
							"indexed": true,
							"internalType": "uint256",
							"name": "id",
							"type": "uint256"
						},
						{
							"indexed": true,
							"internalType": "address",
							"name": "donator",
							"type": "address"
						},
						{
							"indexed": false,
							"internalType": "uint256",
							"name": "amount",
							"type": "uint256"
						},
						{
							"indexed": false,
							"internalType": "bool",
							"name": "agreed",
							"type": "bool"
						}
					],
					"name": "DonationMade",
					"type": "event"
				},
				{
					"anonymous": false,
					"inputs": [
						{
							"indexed": true,
							"internalType": "uint256",
							"name": "id",
							"type": "uint256"
						},
						{
							"indexed": true,
							"internalType": "address",
							"name": "donator",
							"type": "address"
						},
						{
							"indexed": false,
							"internalType": "uint256",
							"name": "amount",
							"type": "uint256"
						}
					],
					"name": "RefundIssued",
					"type": "event"
				},
				{
					"anonymous": false,
					"inputs": [
						{
							"indexed": false,
							"internalType": "uint256",
							"name": "_id",
							"type": "uint256"
						},
						{
							"indexed": false,
							"internalType": "string",
							"name": "message",
							"type": "string"
						}
					],
					"name": "withdrawn",
					"type": "event"
				},
				{
					"inputs": [
						{
							"internalType": "uint256",
							"name": "",
							"type": "uint256"
						}
					],
					"name": "campaigns",
					"outputs": [
						{
							"internalType": "address",
							"name": "owner",
							"type": "address"
						},
						{
							"internalType": "string",
							"name": "title",
							"type": "string"
						},
						{
							"internalType": "string",
							"name": "description",
							"type": "string"
						},
						{
							"internalType": "uint256",
							"name": "target",
							"type": "uint256"
						},
						{
							"internalType": "uint256",
							"name": "deadline",
							"type": "uint256"
						},
						{
							"internalType": "uint256",
							"name": "AmountCollected",
							"type": "uint256"
						},
						{
							"internalType": "string",
							"name": "image",
							"type": "string"
						}
					],
					"stateMutability": "view",
					"type": "function"
				},
				{
					"inputs": [
						{
							"internalType": "address",
							"name": "_owner",
							"type": "address"
						},
						{
							"internalType": "string",
							"name": "_title",
							"type": "string"
						},
						{
							"internalType": "string",
							"name": "_description",
							"type": "string"
						},
						{
							"internalType": "uint256",
							"name": "_target",
							"type": "uint256"
						},
						{
							"internalType": "uint256",
							"name": "_deadline",
							"type": "uint256"
						},
						{
							"internalType": "string",
							"name": "_image",
							"type": "string"
						}
					],
					"name": "createCampaign",
					"outputs": [
						{
							"internalType": "uint256",
							"name": "",
							"type": "uint256"
						}
					],
					"stateMutability": "nonpayable",
					"type": "function"
				},
				{
					"inputs": [
						{
							"internalType": "uint256",
							"name": "_id",
							"type": "uint256"
						},
						{
							"internalType": "bool",
							"name": "_agree",
							"type": "bool"
						}
					],
					"name": "donateToCampaign",
					"outputs": [],
					"stateMutability": "payable",
					"type": "function"
				},
				{
					"inputs": [],
					"name": "getCampaigns",
					"outputs": [
						{
							"components": [
								{
									"internalType": "address",
									"name": "owner",
									"type": "address"
								},
								{
									"internalType": "string",
									"name": "title",
									"type": "string"
								},
								{
									"internalType": "string",
									"name": "description",
									"type": "string"
								},
								{
									"internalType": "uint256",
									"name": "target",
									"type": "uint256"
								},
								{
									"internalType": "uint256",
									"name": "deadline",
									"type": "uint256"
								},
								{
									"internalType": "uint256",
									"name": "AmountCollected",
									"type": "uint256"
								},
								{
									"internalType": "string",
									"name": "image",
									"type": "string"
								},
								{
									"internalType": "address[]",
									"name": "donators",
									"type": "address[]"
								},
								{
									"internalType": "uint256[]",
									"name": "donations",
									"type": "uint256[]"
								},
								{
									"internalType": "bool[]",
									"name": "agree",
									"type": "bool[]"
								}
							],
							"internalType": "struct CrowdFunding.Campaign[]",
							"name": "",
							"type": "tuple[]"
						}
					],
					"stateMutability": "view",
					"type": "function"
				},
				{
					"inputs": [
						{
							"internalType": "uint256",
							"name": "_id",
							"type": "uint256"
						}
					],
					"name": "getDonators",
					"outputs": [
						{
							"internalType": "address[]",
							"name": "",
							"type": "address[]"
						},
						{
							"internalType": "uint256[]",
							"name": "",
							"type": "uint256[]"
						}
					],
					"stateMutability": "view",
					"type": "function"
				},
				{
					"inputs": [],
					"name": "numberOfCampaigns",
					"outputs": [
						{
							"internalType": "uint256",
							"name": "",
							"type": "uint256"
						}
					],
					"stateMutability": "view",
					"type": "function"
				},
				{
					"inputs": [
						{
							"internalType": "uint256",
							"name": "_id",
							"type": "uint256"
						}
					],
					"name": "refund",
					"outputs": [],
					"stateMutability": "nonpayable",
					"type": "function"
				},
				{
					"inputs": [
						{
							"internalType": "uint256",
							"name": "_id",
							"type": "uint256"
						}
					],
					"name": "withdrawFunds",
					"outputs": [],
					"stateMutability": "nonpayable",
					"type": "function"
				}
			],
			"devdoc": {
				"kind": "dev",
				"methods": {},
				"version": 1
			},
			"evm": {
				"assembly": "    /* \"CrowdFunding.sol\":64:11719  contract CrowdFunding {... */\n  mstore(0x40, 0x80)\n    /* \"CrowdFunding.sol\":1983:1984  0 */\n  0x00\n    /* \"CrowdFunding.sol\":1948:1984  uint256 public numberOfCampaigns = 0 */\n  0x01\n  sstore\n    /* \"CrowdFunding.sol\":64:11719  contract CrowdFunding {... */\n  callvalue\n  dup1\n  iszero\n  tag_1\n  jumpi\n  0x00\n  dup1\n  revert\ntag_1:\n  pop\n  dataSize(sub_0)\n  dup1\n  dataOffset(sub_0)\n  0x00\n  codecopy\n  0x00\n  return\nstop\n\nsub_0: assembly {\n        /* \"CrowdFunding.sol\":64:11719  contract CrowdFunding {... */\n      mstore(0x40, 0x80)\n      jumpi(tag_1, lt(calldatasize, 0x04))\n      shr(0xe0, calldataload(0x00))\n      dup1\n      0x278ecde1\n      gt\n      tag_10\n      jumpi\n      dup1\n      0x278ecde1\n      eq\n      tag_6\n      jumpi\n      dup1\n      0x9943e3a1\n      eq\n      tag_7\n      jumpi\n      dup1\n      0xa256580e\n      eq\n      tag_8\n      jumpi\n      dup1\n      0xa6b03633\n      eq\n      tag_9\n      jumpi\n      jump(tag_1)\n    tag_10:\n      dup1\n      0x07ca140d\n      eq\n      tag_2\n      jumpi\n      dup1\n      0x0fa91fa9\n      eq\n      tag_3\n      jumpi\n      dup1\n      0x141961bc\n      eq\n      tag_4\n      jumpi\n      dup1\n      0x155dd5ee\n      eq\n      tag_5\n      jumpi\n    tag_1:\n      0x00\n      dup1\n      revert\n        /* \"CrowdFunding.sol\":1948:1984  uint256 public numberOfCampaigns = 0 */\n    tag_2:\n      callvalue\n      dup1\n      iszero\n      tag_11\n      jumpi\n      0x00\n      dup1\n      revert\n    tag_11:\n      pop\n      tag_12\n      tag_13\n      jump\t// in\n    tag_12:\n      mload(0x40)\n      tag_14\n      swap2\n      swap1\n      tag_15\n      jump\t// in\n    tag_14:\n      mload(0x40)\n      dup1\n      swap2\n      sub\n      swap1\n      return\n        /* \"CrowdFunding.sol\":7802:7996  function getDonators(uint256 _id)... */\n    tag_3:\n      callvalue\n      dup1\n      iszero\n      tag_16\n      jumpi\n      0x00\n      dup1\n      revert\n    tag_16:\n      pop\n      tag_17\n      0x04\n      dup1\n      calldatasize\n      sub\n      dup2\n      add\n      swap1\n      tag_18\n      swap2\n      swap1\n      tag_19\n      jump\t// in\n    tag_18:\n      tag_20\n      jump\t// in\n    tag_17:\n      mload(0x40)\n      tag_21\n      swap3\n      swap2\n      swap1\n      tag_22\n      jump\t// in\n    tag_21:\n      mload(0x40)\n      dup1\n      swap2\n      sub\n      swap1\n      return\n        /* \"CrowdFunding.sol\":957:1002  mapping(uint256 => Campaign) public campaigns */\n    tag_4:\n      callvalue\n      dup1\n      iszero\n      tag_23\n      jumpi\n      0x00\n      dup1\n      revert\n    tag_23:\n      pop\n      tag_24\n      0x04\n      dup1\n      calldatasize\n      sub\n      dup2\n      add\n      swap1\n      tag_25\n      swap2\n      swap1\n      tag_19\n      jump\t// in\n    tag_25:\n      tag_26\n      jump\t// in\n    tag_24:\n      mload(0x40)\n      tag_27\n      swap8\n      swap7\n      swap6\n      swap5\n      swap4\n      swap3\n      swap2\n      swap1\n      tag_28\n      jump\t// in\n    tag_27:\n      mload(0x40)\n      dup1\n      swap2\n      sub\n      swap1\n      return\n        /* \"CrowdFunding.sol\":8789:11717  function withdrawFunds(uint256 _id) public onlyOwner(_id) {... */\n    tag_5:\n      callvalue\n      dup1\n      iszero\n      tag_29\n      jumpi\n      0x00\n      dup1\n      revert\n    tag_29:\n      pop\n      tag_30\n      0x04\n      dup1\n      calldatasize\n      sub\n      dup2\n      add\n      swap1\n      tag_31\n      swap2\n      swap1\n      tag_19\n      jump\t// in\n    tag_31:\n      tag_32\n      jump\t// in\n    tag_30:\n      stop\n        /* \"CrowdFunding.sol\":5317:7730  function refund(uint256 _id) public {... */\n    tag_6:\n      callvalue\n      dup1\n      iszero\n      tag_33\n      jumpi\n      0x00\n      dup1\n      revert\n    tag_33:\n      pop\n      tag_34\n      0x04\n      dup1\n      calldatasize\n      sub\n      dup2\n      add\n      swap1\n      tag_35\n      swap2\n      swap1\n      tag_19\n      jump\t// in\n    tag_35:\n      tag_36\n      jump\t// in\n    tag_34:\n      stop\n        /* \"CrowdFunding.sol\":2022:3506  function createCampaign(... */\n    tag_7:\n      callvalue\n      dup1\n      iszero\n      tag_37\n      jumpi\n      0x00\n      dup1\n      revert\n    tag_37:\n      pop\n      tag_38\n      0x04\n      dup1\n      calldatasize\n      sub\n      dup2\n      add\n      swap1\n      tag_39\n      swap2\n      swap1\n      tag_40\n      jump\t// in\n    tag_39:\n      tag_41\n      jump\t// in\n    tag_38:\n      mload(0x40)\n      tag_42\n      swap2\n      swap1\n      tag_15\n      jump\t// in\n    tag_42:\n      mload(0x40)\n      dup1\n      swap2\n      sub\n      swap1\n      return\n        /* \"CrowdFunding.sol\":3560:5236  function donateToCampaign(uint256 _id, bool _agree) public payable {... */\n    tag_8:\n      tag_43\n      0x04\n      dup1\n      calldatasize\n      sub\n      dup2\n      add\n      swap1\n      tag_44\n      swap2\n      swap1\n      tag_45\n      jump\t// in\n    tag_44:\n      tag_46\n      jump\t// in\n    tag_43:\n      stop\n        /* \"CrowdFunding.sol\":8058:8391  function getCampaigns() public view returns (Campaign[] memory) {... */\n    tag_9:\n      callvalue\n      dup1\n      iszero\n      tag_47\n      jumpi\n      0x00\n      dup1\n      revert\n    tag_47:\n      pop\n      tag_48\n      tag_49\n      jump\t// in\n    tag_48:\n      mload(0x40)\n      tag_50\n      swap2\n      swap1\n      tag_51\n      jump\t// in\n    tag_50:\n      mload(0x40)\n      dup1\n      swap2\n      sub\n      swap1\n      return\n        /* \"CrowdFunding.sol\":1948:1984  uint256 public numberOfCampaigns = 0 */\n    tag_13:\n      sload(0x01)\n      dup2\n      jump\t// out\n        /* \"CrowdFunding.sol\":7802:7996  function getDonators(uint256 _id)... */\n    tag_20:\n        /* \"CrowdFunding.sol\":7881:7897  address[] memory */\n      0x60\n        /* \"CrowdFunding.sol\":7899:7915  uint256[] memory */\n      dup1\n        /* \"CrowdFunding.sol\":7939:7948  campaigns */\n      0x00\n        /* \"CrowdFunding.sol\":7939:7953  campaigns[_id] */\n      dup1\n        /* \"CrowdFunding.sol\":7949:7952  _id */\n      dup5\n        /* \"CrowdFunding.sol\":7939:7953  campaigns[_id] */\n      dup2\n      mstore\n      0x20\n      add\n      swap1\n      dup2\n      mstore\n      0x20\n      add\n      0x00\n      keccak256\n        /* \"CrowdFunding.sol\":7939:7962  campaigns[_id].donators */\n      0x07\n      add\n        /* \"CrowdFunding.sol\":7964:7973  campaigns */\n      0x00\n        /* \"CrowdFunding.sol\":7964:7978  campaigns[_id] */\n      dup1\n        /* \"CrowdFunding.sol\":7974:7977  _id */\n      dup6\n        /* \"CrowdFunding.sol\":7964:7978  campaigns[_id] */\n      dup2\n      mstore\n      0x20\n      add\n      swap1\n      dup2\n      mstore\n      0x20\n      add\n      0x00\n      keccak256\n        /* \"CrowdFunding.sol\":7964:7988  campaigns[_id].donations */\n      0x08\n      add\n        /* \"CrowdFunding.sol\":7931:7989  return (campaigns[_id].donators, campaigns[_id].donations) */\n      dup2\n      dup1\n      sload\n      dup1\n      0x20\n      mul\n      0x20\n      add\n      mload(0x40)\n      swap1\n      dup2\n      add\n      0x40\n      mstore\n      dup1\n      swap3\n      swap2\n      swap1\n      dup2\n      dup2\n      mstore\n      0x20\n      add\n      dup3\n      dup1\n      sload\n      dup1\n      iszero\n      tag_53\n      jumpi\n      0x20\n      mul\n      dup3\n      add\n      swap2\n      swap1\n      0x00\n      mstore\n      keccak256(0x00, 0x20)\n      swap1\n    tag_54:\n      dup2\n      0x00\n      swap1\n      sload\n      swap1\n      0x0100\n      exp\n      swap1\n      div\n      0xffffffffffffffffffffffffffffffffffffffff\n      and\n      0xffffffffffffffffffffffffffffffffffffffff\n      and\n      dup2\n      mstore\n      0x20\n      add\n      swap1\n      0x01\n      add\n      swap1\n      dup1\n      dup4\n      gt\n      tag_54\n      jumpi\n    tag_53:\n      pop\n      pop\n      pop\n      pop\n      pop\n      swap2\n      pop\n      dup1\n      dup1\n      sload\n      dup1\n      0x20\n      mul\n      0x20\n      add\n      mload(0x40)\n      swap1\n      dup2\n      add\n      0x40\n      mstore\n      dup1\n      swap3\n      swap2\n      swap1\n      dup2\n      dup2\n      mstore\n      0x20\n      add\n      dup3\n      dup1\n      sload\n      dup1\n      iszero\n      tag_55\n      jumpi\n      0x20\n      mul\n      dup3\n      add\n      swap2\n      swap1\n      0x00\n      mstore\n      keccak256(0x00, 0x20)\n      swap1\n    tag_56:\n      dup2\n      sload\n      dup2\n      mstore\n      0x20\n      add\n      swap1\n      0x01\n      add\n      swap1\n      dup1\n      dup4\n      gt\n      tag_56\n      jumpi\n    tag_55:\n      pop\n      pop\n      pop\n      pop\n      pop\n      swap1\n      pop\n      swap2\n      pop\n      swap2\n      pop\n        /* \"CrowdFunding.sol\":7802:7996  function getDonators(uint256 _id)... */\n      swap2\n      pop\n      swap2\n      jump\t// out\n        /* \"CrowdFunding.sol\":957:1002  mapping(uint256 => Campaign) public campaigns */\n    tag_26:\n      mstore(0x20, 0x00)\n      dup1\n      0x00\n      mstore\n      keccak256(0x00, 0x40)\n      0x00\n      swap2\n      pop\n      swap1\n      pop\n      dup1\n      0x00\n      add\n      0x00\n      swap1\n      sload\n      swap1\n      0x0100\n      exp\n      swap1\n      div\n      0xffffffffffffffffffffffffffffffffffffffff\n      and\n      swap1\n      dup1\n      0x01\n      add\n      dup1\n      sload\n      tag_57\n      swap1\n      tag_58\n      jump\t// in\n    tag_57:\n      dup1\n      0x1f\n      add\n      0x20\n      dup1\n      swap2\n      div\n      mul\n      0x20\n      add\n      mload(0x40)\n      swap1\n      dup2\n      add\n      0x40\n      mstore\n      dup1\n      swap3\n      swap2\n      swap1\n      dup2\n      dup2\n      mstore\n      0x20\n      add\n      dup3\n      dup1\n      sload\n      tag_59\n      swap1\n      tag_58\n      jump\t// in\n    tag_59:\n      dup1\n      iszero\n      tag_60\n      jumpi\n      dup1\n      0x1f\n      lt\n      tag_61\n      jumpi\n      0x0100\n      dup1\n      dup4\n      sload\n      div\n      mul\n      dup4\n      mstore\n      swap2\n      0x20\n      add\n      swap2\n      jump(tag_60)\n    tag_61:\n      dup3\n      add\n      swap2\n      swap1\n      0x00\n      mstore\n      keccak256(0x00, 0x20)\n      swap1\n    tag_62:\n      dup2\n      sload\n      dup2\n      mstore\n      swap1\n      0x01\n      add\n      swap1\n      0x20\n      add\n      dup1\n      dup4\n      gt\n      tag_62\n      jumpi\n      dup3\n      swap1\n      sub\n      0x1f\n      and\n      dup3\n      add\n      swap2\n    tag_60:\n      pop\n      pop\n      pop\n      pop\n      pop\n      swap1\n      dup1\n      0x02\n      add\n      dup1\n      sload\n      tag_63\n      swap1\n      tag_58\n      jump\t// in\n    tag_63:\n      dup1\n      0x1f\n      add\n      0x20\n      dup1\n      swap2\n      div\n      mul\n      0x20\n      add\n      mload(0x40)\n      swap1\n      dup2\n      add\n      0x40\n      mstore\n      dup1\n      swap3\n      swap2\n      swap1\n      dup2\n      dup2\n      mstore\n      0x20\n      add\n      dup3\n      dup1\n      sload\n      tag_64\n      swap1\n      tag_58\n      jump\t// in\n    tag_64:\n      dup1\n      iszero\n      tag_65\n      jumpi\n      dup1\n      0x1f\n      lt\n      tag_66\n      jumpi\n      0x0100\n      dup1\n      dup4\n      sload\n      div\n      mul\n      dup4\n      mstore\n      swap2\n      0x20\n      add\n      swap2\n      jump(tag_65)\n    tag_66:\n      dup3\n      add\n      swap2\n      swap1\n      0x00\n      mstore\n      keccak256(0x00, 0x20)\n      swap1\n    tag_67:\n      dup2\n      sload\n      dup2\n      mstore\n      swap1\n      0x01\n      add\n      swap1\n      0x20\n      add\n      dup1\n      dup4\n      gt\n      tag_67\n      jumpi\n      dup3\n      swap1\n      sub\n      0x1f\n      and\n      dup3\n      add\n      swap2\n    tag_65:\n      pop\n      pop\n      pop\n      pop\n      pop\n      swap1\n      dup1\n      0x03\n      add\n      sload\n      swap1\n      dup1\n      0x04\n      add\n      sload\n      swap1\n      dup1\n      0x05\n      add\n      sload\n      swap1\n      dup1\n      0x06\n      add\n      dup1\n      sload\n      tag_68\n      swap1\n      tag_58\n      jump\t// in\n    tag_68:\n      dup1\n      0x1f\n      add\n      0x20\n      dup1\n      swap2\n      div\n      mul\n      0x20\n      add\n      mload(0x40)\n      swap1\n      dup2\n      add\n      0x40\n      mstore\n      dup1\n      swap3\n      swap2\n      swap1\n      dup2\n      dup2\n      mstore\n      0x20\n      add\n      dup3\n      dup1\n      sload\n      tag_69\n      swap1\n      tag_58\n      jump\t// in\n    tag_69:\n      dup1\n      iszero\n      tag_70\n      jumpi\n      dup1\n      0x1f\n      lt\n      tag_71\n      jumpi\n      0x0100\n      dup1\n      dup4\n      sload\n      div\n      mul\n      dup4\n      mstore\n      swap2\n      0x20\n      add\n      swap2\n      jump(tag_70)\n    tag_71:\n      dup3\n      add\n      swap2\n      swap1\n      0x00\n      mstore\n      keccak256(0x00, 0x20)\n      swap1\n    tag_72:\n      dup2\n      sload\n      dup2\n      mstore\n      swap1\n      0x01\n      add\n      swap1\n      0x20\n      add\n      dup1\n      dup4\n      gt\n      tag_72\n      jumpi\n      dup3\n      swap1\n      sub\n      0x1f\n      and\n      dup3\n      add\n      swap2\n    tag_70:\n      pop\n      pop\n      pop\n      pop\n      pop\n      swap1\n      pop\n      dup8\n      jump\t// out\n        /* \"CrowdFunding.sol\":8789:11717  function withdrawFunds(uint256 _id) public onlyOwner(_id) {... */\n    tag_32:\n        /* \"CrowdFunding.sol\":8842:8845  _id */\n      dup1\n        /* \"CrowdFunding.sol\":1766:1791  Campaign storage campaign */\n      0x00\n        /* \"CrowdFunding.sol\":1794:1803  campaigns */\n      dup1\n        /* \"CrowdFunding.sol\":1794:1808  campaigns[_id] */\n      0x00\n        /* \"CrowdFunding.sol\":1804:1807  _id */\n      dup4\n        /* \"CrowdFunding.sol\":1794:1808  campaigns[_id] */\n      dup2\n      mstore\n      0x20\n      add\n      swap1\n      dup2\n      mstore\n      0x20\n      add\n      0x00\n      keccak256\n        /* \"CrowdFunding.sol\":1766:1808  Campaign storage campaign = campaigns[_id] */\n      swap1\n      pop\n        /* \"CrowdFunding.sol\":1840:1848  campaign */\n      dup1\n        /* \"CrowdFunding.sol\":1840:1854  campaign.owner */\n      0x00\n      add\n      0x00\n      swap1\n      sload\n      swap1\n      0x0100\n      exp\n      swap1\n      div\n      0xffffffffffffffffffffffffffffffffffffffff\n      and\n        /* \"CrowdFunding.sol\":1826:1854  msg.sender == campaign.owner */\n      0xffffffffffffffffffffffffffffffffffffffff\n      and\n        /* \"CrowdFunding.sol\":1826:1836  msg.sender */\n      caller\n        /* \"CrowdFunding.sol\":1826:1854  msg.sender == campaign.owner */\n      0xffffffffffffffffffffffffffffffffffffffff\n      and\n      eq\n        /* \"CrowdFunding.sol\":1818:1889  require(msg.sender == campaign.owner, \"Only owner can withdraw funds.\") */\n      tag_74\n      jumpi\n      mload(0x40)\n      0x08c379a000000000000000000000000000000000000000000000000000000000\n      dup2\n      mstore\n      0x04\n      add\n      tag_75\n      swap1\n      tag_76\n      jump\t// in\n    tag_75:\n      mload(0x40)\n      dup1\n      swap2\n      sub\n      swap1\n      revert\n    tag_74:\n        /* \"CrowdFunding.sol\":8886:8911  Campaign storage campaign */\n      0x00\n        /* \"CrowdFunding.sol\":8914:8923  campaigns */\n      dup1\n        /* \"CrowdFunding.sol\":8914:8928  campaigns[_id] */\n      0x00\n        /* \"CrowdFunding.sol\":8924:8927  _id */\n      dup6\n        /* \"CrowdFunding.sol\":8914:8928  campaigns[_id] */\n      dup2\n      mstore\n      0x20\n      add\n      swap1\n      dup2\n      mstore\n      0x20\n      add\n      0x00\n      keccak256\n        /* \"CrowdFunding.sol\":8886:8928  Campaign storage campaign = campaigns[_id] */\n      swap1\n      pop\n        /* \"CrowdFunding.sol\":9047:9048  0 */\n      0x00\n        /* \"CrowdFunding.sol\":9021:9049  campaign.owner != address(0) */\n      0xffffffffffffffffffffffffffffffffffffffff\n      and\n        /* \"CrowdFunding.sol\":9021:9029  campaign */\n      dup2\n        /* \"CrowdFunding.sol\":9021:9035  campaign.owner */\n      0x00\n      add\n      0x00\n      swap1\n      sload\n      swap1\n      0x0100\n      exp\n      swap1\n      div\n      0xffffffffffffffffffffffffffffffffffffffff\n      and\n        /* \"CrowdFunding.sol\":9021:9049  campaign.owner != address(0) */\n      0xffffffffffffffffffffffffffffffffffffffff\n      and\n      sub\n        /* \"CrowdFunding.sol\":9000:9110  require(... */\n      tag_78\n      jumpi\n      mload(0x40)\n      0x08c379a000000000000000000000000000000000000000000000000000000000\n      dup2\n      mstore\n      0x04\n      add\n      tag_79\n      swap1\n      tag_80\n      jump\t// in\n    tag_79:\n      mload(0x40)\n      dup1\n      swap2\n      sub\n      swap1\n      revert\n    tag_78:\n        /* \"CrowdFunding.sol\":9210:9218  campaign */\n      dup1\n        /* \"CrowdFunding.sol\":9210:9227  campaign.deadline */\n      0x04\n      add\n      sload\n        /* \"CrowdFunding.sol\":9192:9207  block.timestamp */\n      timestamp\n        /* \"CrowdFunding.sol\":9192:9227  block.timestamp > campaign.deadline */\n      gt\n        /* \"CrowdFunding.sol\":9184:9248  require(block.timestamp > campaign.deadline, \"Deadline not met\") */\n      tag_81\n      jumpi\n      mload(0x40)\n      0x08c379a000000000000000000000000000000000000000000000000000000000\n      dup2\n      mstore\n      0x04\n      add\n      tag_82\n      swap1\n      tag_83\n      jump\t// in\n    tag_82:\n      mload(0x40)\n      dup1\n      swap2\n      sub\n      swap1\n      revert\n    tag_81:\n        /* \"CrowdFunding.sol\":9357:9358  0 */\n      0x00\n        /* \"CrowdFunding.sol\":9330:9338  campaign */\n      dup2\n        /* \"CrowdFunding.sol\":9330:9354  campaign.AmountCollected */\n      0x05\n      add\n      sload\n        /* \"CrowdFunding.sol\":9330:9358  campaign.AmountCollected > 0 */\n      gt\n        /* \"CrowdFunding.sol\":9322:9383  require(campaign.AmountCollected > 0, \"No funds to withdraw\") */\n      tag_84\n      jumpi\n      mload(0x40)\n      0x08c379a000000000000000000000000000000000000000000000000000000000\n      dup2\n      mstore\n      0x04\n      add\n      tag_85\n      swap1\n      tag_86\n      jump\t// in\n    tag_85:\n      mload(0x40)\n      dup1\n      swap2\n      sub\n      swap1\n      revert\n    tag_84:\n        /* \"CrowdFunding.sol\":9478:9486  campaign */\n      dup1\n        /* \"CrowdFunding.sol\":9478:9493  campaign.target */\n      0x03\n      add\n      sload\n        /* \"CrowdFunding.sol\":9451:9459  campaign */\n      dup2\n        /* \"CrowdFunding.sol\":9451:9475  campaign.AmountCollected */\n      0x05\n      add\n      sload\n        /* \"CrowdFunding.sol\":9451:9493  campaign.AmountCollected < campaign.target */\n      lt\n        /* \"CrowdFunding.sol\":9447:11711  if (campaign.AmountCollected < campaign.target) {... */\n      iszero\n      tag_87\n      jumpi\n        /* \"CrowdFunding.sol\":9552:9571  uint256 numDonators */\n      0x00\n        /* \"CrowdFunding.sol\":9574:9582  campaign */\n      dup2\n        /* \"CrowdFunding.sol\":9574:9591  campaign.donators */\n      0x07\n      add\n        /* \"CrowdFunding.sol\":9574:9598  campaign.donators.length */\n      dup1\n      sload\n      swap1\n      pop\n        /* \"CrowdFunding.sol\":9552:9598  uint256 numDonators = campaign.donators.length */\n      swap1\n      pop\n        /* \"CrowdFunding.sol\":9668:9686  uint256 minSupport */\n      0x00\n        /* \"CrowdFunding.sol\":9710:9713  100 */\n      0x64\n        /* \"CrowdFunding.sol\":9704:9706  51 */\n      0x33\n        /* \"CrowdFunding.sol\":9690:9701  numDonators */\n      dup4\n        /* \"CrowdFunding.sol\":9690:9706  numDonators * 51 */\n      tag_88\n      swap2\n      swap1\n      tag_89\n      jump\t// in\n    tag_88:\n        /* \"CrowdFunding.sol\":9689:9713  (numDonators * 51) / 100 */\n      tag_90\n      swap2\n      swap1\n      tag_91\n      jump\t// in\n    tag_90:\n        /* \"CrowdFunding.sol\":9668:9713  uint256 minSupport = (numDonators * 51) / 100 */\n      swap1\n      pop\n        /* \"CrowdFunding.sol\":9775:9795  uint256 supportCount */\n      0x00\n        /* \"CrowdFunding.sol\":9899:9908  uint256 i */\n      dup1\n        /* \"CrowdFunding.sol\":9894:10227  for (uint256 i = 0; i < numDonators; i++) {... */\n    tag_92:\n        /* \"CrowdFunding.sol\":9918:9929  numDonators */\n      dup4\n        /* \"CrowdFunding.sol\":9914:9915  i */\n      dup2\n        /* \"CrowdFunding.sol\":9914:9929  i < numDonators */\n      lt\n        /* \"CrowdFunding.sol\":9894:10227  for (uint256 i = 0; i < numDonators; i++) {... */\n      iszero\n      tag_93\n      jumpi\n        /* \"CrowdFunding.sol\":9998:10008  bool agree */\n      0x00\n        /* \"CrowdFunding.sol\":10011:10019  campaign */\n      dup6\n        /* \"CrowdFunding.sol\":10011:10025  campaign.agree */\n      0x09\n      add\n        /* \"CrowdFunding.sol\":10026:10027  i */\n      dup3\n        /* \"CrowdFunding.sol\":10011:10028  campaign.agree[i] */\n      dup2\n      sload\n      dup2\n      lt\n      tag_95\n      jumpi\n      tag_96\n      tag_97\n      jump\t// in\n    tag_96:\n    tag_95:\n      swap1\n      0x00\n      mstore\n      keccak256(0x00, 0x20)\n      swap1\n      0x20\n      swap2\n      dup3\n      dup3\n      div\n      add\n      swap2\n      swap1\n      mod\n      swap1\n      sload\n      swap1\n      0x0100\n      exp\n      swap1\n      div\n      0xff\n      and\n        /* \"CrowdFunding.sol\":9998:10028  bool agree = campaign.agree[i] */\n      swap1\n      pop\n        /* \"CrowdFunding.sol\":10152:10156  true */\n      0x01\n        /* \"CrowdFunding.sol\":10143:10156  agree == true */\n      iszero\n      iszero\n        /* \"CrowdFunding.sol\":10143:10148  agree */\n      dup2\n        /* \"CrowdFunding.sol\":10143:10156  agree == true */\n      iszero\n      iszero\n      sub\n        /* \"CrowdFunding.sol\":10139:10213  if (agree == true) {... */\n      tag_99\n      jumpi\n        /* \"CrowdFunding.sol\":10180:10194  supportCount++ */\n      dup3\n      dup1\n      tag_100\n      swap1\n      tag_101\n      jump\t// in\n    tag_100:\n      swap4\n      pop\n      pop\n        /* \"CrowdFunding.sol\":10139:10213  if (agree == true) {... */\n    tag_99:\n        /* \"CrowdFunding.sol\":9936:10227  {... */\n      pop\n        /* \"CrowdFunding.sol\":9931:9934  i++ */\n      dup1\n      dup1\n      tag_102\n      swap1\n      tag_101\n      jump\t// in\n    tag_102:\n      swap2\n      pop\n      pop\n        /* \"CrowdFunding.sol\":9894:10227  for (uint256 i = 0; i < numDonators; i++) {... */\n      jump(tag_92)\n    tag_93:\n      pop\n        /* \"CrowdFunding.sol\":10372:10382  minSupport */\n      dup2\n        /* \"CrowdFunding.sol\":10356:10368  supportCount */\n      dup2\n        /* \"CrowdFunding.sol\":10356:10382  supportCount >= minSupport */\n      lt\n      iszero\n        /* \"CrowdFunding.sol\":10348:10407  require(supportCount >= minSupport, \"Insufficient support\") */\n      tag_103\n      jumpi\n      mload(0x40)\n      0x08c379a000000000000000000000000000000000000000000000000000000000\n      dup2\n      mstore\n      0x04\n      add\n      tag_104\n      swap1\n      tag_105\n      jump\t// in\n    tag_104:\n      mload(0x40)\n      dup1\n      swap2\n      sub\n      swap1\n      revert\n    tag_103:\n        /* \"CrowdFunding.sol\":10491:10500  bool sent */\n      0x00\n        /* \"CrowdFunding.sol\":10514:10522  campaign */\n      dup5\n        /* \"CrowdFunding.sol\":10514:10528  campaign.owner */\n      0x00\n      add\n      0x00\n      swap1\n      sload\n      swap1\n      0x0100\n      exp\n      swap1\n      div\n      0xffffffffffffffffffffffffffffffffffffffff\n      and\n        /* \"CrowdFunding.sol\":10506:10534  payable(campaign.owner).call */\n      0xffffffffffffffffffffffffffffffffffffffff\n      and\n        /* \"CrowdFunding.sol\":10559:10567  campaign */\n      dup6\n        /* \"CrowdFunding.sol\":10559:10583  campaign.AmountCollected */\n      0x05\n      add\n      sload\n        /* \"CrowdFunding.sol\":10506:10601  payable(campaign.owner).call{... */\n      mload(0x40)\n      tag_106\n      swap1\n      tag_107\n      jump\t// in\n    tag_106:\n      0x00\n      mload(0x40)\n      dup1\n      dup4\n      sub\n      dup2\n      dup6\n      dup8\n      gas\n      call\n      swap3\n      pop\n      pop\n      pop\n      returndatasize\n      dup1\n      0x00\n      dup2\n      eq\n      tag_110\n      jumpi\n      mload(0x40)\n      swap2\n      pop\n      and(add(returndatasize, 0x3f), not(0x1f))\n      dup3\n      add\n      0x40\n      mstore\n      returndatasize\n      dup3\n      mstore\n      returndatasize\n      0x00\n      0x20\n      dup5\n      add\n      returndatacopy\n      jump(tag_109)\n    tag_110:\n      0x60\n      swap2\n      pop\n    tag_109:\n      pop\n        /* \"CrowdFunding.sol\":10490:10601  (bool sent, ) = payable(campaign.owner).call{... */\n      pop\n      swap1\n      pop\n        /* \"CrowdFunding.sol\":10631:10635  true */\n      0x01\n        /* \"CrowdFunding.sol\":10623:10635  sent == true */\n      iszero\n      iszero\n        /* \"CrowdFunding.sol\":10623:10627  sent */\n      dup2\n        /* \"CrowdFunding.sol\":10623:10635  sent == true */\n      iszero\n      iszero\n      eq\n        /* \"CrowdFunding.sol\":10615:10678  require(sent == true, \"Failed to send funds to campaign owner\") */\n      tag_111\n      jumpi\n      mload(0x40)\n      0x08c379a000000000000000000000000000000000000000000000000000000000\n      dup2\n      mstore\n      0x04\n      add\n      tag_112\n      swap1\n      tag_113\n      jump\t// in\n    tag_112:\n      mload(0x40)\n      dup1\n      swap2\n      sub\n      swap1\n      revert\n    tag_111:\n        /* \"CrowdFunding.sol\":10797:10932  withdrawn(... */\n      0x5beff99a090cde8c7147f5287b6dcb2b32ac614b205ba849cb155f19bea596b1\n        /* \"CrowdFunding.sol\":10824:10827  _id */\n      dup9\n        /* \"CrowdFunding.sol\":10797:10932  withdrawn(... */\n      mload(0x40)\n      tag_114\n      swap2\n      swap1\n      tag_115\n      jump\t// in\n    tag_114:\n      mload(0x40)\n      dup1\n      swap2\n      sub\n      swap1\n      log1\n        /* \"CrowdFunding.sol\":11023:11024  0 */\n      0x00\n        /* \"CrowdFunding.sol\":10996:11004  campaign */\n      dup6\n        /* \"CrowdFunding.sol\":10996:11020  campaign.AmountCollected */\n      0x05\n      add\n        /* \"CrowdFunding.sol\":10996:11024  campaign.AmountCollected = 0 */\n      dup2\n      swap1\n      sstore\n      pop\n        /* \"CrowdFunding.sol\":9495:11035  {... */\n      pop\n      pop\n      pop\n      pop\n        /* \"CrowdFunding.sol\":9447:11711  if (campaign.AmountCollected < campaign.target) {... */\n      jump(tag_116)\n    tag_87:\n        /* \"CrowdFunding.sol\":11124:11133  bool sent */\n      0x00\n        /* \"CrowdFunding.sol\":11147:11155  campaign */\n      dup2\n        /* \"CrowdFunding.sol\":11147:11161  campaign.owner */\n      0x00\n      add\n      0x00\n      swap1\n      sload\n      swap1\n      0x0100\n      exp\n      swap1\n      div\n      0xffffffffffffffffffffffffffffffffffffffff\n      and\n        /* \"CrowdFunding.sol\":11139:11167  payable(campaign.owner).call */\n      0xffffffffffffffffffffffffffffffffffffffff\n      and\n        /* \"CrowdFunding.sol\":11192:11200  campaign */\n      dup3\n        /* \"CrowdFunding.sol\":11192:11216  campaign.AmountCollected */\n      0x05\n      add\n      sload\n        /* \"CrowdFunding.sol\":11239:11244  10000 */\n      0x2710\n        /* \"CrowdFunding.sol\":11139:11262  payable(campaign.owner).call{... */\n      swap1\n      mload(0x40)\n      tag_117\n      swap1\n      tag_107\n      jump\t// in\n    tag_117:\n      0x00\n      mload(0x40)\n      dup1\n      dup4\n      sub\n      dup2\n      dup6\n      dup9\n      dup9\n      call\n      swap4\n      pop\n      pop\n      pop\n      pop\n      returndatasize\n      dup1\n      0x00\n      dup2\n      eq\n      tag_120\n      jumpi\n      mload(0x40)\n      swap2\n      pop\n      and(add(returndatasize, 0x3f), not(0x1f))\n      dup3\n      add\n      0x40\n      mstore\n      returndatasize\n      dup3\n      mstore\n      returndatasize\n      0x00\n      0x20\n      dup5\n      add\n      returndatacopy\n      jump(tag_119)\n    tag_120:\n      0x60\n      swap2\n      pop\n    tag_119:\n      pop\n        /* \"CrowdFunding.sol\":11123:11262  (bool sent, ) = payable(campaign.owner).call{... */\n      pop\n      swap1\n      pop\n        /* \"CrowdFunding.sol\":11292:11296  true */\n      0x01\n        /* \"CrowdFunding.sol\":11284:11296  sent == true */\n      iszero\n      iszero\n        /* \"CrowdFunding.sol\":11284:11288  sent */\n      dup2\n        /* \"CrowdFunding.sol\":11284:11296  sent == true */\n      iszero\n      iszero\n      eq\n        /* \"CrowdFunding.sol\":11276:11339  require(sent == true, \"Failed to send funds to campaign owner\") */\n      tag_121\n      jumpi\n      mload(0x40)\n      0x08c379a000000000000000000000000000000000000000000000000000000000\n      dup2\n      mstore\n      0x04\n      add\n      tag_122\n      swap1\n      tag_113\n      jump\t// in\n    tag_122:\n      mload(0x40)\n      dup1\n      swap2\n      sub\n      swap1\n      revert\n    tag_121:\n        /* \"CrowdFunding.sol\":11391:11411  destroyCampaign(_id) */\n      tag_123\n        /* \"CrowdFunding.sol\":11407:11410  _id */\n      dup6\n        /* \"CrowdFunding.sol\":11391:11406  destroyCampaign */\n      tag_124\n        /* \"CrowdFunding.sol\":11391:11411  destroyCampaign(_id) */\n      jump\t// in\n    tag_123:\n        /* \"CrowdFunding.sol\":11497:11609  withdrawn(... */\n      0x5beff99a090cde8c7147f5287b6dcb2b32ac614b205ba849cb155f19bea596b1\n        /* \"CrowdFunding.sol\":11524:11527  _id */\n      dup6\n        /* \"CrowdFunding.sol\":11497:11609  withdrawn(... */\n      mload(0x40)\n      tag_125\n      swap2\n      swap1\n      tag_126\n      jump\t// in\n    tag_125:\n      mload(0x40)\n      dup1\n      swap2\n      sub\n      swap1\n      log1\n        /* \"CrowdFunding.sol\":11699:11700  0 */\n      0x00\n        /* \"CrowdFunding.sol\":11672:11680  campaign */\n      dup3\n        /* \"CrowdFunding.sol\":11672:11696  campaign.AmountCollected */\n      0x05\n      add\n        /* \"CrowdFunding.sol\":11672:11700  campaign.AmountCollected = 0 */\n      dup2\n      swap1\n      sstore\n      pop\n        /* \"CrowdFunding.sol\":11041:11711  {... */\n      pop\n        /* \"CrowdFunding.sol\":9447:11711  if (campaign.AmountCollected < campaign.target) {... */\n    tag_116:\n        /* \"CrowdFunding.sol\":8847:11717  {... */\n      pop\n        /* \"CrowdFunding.sol\":1756:1907  {... */\n      pop\n        /* \"CrowdFunding.sol\":8789:11717  function withdrawFunds(uint256 _id) public onlyOwner(_id) {... */\n      pop\n      pop\n      jump\t// out\n        /* \"CrowdFunding.sol\":5317:7730  function refund(uint256 _id) public {... */\n    tag_36:\n        /* \"CrowdFunding.sol\":5392:5417  Campaign storage campaign */\n      0x00\n        /* \"CrowdFunding.sol\":5420:5429  campaigns */\n      dup1\n        /* \"CrowdFunding.sol\":5420:5434  campaigns[_id] */\n      0x00\n        /* \"CrowdFunding.sol\":5430:5433  _id */\n      dup4\n        /* \"CrowdFunding.sol\":5420:5434  campaigns[_id] */\n      dup2\n      mstore\n      0x20\n      add\n      swap1\n      dup2\n      mstore\n      0x20\n      add\n      0x00\n      keccak256\n        /* \"CrowdFunding.sol\":5392:5434  Campaign storage campaign = campaigns[_id] */\n      swap1\n      pop\n        /* \"CrowdFunding.sol\":5553:5554  0 */\n      0x00\n        /* \"CrowdFunding.sol\":5527:5555  campaign.owner != address(0) */\n      0xffffffffffffffffffffffffffffffffffffffff\n      and\n        /* \"CrowdFunding.sol\":5527:5535  campaign */\n      dup2\n        /* \"CrowdFunding.sol\":5527:5541  campaign.owner */\n      0x00\n      add\n      0x00\n      swap1\n      sload\n      swap1\n      0x0100\n      exp\n      swap1\n      div\n      0xffffffffffffffffffffffffffffffffffffffff\n      and\n        /* \"CrowdFunding.sol\":5527:5555  campaign.owner != address(0) */\n      0xffffffffffffffffffffffffffffffffffffffff\n      and\n      sub\n        /* \"CrowdFunding.sol\":5506:5616  require(... */\n      tag_128\n      jumpi\n      mload(0x40)\n      0x08c379a000000000000000000000000000000000000000000000000000000000\n      dup2\n      mstore\n      0x04\n      add\n      tag_129\n      swap1\n      tag_80\n      jump\t// in\n    tag_129:\n      mload(0x40)\n      dup1\n      swap2\n      sub\n      swap1\n      revert\n    tag_128:\n        /* \"CrowdFunding.sol\":5718:5733  block.timestamp */\n      timestamp\n        /* \"CrowdFunding.sol\":5698:5706  campaign */\n      dup2\n        /* \"CrowdFunding.sol\":5698:5715  campaign.deadline */\n      0x04\n      add\n      sload\n        /* \"CrowdFunding.sol\":5698:5733  campaign.deadline < block.timestamp */\n      lt\n        /* \"CrowdFunding.sol\":5690:5754  require(campaign.deadline < block.timestamp, \"Deadline not met\") */\n      tag_130\n      jumpi\n      mload(0x40)\n      0x08c379a000000000000000000000000000000000000000000000000000000000\n      dup2\n      mstore\n      0x04\n      add\n      tag_131\n      swap1\n      tag_83\n      jump\t// in\n    tag_131:\n      mload(0x40)\n      dup1\n      swap2\n      sub\n      swap1\n      revert\n    tag_130:\n        /* \"CrowdFunding.sol\":5849:5857  campaign */\n      dup1\n        /* \"CrowdFunding.sol\":5849:5864  campaign.target */\n      0x03\n      add\n      sload\n        /* \"CrowdFunding.sol\":5822:5830  campaign */\n      dup2\n        /* \"CrowdFunding.sol\":5822:5846  campaign.AmountCollected */\n      0x05\n      add\n      sload\n        /* \"CrowdFunding.sol\":5822:5864  campaign.AmountCollected < campaign.target */\n      lt\n        /* \"CrowdFunding.sol\":5814:5883  require(campaign.AmountCollected < campaign.target, \"Target reached\") */\n      tag_132\n      jumpi\n      mload(0x40)\n      0x08c379a000000000000000000000000000000000000000000000000000000000\n      dup2\n      mstore\n      0x04\n      add\n      tag_133\n      swap1\n      tag_134\n      jump\t// in\n    tag_133:\n      mload(0x40)\n      dup1\n      swap2\n      sub\n      swap1\n      revert\n    tag_132:\n        /* \"CrowdFunding.sol\":5978:5986  campaign */\n      dup1\n        /* \"CrowdFunding.sol\":5978:5992  campaign.owner */\n      0x00\n      add\n      0x00\n      swap1\n      sload\n      swap1\n      0x0100\n      exp\n      swap1\n      div\n      0xffffffffffffffffffffffffffffffffffffffff\n      and\n        /* \"CrowdFunding.sol\":5964:5992  msg.sender != campaign.owner */\n      0xffffffffffffffffffffffffffffffffffffffff\n      and\n        /* \"CrowdFunding.sol\":5964:5974  msg.sender */\n      caller\n        /* \"CrowdFunding.sol\":5964:5992  msg.sender != campaign.owner */\n      0xffffffffffffffffffffffffffffffffffffffff\n      and\n      sub\n        /* \"CrowdFunding.sol\":5956:6025  require(msg.sender != campaign.owner, \"Owner can't call transaction\") */\n      tag_135\n      jumpi\n      mload(0x40)\n      0x08c379a000000000000000000000000000000000000000000000000000000000\n      dup2\n      mstore\n      0x04\n      add\n      tag_136\n      swap1\n      tag_137\n      jump\t// in\n    tag_136:\n      mload(0x40)\n      dup1\n      swap2\n      sub\n      swap1\n      revert\n    tag_135:\n        /* \"CrowdFunding.sol\":6155:6156  0 */\n      0x00\n        /* \"CrowdFunding.sol\":6128:6136  campaign */\n      dup2\n        /* \"CrowdFunding.sol\":6128:6152  campaign.AmountCollected */\n      0x05\n      add\n      sload\n        /* \"CrowdFunding.sol\":6128:6156  campaign.AmountCollected > 0 */\n      gt\n        /* \"CrowdFunding.sol\":6107:6233  require(... */\n      tag_138\n      jumpi\n      mload(0x40)\n      0x08c379a000000000000000000000000000000000000000000000000000000000\n      dup2\n      mstore\n      0x04\n      add\n      tag_139\n      swap1\n      tag_140\n      jump\t// in\n    tag_139:\n      mload(0x40)\n      dup1\n      swap2\n      sub\n      swap1\n      revert\n    tag_138:\n        /* \"CrowdFunding.sol\":6308:6328  uint256 donatorIndex */\n      0x00\n        /* \"CrowdFunding.sol\":6342:6359  bool foundDonator */\n      dup1\n        /* \"CrowdFunding.sol\":6382:6391  uint256 i */\n      0x00\n        /* \"CrowdFunding.sol\":6377:6605  for (uint256 i = 0; i < campaign.donators.length; i++) {... */\n    tag_141:\n        /* \"CrowdFunding.sol\":6401:6409  campaign */\n      dup4\n        /* \"CrowdFunding.sol\":6401:6418  campaign.donators */\n      0x07\n      add\n        /* \"CrowdFunding.sol\":6401:6425  campaign.donators.length */\n      dup1\n      sload\n      swap1\n      pop\n        /* \"CrowdFunding.sol\":6397:6398  i */\n      dup2\n        /* \"CrowdFunding.sol\":6397:6425  i < campaign.donators.length */\n      lt\n        /* \"CrowdFunding.sol\":6377:6605  for (uint256 i = 0; i < campaign.donators.length; i++) {... */\n      iszero\n      tag_142\n      jumpi\n        /* \"CrowdFunding.sol\":6474:6484  msg.sender */\n      caller\n        /* \"CrowdFunding.sol\":6450:6484  campaign.donators[i] == msg.sender */\n      0xffffffffffffffffffffffffffffffffffffffff\n      and\n        /* \"CrowdFunding.sol\":6450:6458  campaign */\n      dup5\n        /* \"CrowdFunding.sol\":6450:6467  campaign.donators */\n      0x07\n      add\n        /* \"CrowdFunding.sol\":6468:6469  i */\n      dup3\n        /* \"CrowdFunding.sol\":6450:6470  campaign.donators[i] */\n      dup2\n      sload\n      dup2\n      lt\n      tag_144\n      jumpi\n      tag_145\n      tag_97\n      jump\t// in\n    tag_145:\n    tag_144:\n      swap1\n      0x00\n      mstore\n      keccak256(0x00, 0x20)\n      add\n      0x00\n      swap1\n      sload\n      swap1\n      0x0100\n      exp\n      swap1\n      div\n      0xffffffffffffffffffffffffffffffffffffffff\n      and\n        /* \"CrowdFunding.sol\":6450:6484  campaign.donators[i] == msg.sender */\n      0xffffffffffffffffffffffffffffffffffffffff\n      and\n      sub\n        /* \"CrowdFunding.sol\":6446:6595  if (campaign.donators[i] == msg.sender) {... */\n      tag_147\n      jumpi\n        /* \"CrowdFunding.sol\":6519:6520  i */\n      dup1\n        /* \"CrowdFunding.sol\":6504:6520  donatorIndex = i */\n      swap3\n      pop\n        /* \"CrowdFunding.sol\":6553:6557  true */\n      0x01\n        /* \"CrowdFunding.sol\":6538:6557  foundDonator = true */\n      swap2\n      pop\n        /* \"CrowdFunding.sol\":6575:6580  break */\n      jump(tag_142)\n        /* \"CrowdFunding.sol\":6446:6595  if (campaign.donators[i] == msg.sender) {... */\n    tag_147:\n        /* \"CrowdFunding.sol\":6427:6430  i++ */\n      dup1\n      dup1\n      tag_148\n      swap1\n      tag_101\n      jump\t// in\n    tag_148:\n      swap2\n      pop\n      pop\n        /* \"CrowdFunding.sol\":6377:6605  for (uint256 i = 0; i < campaign.donators.length; i++) {... */\n      jump(tag_141)\n    tag_142:\n      pop\n        /* \"CrowdFunding.sol\":6712:6716  true */\n      0x01\n        /* \"CrowdFunding.sol\":6696:6716  foundDonator == true */\n      iszero\n      iszero\n        /* \"CrowdFunding.sol\":6696:6708  foundDonator */\n      dup2\n        /* \"CrowdFunding.sol\":6696:6716  foundDonator == true */\n      iszero\n      iszero\n      eq\n        /* \"CrowdFunding.sol\":6675:6781  require(... */\n      tag_149\n      jumpi\n      mload(0x40)\n      0x08c379a000000000000000000000000000000000000000000000000000000000\n      dup2\n      mstore\n      0x04\n      add\n      tag_150\n      swap1\n      tag_151\n      jump\t// in\n    tag_150:\n      mload(0x40)\n      dup1\n      swap2\n      sub\n      swap1\n      revert\n    tag_149:\n        /* \"CrowdFunding.sol\":6828:6850  uint256 donationAmount */\n      0x00\n        /* \"CrowdFunding.sol\":6853:6861  campaign */\n      dup4\n        /* \"CrowdFunding.sol\":6853:6871  campaign.donations */\n      0x08\n      add\n        /* \"CrowdFunding.sol\":6872:6884  donatorIndex */\n      dup4\n        /* \"CrowdFunding.sol\":6853:6885  campaign.donations[donatorIndex] */\n      dup2\n      sload\n      dup2\n      lt\n      tag_152\n      jumpi\n      tag_153\n      tag_97\n      jump\t// in\n    tag_153:\n    tag_152:\n      swap1\n      0x00\n      mstore\n      keccak256(0x00, 0x20)\n      add\n      sload\n        /* \"CrowdFunding.sol\":6828:6885  uint256 donationAmount = campaign.donations[donatorIndex] */\n      swap1\n      pop\n        /* \"CrowdFunding.sol\":6985:6993  campaign */\n      dup4\n        /* \"CrowdFunding.sol\":6985:7002  campaign.donators */\n      0x07\n      add\n        /* \"CrowdFunding.sol\":7043:7044  1 */\n      0x01\n        /* \"CrowdFunding.sol\":7016:7024  campaign */\n      dup6\n        /* \"CrowdFunding.sol\":7016:7033  campaign.donators */\n      0x07\n      add\n        /* \"CrowdFunding.sol\":7016:7040  campaign.donators.length */\n      dup1\n      sload\n      swap1\n      pop\n        /* \"CrowdFunding.sol\":7016:7044  campaign.donators.length - 1 */\n      tag_155\n      swap2\n      swap1\n      tag_156\n      jump\t// in\n    tag_155:\n        /* \"CrowdFunding.sol\":6985:7054  campaign.donators[... */\n      dup2\n      sload\n      dup2\n      lt\n      tag_157\n      jumpi\n      tag_158\n      tag_97\n      jump\t// in\n    tag_158:\n    tag_157:\n      swap1\n      0x00\n      mstore\n      keccak256(0x00, 0x20)\n      add\n      0x00\n      swap1\n      sload\n      swap1\n      0x0100\n      exp\n      swap1\n      div\n      0xffffffffffffffffffffffffffffffffffffffff\n      and\n        /* \"CrowdFunding.sol\":6951:6959  campaign */\n      dup5\n        /* \"CrowdFunding.sol\":6951:6968  campaign.donators */\n      0x07\n      add\n        /* \"CrowdFunding.sol\":6969:6981  donatorIndex */\n      dup5\n        /* \"CrowdFunding.sol\":6951:6982  campaign.donators[donatorIndex] */\n      dup2\n      sload\n      dup2\n      lt\n      tag_160\n      jumpi\n      tag_161\n      tag_97\n      jump\t// in\n    tag_161:\n    tag_160:\n      swap1\n      0x00\n      mstore\n      keccak256(0x00, 0x20)\n      add\n      0x00\n        /* \"CrowdFunding.sol\":6951:7054  campaign.donators[donatorIndex] = campaign.donators[... */\n      0x0100\n      exp\n      dup2\n      sload\n      dup2\n      0xffffffffffffffffffffffffffffffffffffffff\n      mul\n      not\n      and\n      swap1\n      dup4\n      0xffffffffffffffffffffffffffffffffffffffff\n      and\n      mul\n      or\n      swap1\n      sstore\n      pop\n        /* \"CrowdFunding.sol\":7064:7072  campaign */\n      dup4\n        /* \"CrowdFunding.sol\":7064:7081  campaign.donators */\n      0x07\n      add\n        /* \"CrowdFunding.sol\":7064:7087  campaign.donators.pop() */\n      dup1\n      sload\n      dup1\n      tag_163\n      jumpi\n      tag_164\n      tag_165\n      jump\t// in\n    tag_164:\n    tag_163:\n      0x01\n      swap1\n      sub\n      dup2\n      dup2\n      swap1\n      0x00\n      mstore\n      keccak256(0x00, 0x20)\n      add\n      exp(0x0100, 0x00)\n      dup2\n      sload\n      swap1\n      0xffffffffffffffffffffffffffffffffffffffff\n      mul\n      not\n      and\n      swap1\n      sstore\n      swap1\n      sstore\n        /* \"CrowdFunding.sol\":7197:7205  campaign */\n      dup4\n        /* \"CrowdFunding.sol\":7197:7215  campaign.donations */\n      0x08\n      add\n        /* \"CrowdFunding.sol\":7257:7258  1 */\n      0x01\n        /* \"CrowdFunding.sol\":7229:7237  campaign */\n      dup6\n        /* \"CrowdFunding.sol\":7229:7247  campaign.donations */\n      0x08\n      add\n        /* \"CrowdFunding.sol\":7229:7254  campaign.donations.length */\n      dup1\n      sload\n      swap1\n      pop\n        /* \"CrowdFunding.sol\":7229:7258  campaign.donations.length - 1 */\n      tag_167\n      swap2\n      swap1\n      tag_156\n      jump\t// in\n    tag_167:\n        /* \"CrowdFunding.sol\":7197:7268  campaign.donations[... */\n      dup2\n      sload\n      dup2\n      lt\n      tag_168\n      jumpi\n      tag_169\n      tag_97\n      jump\t// in\n    tag_169:\n    tag_168:\n      swap1\n      0x00\n      mstore\n      keccak256(0x00, 0x20)\n      add\n      sload\n        /* \"CrowdFunding.sol\":7162:7170  campaign */\n      dup5\n        /* \"CrowdFunding.sol\":7162:7180  campaign.donations */\n      0x08\n      add\n        /* \"CrowdFunding.sol\":7181:7193  donatorIndex */\n      dup5\n        /* \"CrowdFunding.sol\":7162:7194  campaign.donations[donatorIndex] */\n      dup2\n      sload\n      dup2\n      lt\n      tag_171\n      jumpi\n      tag_172\n      tag_97\n      jump\t// in\n    tag_172:\n    tag_171:\n      swap1\n      0x00\n      mstore\n      keccak256(0x00, 0x20)\n      add\n        /* \"CrowdFunding.sol\":7162:7268  campaign.donations[donatorIndex] = campaign.donations[... */\n      dup2\n      swap1\n      sstore\n      pop\n        /* \"CrowdFunding.sol\":7278:7286  campaign */\n      dup4\n        /* \"CrowdFunding.sol\":7278:7296  campaign.donations */\n      0x08\n      add\n        /* \"CrowdFunding.sol\":7278:7302  campaign.donations.pop() */\n      dup1\n      sload\n      dup1\n      tag_174\n      jumpi\n      tag_175\n      tag_165\n      jump\t// in\n    tag_175:\n    tag_174:\n      0x01\n      swap1\n      sub\n      dup2\n      dup2\n      swap1\n      0x00\n      mstore\n      keccak256(0x00, 0x20)\n      add\n      0x00\n      swap1\n      sstore\n      swap1\n      sstore\n        /* \"CrowdFunding.sol\":7375:7384  bool sent */\n      0x00\n        /* \"CrowdFunding.sol\":7398:7408  msg.sender */\n      caller\n        /* \"CrowdFunding.sol\":7390:7414  payable(msg.sender).call */\n      0xffffffffffffffffffffffffffffffffffffffff\n      and\n        /* \"CrowdFunding.sol\":7422:7436  donationAmount */\n      dup3\n        /* \"CrowdFunding.sol\":7390:7441  payable(msg.sender).call{value: donationAmount}(\"\") */\n      mload(0x40)\n      tag_177\n      swap1\n      tag_107\n      jump\t// in\n    tag_177:\n      0x00\n      mload(0x40)\n      dup1\n      dup4\n      sub\n      dup2\n      dup6\n      dup8\n      gas\n      call\n      swap3\n      pop\n      pop\n      pop\n      returndatasize\n      dup1\n      0x00\n      dup2\n      eq\n      tag_180\n      jumpi\n      mload(0x40)\n      swap2\n      pop\n      and(add(returndatasize, 0x3f), not(0x1f))\n      dup3\n      add\n      0x40\n      mstore\n      returndatasize\n      dup3\n      mstore\n      returndatasize\n      0x00\n      0x20\n      dup5\n      add\n      returndatacopy\n      jump(tag_179)\n    tag_180:\n      0x60\n      swap2\n      pop\n    tag_179:\n      pop\n        /* \"CrowdFunding.sol\":7374:7441  (bool sent, ) = payable(msg.sender).call{value: donationAmount}(\"\") */\n      pop\n      swap1\n      pop\n        /* \"CrowdFunding.sol\":7467:7471  true */\n      0x01\n        /* \"CrowdFunding.sol\":7459:7471  sent == true */\n      iszero\n      iszero\n        /* \"CrowdFunding.sol\":7459:7463  sent */\n      dup2\n        /* \"CrowdFunding.sol\":7459:7471  sent == true */\n      iszero\n      iszero\n      eq\n        /* \"CrowdFunding.sol\":7451:7497  require(sent == true, \"Failed to send refund\") */\n      tag_181\n      jumpi\n      mload(0x40)\n      0x08c379a000000000000000000000000000000000000000000000000000000000\n      dup2\n      mstore\n      0x04\n      add\n      tag_182\n      swap1\n      tag_183\n      jump\t// in\n    tag_182:\n      mload(0x40)\n      dup1\n      swap2\n      sub\n      swap1\n      revert\n    tag_181:\n        /* \"CrowdFunding.sol\":7600:7610  msg.sender */\n      caller\n        /* \"CrowdFunding.sol\":7582:7627  RefundIssued(_id, msg.sender, donationAmount) */\n      0xffffffffffffffffffffffffffffffffffffffff\n      and\n        /* \"CrowdFunding.sol\":7595:7598  _id */\n      dup7\n        /* \"CrowdFunding.sol\":7582:7627  RefundIssued(_id, msg.sender, donationAmount) */\n      0x7a482fdeb6bc9a1376f597068a214a7a39472bb2eff1b8cad21ba04f49ddca1b\n        /* \"CrowdFunding.sol\":7612:7626  donationAmount */\n      dup5\n        /* \"CrowdFunding.sol\":7582:7627  RefundIssued(_id, msg.sender, donationAmount) */\n      mload(0x40)\n      tag_184\n      swap2\n      swap1\n      tag_15\n      jump\t// in\n    tag_184:\n      mload(0x40)\n      dup1\n      swap2\n      sub\n      swap1\n      log3\n        /* \"CrowdFunding.sol\":7709:7723  donationAmount */\n      dup2\n        /* \"CrowdFunding.sol\":7681:7689  campaign */\n      dup6\n        /* \"CrowdFunding.sol\":7681:7705  campaign.AmountCollected */\n      0x05\n      add\n      0x00\n        /* \"CrowdFunding.sol\":7681:7723  campaign.AmountCollected -= donationAmount */\n      dup3\n      dup3\n      sload\n      tag_185\n      swap2\n      swap1\n      tag_156\n      jump\t// in\n    tag_185:\n      swap3\n      pop\n      pop\n      dup2\n      swap1\n      sstore\n      pop\n        /* \"CrowdFunding.sol\":5353:7730  {... */\n      pop\n      pop\n      pop\n      pop\n      pop\n        /* \"CrowdFunding.sol\":5317:7730  function refund(uint256 _id) public {... */\n      pop\n      jump\t// out\n        /* \"CrowdFunding.sol\":2022:3506  function createCampaign(... */\n    tag_41:\n        /* \"CrowdFunding.sol\":2240:2247  uint256 */\n      0x00\n        /* \"CrowdFunding.sol\":2338:2353  block.timestamp */\n      timestamp\n        /* \"CrowdFunding.sol\":2326:2335  _deadline */\n      dup4\n        /* \"CrowdFunding.sol\":2326:2353  _deadline > block.timestamp */\n      gt\n        /* \"CrowdFunding.sol\":2305:2414  require(... */\n      tag_187\n      jumpi\n      mload(0x40)\n      0x08c379a000000000000000000000000000000000000000000000000000000000\n      dup2\n      mstore\n      0x04\n      add\n      tag_188\n      swap1\n      tag_189\n      jump\t// in\n    tag_188:\n      mload(0x40)\n      dup1\n      swap2\n      sub\n      swap1\n      revert\n    tag_187:\n        /* \"CrowdFunding.sol\":2501:2502  0 */\n      0x00\n        /* \"CrowdFunding.sol\":2491:2498  _target */\n      dup5\n        /* \"CrowdFunding.sol\":2491:2502  _target > 0 */\n      gt\n        /* \"CrowdFunding.sol\":2483:2547  require(_target > 0, \"Target value should be greater than zero\") */\n      tag_190\n      jumpi\n      mload(0x40)\n      0x08c379a000000000000000000000000000000000000000000000000000000000\n      dup2\n      mstore\n      0x04\n      add\n      tag_191\n      swap1\n      tag_192\n      jump\t// in\n    tag_191:\n      mload(0x40)\n      dup1\n      swap2\n      sub\n      swap1\n      revert\n    tag_190:\n        /* \"CrowdFunding.sol\":2665:2666  0 */\n      0x00\n        /* \"CrowdFunding.sol\":2648:2654  _title */\n      dup7\n        /* \"CrowdFunding.sol\":2642:2662  bytes(_title).length */\n      mload\n        /* \"CrowdFunding.sol\":2642:2666  bytes(_title).length > 0 */\n      gt\n        /* \"CrowdFunding.sol\":2642:2716  bytes(_title).length > 0 &&... */\n      dup1\n      iszero\n      tag_193\n      jumpi\n      pop\n        /* \"CrowdFunding.sol\":2715:2716  0 */\n      0x00\n        /* \"CrowdFunding.sol\":2692:2704  _description */\n      dup6\n        /* \"CrowdFunding.sol\":2686:2712  bytes(_description).length */\n      mload\n        /* \"CrowdFunding.sol\":2686:2716  bytes(_description).length > 0 */\n      gt\n        /* \"CrowdFunding.sol\":2642:2716  bytes(_title).length > 0 &&... */\n    tag_193:\n        /* \"CrowdFunding.sol\":2642:2760  bytes(_title).length > 0 &&... */\n      dup1\n      iszero\n      tag_194\n      jumpi\n      pop\n        /* \"CrowdFunding.sol\":2759:2760  0 */\n      0x00\n        /* \"CrowdFunding.sol\":2742:2748  _image */\n      dup3\n        /* \"CrowdFunding.sol\":2736:2756  bytes(_image).length */\n      mload\n        /* \"CrowdFunding.sol\":2736:2760  bytes(_image).length > 0 */\n      gt\n        /* \"CrowdFunding.sol\":2642:2760  bytes(_title).length > 0 &&... */\n    tag_194:\n        /* \"CrowdFunding.sol\":2621:2829  require(... */\n      tag_195\n      jumpi\n      mload(0x40)\n      0x08c379a000000000000000000000000000000000000000000000000000000000\n      dup2\n      mstore\n      0x04\n      add\n      tag_196\n      swap1\n      tag_197\n      jump\t// in\n    tag_196:\n      mload(0x40)\n      dup1\n      swap2\n      sub\n      swap1\n      revert\n    tag_195:\n        /* \"CrowdFunding.sol\":2869:2894  Campaign storage campaign */\n      0x00\n        /* \"CrowdFunding.sol\":2897:2906  campaigns */\n      dup1\n        /* \"CrowdFunding.sol\":2897:2925  campaigns[numberOfCampaigns] */\n      0x00\n        /* \"CrowdFunding.sol\":2907:2924  numberOfCampaigns */\n      sload(0x01)\n        /* \"CrowdFunding.sol\":2897:2925  campaigns[numberOfCampaigns] */\n      dup2\n      mstore\n      0x20\n      add\n      swap1\n      dup2\n      mstore\n      0x20\n      add\n      0x00\n      keccak256\n        /* \"CrowdFunding.sol\":2869:2925  Campaign storage campaign = campaigns[numberOfCampaigns] */\n      swap1\n      pop\n        /* \"CrowdFunding.sol\":2993:2999  _owner */\n      dup8\n        /* \"CrowdFunding.sol\":2976:2984  campaign */\n      dup2\n        /* \"CrowdFunding.sol\":2976:2990  campaign.owner */\n      0x00\n      add\n      0x00\n        /* \"CrowdFunding.sol\":2976:2999  campaign.owner = _owner */\n      0x0100\n      exp\n      dup2\n      sload\n      dup2\n      0xffffffffffffffffffffffffffffffffffffffff\n      mul\n      not\n      and\n      swap1\n      dup4\n      0xffffffffffffffffffffffffffffffffffffffff\n      and\n      mul\n      or\n      swap1\n      sstore\n      pop\n        /* \"CrowdFunding.sol\":3026:3032  _title */\n      dup7\n        /* \"CrowdFunding.sol\":3009:3017  campaign */\n      dup2\n        /* \"CrowdFunding.sol\":3009:3023  campaign.title */\n      0x01\n      add\n        /* \"CrowdFunding.sol\":3009:3032  campaign.title = _title */\n      swap1\n      dup2\n      tag_198\n      swap2\n      swap1\n      tag_199\n      jump\t// in\n    tag_198:\n      pop\n        /* \"CrowdFunding.sol\":3065:3077  _description */\n      dup6\n        /* \"CrowdFunding.sol\":3042:3050  campaign */\n      dup2\n        /* \"CrowdFunding.sol\":3042:3062  campaign.description */\n      0x02\n      add\n        /* \"CrowdFunding.sol\":3042:3077  campaign.description = _description */\n      swap1\n      dup2\n      tag_200\n      swap2\n      swap1\n      tag_199\n      jump\t// in\n    tag_200:\n      pop\n        /* \"CrowdFunding.sol\":3105:3112  _target */\n      dup5\n        /* \"CrowdFunding.sol\":3087:3095  campaign */\n      dup2\n        /* \"CrowdFunding.sol\":3087:3102  campaign.target */\n      0x03\n      add\n        /* \"CrowdFunding.sol\":3087:3112  campaign.target = _target */\n      dup2\n      swap1\n      sstore\n      pop\n        /* \"CrowdFunding.sol\":3142:3151  _deadline */\n      dup4\n        /* \"CrowdFunding.sol\":3122:3130  campaign */\n      dup2\n        /* \"CrowdFunding.sol\":3122:3139  campaign.deadline */\n      0x04\n      add\n        /* \"CrowdFunding.sol\":3122:3151  campaign.deadline = _deadline */\n      dup2\n      swap1\n      sstore\n      pop\n        /* \"CrowdFunding.sol\":3178:3184  _image */\n      dup3\n        /* \"CrowdFunding.sol\":3161:3169  campaign */\n      dup2\n        /* \"CrowdFunding.sol\":3161:3175  campaign.image */\n      0x06\n      add\n        /* \"CrowdFunding.sol\":3161:3184  campaign.image = _image */\n      swap1\n      dup2\n      tag_201\n      swap2\n      swap1\n      tag_199\n      jump\t// in\n    tag_201:\n      pop\n        /* \"CrowdFunding.sol\":3306:3312  _owner */\n      dup8\n        /* \"CrowdFunding.sol\":3277:3432  CampaignCreated(... */\n      0xffffffffffffffffffffffffffffffffffffffff\n      and\n      0xac19613078b51501aaa270ef8c4878d3ef375fdd93e7f2b7d7e67926fae841c8\n        /* \"CrowdFunding.sol\":3326:3332  _title */\n      dup9\n        /* \"CrowdFunding.sol\":3346:3358  _description */\n      dup9\n        /* \"CrowdFunding.sol\":3372:3379  _target */\n      dup9\n        /* \"CrowdFunding.sol\":3393:3402  _deadline */\n      dup9\n        /* \"CrowdFunding.sol\":3416:3422  _image */\n      dup9\n        /* \"CrowdFunding.sol\":3277:3432  CampaignCreated(... */\n      mload(0x40)\n      tag_202\n      swap6\n      swap5\n      swap4\n      swap3\n      swap2\n      swap1\n      tag_203\n      jump\t// in\n    tag_202:\n      mload(0x40)\n      dup1\n      swap2\n      sub\n      swap1\n      log2\n        /* \"CrowdFunding.sol\":3442:3459  numberOfCampaigns */\n      0x01\n      0x00\n        /* \"CrowdFunding.sol\":3442:3461  numberOfCampaigns++ */\n      dup2\n      sload\n      dup1\n      swap3\n      swap2\n      swap1\n      tag_204\n      swap1\n      tag_101\n      jump\t// in\n    tag_204:\n      swap2\n      swap1\n      pop\n      sstore\n      pop\n        /* \"CrowdFunding.sol\":3498:3499  1 */\n      0x01\n        /* \"CrowdFunding.sol\":3478:3495  numberOfCampaigns */\n      dup1\n      sload\n        /* \"CrowdFunding.sol\":3478:3499  numberOfCampaigns - 1 */\n      tag_205\n      swap2\n      swap1\n      tag_156\n      jump\t// in\n    tag_205:\n        /* \"CrowdFunding.sol\":3471:3499  return numberOfCampaigns - 1 */\n      swap2\n      pop\n      pop\n        /* \"CrowdFunding.sol\":2022:3506  function createCampaign(... */\n      swap7\n      swap6\n      pop\n      pop\n      pop\n      pop\n      pop\n      pop\n      jump\t// out\n        /* \"CrowdFunding.sol\":3560:5236  function donateToCampaign(uint256 _id, bool _agree) public payable {... */\n    tag_46:\n        /* \"CrowdFunding.sol\":3637:3651  uint256 amount */\n      0x00\n        /* \"CrowdFunding.sol\":3654:3663  msg.value */\n      callvalue\n        /* \"CrowdFunding.sol\":3637:3663  uint256 amount = msg.value */\n      swap1\n      pop\n        /* \"CrowdFunding.sol\":3737:3762  Campaign storage campaign */\n      0x00\n        /* \"CrowdFunding.sol\":3765:3774  campaigns */\n      dup1\n        /* \"CrowdFunding.sol\":3765:3779  campaigns[_id] */\n      0x00\n        /* \"CrowdFunding.sol\":3775:3778  _id */\n      dup6\n        /* \"CrowdFunding.sol\":3765:3779  campaigns[_id] */\n      dup2\n      mstore\n      0x20\n      add\n      swap1\n      dup2\n      mstore\n      0x20\n      add\n      0x00\n      keccak256\n        /* \"CrowdFunding.sol\":3737:3779  Campaign storage campaign = campaigns[_id] */\n      swap1\n      pop\n        /* \"CrowdFunding.sol\":3898:3899  0 */\n      0x00\n        /* \"CrowdFunding.sol\":3872:3900  campaign.owner != address(0) */\n      0xffffffffffffffffffffffffffffffffffffffff\n      and\n        /* \"CrowdFunding.sol\":3872:3880  campaign */\n      dup2\n        /* \"CrowdFunding.sol\":3872:3886  campaign.owner */\n      0x00\n      add\n      0x00\n      swap1\n      sload\n      swap1\n      0x0100\n      exp\n      swap1\n      div\n      0xffffffffffffffffffffffffffffffffffffffff\n      and\n        /* \"CrowdFunding.sol\":3872:3900  campaign.owner != address(0) */\n      0xffffffffffffffffffffffffffffffffffffffff\n      and\n      sub\n        /* \"CrowdFunding.sol\":3851:3961  require(... */\n      tag_207\n      jumpi\n      mload(0x40)\n      0x08c379a000000000000000000000000000000000000000000000000000000000\n      dup2\n      mstore\n      0x04\n      add\n      tag_208\n      swap1\n      tag_80\n      jump\t// in\n    tag_208:\n      mload(0x40)\n      dup1\n      swap2\n      sub\n      swap1\n      revert\n    tag_207:\n        /* \"CrowdFunding.sol\":4048:4063  block.timestamp */\n      timestamp\n        /* \"CrowdFunding.sol\":4028:4036  campaign */\n      dup2\n        /* \"CrowdFunding.sol\":4028:4045  campaign.deadline */\n      0x04\n      add\n      sload\n        /* \"CrowdFunding.sol\":4028:4063  campaign.deadline > block.timestamp */\n      gt\n        /* \"CrowdFunding.sol\":4020:4088  require(campaign.deadline > block.timestamp, \"deadline already met\") */\n      tag_209\n      jumpi\n      mload(0x40)\n      0x08c379a000000000000000000000000000000000000000000000000000000000\n      dup2\n      mstore\n      0x04\n      add\n      tag_210\n      swap1\n      tag_211\n      jump\t// in\n    tag_210:\n      mload(0x40)\n      dup1\n      swap2\n      sub\n      swap1\n      revert\n    tag_209:\n        /* \"CrowdFunding.sol\":4183:4191  campaign */\n      dup1\n        /* \"CrowdFunding.sol\":4183:4197  campaign.owner */\n      0x00\n      add\n      0x00\n      swap1\n      sload\n      swap1\n      0x0100\n      exp\n      swap1\n      div\n      0xffffffffffffffffffffffffffffffffffffffff\n      and\n        /* \"CrowdFunding.sol\":4169:4197  msg.sender != campaign.owner */\n      0xffffffffffffffffffffffffffffffffffffffff\n      and\n        /* \"CrowdFunding.sol\":4169:4179  msg.sender */\n      caller\n        /* \"CrowdFunding.sol\":4169:4197  msg.sender != campaign.owner */\n      0xffffffffffffffffffffffffffffffffffffffff\n      and\n      sub\n        /* \"CrowdFunding.sol\":4161:4230  require(msg.sender != campaign.owner, \"Owner can't call transaction\") */\n      tag_212\n      jumpi\n      mload(0x40)\n      0x08c379a000000000000000000000000000000000000000000000000000000000\n      dup2\n      mstore\n      0x04\n      add\n      tag_213\n      swap1\n      tag_137\n      jump\t// in\n    tag_213:\n      mload(0x40)\n      dup1\n      swap2\n      sub\n      swap1\n      revert\n    tag_212:\n        /* \"CrowdFunding.sol\":4241:4259  bool donatorExists */\n      0x00\n        /* \"CrowdFunding.sol\":4282:4291  uint256 i */\n      dup1\n        /* \"CrowdFunding.sol\":4277:4449  for (uint256 i = 0; i < campaign.donators.length; i++) {... */\n    tag_214:\n        /* \"CrowdFunding.sol\":4301:4309  campaign */\n      dup3\n        /* \"CrowdFunding.sol\":4301:4318  campaign.donators */\n      0x07\n      add\n        /* \"CrowdFunding.sol\":4301:4325  campaign.donators.length */\n      dup1\n      sload\n      swap1\n      pop\n        /* \"CrowdFunding.sol\":4297:4298  i */\n      dup2\n        /* \"CrowdFunding.sol\":4297:4325  i < campaign.donators.length */\n      lt\n        /* \"CrowdFunding.sol\":4277:4449  for (uint256 i = 0; i < campaign.donators.length; i++) {... */\n      iszero\n      tag_215\n      jumpi\n        /* \"CrowdFunding.sol\":4364:4372  campaign */\n      dup3\n        /* \"CrowdFunding.sol\":4364:4381  campaign.donators */\n      0x07\n      add\n        /* \"CrowdFunding.sol\":4382:4383  i */\n      dup2\n        /* \"CrowdFunding.sol\":4364:4384  campaign.donators[i] */\n      dup2\n      sload\n      dup2\n      lt\n      tag_217\n      jumpi\n      tag_218\n      tag_97\n      jump\t// in\n    tag_218:\n    tag_217:\n      swap1\n      0x00\n      mstore\n      keccak256(0x00, 0x20)\n      add\n      0x00\n      swap1\n      sload\n      swap1\n      0x0100\n      exp\n      swap1\n      div\n      0xffffffffffffffffffffffffffffffffffffffff\n      and\n        /* \"CrowdFunding.sol\":4350:4384  msg.sender == campaign.donators[i] */\n      0xffffffffffffffffffffffffffffffffffffffff\n      and\n        /* \"CrowdFunding.sol\":4350:4360  msg.sender */\n      caller\n        /* \"CrowdFunding.sol\":4350:4384  msg.sender == campaign.donators[i] */\n      0xffffffffffffffffffffffffffffffffffffffff\n      and\n      sub\n        /* \"CrowdFunding.sol\":4346:4439  if (msg.sender == campaign.donators[i]) {... */\n      tag_220\n      jumpi\n        /* \"CrowdFunding.sol\":4420:4424  true */\n      0x01\n        /* \"CrowdFunding.sol\":4404:4424  donatorExists = true */\n      swap2\n      pop\n        /* \"CrowdFunding.sol\":4346:4439  if (msg.sender == campaign.donators[i]) {... */\n    tag_220:\n        /* \"CrowdFunding.sol\":4327:4330  i++ */\n      dup1\n      dup1\n      tag_221\n      swap1\n      tag_101\n      jump\t// in\n    tag_221:\n      swap2\n      pop\n      pop\n        /* \"CrowdFunding.sol\":4277:4449  for (uint256 i = 0; i < campaign.donators.length; i++) {... */\n      jump(tag_214)\n    tag_215:\n      pop\n        /* \"CrowdFunding.sol\":4479:4483  true */\n      0x01\n        /* \"CrowdFunding.sol\":4462:4483  donatorExists == true */\n      iszero\n      iszero\n        /* \"CrowdFunding.sol\":4462:4475  donatorExists */\n      dup2\n        /* \"CrowdFunding.sol\":4462:4483  donatorExists == true */\n      iszero\n      iszero\n      sub\n        /* \"CrowdFunding.sol\":4458:5002  if (donatorExists == true) {... */\n      tag_222\n      jumpi\n        /* \"CrowdFunding.sol\":4504:4513  uint256 i */\n      0x00\n        /* \"CrowdFunding.sol\":4499:4725  for (uint256 i = 0; i < campaign.donators.length; i++) {... */\n    tag_223:\n        /* \"CrowdFunding.sol\":4523:4531  campaign */\n      dup3\n        /* \"CrowdFunding.sol\":4523:4540  campaign.donators */\n      0x07\n      add\n        /* \"CrowdFunding.sol\":4523:4547  campaign.donators.length */\n      dup1\n      sload\n      swap1\n      pop\n        /* \"CrowdFunding.sol\":4519:4520  i */\n      dup2\n        /* \"CrowdFunding.sol\":4519:4547  i < campaign.donators.length */\n      lt\n        /* \"CrowdFunding.sol\":4499:4725  for (uint256 i = 0; i < campaign.donators.length; i++) {... */\n      iszero\n      tag_224\n      jumpi\n        /* \"CrowdFunding.sol\":4590:4598  campaign */\n      dup3\n        /* \"CrowdFunding.sol\":4590:4607  campaign.donators */\n      0x07\n      add\n        /* \"CrowdFunding.sol\":4608:4609  i */\n      dup2\n        /* \"CrowdFunding.sol\":4590:4610  campaign.donators[i] */\n      dup2\n      sload\n      dup2\n      lt\n      tag_226\n      jumpi\n      tag_227\n      tag_97\n      jump\t// in\n    tag_227:\n    tag_226:\n      swap1\n      0x00\n      mstore\n      keccak256(0x00, 0x20)\n      add\n      0x00\n      swap1\n      sload\n      swap1\n      0x0100\n      exp\n      swap1\n      div\n      0xffffffffffffffffffffffffffffffffffffffff\n      and\n        /* \"CrowdFunding.sol\":4576:4610  msg.sender == campaign.donators[i] */\n      0xffffffffffffffffffffffffffffffffffffffff\n      and\n        /* \"CrowdFunding.sol\":4576:4586  msg.sender */\n      caller\n        /* \"CrowdFunding.sol\":4576:4610  msg.sender == campaign.donators[i] */\n      0xffffffffffffffffffffffffffffffffffffffff\n      and\n      sub\n        /* \"CrowdFunding.sol\":4572:4711  if (msg.sender == campaign.donators[i]) {... */\n      tag_229\n      jumpi\n        /* \"CrowdFunding.sol\":4659:4665  amount */\n      dup4\n        /* \"CrowdFunding.sol\":4634:4642  campaign */\n      dup4\n        /* \"CrowdFunding.sol\":4634:4652  campaign.donations */\n      0x08\n      add\n        /* \"CrowdFunding.sol\":4653:4654  i */\n      dup3\n        /* \"CrowdFunding.sol\":4634:4655  campaign.donations[i] */\n      dup2\n      sload\n      dup2\n      lt\n      tag_230\n      jumpi\n      tag_231\n      tag_97\n      jump\t// in\n    tag_231:\n    tag_230:\n      swap1\n      0x00\n      mstore\n      keccak256(0x00, 0x20)\n      add\n      0x00\n        /* \"CrowdFunding.sol\":4634:4665  campaign.donations[i] += amount */\n      dup3\n      dup3\n      sload\n      tag_233\n      swap2\n      swap1\n      tag_234\n      jump\t// in\n    tag_233:\n      swap3\n      pop\n      pop\n      dup2\n      swap1\n      sstore\n      pop\n        /* \"CrowdFunding.sol\":4687:4692  break */\n      jump(tag_224)\n        /* \"CrowdFunding.sol\":4572:4711  if (msg.sender == campaign.donators[i]) {... */\n    tag_229:\n        /* \"CrowdFunding.sol\":4549:4552  i++ */\n      dup1\n      dup1\n      tag_235\n      swap1\n      tag_101\n      jump\t// in\n    tag_235:\n      swap2\n      pop\n      pop\n        /* \"CrowdFunding.sol\":4499:4725  for (uint256 i = 0; i < campaign.donators.length; i++) {... */\n      jump(tag_223)\n    tag_224:\n      pop\n        /* \"CrowdFunding.sol\":4458:5002  if (donatorExists == true) {... */\n      jump(tag_236)\n    tag_222:\n        /* \"CrowdFunding.sol\":4804:4812  campaign */\n      dup2\n        /* \"CrowdFunding.sol\":4804:4821  campaign.donators */\n      0x07\n      add\n        /* \"CrowdFunding.sol\":4827:4837  msg.sender */\n      caller\n        /* \"CrowdFunding.sol\":4804:4838  campaign.donators.push(msg.sender) */\n      swap1\n      dup1\n      0x01\n      dup2\n      sload\n      add\n      dup1\n      dup3\n      sstore\n      dup1\n      swap2\n      pop\n      pop\n      0x01\n      swap1\n      sub\n      swap1\n      0x00\n      mstore\n      keccak256(0x00, 0x20)\n      add\n      0x00\n      swap1\n      swap2\n      swap1\n      swap2\n      swap1\n      swap2\n      0x0100\n      exp\n      dup2\n      sload\n      dup2\n      0xffffffffffffffffffffffffffffffffffffffff\n      mul\n      not\n      and\n      swap1\n      dup4\n      0xffffffffffffffffffffffffffffffffffffffff\n      and\n      mul\n      or\n      swap1\n      sstore\n      pop\n        /* \"CrowdFunding.sol\":4906:4914  campaign */\n      dup2\n        /* \"CrowdFunding.sol\":4906:4924  campaign.donations */\n      0x08\n      add\n        /* \"CrowdFunding.sol\":4930:4936  amount */\n      dup4\n        /* \"CrowdFunding.sol\":4906:4937  campaign.donations.push(amount) */\n      swap1\n      dup1\n      0x01\n      dup2\n      sload\n      add\n      dup1\n      dup3\n      sstore\n      dup1\n      swap2\n      pop\n      pop\n      0x01\n      swap1\n      sub\n      swap1\n      0x00\n      mstore\n      keccak256(0x00, 0x20)\n      add\n      0x00\n      swap1\n      swap2\n      swap1\n      swap2\n      swap1\n      swap2\n      pop\n      sstore\n        /* \"CrowdFunding.sol\":4964:4972  campaign */\n      dup2\n        /* \"CrowdFunding.sol\":4964:4978  campaign.agree */\n      0x09\n      add\n        /* \"CrowdFunding.sol\":4984:4990  _agree */\n      dup5\n        /* \"CrowdFunding.sol\":4964:4991  campaign.agree.push(_agree) */\n      swap1\n      dup1\n      0x01\n      dup2\n      sload\n      add\n      dup1\n      dup3\n      sstore\n      dup1\n      swap2\n      pop\n      pop\n      0x01\n      swap1\n      sub\n      swap1\n      0x00\n      mstore\n      keccak256(0x00, 0x20)\n      swap1\n      0x20\n      swap2\n      dup3\n      dup3\n      div\n      add\n      swap2\n      swap1\n      mod\n      swap1\n      swap2\n      swap1\n      swap2\n      swap1\n      swap2\n      0x0100\n      exp\n      dup2\n      sload\n      dup2\n      0xff\n      mul\n      not\n      and\n      swap1\n      dup4\n      iszero\n      iszero\n      mul\n      or\n      swap1\n      sstore\n      pop\n        /* \"CrowdFunding.sol\":4458:5002  if (donatorExists == true) {... */\n    tag_236:\n        /* \"CrowdFunding.sol\":5106:5116  msg.sender */\n      caller\n        /* \"CrowdFunding.sol\":5088:5133  DonationMade(_id, msg.sender, amount, _agree) */\n      0xffffffffffffffffffffffffffffffffffffffff\n      and\n        /* \"CrowdFunding.sol\":5101:5104  _id */\n      dup6\n        /* \"CrowdFunding.sol\":5088:5133  DonationMade(_id, msg.sender, amount, _agree) */\n      0x665ae3d7b1878285ba5b24aad2297e9585ab3110185e2d75a78f33772084e9b5\n        /* \"CrowdFunding.sol\":5118:5124  amount */\n      dup6\n        /* \"CrowdFunding.sol\":5126:5132  _agree */\n      dup8\n        /* \"CrowdFunding.sol\":5088:5133  DonationMade(_id, msg.sender, amount, _agree) */\n      mload(0x40)\n      tag_240\n      swap3\n      swap2\n      swap1\n      tag_241\n      jump\t// in\n    tag_240:\n      mload(0x40)\n      dup1\n      swap2\n      sub\n      swap1\n      log3\n        /* \"CrowdFunding.sol\":5223:5229  amount */\n      dup3\n        /* \"CrowdFunding.sol\":5195:5203  campaign */\n      dup3\n        /* \"CrowdFunding.sol\":5195:5219  campaign.AmountCollected */\n      0x05\n      add\n      0x00\n        /* \"CrowdFunding.sol\":5195:5229  campaign.AmountCollected += amount */\n      dup3\n      dup3\n      sload\n      tag_242\n      swap2\n      swap1\n      tag_234\n      jump\t// in\n    tag_242:\n      swap3\n      pop\n      pop\n      dup2\n      swap1\n      sstore\n      pop\n        /* \"CrowdFunding.sol\":3627:5236  {... */\n      pop\n      pop\n      pop\n        /* \"CrowdFunding.sol\":3560:5236  function donateToCampaign(uint256 _id, bool _agree) public payable {... */\n      pop\n      pop\n      jump\t// out\n        /* \"CrowdFunding.sol\":8058:8391  function getCampaigns() public view returns (Campaign[] memory) {... */\n    tag_49:\n        /* \"CrowdFunding.sol\":8103:8120  Campaign[] memory */\n      0x60\n        /* \"CrowdFunding.sol\":8132:8162  Campaign[] memory allCampaigns */\n      0x00\n        /* \"CrowdFunding.sol\":8180:8197  numberOfCampaigns */\n      sload(0x01)\n        /* \"CrowdFunding.sol\":8165:8198  new Campaign[](numberOfCampaigns) */\n      0xffffffffffffffff\n      dup2\n      gt\n      iszero\n      tag_244\n      jumpi\n      tag_245\n      tag_246\n      jump\t// in\n    tag_245:\n    tag_244:\n      mload(0x40)\n      swap1\n      dup1\n      dup3\n      mstore\n      dup1\n      0x20\n      mul\n      0x20\n      add\n      dup3\n      add\n      0x40\n      mstore\n      dup1\n      iszero\n      tag_247\n      jumpi\n      dup2\n      0x20\n      add\n    tag_248:\n      tag_249\n      tag_250\n      jump\t// in\n    tag_249:\n      dup2\n      mstore\n      0x20\n      add\n      swap1\n      0x01\n      swap1\n      sub\n      swap1\n      dup2\n      tag_248\n      jumpi\n      swap1\n      pop\n    tag_247:\n      pop\n        /* \"CrowdFunding.sol\":8132:8198  Campaign[] memory allCampaigns = new Campaign[](numberOfCampaigns) */\n      swap1\n      pop\n        /* \"CrowdFunding.sol\":8214:8223  uint256 i */\n      0x00\n        /* \"CrowdFunding.sol\":8209:8355  for (uint256 i = 0; i < numberOfCampaigns; i++) {... */\n    tag_251:\n        /* \"CrowdFunding.sol\":8233:8250  numberOfCampaigns */\n      sload(0x01)\n        /* \"CrowdFunding.sol\":8229:8230  i */\n      dup2\n        /* \"CrowdFunding.sol\":8229:8250  i < numberOfCampaigns */\n      lt\n        /* \"CrowdFunding.sol\":8209:8355  for (uint256 i = 0; i < numberOfCampaigns; i++) {... */\n      iszero\n      tag_252\n      jumpi\n        /* \"CrowdFunding.sol\":8271:8292  Campaign storage item */\n      0x00\n        /* \"CrowdFunding.sol\":8295:8304  campaigns */\n      dup1\n        /* \"CrowdFunding.sol\":8295:8307  campaigns[i] */\n      0x00\n        /* \"CrowdFunding.sol\":8305:8306  i */\n      dup4\n        /* \"CrowdFunding.sol\":8295:8307  campaigns[i] */\n      dup2\n      mstore\n      0x20\n      add\n      swap1\n      dup2\n      mstore\n      0x20\n      add\n      0x00\n      keccak256\n        /* \"CrowdFunding.sol\":8271:8307  Campaign storage item = campaigns[i] */\n      swap1\n      pop\n        /* \"CrowdFunding.sol\":8340:8344  item */\n      dup1\n        /* \"CrowdFunding.sol\":8322:8344  allCampaigns[i] = item */\n      mload(0x40)\n      dup1\n      0x0140\n      add\n      0x40\n      mstore\n      swap1\n      dup2\n      0x00\n      dup3\n      add\n      0x00\n      swap1\n      sload\n      swap1\n      0x0100\n      exp\n      swap1\n      div\n      0xffffffffffffffffffffffffffffffffffffffff\n      and\n      0xffffffffffffffffffffffffffffffffffffffff\n      and\n      0xffffffffffffffffffffffffffffffffffffffff\n      and\n      dup2\n      mstore\n      0x20\n      add\n      0x01\n      dup3\n      add\n      dup1\n      sload\n      tag_254\n      swap1\n      tag_58\n      jump\t// in\n    tag_254:\n      dup1\n      0x1f\n      add\n      0x20\n      dup1\n      swap2\n      div\n      mul\n      0x20\n      add\n      mload(0x40)\n      swap1\n      dup2\n      add\n      0x40\n      mstore\n      dup1\n      swap3\n      swap2\n      swap1\n      dup2\n      dup2\n      mstore\n      0x20\n      add\n      dup3\n      dup1\n      sload\n      tag_255\n      swap1\n      tag_58\n      jump\t// in\n    tag_255:\n      dup1\n      iszero\n      tag_256\n      jumpi\n      dup1\n      0x1f\n      lt\n      tag_257\n      jumpi\n      0x0100\n      dup1\n      dup4\n      sload\n      div\n      mul\n      dup4\n      mstore\n      swap2\n      0x20\n      add\n      swap2\n      jump(tag_256)\n    tag_257:\n      dup3\n      add\n      swap2\n      swap1\n      0x00\n      mstore\n      keccak256(0x00, 0x20)\n      swap1\n    tag_258:\n      dup2\n      sload\n      dup2\n      mstore\n      swap1\n      0x01\n      add\n      swap1\n      0x20\n      add\n      dup1\n      dup4\n      gt\n      tag_258\n      jumpi\n      dup3\n      swap1\n      sub\n      0x1f\n      and\n      dup3\n      add\n      swap2\n    tag_256:\n      pop\n      pop\n      pop\n      pop\n      pop\n      dup2\n      mstore\n      0x20\n      add\n      0x02\n      dup3\n      add\n      dup1\n      sload\n      tag_259\n      swap1\n      tag_58\n      jump\t// in\n    tag_259:\n      dup1\n      0x1f\n      add\n      0x20\n      dup1\n      swap2\n      div\n      mul\n      0x20\n      add\n      mload(0x40)\n      swap1\n      dup2\n      add\n      0x40\n      mstore\n      dup1\n      swap3\n      swap2\n      swap1\n      dup2\n      dup2\n      mstore\n      0x20\n      add\n      dup3\n      dup1\n      sload\n      tag_260\n      swap1\n      tag_58\n      jump\t// in\n    tag_260:\n      dup1\n      iszero\n      tag_261\n      jumpi\n      dup1\n      0x1f\n      lt\n      tag_262\n      jumpi\n      0x0100\n      dup1\n      dup4\n      sload\n      div\n      mul\n      dup4\n      mstore\n      swap2\n      0x20\n      add\n      swap2\n      jump(tag_261)\n    tag_262:\n      dup3\n      add\n      swap2\n      swap1\n      0x00\n      mstore\n      keccak256(0x00, 0x20)\n      swap1\n    tag_263:\n      dup2\n      sload\n      dup2\n      mstore\n      swap1\n      0x01\n      add\n      swap1\n      0x20\n      add\n      dup1\n      dup4\n      gt\n      tag_263\n      jumpi\n      dup3\n      swap1\n      sub\n      0x1f\n      and\n      dup3\n      add\n      swap2\n    tag_261:\n      pop\n      pop\n      pop\n      pop\n      pop\n      dup2\n      mstore\n      0x20\n      add\n      0x03\n      dup3\n      add\n      sload\n      dup2\n      mstore\n      0x20\n      add\n      0x04\n      dup3\n      add\n      sload\n      dup2\n      mstore\n      0x20\n      add\n      0x05\n      dup3\n      add\n      sload\n      dup2\n      mstore\n      0x20\n      add\n      0x06\n      dup3\n      add\n      dup1\n      sload\n      tag_264\n      swap1\n      tag_58\n      jump\t// in\n    tag_264:\n      dup1\n      0x1f\n      add\n      0x20\n      dup1\n      swap2\n      div\n      mul\n      0x20\n      add\n      mload(0x40)\n      swap1\n      dup2\n      add\n      0x40\n      mstore\n      dup1\n      swap3\n      swap2\n      swap1\n      dup2\n      dup2\n      mstore\n      0x20\n      add\n      dup3\n      dup1\n      sload\n      tag_265\n      swap1\n      tag_58\n      jump\t// in\n    tag_265:\n      dup1\n      iszero\n      tag_266\n      jumpi\n      dup1\n      0x1f\n      lt\n      tag_267\n      jumpi\n      0x0100\n      dup1\n      dup4\n      sload\n      div\n      mul\n      dup4\n      mstore\n      swap2\n      0x20\n      add\n      swap2\n      jump(tag_266)\n    tag_267:\n      dup3\n      add\n      swap2\n      swap1\n      0x00\n      mstore\n      keccak256(0x00, 0x20)\n      swap1\n    tag_268:\n      dup2\n      sload\n      dup2\n      mstore\n      swap1\n      0x01\n      add\n      swap1\n      0x20\n      add\n      dup1\n      dup4\n      gt\n      tag_268\n      jumpi\n      dup3\n      swap1\n      sub\n      0x1f\n      and\n      dup3\n      add\n      swap2\n    tag_266:\n      pop\n      pop\n      pop\n      pop\n      pop\n      dup2\n      mstore\n      0x20\n      add\n      0x07\n      dup3\n      add\n      dup1\n      sload\n      dup1\n      0x20\n      mul\n      0x20\n      add\n      mload(0x40)\n      swap1\n      dup2\n      add\n      0x40\n      mstore\n      dup1\n      swap3\n      swap2\n      swap1\n      dup2\n      dup2\n      mstore\n      0x20\n      add\n      dup3\n      dup1\n      sload\n      dup1\n      iszero\n      tag_269\n      jumpi\n      0x20\n      mul\n      dup3\n      add\n      swap2\n      swap1\n      0x00\n      mstore\n      keccak256(0x00, 0x20)\n      swap1\n    tag_270:\n      dup2\n      0x00\n      swap1\n      sload\n      swap1\n      0x0100\n      exp\n      swap1\n      div\n      0xffffffffffffffffffffffffffffffffffffffff\n      and\n      0xffffffffffffffffffffffffffffffffffffffff\n      and\n      dup2\n      mstore\n      0x20\n      add\n      swap1\n      0x01\n      add\n      swap1\n      dup1\n      dup4\n      gt\n      tag_270\n      jumpi\n    tag_269:\n      pop\n      pop\n      pop\n      pop\n      pop\n      dup2\n      mstore\n      0x20\n      add\n      0x08\n      dup3\n      add\n      dup1\n      sload\n      dup1\n      0x20\n      mul\n      0x20\n      add\n      mload(0x40)\n      swap1\n      dup2\n      add\n      0x40\n      mstore\n      dup1\n      swap3\n      swap2\n      swap1\n      dup2\n      dup2\n      mstore\n      0x20\n      add\n      dup3\n      dup1\n      sload\n      dup1\n      iszero\n      tag_271\n      jumpi\n      0x20\n      mul\n      dup3\n      add\n      swap2\n      swap1\n      0x00\n      mstore\n      keccak256(0x00, 0x20)\n      swap1\n    tag_272:\n      dup2\n      sload\n      dup2\n      mstore\n      0x20\n      add\n      swap1\n      0x01\n      add\n      swap1\n      dup1\n      dup4\n      gt\n      tag_272\n      jumpi\n    tag_271:\n      pop\n      pop\n      pop\n      pop\n      pop\n      dup2\n      mstore\n      0x20\n      add\n      0x09\n      dup3\n      add\n      dup1\n      sload\n      dup1\n      0x20\n      mul\n      0x20\n      add\n      mload(0x40)\n      swap1\n      dup2\n      add\n      0x40\n      mstore\n      dup1\n      swap3\n      swap2\n      swap1\n      dup2\n      dup2\n      mstore\n      0x20\n      add\n      dup3\n      dup1\n      sload\n      dup1\n      iszero\n      tag_273\n      jumpi\n      0x20\n      mul\n      dup3\n      add\n      swap2\n      swap1\n      0x00\n      mstore\n      keccak256(0x00, 0x20)\n      swap1\n      0x00\n      swap1\n    tag_274:\n      dup3\n      dup3\n      swap1\n      sload\n      swap1\n      0x0100\n      exp\n      swap1\n      div\n      0xff\n      and\n      iszero\n      iszero\n      dup2\n      mstore\n      0x20\n      add\n      swap1\n      0x01\n      add\n      swap1\n      0x20\n      dup3\n      0x00\n      add\n      div\n      swap3\n      dup4\n      add\n      swap3\n      0x01\n      sub\n      dup3\n      mul\n      swap2\n      pop\n      dup1\n      dup5\n      gt\n      tag_274\n      jumpi\n      swap1\n      pop\n    tag_273:\n      pop\n      pop\n      pop\n      pop\n      pop\n      dup2\n      mstore\n      pop\n      pop\n        /* \"CrowdFunding.sol\":8322:8334  allCampaigns */\n      dup4\n        /* \"CrowdFunding.sol\":8335:8336  i */\n      dup4\n        /* \"CrowdFunding.sol\":8322:8337  allCampaigns[i] */\n      dup2\n      mload\n      dup2\n      lt\n      tag_275\n      jumpi\n      tag_276\n      tag_97\n      jump\t// in\n    tag_276:\n    tag_275:\n      0x20\n      mul\n      0x20\n      add\n      add\n        /* \"CrowdFunding.sol\":8322:8344  allCampaigns[i] = item */\n      dup2\n      swap1\n      mstore\n      pop\n        /* \"CrowdFunding.sol\":8257:8355  {... */\n      pop\n        /* \"CrowdFunding.sol\":8252:8255  i++ */\n      dup1\n      dup1\n      tag_277\n      swap1\n      tag_101\n      jump\t// in\n    tag_277:\n      swap2\n      pop\n      pop\n        /* \"CrowdFunding.sol\":8209:8355  for (uint256 i = 0; i < numberOfCampaigns; i++) {... */\n      jump(tag_251)\n    tag_252:\n      pop\n        /* \"CrowdFunding.sol\":8372:8384  allCampaigns */\n      dup1\n        /* \"CrowdFunding.sol\":8365:8384  return allCampaigns */\n      swap2\n      pop\n      pop\n        /* \"CrowdFunding.sol\":8058:8391  function getCampaigns() public view returns (Campaign[] memory) {... */\n      swap1\n      jump\t// out\n        /* \"CrowdFunding.sol\":1060:1145  function destroyCampaign(uint256 _id) internal {... */\n    tag_124:\n        /* \"CrowdFunding.sol\":1124:1133  campaigns */\n      0x00\n        /* \"CrowdFunding.sol\":1124:1138  campaigns[_id] */\n      dup1\n        /* \"CrowdFunding.sol\":1134:1137  _id */\n      dup3\n        /* \"CrowdFunding.sol\":1124:1138  campaigns[_id] */\n      dup2\n      mstore\n      0x20\n      add\n      swap1\n      dup2\n      mstore\n      0x20\n      add\n      0x00\n      keccak256\n      0x00\n        /* \"CrowdFunding.sol\":1117:1138  delete campaigns[_id] */\n      dup1\n      dup3\n      add\n      exp(0x0100, 0x00)\n      dup2\n      sload\n      swap1\n      0xffffffffffffffffffffffffffffffffffffffff\n      mul\n      not\n      and\n      swap1\n      sstore\n      0x01\n      dup3\n      add\n      0x00\n      tag_279\n      swap2\n      swap1\n      tag_280\n      jump\t// in\n    tag_279:\n      0x02\n      dup3\n      add\n      0x00\n      tag_281\n      swap2\n      swap1\n      tag_280\n      jump\t// in\n    tag_281:\n      0x03\n      dup3\n      add\n      0x00\n      swap1\n      sstore\n      0x04\n      dup3\n      add\n      0x00\n      swap1\n      sstore\n      0x05\n      dup3\n      add\n      0x00\n      swap1\n      sstore\n      0x06\n      dup3\n      add\n      0x00\n      tag_282\n      swap2\n      swap1\n      tag_280\n      jump\t// in\n    tag_282:\n      0x07\n      dup3\n      add\n      0x00\n      tag_283\n      swap2\n      swap1\n      tag_284\n      jump\t// in\n    tag_283:\n      0x08\n      dup3\n      add\n      0x00\n      tag_285\n      swap2\n      swap1\n      tag_286\n      jump\t// in\n    tag_285:\n      0x09\n      dup3\n      add\n      0x00\n      tag_287\n      swap2\n      swap1\n      tag_288\n      jump\t// in\n    tag_287:\n      pop\n      pop\n        /* \"CrowdFunding.sol\":1060:1145  function destroyCampaign(uint256 _id) internal {... */\n      pop\n      jump\t// out\n    tag_250:\n      mload(0x40)\n      dup1\n      0x0140\n      add\n      0x40\n      mstore\n      dup1\n      and(0xffffffffffffffffffffffffffffffffffffffff, 0x00)\n      dup2\n      mstore\n      0x20\n      add\n      0x60\n      dup2\n      mstore\n      0x20\n      add\n      0x60\n      dup2\n      mstore\n      0x20\n      add\n      0x00\n      dup2\n      mstore\n      0x20\n      add\n      0x00\n      dup2\n      mstore\n      0x20\n      add\n      0x00\n      dup2\n      mstore\n      0x20\n      add\n      0x60\n      dup2\n      mstore\n      0x20\n      add\n      0x60\n      dup2\n      mstore\n      0x20\n      add\n      0x60\n      dup2\n      mstore\n      0x20\n      add\n      0x60\n      dup2\n      mstore\n      pop\n      swap1\n      jump\t// out\n    tag_280:\n      pop\n      dup1\n      sload\n      tag_289\n      swap1\n      tag_58\n      jump\t// in\n    tag_289:\n      0x00\n      dup3\n      sstore\n      dup1\n      0x1f\n      lt\n      tag_291\n      jumpi\n      pop\n      jump(tag_290)\n    tag_291:\n      0x1f\n      add\n      0x20\n      swap1\n      div\n      swap1\n      0x00\n      mstore\n      keccak256(0x00, 0x20)\n      swap1\n      dup2\n      add\n      swap1\n      tag_292\n      swap2\n      swap1\n      tag_293\n      jump\t// in\n    tag_292:\n    tag_290:\n      pop\n      jump\t// out\n    tag_284:\n      pop\n      dup1\n      sload\n      0x00\n      dup3\n      sstore\n      swap1\n      0x00\n      mstore\n      keccak256(0x00, 0x20)\n      swap1\n      dup2\n      add\n      swap1\n      tag_295\n      swap2\n      swap1\n      tag_293\n      jump\t// in\n    tag_295:\n      pop\n      jump\t// out\n    tag_286:\n      pop\n      dup1\n      sload\n      0x00\n      dup3\n      sstore\n      swap1\n      0x00\n      mstore\n      keccak256(0x00, 0x20)\n      swap1\n      dup2\n      add\n      swap1\n      tag_297\n      swap2\n      swap1\n      tag_293\n      jump\t// in\n    tag_297:\n      pop\n      jump\t// out\n    tag_288:\n      pop\n      dup1\n      sload\n      0x00\n      dup3\n      sstore\n      0x1f\n      add\n      0x20\n      swap1\n      div\n      swap1\n      0x00\n      mstore\n      keccak256(0x00, 0x20)\n      swap1\n      dup2\n      add\n      swap1\n      tag_299\n      swap2\n      swap1\n      tag_293\n      jump\t// in\n    tag_299:\n      pop\n      jump\t// out\n    tag_293:\n    tag_300:\n      dup1\n      dup3\n      gt\n      iszero\n      tag_301\n      jumpi\n      0x00\n      dup2\n      0x00\n      swap1\n      sstore\n      pop\n      0x01\n      add\n      jump(tag_300)\n    tag_301:\n      pop\n      swap1\n      jump\t// out\n        /* \"#utility.yul\":7:84   */\n    tag_302:\n        /* \"#utility.yul\":44:51   */\n      0x00\n        /* \"#utility.yul\":73:78   */\n      dup2\n        /* \"#utility.yul\":62:78   */\n      swap1\n      pop\n        /* \"#utility.yul\":7:84   */\n      swap2\n      swap1\n      pop\n      jump\t// out\n        /* \"#utility.yul\":90:208   */\n    tag_303:\n        /* \"#utility.yul\":177:201   */\n      tag_423\n        /* \"#utility.yul\":195:200   */\n      dup2\n        /* \"#utility.yul\":177:201   */\n      tag_302\n      jump\t// in\n    tag_423:\n        /* \"#utility.yul\":172:175   */\n      dup3\n        /* \"#utility.yul\":165:202   */\n      mstore\n        /* \"#utility.yul\":90:208   */\n      pop\n      pop\n      jump\t// out\n        /* \"#utility.yul\":214:436   */\n    tag_15:\n        /* \"#utility.yul\":307:311   */\n      0x00\n        /* \"#utility.yul\":345:347   */\n      0x20\n        /* \"#utility.yul\":334:343   */\n      dup3\n        /* \"#utility.yul\":330:348   */\n      add\n        /* \"#utility.yul\":322:348   */\n      swap1\n      pop\n        /* \"#utility.yul\":358:429   */\n      tag_425\n        /* \"#utility.yul\":426:427   */\n      0x00\n        /* \"#utility.yul\":415:424   */\n      dup4\n        /* \"#utility.yul\":411:428   */\n      add\n        /* \"#utility.yul\":402:408   */\n      dup5\n        /* \"#utility.yul\":358:429   */\n      tag_303\n      jump\t// in\n    tag_425:\n        /* \"#utility.yul\":214:436   */\n      swap3\n      swap2\n      pop\n      pop\n      jump\t// out\n        /* \"#utility.yul\":442:517   */\n    tag_304:\n        /* \"#utility.yul\":475:481   */\n      0x00\n        /* \"#utility.yul\":508:510   */\n      0x40\n        /* \"#utility.yul\":502:511   */\n      mload\n        /* \"#utility.yul\":492:511   */\n      swap1\n      pop\n        /* \"#utility.yul\":442:517   */\n      swap1\n      jump\t// out\n        /* \"#utility.yul\":523:640   */\n    tag_305:\n        /* \"#utility.yul\":632:633   */\n      0x00\n        /* \"#utility.yul\":629:630   */\n      dup1\n        /* \"#utility.yul\":622:634   */\n      revert\n        /* \"#utility.yul\":646:763   */\n    tag_306:\n        /* \"#utility.yul\":755:756   */\n      0x00\n        /* \"#utility.yul\":752:753   */\n      dup1\n        /* \"#utility.yul\":745:757   */\n      revert\n        /* \"#utility.yul\":769:891   */\n    tag_307:\n        /* \"#utility.yul\":842:866   */\n      tag_430\n        /* \"#utility.yul\":860:865   */\n      dup2\n        /* \"#utility.yul\":842:866   */\n      tag_302\n      jump\t// in\n    tag_430:\n        /* \"#utility.yul\":835:840   */\n      dup2\n        /* \"#utility.yul\":832:867   */\n      eq\n        /* \"#utility.yul\":822:885   */\n      tag_431\n      jumpi\n        /* \"#utility.yul\":881:882   */\n      0x00\n        /* \"#utility.yul\":878:879   */\n      dup1\n        /* \"#utility.yul\":871:883   */\n      revert\n        /* \"#utility.yul\":822:885   */\n    tag_431:\n        /* \"#utility.yul\":769:891   */\n      pop\n      jump\t// out\n        /* \"#utility.yul\":897:1036   */\n    tag_308:\n        /* \"#utility.yul\":943:948   */\n      0x00\n        /* \"#utility.yul\":981:987   */\n      dup2\n        /* \"#utility.yul\":968:988   */\n      calldataload\n        /* \"#utility.yul\":959:988   */\n      swap1\n      pop\n        /* \"#utility.yul\":997:1030   */\n      tag_433\n        /* \"#utility.yul\":1024:1029   */\n      dup2\n        /* \"#utility.yul\":997:1030   */\n      tag_307\n      jump\t// in\n    tag_433:\n        /* \"#utility.yul\":897:1036   */\n      swap3\n      swap2\n      pop\n      pop\n      jump\t// out\n        /* \"#utility.yul\":1042:1371   */\n    tag_19:\n        /* \"#utility.yul\":1101:1107   */\n      0x00\n        /* \"#utility.yul\":1150:1152   */\n      0x20\n        /* \"#utility.yul\":1138:1147   */\n      dup3\n        /* \"#utility.yul\":1129:1136   */\n      dup5\n        /* \"#utility.yul\":1125:1148   */\n      sub\n        /* \"#utility.yul\":1121:1153   */\n      slt\n        /* \"#utility.yul\":1118:1237   */\n      iszero\n      tag_435\n      jumpi\n        /* \"#utility.yul\":1156:1235   */\n      tag_436\n      tag_305\n      jump\t// in\n    tag_436:\n        /* \"#utility.yul\":1118:1237   */\n    tag_435:\n        /* \"#utility.yul\":1276:1277   */\n      0x00\n        /* \"#utility.yul\":1301:1354   */\n      tag_437\n        /* \"#utility.yul\":1346:1353   */\n      dup5\n        /* \"#utility.yul\":1337:1343   */\n      dup3\n        /* \"#utility.yul\":1326:1335   */\n      dup6\n        /* \"#utility.yul\":1322:1344   */\n      add\n        /* \"#utility.yul\":1301:1354   */\n      tag_308\n      jump\t// in\n    tag_437:\n        /* \"#utility.yul\":1291:1354   */\n      swap2\n      pop\n        /* \"#utility.yul\":1247:1364   */\n      pop\n        /* \"#utility.yul\":1042:1371   */\n      swap3\n      swap2\n      pop\n      pop\n      jump\t// out\n        /* \"#utility.yul\":1377:1491   */\n    tag_309:\n        /* \"#utility.yul\":1444:1450   */\n      0x00\n        /* \"#utility.yul\":1478:1483   */\n      dup2\n        /* \"#utility.yul\":1472:1484   */\n      mload\n        /* \"#utility.yul\":1462:1484   */\n      swap1\n      pop\n        /* \"#utility.yul\":1377:1491   */\n      swap2\n      swap1\n      pop\n      jump\t// out\n        /* \"#utility.yul\":1497:1681   */\n    tag_310:\n        /* \"#utility.yul\":1596:1607   */\n      0x00\n        /* \"#utility.yul\":1630:1636   */\n      dup3\n        /* \"#utility.yul\":1625:1628   */\n      dup3\n        /* \"#utility.yul\":1618:1637   */\n      mstore\n        /* \"#utility.yul\":1670:1674   */\n      0x20\n        /* \"#utility.yul\":1665:1668   */\n      dup3\n        /* \"#utility.yul\":1661:1675   */\n      add\n        /* \"#utility.yul\":1646:1675   */\n      swap1\n      pop\n        /* \"#utility.yul\":1497:1681   */\n      swap3\n      swap2\n      pop\n      pop\n      jump\t// out\n        /* \"#utility.yul\":1687:1819   */\n    tag_311:\n        /* \"#utility.yul\":1754:1758   */\n      0x00\n        /* \"#utility.yul\":1777:1780   */\n      dup2\n        /* \"#utility.yul\":1769:1780   */\n      swap1\n      pop\n        /* \"#utility.yul\":1807:1811   */\n      0x20\n        /* \"#utility.yul\":1802:1805   */\n      dup3\n        /* \"#utility.yul\":1798:1812   */\n      add\n        /* \"#utility.yul\":1790:1812   */\n      swap1\n      pop\n        /* \"#utility.yul\":1687:1819   */\n      swap2\n      swap1\n      pop\n      jump\t// out\n        /* \"#utility.yul\":1825:1951   */\n    tag_312:\n        /* \"#utility.yul\":1862:1869   */\n      0x00\n        /* \"#utility.yul\":1902:1944   */\n      0xffffffffffffffffffffffffffffffffffffffff\n        /* \"#utility.yul\":1895:1900   */\n      dup3\n        /* \"#utility.yul\":1891:1945   */\n      and\n        /* \"#utility.yul\":1880:1945   */\n      swap1\n      pop\n        /* \"#utility.yul\":1825:1951   */\n      swap2\n      swap1\n      pop\n      jump\t// out\n        /* \"#utility.yul\":1957:2053   */\n    tag_313:\n        /* \"#utility.yul\":1994:2001   */\n      0x00\n        /* \"#utility.yul\":2023:2047   */\n      tag_443\n        /* \"#utility.yul\":2041:2046   */\n      dup3\n        /* \"#utility.yul\":2023:2047   */\n      tag_312\n      jump\t// in\n    tag_443:\n        /* \"#utility.yul\":2012:2047   */\n      swap1\n      pop\n        /* \"#utility.yul\":1957:2053   */\n      swap2\n      swap1\n      pop\n      jump\t// out\n        /* \"#utility.yul\":2059:2167   */\n    tag_314:\n        /* \"#utility.yul\":2136:2160   */\n      tag_445\n        /* \"#utility.yul\":2154:2159   */\n      dup2\n        /* \"#utility.yul\":2136:2160   */\n      tag_313\n      jump\t// in\n    tag_445:\n        /* \"#utility.yul\":2131:2134   */\n      dup3\n        /* \"#utility.yul\":2124:2161   */\n      mstore\n        /* \"#utility.yul\":2059:2167   */\n      pop\n      pop\n      jump\t// out\n        /* \"#utility.yul\":2173:2352   */\n    tag_315:\n        /* \"#utility.yul\":2242:2252   */\n      0x00\n        /* \"#utility.yul\":2263:2309   */\n      tag_447\n        /* \"#utility.yul\":2305:2308   */\n      dup4\n        /* \"#utility.yul\":2297:2303   */\n      dup4\n        /* \"#utility.yul\":2263:2309   */\n      tag_314\n      jump\t// in\n    tag_447:\n        /* \"#utility.yul\":2341:2345   */\n      0x20\n        /* \"#utility.yul\":2336:2339   */\n      dup4\n        /* \"#utility.yul\":2332:2346   */\n      add\n        /* \"#utility.yul\":2318:2346   */\n      swap1\n      pop\n        /* \"#utility.yul\":2173:2352   */\n      swap3\n      swap2\n      pop\n      pop\n      jump\t// out\n        /* \"#utility.yul\":2358:2471   */\n    tag_316:\n        /* \"#utility.yul\":2428:2432   */\n      0x00\n        /* \"#utility.yul\":2460:2464   */\n      0x20\n        /* \"#utility.yul\":2455:2458   */\n      dup3\n        /* \"#utility.yul\":2451:2465   */\n      add\n        /* \"#utility.yul\":2443:2465   */\n      swap1\n      pop\n        /* \"#utility.yul\":2358:2471   */\n      swap2\n      swap1\n      pop\n      jump\t// out\n        /* \"#utility.yul\":2507:3239   */\n    tag_317:\n        /* \"#utility.yul\":2626:2629   */\n      0x00\n        /* \"#utility.yul\":2655:2709   */\n      tag_450\n        /* \"#utility.yul\":2703:2708   */\n      dup3\n        /* \"#utility.yul\":2655:2709   */\n      tag_309\n      jump\t// in\n    tag_450:\n        /* \"#utility.yul\":2725:2811   */\n      tag_451\n        /* \"#utility.yul\":2804:2810   */\n      dup2\n        /* \"#utility.yul\":2799:2802   */\n      dup6\n        /* \"#utility.yul\":2725:2811   */\n      tag_310\n      jump\t// in\n    tag_451:\n        /* \"#utility.yul\":2718:2811   */\n      swap4\n      pop\n        /* \"#utility.yul\":2835:2891   */\n      tag_452\n        /* \"#utility.yul\":2885:2890   */\n      dup4\n        /* \"#utility.yul\":2835:2891   */\n      tag_311\n      jump\t// in\n    tag_452:\n        /* \"#utility.yul\":2914:2921   */\n      dup1\n        /* \"#utility.yul\":2945:2946   */\n      0x00\n        /* \"#utility.yul\":2930:3214   */\n    tag_453:\n        /* \"#utility.yul\":2955:2961   */\n      dup4\n        /* \"#utility.yul\":2952:2953   */\n      dup2\n        /* \"#utility.yul\":2949:2962   */\n      lt\n        /* \"#utility.yul\":2930:3214   */\n      iszero\n      tag_455\n      jumpi\n        /* \"#utility.yul\":3031:3037   */\n      dup2\n        /* \"#utility.yul\":3025:3038   */\n      mload\n        /* \"#utility.yul\":3058:3121   */\n      tag_456\n        /* \"#utility.yul\":3117:3120   */\n      dup9\n        /* \"#utility.yul\":3102:3115   */\n      dup3\n        /* \"#utility.yul\":3058:3121   */\n      tag_315\n      jump\t// in\n    tag_456:\n        /* \"#utility.yul\":3051:3121   */\n      swap8\n      pop\n        /* \"#utility.yul\":3144:3204   */\n      tag_457\n        /* \"#utility.yul\":3197:3203   */\n      dup4\n        /* \"#utility.yul\":3144:3204   */\n      tag_316\n      jump\t// in\n    tag_457:\n        /* \"#utility.yul\":3134:3204   */\n      swap3\n      pop\n        /* \"#utility.yul\":2990:3214   */\n      pop\n        /* \"#utility.yul\":2977:2978   */\n      0x01\n        /* \"#utility.yul\":2974:2975   */\n      dup2\n        /* \"#utility.yul\":2970:2979   */\n      add\n        /* \"#utility.yul\":2965:2979   */\n      swap1\n      pop\n        /* \"#utility.yul\":2930:3214   */\n      jump(tag_453)\n    tag_455:\n        /* \"#utility.yul\":2934:2948   */\n      pop\n        /* \"#utility.yul\":3230:3233   */\n      dup6\n        /* \"#utility.yul\":3223:3233   */\n      swap4\n      pop\n        /* \"#utility.yul\":2631:3239   */\n      pop\n      pop\n      pop\n        /* \"#utility.yul\":2507:3239   */\n      swap3\n      swap2\n      pop\n      pop\n      jump\t// out\n        /* \"#utility.yul\":3245:3359   */\n    tag_318:\n        /* \"#utility.yul\":3312:3318   */\n      0x00\n        /* \"#utility.yul\":3346:3351   */\n      dup2\n        /* \"#utility.yul\":3340:3352   */\n      mload\n        /* \"#utility.yul\":3330:3352   */\n      swap1\n      pop\n        /* \"#utility.yul\":3245:3359   */\n      swap2\n      swap1\n      pop\n      jump\t// out\n        /* \"#utility.yul\":3365:3549   */\n    tag_319:\n        /* \"#utility.yul\":3464:3475   */\n      0x00\n        /* \"#utility.yul\":3498:3504   */\n      dup3\n        /* \"#utility.yul\":3493:3496   */\n      dup3\n        /* \"#utility.yul\":3486:3505   */\n      mstore\n        /* \"#utility.yul\":3538:3542   */\n      0x20\n        /* \"#utility.yul\":3533:3536   */\n      dup3\n        /* \"#utility.yul\":3529:3543   */\n      add\n        /* \"#utility.yul\":3514:3543   */\n      swap1\n      pop\n        /* \"#utility.yul\":3365:3549   */\n      swap3\n      swap2\n      pop\n      pop\n      jump\t// out\n        /* \"#utility.yul\":3555:3687   */\n    tag_320:\n        /* \"#utility.yul\":3622:3626   */\n      0x00\n        /* \"#utility.yul\":3645:3648   */\n      dup2\n        /* \"#utility.yul\":3637:3648   */\n      swap1\n      pop\n        /* \"#utility.yul\":3675:3679   */\n      0x20\n        /* \"#utility.yul\":3670:3673   */\n      dup3\n        /* \"#utility.yul\":3666:3680   */\n      add\n        /* \"#utility.yul\":3658:3680   */\n      swap1\n      pop\n        /* \"#utility.yul\":3555:3687   */\n      swap2\n      swap1\n      pop\n      jump\t// out\n        /* \"#utility.yul\":3693:3801   */\n    tag_321:\n        /* \"#utility.yul\":3770:3794   */\n      tag_462\n        /* \"#utility.yul\":3788:3793   */\n      dup2\n        /* \"#utility.yul\":3770:3794   */\n      tag_302\n      jump\t// in\n    tag_462:\n        /* \"#utility.yul\":3765:3768   */\n      dup3\n        /* \"#utility.yul\":3758:3795   */\n      mstore\n        /* \"#utility.yul\":3693:3801   */\n      pop\n      pop\n      jump\t// out\n        /* \"#utility.yul\":3807:3986   */\n    tag_322:\n        /* \"#utility.yul\":3876:3886   */\n      0x00\n        /* \"#utility.yul\":3897:3943   */\n      tag_464\n        /* \"#utility.yul\":3939:3942   */\n      dup4\n        /* \"#utility.yul\":3931:3937   */\n      dup4\n        /* \"#utility.yul\":3897:3943   */\n      tag_321\n      jump\t// in\n    tag_464:\n        /* \"#utility.yul\":3975:3979   */\n      0x20\n        /* \"#utility.yul\":3970:3973   */\n      dup4\n        /* \"#utility.yul\":3966:3980   */\n      add\n        /* \"#utility.yul\":3952:3980   */\n      swap1\n      pop\n        /* \"#utility.yul\":3807:3986   */\n      swap3\n      swap2\n      pop\n      pop\n      jump\t// out\n        /* \"#utility.yul\":3992:4105   */\n    tag_323:\n        /* \"#utility.yul\":4062:4066   */\n      0x00\n        /* \"#utility.yul\":4094:4098   */\n      0x20\n        /* \"#utility.yul\":4089:4092   */\n      dup3\n        /* \"#utility.yul\":4085:4099   */\n      add\n        /* \"#utility.yul\":4077:4099   */\n      swap1\n      pop\n        /* \"#utility.yul\":3992:4105   */\n      swap2\n      swap1\n      pop\n      jump\t// out\n        /* \"#utility.yul\":4141:4873   */\n    tag_324:\n        /* \"#utility.yul\":4260:4263   */\n      0x00\n        /* \"#utility.yul\":4289:4343   */\n      tag_467\n        /* \"#utility.yul\":4337:4342   */\n      dup3\n        /* \"#utility.yul\":4289:4343   */\n      tag_318\n      jump\t// in\n    tag_467:\n        /* \"#utility.yul\":4359:4445   */\n      tag_468\n        /* \"#utility.yul\":4438:4444   */\n      dup2\n        /* \"#utility.yul\":4433:4436   */\n      dup6\n        /* \"#utility.yul\":4359:4445   */\n      tag_319\n      jump\t// in\n    tag_468:\n        /* \"#utility.yul\":4352:4445   */\n      swap4\n      pop\n        /* \"#utility.yul\":4469:4525   */\n      tag_469\n        /* \"#utility.yul\":4519:4524   */\n      dup4\n        /* \"#utility.yul\":4469:4525   */\n      tag_320\n      jump\t// in\n    tag_469:\n        /* \"#utility.yul\":4548:4555   */\n      dup1\n        /* \"#utility.yul\":4579:4580   */\n      0x00\n        /* \"#utility.yul\":4564:4848   */\n    tag_470:\n        /* \"#utility.yul\":4589:4595   */\n      dup4\n        /* \"#utility.yul\":4586:4587   */\n      dup2\n        /* \"#utility.yul\":4583:4596   */\n      lt\n        /* \"#utility.yul\":4564:4848   */\n      iszero\n      tag_472\n      jumpi\n        /* \"#utility.yul\":4665:4671   */\n      dup2\n        /* \"#utility.yul\":4659:4672   */\n      mload\n        /* \"#utility.yul\":4692:4755   */\n      tag_473\n        /* \"#utility.yul\":4751:4754   */\n      dup9\n        /* \"#utility.yul\":4736:4749   */\n      dup3\n        /* \"#utility.yul\":4692:4755   */\n      tag_322\n      jump\t// in\n    tag_473:\n        /* \"#utility.yul\":4685:4755   */\n      swap8\n      pop\n        /* \"#utility.yul\":4778:4838   */\n      tag_474\n        /* \"#utility.yul\":4831:4837   */\n      dup4\n        /* \"#utility.yul\":4778:4838   */\n      tag_323\n      jump\t// in\n    tag_474:\n        /* \"#utility.yul\":4768:4838   */\n      swap3\n      pop\n        /* \"#utility.yul\":4624:4848   */\n      pop\n        /* \"#utility.yul\":4611:4612   */\n      0x01\n        /* \"#utility.yul\":4608:4609   */\n      dup2\n        /* \"#utility.yul\":4604:4613   */\n      add\n        /* \"#utility.yul\":4599:4613   */\n      swap1\n      pop\n        /* \"#utility.yul\":4564:4848   */\n      jump(tag_470)\n    tag_472:\n        /* \"#utility.yul\":4568:4582   */\n      pop\n        /* \"#utility.yul\":4864:4867   */\n      dup6\n        /* \"#utility.yul\":4857:4867   */\n      swap4\n      pop\n        /* \"#utility.yul\":4265:4873   */\n      pop\n      pop\n      pop\n        /* \"#utility.yul\":4141:4873   */\n      swap3\n      swap2\n      pop\n      pop\n      jump\t// out\n        /* \"#utility.yul\":4879:5513   */\n    tag_22:\n        /* \"#utility.yul\":5100:5104   */\n      0x00\n        /* \"#utility.yul\":5138:5140   */\n      0x40\n        /* \"#utility.yul\":5127:5136   */\n      dup3\n        /* \"#utility.yul\":5123:5141   */\n      add\n        /* \"#utility.yul\":5115:5141   */\n      swap1\n      pop\n        /* \"#utility.yul\":5187:5196   */\n      dup2\n        /* \"#utility.yul\":5181:5185   */\n      dup2\n        /* \"#utility.yul\":5177:5197   */\n      sub\n        /* \"#utility.yul\":5173:5174   */\n      0x00\n        /* \"#utility.yul\":5162:5171   */\n      dup4\n        /* \"#utility.yul\":5158:5175   */\n      add\n        /* \"#utility.yul\":5151:5198   */\n      mstore\n        /* \"#utility.yul\":5215:5323   */\n      tag_476\n        /* \"#utility.yul\":5318:5322   */\n      dup2\n        /* \"#utility.yul\":5309:5315   */\n      dup6\n        /* \"#utility.yul\":5215:5323   */\n      tag_317\n      jump\t// in\n    tag_476:\n        /* \"#utility.yul\":5207:5323   */\n      swap1\n      pop\n        /* \"#utility.yul\":5370:5379   */\n      dup2\n        /* \"#utility.yul\":5364:5368   */\n      dup2\n        /* \"#utility.yul\":5360:5380   */\n      sub\n        /* \"#utility.yul\":5355:5357   */\n      0x20\n        /* \"#utility.yul\":5344:5353   */\n      dup4\n        /* \"#utility.yul\":5340:5358   */\n      add\n        /* \"#utility.yul\":5333:5381   */\n      mstore\n        /* \"#utility.yul\":5398:5506   */\n      tag_477\n        /* \"#utility.yul\":5501:5505   */\n      dup2\n        /* \"#utility.yul\":5492:5498   */\n      dup5\n        /* \"#utility.yul\":5398:5506   */\n      tag_324\n      jump\t// in\n    tag_477:\n        /* \"#utility.yul\":5390:5506   */\n      swap1\n      pop\n        /* \"#utility.yul\":4879:5513   */\n      swap4\n      swap3\n      pop\n      pop\n      pop\n      jump\t// out\n        /* \"#utility.yul\":5519:5637   */\n    tag_325:\n        /* \"#utility.yul\":5606:5630   */\n      tag_479\n        /* \"#utility.yul\":5624:5629   */\n      dup2\n        /* \"#utility.yul\":5606:5630   */\n      tag_313\n      jump\t// in\n    tag_479:\n        /* \"#utility.yul\":5601:5604   */\n      dup3\n        /* \"#utility.yul\":5594:5631   */\n      mstore\n        /* \"#utility.yul\":5519:5637   */\n      pop\n      pop\n      jump\t// out\n        /* \"#utility.yul\":5643:5742   */\n    tag_326:\n        /* \"#utility.yul\":5695:5701   */\n      0x00\n        /* \"#utility.yul\":5729:5734   */\n      dup2\n        /* \"#utility.yul\":5723:5735   */\n      mload\n        /* \"#utility.yul\":5713:5735   */\n      swap1\n      pop\n        /* \"#utility.yul\":5643:5742   */\n      swap2\n      swap1\n      pop\n      jump\t// out\n        /* \"#utility.yul\":5748:5917   */\n    tag_327:\n        /* \"#utility.yul\":5832:5843   */\n      0x00\n        /* \"#utility.yul\":5866:5872   */\n      dup3\n        /* \"#utility.yul\":5861:5864   */\n      dup3\n        /* \"#utility.yul\":5854:5873   */\n      mstore\n        /* \"#utility.yul\":5906:5910   */\n      0x20\n        /* \"#utility.yul\":5901:5904   */\n      dup3\n        /* \"#utility.yul\":5897:5911   */\n      add\n        /* \"#utility.yul\":5882:5911   */\n      swap1\n      pop\n        /* \"#utility.yul\":5748:5917   */\n      swap3\n      swap2\n      pop\n      pop\n      jump\t// out\n        /* \"#utility.yul\":5923:6169   */\n    tag_328:\n        /* \"#utility.yul\":6004:6005   */\n      0x00\n        /* \"#utility.yul\":6014:6127   */\n    tag_483:\n        /* \"#utility.yul\":6028:6034   */\n      dup4\n        /* \"#utility.yul\":6025:6026   */\n      dup2\n        /* \"#utility.yul\":6022:6035   */\n      lt\n        /* \"#utility.yul\":6014:6127   */\n      iszero\n      tag_485\n      jumpi\n        /* \"#utility.yul\":6113:6114   */\n      dup1\n        /* \"#utility.yul\":6108:6111   */\n      dup3\n        /* \"#utility.yul\":6104:6115   */\n      add\n        /* \"#utility.yul\":6098:6116   */\n      mload\n        /* \"#utility.yul\":6094:6095   */\n      dup2\n        /* \"#utility.yul\":6089:6092   */\n      dup5\n        /* \"#utility.yul\":6085:6096   */\n      add\n        /* \"#utility.yul\":6078:6117   */\n      mstore\n        /* \"#utility.yul\":6050:6052   */\n      0x20\n        /* \"#utility.yul\":6047:6048   */\n      dup2\n        /* \"#utility.yul\":6043:6053   */\n      add\n        /* \"#utility.yul\":6038:6053   */\n      swap1\n      pop\n        /* \"#utility.yul\":6014:6127   */\n      jump(tag_483)\n    tag_485:\n        /* \"#utility.yul\":6161:6162   */\n      0x00\n        /* \"#utility.yul\":6152:6158   */\n      dup5\n        /* \"#utility.yul\":6147:6150   */\n      dup5\n        /* \"#utility.yul\":6143:6159   */\n      add\n        /* \"#utility.yul\":6136:6163   */\n      mstore\n        /* \"#utility.yul\":5985:6169   */\n      pop\n        /* \"#utility.yul\":5923:6169   */\n      pop\n      pop\n      pop\n      jump\t// out\n        /* \"#utility.yul\":6175:6277   */\n    tag_329:\n        /* \"#utility.yul\":6216:6222   */\n      0x00\n        /* \"#utility.yul\":6267:6269   */\n      0x1f\n        /* \"#utility.yul\":6263:6270   */\n      not\n        /* \"#utility.yul\":6258:6260   */\n      0x1f\n        /* \"#utility.yul\":6251:6256   */\n      dup4\n        /* \"#utility.yul\":6247:6261   */\n      add\n        /* \"#utility.yul\":6243:6271   */\n      and\n        /* \"#utility.yul\":6233:6271   */\n      swap1\n      pop\n        /* \"#utility.yul\":6175:6277   */\n      swap2\n      swap1\n      pop\n      jump\t// out\n        /* \"#utility.yul\":6283:6660   */\n    tag_330:\n        /* \"#utility.yul\":6371:6374   */\n      0x00\n        /* \"#utility.yul\":6399:6438   */\n      tag_488\n        /* \"#utility.yul\":6432:6437   */\n      dup3\n        /* \"#utility.yul\":6399:6438   */\n      tag_326\n      jump\t// in\n    tag_488:\n        /* \"#utility.yul\":6454:6525   */\n      tag_489\n        /* \"#utility.yul\":6518:6524   */\n      dup2\n        /* \"#utility.yul\":6513:6516   */\n      dup6\n        /* \"#utility.yul\":6454:6525   */\n      tag_327\n      jump\t// in\n    tag_489:\n        /* \"#utility.yul\":6447:6525   */\n      swap4\n      pop\n        /* \"#utility.yul\":6534:6599   */\n      tag_490\n        /* \"#utility.yul\":6592:6598   */\n      dup2\n        /* \"#utility.yul\":6587:6590   */\n      dup6\n        /* \"#utility.yul\":6580:6584   */\n      0x20\n        /* \"#utility.yul\":6573:6578   */\n      dup7\n        /* \"#utility.yul\":6569:6585   */\n      add\n        /* \"#utility.yul\":6534:6599   */\n      tag_328\n      jump\t// in\n    tag_490:\n        /* \"#utility.yul\":6624:6653   */\n      tag_491\n        /* \"#utility.yul\":6646:6652   */\n      dup2\n        /* \"#utility.yul\":6624:6653   */\n      tag_329\n      jump\t// in\n    tag_491:\n        /* \"#utility.yul\":6619:6622   */\n      dup5\n        /* \"#utility.yul\":6615:6654   */\n      add\n        /* \"#utility.yul\":6608:6654   */\n      swap2\n      pop\n        /* \"#utility.yul\":6375:6660   */\n      pop\n        /* \"#utility.yul\":6283:6660   */\n      swap3\n      swap2\n      pop\n      pop\n      jump\t// out\n        /* \"#utility.yul\":6666:7825   */\n    tag_28:\n        /* \"#utility.yul\":6987:6991   */\n      0x00\n        /* \"#utility.yul\":7025:7028   */\n      0xe0\n        /* \"#utility.yul\":7014:7023   */\n      dup3\n        /* \"#utility.yul\":7010:7029   */\n      add\n        /* \"#utility.yul\":7002:7029   */\n      swap1\n      pop\n        /* \"#utility.yul\":7039:7110   */\n      tag_493\n        /* \"#utility.yul\":7107:7108   */\n      0x00\n        /* \"#utility.yul\":7096:7105   */\n      dup4\n        /* \"#utility.yul\":7092:7109   */\n      add\n        /* \"#utility.yul\":7083:7089   */\n      dup11\n        /* \"#utility.yul\":7039:7110   */\n      tag_325\n      jump\t// in\n    tag_493:\n        /* \"#utility.yul\":7157:7166   */\n      dup2\n        /* \"#utility.yul\":7151:7155   */\n      dup2\n        /* \"#utility.yul\":7147:7167   */\n      sub\n        /* \"#utility.yul\":7142:7144   */\n      0x20\n        /* \"#utility.yul\":7131:7140   */\n      dup4\n        /* \"#utility.yul\":7127:7145   */\n      add\n        /* \"#utility.yul\":7120:7168   */\n      mstore\n        /* \"#utility.yul\":7185:7263   */\n      tag_494\n        /* \"#utility.yul\":7258:7262   */\n      dup2\n        /* \"#utility.yul\":7249:7255   */\n      dup10\n        /* \"#utility.yul\":7185:7263   */\n      tag_330\n      jump\t// in\n    tag_494:\n        /* \"#utility.yul\":7177:7263   */\n      swap1\n      pop\n        /* \"#utility.yul\":7310:7319   */\n      dup2\n        /* \"#utility.yul\":7304:7308   */\n      dup2\n        /* \"#utility.yul\":7300:7320   */\n      sub\n        /* \"#utility.yul\":7295:7297   */\n      0x40\n        /* \"#utility.yul\":7284:7293   */\n      dup4\n        /* \"#utility.yul\":7280:7298   */\n      add\n        /* \"#utility.yul\":7273:7321   */\n      mstore\n        /* \"#utility.yul\":7338:7416   */\n      tag_495\n        /* \"#utility.yul\":7411:7415   */\n      dup2\n        /* \"#utility.yul\":7402:7408   */\n      dup9\n        /* \"#utility.yul\":7338:7416   */\n      tag_330\n      jump\t// in\n    tag_495:\n        /* \"#utility.yul\":7330:7416   */\n      swap1\n      pop\n        /* \"#utility.yul\":7426:7498   */\n      tag_496\n        /* \"#utility.yul\":7494:7496   */\n      0x60\n        /* \"#utility.yul\":7483:7492   */\n      dup4\n        /* \"#utility.yul\":7479:7497   */\n      add\n        /* \"#utility.yul\":7470:7476   */\n      dup8\n        /* \"#utility.yul\":7426:7498   */\n      tag_303\n      jump\t// in\n    tag_496:\n        /* \"#utility.yul\":7508:7581   */\n      tag_497\n        /* \"#utility.yul\":7576:7579   */\n      0x80\n        /* \"#utility.yul\":7565:7574   */\n      dup4\n        /* \"#utility.yul\":7561:7580   */\n      add\n        /* \"#utility.yul\":7552:7558   */\n      dup7\n        /* \"#utility.yul\":7508:7581   */\n      tag_303\n      jump\t// in\n    tag_497:\n        /* \"#utility.yul\":7591:7664   */\n      tag_498\n        /* \"#utility.yul\":7659:7662   */\n      0xa0\n        /* \"#utility.yul\":7648:7657   */\n      dup4\n        /* \"#utility.yul\":7644:7663   */\n      add\n        /* \"#utility.yul\":7635:7641   */\n      dup6\n        /* \"#utility.yul\":7591:7664   */\n      tag_303\n      jump\t// in\n    tag_498:\n        /* \"#utility.yul\":7712:7721   */\n      dup2\n        /* \"#utility.yul\":7706:7710   */\n      dup2\n        /* \"#utility.yul\":7702:7722   */\n      sub\n        /* \"#utility.yul\":7696:7699   */\n      0xc0\n        /* \"#utility.yul\":7685:7694   */\n      dup4\n        /* \"#utility.yul\":7681:7700   */\n      add\n        /* \"#utility.yul\":7674:7723   */\n      mstore\n        /* \"#utility.yul\":7740:7818   */\n      tag_499\n        /* \"#utility.yul\":7813:7817   */\n      dup2\n        /* \"#utility.yul\":7804:7810   */\n      dup5\n        /* \"#utility.yul\":7740:7818   */\n      tag_330\n      jump\t// in\n    tag_499:\n        /* \"#utility.yul\":7732:7818   */\n      swap1\n      pop\n        /* \"#utility.yul\":6666:7825   */\n      swap9\n      swap8\n      pop\n      pop\n      pop\n      pop\n      pop\n      pop\n      pop\n      pop\n      jump\t// out\n        /* \"#utility.yul\":7831:7953   */\n    tag_331:\n        /* \"#utility.yul\":7904:7928   */\n      tag_501\n        /* \"#utility.yul\":7922:7927   */\n      dup2\n        /* \"#utility.yul\":7904:7928   */\n      tag_313\n      jump\t// in\n    tag_501:\n        /* \"#utility.yul\":7897:7902   */\n      dup2\n        /* \"#utility.yul\":7894:7929   */\n      eq\n        /* \"#utility.yul\":7884:7947   */\n      tag_502\n      jumpi\n        /* \"#utility.yul\":7943:7944   */\n      0x00\n        /* \"#utility.yul\":7940:7941   */\n      dup1\n        /* \"#utility.yul\":7933:7945   */\n      revert\n        /* \"#utility.yul\":7884:7947   */\n    tag_502:\n        /* \"#utility.yul\":7831:7953   */\n      pop\n      jump\t// out\n        /* \"#utility.yul\":7959:8098   */\n    tag_332:\n        /* \"#utility.yul\":8005:8010   */\n      0x00\n        /* \"#utility.yul\":8043:8049   */\n      dup2\n        /* \"#utility.yul\":8030:8050   */\n      calldataload\n        /* \"#utility.yul\":8021:8050   */\n      swap1\n      pop\n        /* \"#utility.yul\":8059:8092   */\n      tag_504\n        /* \"#utility.yul\":8086:8091   */\n      dup2\n        /* \"#utility.yul\":8059:8092   */\n      tag_331\n      jump\t// in\n    tag_504:\n        /* \"#utility.yul\":7959:8098   */\n      swap3\n      swap2\n      pop\n      pop\n      jump\t// out\n        /* \"#utility.yul\":8104:8221   */\n    tag_333:\n        /* \"#utility.yul\":8213:8214   */\n      0x00\n        /* \"#utility.yul\":8210:8211   */\n      dup1\n        /* \"#utility.yul\":8203:8215   */\n      revert\n        /* \"#utility.yul\":8227:8344   */\n    tag_334:\n        /* \"#utility.yul\":8336:8337   */\n      0x00\n        /* \"#utility.yul\":8333:8334   */\n      dup1\n        /* \"#utility.yul\":8326:8338   */\n      revert\n        /* \"#utility.yul\":8350:8530   */\n    tag_246:\n        /* \"#utility.yul\":8398:8475   */\n      0x4e487b7100000000000000000000000000000000000000000000000000000000\n        /* \"#utility.yul\":8395:8396   */\n      0x00\n        /* \"#utility.yul\":8388:8476   */\n      mstore\n        /* \"#utility.yul\":8495:8499   */\n      0x41\n        /* \"#utility.yul\":8492:8493   */\n      0x04\n        /* \"#utility.yul\":8485:8500   */\n      mstore\n        /* \"#utility.yul\":8519:8523   */\n      0x24\n        /* \"#utility.yul\":8516:8517   */\n      0x00\n        /* \"#utility.yul\":8509:8524   */\n      revert\n        /* \"#utility.yul\":8536:8817   */\n    tag_335:\n        /* \"#utility.yul\":8619:8646   */\n      tag_509\n        /* \"#utility.yul\":8641:8645   */\n      dup3\n        /* \"#utility.yul\":8619:8646   */\n      tag_329\n      jump\t// in\n    tag_509:\n        /* \"#utility.yul\":8611:8617   */\n      dup2\n        /* \"#utility.yul\":8607:8647   */\n      add\n        /* \"#utility.yul\":8749:8755   */\n      dup2\n        /* \"#utility.yul\":8737:8747   */\n      dup2\n        /* \"#utility.yul\":8734:8756   */\n      lt\n        /* \"#utility.yul\":8713:8731   */\n      0xffffffffffffffff\n        /* \"#utility.yul\":8701:8711   */\n      dup3\n        /* \"#utility.yul\":8698:8732   */\n      gt\n        /* \"#utility.yul\":8695:8757   */\n      or\n        /* \"#utility.yul\":8692:8780   */\n      iszero\n      tag_510\n      jumpi\n        /* \"#utility.yul\":8760:8778   */\n      tag_511\n      tag_246\n      jump\t// in\n    tag_511:\n        /* \"#utility.yul\":8692:8780   */\n    tag_510:\n        /* \"#utility.yul\":8800:8810   */\n      dup1\n        /* \"#utility.yul\":8796:8798   */\n      0x40\n        /* \"#utility.yul\":8789:8811   */\n      mstore\n        /* \"#utility.yul\":8579:8817   */\n      pop\n        /* \"#utility.yul\":8536:8817   */\n      pop\n      pop\n      jump\t// out\n        /* \"#utility.yul\":8823:8952   */\n    tag_336:\n        /* \"#utility.yul\":8857:8863   */\n      0x00\n        /* \"#utility.yul\":8884:8904   */\n      tag_513\n      tag_304\n      jump\t// in\n    tag_513:\n        /* \"#utility.yul\":8874:8904   */\n      swap1\n      pop\n        /* \"#utility.yul\":8913:8946   */\n      tag_514\n        /* \"#utility.yul\":8941:8945   */\n      dup3\n        /* \"#utility.yul\":8933:8939   */\n      dup3\n        /* \"#utility.yul\":8913:8946   */\n      tag_335\n      jump\t// in\n    tag_514:\n        /* \"#utility.yul\":8823:8952   */\n      swap2\n      swap1\n      pop\n      jump\t// out\n        /* \"#utility.yul\":8958:9266   */\n    tag_337:\n        /* \"#utility.yul\":9020:9024   */\n      0x00\n        /* \"#utility.yul\":9110:9128   */\n      0xffffffffffffffff\n        /* \"#utility.yul\":9102:9108   */\n      dup3\n        /* \"#utility.yul\":9099:9129   */\n      gt\n        /* \"#utility.yul\":9096:9152   */\n      iszero\n      tag_516\n      jumpi\n        /* \"#utility.yul\":9132:9150   */\n      tag_517\n      tag_246\n      jump\t// in\n    tag_517:\n        /* \"#utility.yul\":9096:9152   */\n    tag_516:\n        /* \"#utility.yul\":9170:9199   */\n      tag_518\n        /* \"#utility.yul\":9192:9198   */\n      dup3\n        /* \"#utility.yul\":9170:9199   */\n      tag_329\n      jump\t// in\n    tag_518:\n        /* \"#utility.yul\":9162:9199   */\n      swap1\n      pop\n        /* \"#utility.yul\":9254:9258   */\n      0x20\n        /* \"#utility.yul\":9248:9252   */\n      dup2\n        /* \"#utility.yul\":9244:9259   */\n      add\n        /* \"#utility.yul\":9236:9259   */\n      swap1\n      pop\n        /* \"#utility.yul\":8958:9266   */\n      swap2\n      swap1\n      pop\n      jump\t// out\n        /* \"#utility.yul\":9272:9418   */\n    tag_338:\n        /* \"#utility.yul\":9369:9375   */\n      dup3\n        /* \"#utility.yul\":9364:9367   */\n      dup2\n        /* \"#utility.yul\":9359:9362   */\n      dup4\n        /* \"#utility.yul\":9346:9376   */\n      calldatacopy\n        /* \"#utility.yul\":9410:9411   */\n      0x00\n        /* \"#utility.yul\":9401:9407   */\n      dup4\n        /* \"#utility.yul\":9396:9399   */\n      dup4\n        /* \"#utility.yul\":9392:9408   */\n      add\n        /* \"#utility.yul\":9385:9412   */\n      mstore\n        /* \"#utility.yul\":9272:9418   */\n      pop\n      pop\n      pop\n      jump\t// out\n        /* \"#utility.yul\":9424:9849   */\n    tag_339:\n        /* \"#utility.yul\":9502:9507   */\n      0x00\n        /* \"#utility.yul\":9527:9593   */\n      tag_521\n        /* \"#utility.yul\":9543:9592   */\n      tag_522\n        /* \"#utility.yul\":9585:9591   */\n      dup5\n        /* \"#utility.yul\":9543:9592   */\n      tag_337\n      jump\t// in\n    tag_522:\n        /* \"#utility.yul\":9527:9593   */\n      tag_336\n      jump\t// in\n    tag_521:\n        /* \"#utility.yul\":9518:9593   */\n      swap1\n      pop\n        /* \"#utility.yul\":9616:9622   */\n      dup3\n        /* \"#utility.yul\":9609:9614   */\n      dup2\n        /* \"#utility.yul\":9602:9623   */\n      mstore\n        /* \"#utility.yul\":9654:9658   */\n      0x20\n        /* \"#utility.yul\":9647:9652   */\n      dup2\n        /* \"#utility.yul\":9643:9659   */\n      add\n        /* \"#utility.yul\":9692:9695   */\n      dup5\n        /* \"#utility.yul\":9683:9689   */\n      dup5\n        /* \"#utility.yul\":9678:9681   */\n      dup5\n        /* \"#utility.yul\":9674:9690   */\n      add\n        /* \"#utility.yul\":9671:9696   */\n      gt\n        /* \"#utility.yul\":9668:9780   */\n      iszero\n      tag_523\n      jumpi\n        /* \"#utility.yul\":9699:9778   */\n      tag_524\n      tag_334\n      jump\t// in\n    tag_524:\n        /* \"#utility.yul\":9668:9780   */\n    tag_523:\n        /* \"#utility.yul\":9789:9843   */\n      tag_525\n        /* \"#utility.yul\":9836:9842   */\n      dup5\n        /* \"#utility.yul\":9831:9834   */\n      dup3\n        /* \"#utility.yul\":9826:9829   */\n      dup6\n        /* \"#utility.yul\":9789:9843   */\n      tag_338\n      jump\t// in\n    tag_525:\n        /* \"#utility.yul\":9508:9849   */\n      pop\n        /* \"#utility.yul\":9424:9849   */\n      swap4\n      swap3\n      pop\n      pop\n      pop\n      jump\t// out\n        /* \"#utility.yul\":9869:10209   */\n    tag_340:\n        /* \"#utility.yul\":9925:9930   */\n      0x00\n        /* \"#utility.yul\":9974:9977   */\n      dup3\n        /* \"#utility.yul\":9967:9971   */\n      0x1f\n        /* \"#utility.yul\":9959:9965   */\n      dup4\n        /* \"#utility.yul\":9955:9972   */\n      add\n        /* \"#utility.yul\":9951:9978   */\n      slt\n        /* \"#utility.yul\":9941:10063   */\n      tag_527\n      jumpi\n        /* \"#utility.yul\":9982:10061   */\n      tag_528\n      tag_333\n      jump\t// in\n    tag_528:\n        /* \"#utility.yul\":9941:10063   */\n    tag_527:\n        /* \"#utility.yul\":10099:10105   */\n      dup2\n        /* \"#utility.yul\":10086:10106   */\n      calldataload\n        /* \"#utility.yul\":10124:10203   */\n      tag_529\n        /* \"#utility.yul\":10199:10202   */\n      dup5\n        /* \"#utility.yul\":10191:10197   */\n      dup3\n        /* \"#utility.yul\":10184:10188   */\n      0x20\n        /* \"#utility.yul\":10176:10182   */\n      dup7\n        /* \"#utility.yul\":10172:10189   */\n      add\n        /* \"#utility.yul\":10124:10203   */\n      tag_339\n      jump\t// in\n    tag_529:\n        /* \"#utility.yul\":10115:10203   */\n      swap2\n      pop\n        /* \"#utility.yul\":9931:10209   */\n      pop\n        /* \"#utility.yul\":9869:10209   */\n      swap3\n      swap2\n      pop\n      pop\n      jump\t// out\n        /* \"#utility.yul\":10215:11812   */\n    tag_40:\n        /* \"#utility.yul\":10349:10355   */\n      0x00\n        /* \"#utility.yul\":10357:10363   */\n      dup1\n        /* \"#utility.yul\":10365:10371   */\n      0x00\n        /* \"#utility.yul\":10373:10379   */\n      dup1\n        /* \"#utility.yul\":10381:10387   */\n      0x00\n        /* \"#utility.yul\":10389:10395   */\n      dup1\n        /* \"#utility.yul\":10438:10441   */\n      0xc0\n        /* \"#utility.yul\":10426:10435   */\n      dup8\n        /* \"#utility.yul\":10417:10424   */\n      dup10\n        /* \"#utility.yul\":10413:10436   */\n      sub\n        /* \"#utility.yul\":10409:10442   */\n      slt\n        /* \"#utility.yul\":10406:10526   */\n      iszero\n      tag_531\n      jumpi\n        /* \"#utility.yul\":10445:10524   */\n      tag_532\n      tag_305\n      jump\t// in\n    tag_532:\n        /* \"#utility.yul\":10406:10526   */\n    tag_531:\n        /* \"#utility.yul\":10565:10566   */\n      0x00\n        /* \"#utility.yul\":10590:10643   */\n      tag_533\n        /* \"#utility.yul\":10635:10642   */\n      dup10\n        /* \"#utility.yul\":10626:10632   */\n      dup3\n        /* \"#utility.yul\":10615:10624   */\n      dup11\n        /* \"#utility.yul\":10611:10633   */\n      add\n        /* \"#utility.yul\":10590:10643   */\n      tag_332\n      jump\t// in\n    tag_533:\n        /* \"#utility.yul\":10580:10643   */\n      swap7\n      pop\n        /* \"#utility.yul\":10536:10653   */\n      pop\n        /* \"#utility.yul\":10720:10722   */\n      0x20\n        /* \"#utility.yul\":10709:10718   */\n      dup8\n        /* \"#utility.yul\":10705:10723   */\n      add\n        /* \"#utility.yul\":10692:10724   */\n      calldataload\n        /* \"#utility.yul\":10751:10769   */\n      0xffffffffffffffff\n        /* \"#utility.yul\":10743:10749   */\n      dup2\n        /* \"#utility.yul\":10740:10770   */\n      gt\n        /* \"#utility.yul\":10737:10854   */\n      iszero\n      tag_534\n      jumpi\n        /* \"#utility.yul\":10773:10852   */\n      tag_535\n      tag_306\n      jump\t// in\n    tag_535:\n        /* \"#utility.yul\":10737:10854   */\n    tag_534:\n        /* \"#utility.yul\":10878:10941   */\n      tag_536\n        /* \"#utility.yul\":10933:10940   */\n      dup10\n        /* \"#utility.yul\":10924:10930   */\n      dup3\n        /* \"#utility.yul\":10913:10922   */\n      dup11\n        /* \"#utility.yul\":10909:10931   */\n      add\n        /* \"#utility.yul\":10878:10941   */\n      tag_340\n      jump\t// in\n    tag_536:\n        /* \"#utility.yul\":10868:10941   */\n      swap6\n      pop\n        /* \"#utility.yul\":10663:10951   */\n      pop\n        /* \"#utility.yul\":11018:11020   */\n      0x40\n        /* \"#utility.yul\":11007:11016   */\n      dup8\n        /* \"#utility.yul\":11003:11021   */\n      add\n        /* \"#utility.yul\":10990:11022   */\n      calldataload\n        /* \"#utility.yul\":11049:11067   */\n      0xffffffffffffffff\n        /* \"#utility.yul\":11041:11047   */\n      dup2\n        /* \"#utility.yul\":11038:11068   */\n      gt\n        /* \"#utility.yul\":11035:11152   */\n      iszero\n      tag_537\n      jumpi\n        /* \"#utility.yul\":11071:11150   */\n      tag_538\n      tag_306\n      jump\t// in\n    tag_538:\n        /* \"#utility.yul\":11035:11152   */\n    tag_537:\n        /* \"#utility.yul\":11176:11239   */\n      tag_539\n        /* \"#utility.yul\":11231:11238   */\n      dup10\n        /* \"#utility.yul\":11222:11228   */\n      dup3\n        /* \"#utility.yul\":11211:11220   */\n      dup11\n        /* \"#utility.yul\":11207:11229   */\n      add\n        /* \"#utility.yul\":11176:11239   */\n      tag_340\n      jump\t// in\n    tag_539:\n        /* \"#utility.yul\":11166:11239   */\n      swap5\n      pop\n        /* \"#utility.yul\":10961:11249   */\n      pop\n        /* \"#utility.yul\":11288:11290   */\n      0x60\n        /* \"#utility.yul\":11314:11367   */\n      tag_540\n        /* \"#utility.yul\":11359:11366   */\n      dup10\n        /* \"#utility.yul\":11350:11356   */\n      dup3\n        /* \"#utility.yul\":11339:11348   */\n      dup11\n        /* \"#utility.yul\":11335:11357   */\n      add\n        /* \"#utility.yul\":11314:11367   */\n      tag_308\n      jump\t// in\n    tag_540:\n        /* \"#utility.yul\":11304:11367   */\n      swap4\n      pop\n        /* \"#utility.yul\":11259:11377   */\n      pop\n        /* \"#utility.yul\":11416:11419   */\n      0x80\n        /* \"#utility.yul\":11443:11496   */\n      tag_541\n        /* \"#utility.yul\":11488:11495   */\n      dup10\n        /* \"#utility.yul\":11479:11485   */\n      dup3\n        /* \"#utility.yul\":11468:11477   */\n      dup11\n        /* \"#utility.yul\":11464:11486   */\n      add\n        /* \"#utility.yul\":11443:11496   */\n      tag_308\n      jump\t// in\n    tag_541:\n        /* \"#utility.yul\":11433:11496   */\n      swap3\n      pop\n        /* \"#utility.yul\":11387:11506   */\n      pop\n        /* \"#utility.yul\":11573:11576   */\n      0xa0\n        /* \"#utility.yul\":11562:11571   */\n      dup8\n        /* \"#utility.yul\":11558:11577   */\n      add\n        /* \"#utility.yul\":11545:11578   */\n      calldataload\n        /* \"#utility.yul\":11605:11623   */\n      0xffffffffffffffff\n        /* \"#utility.yul\":11597:11603   */\n      dup2\n        /* \"#utility.yul\":11594:11624   */\n      gt\n        /* \"#utility.yul\":11591:11708   */\n      iszero\n      tag_542\n      jumpi\n        /* \"#utility.yul\":11627:11706   */\n      tag_543\n      tag_306\n      jump\t// in\n    tag_543:\n        /* \"#utility.yul\":11591:11708   */\n    tag_542:\n        /* \"#utility.yul\":11732:11795   */\n      tag_544\n        /* \"#utility.yul\":11787:11794   */\n      dup10\n        /* \"#utility.yul\":11778:11784   */\n      dup3\n        /* \"#utility.yul\":11767:11776   */\n      dup11\n        /* \"#utility.yul\":11763:11785   */\n      add\n        /* \"#utility.yul\":11732:11795   */\n      tag_340\n      jump\t// in\n    tag_544:\n        /* \"#utility.yul\":11722:11795   */\n      swap2\n      pop\n        /* \"#utility.yul\":11516:11805   */\n      pop\n        /* \"#utility.yul\":10215:11812   */\n      swap3\n      swap6\n      pop\n      swap3\n      swap6\n      pop\n      swap3\n      swap6\n      jump\t// out\n        /* \"#utility.yul\":11818:11908   */\n    tag_341:\n        /* \"#utility.yul\":11852:11859   */\n      0x00\n        /* \"#utility.yul\":11895:11900   */\n      dup2\n        /* \"#utility.yul\":11888:11901   */\n      iszero\n        /* \"#utility.yul\":11881:11902   */\n      iszero\n        /* \"#utility.yul\":11870:11902   */\n      swap1\n      pop\n        /* \"#utility.yul\":11818:11908   */\n      swap2\n      swap1\n      pop\n      jump\t// out\n        /* \"#utility.yul\":11914:12030   */\n    tag_342:\n        /* \"#utility.yul\":11984:12005   */\n      tag_547\n        /* \"#utility.yul\":11999:12004   */\n      dup2\n        /* \"#utility.yul\":11984:12005   */\n      tag_341\n      jump\t// in\n    tag_547:\n        /* \"#utility.yul\":11977:11982   */\n      dup2\n        /* \"#utility.yul\":11974:12006   */\n      eq\n        /* \"#utility.yul\":11964:12024   */\n      tag_548\n      jumpi\n        /* \"#utility.yul\":12020:12021   */\n      0x00\n        /* \"#utility.yul\":12017:12018   */\n      dup1\n        /* \"#utility.yul\":12010:12022   */\n      revert\n        /* \"#utility.yul\":11964:12024   */\n    tag_548:\n        /* \"#utility.yul\":11914:12030   */\n      pop\n      jump\t// out\n        /* \"#utility.yul\":12036:12169   */\n    tag_343:\n        /* \"#utility.yul\":12079:12084   */\n      0x00\n        /* \"#utility.yul\":12117:12123   */\n      dup2\n        /* \"#utility.yul\":12104:12124   */\n      calldataload\n        /* \"#utility.yul\":12095:12124   */\n      swap1\n      pop\n        /* \"#utility.yul\":12133:12163   */\n      tag_550\n        /* \"#utility.yul\":12157:12162   */\n      dup2\n        /* \"#utility.yul\":12133:12163   */\n      tag_342\n      jump\t// in\n    tag_550:\n        /* \"#utility.yul\":12036:12169   */\n      swap3\n      swap2\n      pop\n      pop\n      jump\t// out\n        /* \"#utility.yul\":12175:12643   */\n    tag_45:\n        /* \"#utility.yul\":12240:12246   */\n      0x00\n        /* \"#utility.yul\":12248:12254   */\n      dup1\n        /* \"#utility.yul\":12297:12299   */\n      0x40\n        /* \"#utility.yul\":12285:12294   */\n      dup4\n        /* \"#utility.yul\":12276:12283   */\n      dup6\n        /* \"#utility.yul\":12272:12295   */\n      sub\n        /* \"#utility.yul\":12268:12300   */\n      slt\n        /* \"#utility.yul\":12265:12384   */\n      iszero\n      tag_552\n      jumpi\n        /* \"#utility.yul\":12303:12382   */\n      tag_553\n      tag_305\n      jump\t// in\n    tag_553:\n        /* \"#utility.yul\":12265:12384   */\n    tag_552:\n        /* \"#utility.yul\":12423:12424   */\n      0x00\n        /* \"#utility.yul\":12448:12501   */\n      tag_554\n        /* \"#utility.yul\":12493:12500   */\n      dup6\n        /* \"#utility.yul\":12484:12490   */\n      dup3\n        /* \"#utility.yul\":12473:12482   */\n      dup7\n        /* \"#utility.yul\":12469:12491   */\n      add\n        /* \"#utility.yul\":12448:12501   */\n      tag_308\n      jump\t// in\n    tag_554:\n        /* \"#utility.yul\":12438:12501   */\n      swap3\n      pop\n        /* \"#utility.yul\":12394:12511   */\n      pop\n        /* \"#utility.yul\":12550:12552   */\n      0x20\n        /* \"#utility.yul\":12576:12626   */\n      tag_555\n        /* \"#utility.yul\":12618:12625   */\n      dup6\n        /* \"#utility.yul\":12609:12615   */\n      dup3\n        /* \"#utility.yul\":12598:12607   */\n      dup7\n        /* \"#utility.yul\":12594:12616   */\n      add\n        /* \"#utility.yul\":12576:12626   */\n      tag_343\n      jump\t// in\n    tag_555:\n        /* \"#utility.yul\":12566:12626   */\n      swap2\n      pop\n        /* \"#utility.yul\":12521:12636   */\n      pop\n        /* \"#utility.yul\":12175:12643   */\n      swap3\n      pop\n      swap3\n      swap1\n      pop\n      jump\t// out\n        /* \"#utility.yul\":12649:12787   */\n    tag_344:\n        /* \"#utility.yul\":12740:12746   */\n      0x00\n        /* \"#utility.yul\":12774:12779   */\n      dup2\n        /* \"#utility.yul\":12768:12780   */\n      mload\n        /* \"#utility.yul\":12758:12780   */\n      swap1\n      pop\n        /* \"#utility.yul\":12649:12787   */\n      swap2\n      swap1\n      pop\n      jump\t// out\n        /* \"#utility.yul\":12793:13001   */\n    tag_345:\n        /* \"#utility.yul\":12916:12927   */\n      0x00\n        /* \"#utility.yul\":12950:12956   */\n      dup3\n        /* \"#utility.yul\":12945:12948   */\n      dup3\n        /* \"#utility.yul\":12938:12957   */\n      mstore\n        /* \"#utility.yul\":12990:12994   */\n      0x20\n        /* \"#utility.yul\":12985:12988   */\n      dup3\n        /* \"#utility.yul\":12981:12995   */\n      add\n        /* \"#utility.yul\":12966:12995   */\n      swap1\n      pop\n        /* \"#utility.yul\":12793:13001   */\n      swap3\n      swap2\n      pop\n      pop\n      jump\t// out\n        /* \"#utility.yul\":13007:13163   */\n    tag_346:\n        /* \"#utility.yul\":13098:13102   */\n      0x00\n        /* \"#utility.yul\":13121:13124   */\n      dup2\n        /* \"#utility.yul\":13113:13124   */\n      swap1\n      pop\n        /* \"#utility.yul\":13151:13155   */\n      0x20\n        /* \"#utility.yul\":13146:13149   */\n      dup3\n        /* \"#utility.yul\":13142:13156   */\n      add\n        /* \"#utility.yul\":13134:13156   */\n      swap1\n      pop\n        /* \"#utility.yul\":13007:13163   */\n      swap2\n      swap1\n      pop\n      jump\t// out\n        /* \"#utility.yul\":13169:13328   */\n    tag_347:\n        /* \"#utility.yul\":13243:13254   */\n      0x00\n        /* \"#utility.yul\":13277:13283   */\n      dup3\n        /* \"#utility.yul\":13272:13275   */\n      dup3\n        /* \"#utility.yul\":13265:13284   */\n      mstore\n        /* \"#utility.yul\":13317:13321   */\n      0x20\n        /* \"#utility.yul\":13312:13315   */\n      dup3\n        /* \"#utility.yul\":13308:13322   */\n      add\n        /* \"#utility.yul\":13293:13322   */\n      swap1\n      pop\n        /* \"#utility.yul\":13169:13328   */\n      swap3\n      swap2\n      pop\n      pop\n      jump\t// out\n        /* \"#utility.yul\":13334:13691   */\n    tag_348:\n        /* \"#utility.yul\":13412:13415   */\n      0x00\n        /* \"#utility.yul\":13440:13479   */\n      tag_561\n        /* \"#utility.yul\":13473:13478   */\n      dup3\n        /* \"#utility.yul\":13440:13479   */\n      tag_326\n      jump\t// in\n    tag_561:\n        /* \"#utility.yul\":13495:13556   */\n      tag_562\n        /* \"#utility.yul\":13549:13555   */\n      dup2\n        /* \"#utility.yul\":13544:13547   */\n      dup6\n        /* \"#utility.yul\":13495:13556   */\n      tag_347\n      jump\t// in\n    tag_562:\n        /* \"#utility.yul\":13488:13556   */\n      swap4\n      pop\n        /* \"#utility.yul\":13565:13630   */\n      tag_563\n        /* \"#utility.yul\":13623:13629   */\n      dup2\n        /* \"#utility.yul\":13618:13621   */\n      dup6\n        /* \"#utility.yul\":13611:13615   */\n      0x20\n        /* \"#utility.yul\":13604:13609   */\n      dup7\n        /* \"#utility.yul\":13600:13616   */\n      add\n        /* \"#utility.yul\":13565:13630   */\n      tag_328\n      jump\t// in\n    tag_563:\n        /* \"#utility.yul\":13655:13684   */\n      tag_564\n        /* \"#utility.yul\":13677:13683   */\n      dup2\n        /* \"#utility.yul\":13655:13684   */\n      tag_329\n      jump\t// in\n    tag_564:\n        /* \"#utility.yul\":13650:13653   */\n      dup5\n        /* \"#utility.yul\":13646:13685   */\n      add\n        /* \"#utility.yul\":13639:13685   */\n      swap2\n      pop\n        /* \"#utility.yul\":13416:13691   */\n      pop\n        /* \"#utility.yul\":13334:13691   */\n      swap3\n      swap2\n      pop\n      pop\n      jump\t// out\n        /* \"#utility.yul\":13697:13871   */\n    tag_349:\n        /* \"#utility.yul\":13786:13797   */\n      0x00\n        /* \"#utility.yul\":13820:13826   */\n      dup3\n        /* \"#utility.yul\":13815:13818   */\n      dup3\n        /* \"#utility.yul\":13808:13827   */\n      mstore\n        /* \"#utility.yul\":13860:13864   */\n      0x20\n        /* \"#utility.yul\":13855:13858   */\n      dup3\n        /* \"#utility.yul\":13851:13865   */\n      add\n        /* \"#utility.yul\":13836:13865   */\n      swap1\n      pop\n        /* \"#utility.yul\":13697:13871   */\n      swap3\n      swap2\n      pop\n      pop\n      jump\t// out\n        /* \"#utility.yul\":13907:14619   */\n    tag_350:\n        /* \"#utility.yul\":14016:14019   */\n      0x00\n        /* \"#utility.yul\":14045:14099   */\n      tag_567\n        /* \"#utility.yul\":14093:14098   */\n      dup3\n        /* \"#utility.yul\":14045:14099   */\n      tag_309\n      jump\t// in\n    tag_567:\n        /* \"#utility.yul\":14115:14191   */\n      tag_568\n        /* \"#utility.yul\":14184:14190   */\n      dup2\n        /* \"#utility.yul\":14179:14182   */\n      dup6\n        /* \"#utility.yul\":14115:14191   */\n      tag_349\n      jump\t// in\n    tag_568:\n        /* \"#utility.yul\":14108:14191   */\n      swap4\n      pop\n        /* \"#utility.yul\":14215:14271   */\n      tag_569\n        /* \"#utility.yul\":14265:14270   */\n      dup4\n        /* \"#utility.yul\":14215:14271   */\n      tag_311\n      jump\t// in\n    tag_569:\n        /* \"#utility.yul\":14294:14301   */\n      dup1\n        /* \"#utility.yul\":14325:14326   */\n      0x00\n        /* \"#utility.yul\":14310:14594   */\n    tag_570:\n        /* \"#utility.yul\":14335:14341   */\n      dup4\n        /* \"#utility.yul\":14332:14333   */\n      dup2\n        /* \"#utility.yul\":14329:14342   */\n      lt\n        /* \"#utility.yul\":14310:14594   */\n      iszero\n      tag_572\n      jumpi\n        /* \"#utility.yul\":14411:14417   */\n      dup2\n        /* \"#utility.yul\":14405:14418   */\n      mload\n        /* \"#utility.yul\":14438:14501   */\n      tag_573\n        /* \"#utility.yul\":14497:14500   */\n      dup9\n        /* \"#utility.yul\":14482:14495   */\n      dup3\n        /* \"#utility.yul\":14438:14501   */\n      tag_315\n      jump\t// in\n    tag_573:\n        /* \"#utility.yul\":14431:14501   */\n      swap8\n      pop\n        /* \"#utility.yul\":14524:14584   */\n      tag_574\n        /* \"#utility.yul\":14577:14583   */\n      dup4\n        /* \"#utility.yul\":14524:14584   */\n      tag_316\n      jump\t// in\n    tag_574:\n        /* \"#utility.yul\":14514:14584   */\n      swap3\n      pop\n        /* \"#utility.yul\":14370:14594   */\n      pop\n        /* \"#utility.yul\":14357:14358   */\n      0x01\n        /* \"#utility.yul\":14354:14355   */\n      dup2\n        /* \"#utility.yul\":14350:14359   */\n      add\n        /* \"#utility.yul\":14345:14359   */\n      swap1\n      pop\n        /* \"#utility.yul\":14310:14594   */\n      jump(tag_570)\n    tag_572:\n        /* \"#utility.yul\":14314:14328   */\n      pop\n        /* \"#utility.yul\":14610:14613   */\n      dup6\n        /* \"#utility.yul\":14603:14613   */\n      swap4\n      pop\n        /* \"#utility.yul\":14021:14619   */\n      pop\n      pop\n      pop\n        /* \"#utility.yul\":13907:14619   */\n      swap3\n      swap2\n      pop\n      pop\n      jump\t// out\n        /* \"#utility.yul\":14625:14799   */\n    tag_351:\n        /* \"#utility.yul\":14714:14725   */\n      0x00\n        /* \"#utility.yul\":14748:14754   */\n      dup3\n        /* \"#utility.yul\":14743:14746   */\n      dup3\n        /* \"#utility.yul\":14736:14755   */\n      mstore\n        /* \"#utility.yul\":14788:14792   */\n      0x20\n        /* \"#utility.yul\":14783:14786   */\n      dup3\n        /* \"#utility.yul\":14779:14793   */\n      add\n        /* \"#utility.yul\":14764:14793   */\n      swap1\n      pop\n        /* \"#utility.yul\":14625:14799   */\n      swap3\n      swap2\n      pop\n      pop\n      jump\t// out\n        /* \"#utility.yul\":14835:15547   */\n    tag_352:\n        /* \"#utility.yul\":14944:14947   */\n      0x00\n        /* \"#utility.yul\":14973:15027   */\n      tag_577\n        /* \"#utility.yul\":15021:15026   */\n      dup3\n        /* \"#utility.yul\":14973:15027   */\n      tag_318\n      jump\t// in\n    tag_577:\n        /* \"#utility.yul\":15043:15119   */\n      tag_578\n        /* \"#utility.yul\":15112:15118   */\n      dup2\n        /* \"#utility.yul\":15107:15110   */\n      dup6\n        /* \"#utility.yul\":15043:15119   */\n      tag_351\n      jump\t// in\n    tag_578:\n        /* \"#utility.yul\":15036:15119   */\n      swap4\n      pop\n        /* \"#utility.yul\":15143:15199   */\n      tag_579\n        /* \"#utility.yul\":15193:15198   */\n      dup4\n        /* \"#utility.yul\":15143:15199   */\n      tag_320\n      jump\t// in\n    tag_579:\n        /* \"#utility.yul\":15222:15229   */\n      dup1\n        /* \"#utility.yul\":15253:15254   */\n      0x00\n        /* \"#utility.yul\":15238:15522   */\n    tag_580:\n        /* \"#utility.yul\":15263:15269   */\n      dup4\n        /* \"#utility.yul\":15260:15261   */\n      dup2\n        /* \"#utility.yul\":15257:15270   */\n      lt\n        /* \"#utility.yul\":15238:15522   */\n      iszero\n      tag_582\n      jumpi\n        /* \"#utility.yul\":15339:15345   */\n      dup2\n        /* \"#utility.yul\":15333:15346   */\n      mload\n        /* \"#utility.yul\":15366:15429   */\n      tag_583\n        /* \"#utility.yul\":15425:15428   */\n      dup9\n        /* \"#utility.yul\":15410:15423   */\n      dup3\n        /* \"#utility.yul\":15366:15429   */\n      tag_322\n      jump\t// in\n    tag_583:\n        /* \"#utility.yul\":15359:15429   */\n      swap8\n      pop\n        /* \"#utility.yul\":15452:15512   */\n      tag_584\n        /* \"#utility.yul\":15505:15511   */\n      dup4\n        /* \"#utility.yul\":15452:15512   */\n      tag_323\n      jump\t// in\n    tag_584:\n        /* \"#utility.yul\":15442:15512   */\n      swap3\n      pop\n        /* \"#utility.yul\":15298:15522   */\n      pop\n        /* \"#utility.yul\":15285:15286   */\n      0x01\n        /* \"#utility.yul\":15282:15283   */\n      dup2\n        /* \"#utility.yul\":15278:15287   */\n      add\n        /* \"#utility.yul\":15273:15287   */\n      swap1\n      pop\n        /* \"#utility.yul\":15238:15522   */\n      jump(tag_580)\n    tag_582:\n        /* \"#utility.yul\":15242:15256   */\n      pop\n        /* \"#utility.yul\":15538:15541   */\n      dup6\n        /* \"#utility.yul\":15531:15541   */\n      swap4\n      pop\n        /* \"#utility.yul\":14949:15547   */\n      pop\n      pop\n      pop\n        /* \"#utility.yul\":14835:15547   */\n      swap3\n      swap2\n      pop\n      pop\n      jump\t// out\n        /* \"#utility.yul\":15553:15664   */\n    tag_353:\n        /* \"#utility.yul\":15617:15623   */\n      0x00\n        /* \"#utility.yul\":15651:15656   */\n      dup2\n        /* \"#utility.yul\":15645:15657   */\n      mload\n        /* \"#utility.yul\":15635:15657   */\n      swap1\n      pop\n        /* \"#utility.yul\":15553:15664   */\n      swap2\n      swap1\n      pop\n      jump\t// out\n        /* \"#utility.yul\":15670:15841   */\n    tag_354:\n        /* \"#utility.yul\":15756:15767   */\n      0x00\n        /* \"#utility.yul\":15790:15796   */\n      dup3\n        /* \"#utility.yul\":15785:15788   */\n      dup3\n        /* \"#utility.yul\":15778:15797   */\n      mstore\n        /* \"#utility.yul\":15830:15834   */\n      0x20\n        /* \"#utility.yul\":15825:15828   */\n      dup3\n        /* \"#utility.yul\":15821:15835   */\n      add\n        /* \"#utility.yul\":15806:15835   */\n      swap1\n      pop\n        /* \"#utility.yul\":15670:15841   */\n      swap3\n      swap2\n      pop\n      pop\n      jump\t// out\n        /* \"#utility.yul\":15847:15976   */\n    tag_355:\n        /* \"#utility.yul\":15911:15915   */\n      0x00\n        /* \"#utility.yul\":15934:15937   */\n      dup2\n        /* \"#utility.yul\":15926:15937   */\n      swap1\n      pop\n        /* \"#utility.yul\":15964:15968   */\n      0x20\n        /* \"#utility.yul\":15959:15962   */\n      dup3\n        /* \"#utility.yul\":15955:15969   */\n      add\n        /* \"#utility.yul\":15947:15969   */\n      swap1\n      pop\n        /* \"#utility.yul\":15847:15976   */\n      swap2\n      swap1\n      pop\n      jump\t// out\n        /* \"#utility.yul\":15982:16081   */\n    tag_356:\n        /* \"#utility.yul\":16053:16074   */\n      tag_589\n        /* \"#utility.yul\":16068:16073   */\n      dup2\n        /* \"#utility.yul\":16053:16074   */\n      tag_341\n      jump\t// in\n    tag_589:\n        /* \"#utility.yul\":16048:16051   */\n      dup3\n        /* \"#utility.yul\":16041:16075   */\n      mstore\n        /* \"#utility.yul\":15982:16081   */\n      pop\n      pop\n      jump\t// out\n        /* \"#utility.yul\":16087:16254   */\n    tag_357:\n        /* \"#utility.yul\":16150:16160   */\n      0x00\n        /* \"#utility.yul\":16171:16211   */\n      tag_591\n        /* \"#utility.yul\":16207:16210   */\n      dup4\n        /* \"#utility.yul\":16199:16205   */\n      dup4\n        /* \"#utility.yul\":16171:16211   */\n      tag_356\n      jump\t// in\n    tag_591:\n        /* \"#utility.yul\":16243:16247   */\n      0x20\n        /* \"#utility.yul\":16238:16241   */\n      dup4\n        /* \"#utility.yul\":16234:16248   */\n      add\n        /* \"#utility.yul\":16220:16248   */\n      swap1\n      pop\n        /* \"#utility.yul\":16087:16254   */\n      swap3\n      swap2\n      pop\n      pop\n      jump\t// out\n        /* \"#utility.yul\":16260:16370   */\n    tag_358:\n        /* \"#utility.yul\":16327:16331   */\n      0x00\n        /* \"#utility.yul\":16359:16363   */\n      0x20\n        /* \"#utility.yul\":16354:16357   */\n      dup3\n        /* \"#utility.yul\":16350:16364   */\n      add\n        /* \"#utility.yul\":16342:16364   */\n      swap1\n      pop\n        /* \"#utility.yul\":16260:16370   */\n      swap2\n      swap1\n      pop\n      jump\t// out\n        /* \"#utility.yul\":16400:17088   */\n    tag_359:\n        /* \"#utility.yul\":16503:16506   */\n      0x00\n        /* \"#utility.yul\":16532:16583   */\n      tag_594\n        /* \"#utility.yul\":16577:16582   */\n      dup3\n        /* \"#utility.yul\":16532:16583   */\n      tag_353\n      jump\t// in\n    tag_594:\n        /* \"#utility.yul\":16599:16672   */\n      tag_595\n        /* \"#utility.yul\":16665:16671   */\n      dup2\n        /* \"#utility.yul\":16660:16663   */\n      dup6\n        /* \"#utility.yul\":16599:16672   */\n      tag_354\n      jump\t// in\n    tag_595:\n        /* \"#utility.yul\":16592:16672   */\n      swap4\n      pop\n        /* \"#utility.yul\":16696:16749   */\n      tag_596\n        /* \"#utility.yul\":16743:16748   */\n      dup4\n        /* \"#utility.yul\":16696:16749   */\n      tag_355\n      jump\t// in\n    tag_596:\n        /* \"#utility.yul\":16772:16779   */\n      dup1\n        /* \"#utility.yul\":16803:16804   */\n      0x00\n        /* \"#utility.yul\":16788:17063   */\n    tag_597:\n        /* \"#utility.yul\":16813:16819   */\n      dup4\n        /* \"#utility.yul\":16810:16811   */\n      dup2\n        /* \"#utility.yul\":16807:16820   */\n      lt\n        /* \"#utility.yul\":16788:17063   */\n      iszero\n      tag_599\n      jumpi\n        /* \"#utility.yul\":16889:16895   */\n      dup2\n        /* \"#utility.yul\":16883:16896   */\n      mload\n        /* \"#utility.yul\":16916:16973   */\n      tag_600\n        /* \"#utility.yul\":16969:16972   */\n      dup9\n        /* \"#utility.yul\":16954:16967   */\n      dup3\n        /* \"#utility.yul\":16916:16973   */\n      tag_357\n      jump\t// in\n    tag_600:\n        /* \"#utility.yul\":16909:16973   */\n      swap8\n      pop\n        /* \"#utility.yul\":16996:17053   */\n      tag_601\n        /* \"#utility.yul\":17046:17052   */\n      dup4\n        /* \"#utility.yul\":16996:17053   */\n      tag_358\n      jump\t// in\n    tag_601:\n        /* \"#utility.yul\":16986:17053   */\n      swap3\n      pop\n        /* \"#utility.yul\":16848:17063   */\n      pop\n        /* \"#utility.yul\":16835:16836   */\n      0x01\n        /* \"#utility.yul\":16832:16833   */\n      dup2\n        /* \"#utility.yul\":16828:16837   */\n      add\n        /* \"#utility.yul\":16823:16837   */\n      swap1\n      pop\n        /* \"#utility.yul\":16788:17063   */\n      jump(tag_597)\n    tag_599:\n        /* \"#utility.yul\":16792:16806   */\n      pop\n        /* \"#utility.yul\":17079:17082   */\n      dup6\n        /* \"#utility.yul\":17072:17082   */\n      swap4\n      pop\n        /* \"#utility.yul\":16508:17088   */\n      pop\n      pop\n      pop\n        /* \"#utility.yul\":16400:17088   */\n      swap3\n      swap2\n      pop\n      pop\n      jump\t// out\n        /* \"#utility.yul\":17162:19634   */\n    tag_360:\n        /* \"#utility.yul\":17269:17272   */\n      0x00\n        /* \"#utility.yul\":17305:17311   */\n      0x0140\n        /* \"#utility.yul\":17300:17303   */\n      dup4\n        /* \"#utility.yul\":17296:17312   */\n      add\n        /* \"#utility.yul\":17395:17399   */\n      0x00\n        /* \"#utility.yul\":17388:17393   */\n      dup4\n        /* \"#utility.yul\":17384:17400   */\n      add\n        /* \"#utility.yul\":17378:17401   */\n      mload\n        /* \"#utility.yul\":17414:17477   */\n      tag_603\n        /* \"#utility.yul\":17471:17475   */\n      0x00\n        /* \"#utility.yul\":17466:17469   */\n      dup7\n        /* \"#utility.yul\":17462:17476   */\n      add\n        /* \"#utility.yul\":17448:17460   */\n      dup3\n        /* \"#utility.yul\":17414:17477   */\n      tag_314\n      jump\t// in\n    tag_603:\n        /* \"#utility.yul\":17322:17487   */\n      pop\n        /* \"#utility.yul\":17570:17574   */\n      0x20\n        /* \"#utility.yul\":17563:17568   */\n      dup4\n        /* \"#utility.yul\":17559:17575   */\n      add\n        /* \"#utility.yul\":17553:17576   */\n      mload\n        /* \"#utility.yul\":17623:17626   */\n      dup5\n        /* \"#utility.yul\":17617:17621   */\n      dup3\n        /* \"#utility.yul\":17613:17627   */\n      sub\n        /* \"#utility.yul\":17606:17610   */\n      0x20\n        /* \"#utility.yul\":17601:17604   */\n      dup7\n        /* \"#utility.yul\":17597:17611   */\n      add\n        /* \"#utility.yul\":17590:17628   */\n      mstore\n        /* \"#utility.yul\":17649:17722   */\n      tag_604\n        /* \"#utility.yul\":17717:17721   */\n      dup3\n        /* \"#utility.yul\":17703:17715   */\n      dup3\n        /* \"#utility.yul\":17649:17722   */\n      tag_348\n      jump\t// in\n    tag_604:\n        /* \"#utility.yul\":17641:17722   */\n      swap2\n      pop\n        /* \"#utility.yul\":17497:17733   */\n      pop\n        /* \"#utility.yul\":17822:17826   */\n      0x40\n        /* \"#utility.yul\":17815:17820   */\n      dup4\n        /* \"#utility.yul\":17811:17827   */\n      add\n        /* \"#utility.yul\":17805:17828   */\n      mload\n        /* \"#utility.yul\":17875:17878   */\n      dup5\n        /* \"#utility.yul\":17869:17873   */\n      dup3\n        /* \"#utility.yul\":17865:17879   */\n      sub\n        /* \"#utility.yul\":17858:17862   */\n      0x40\n        /* \"#utility.yul\":17853:17856   */\n      dup7\n        /* \"#utility.yul\":17849:17863   */\n      add\n        /* \"#utility.yul\":17842:17880   */\n      mstore\n        /* \"#utility.yul\":17901:17974   */\n      tag_605\n        /* \"#utility.yul\":17969:17973   */\n      dup3\n        /* \"#utility.yul\":17955:17967   */\n      dup3\n        /* \"#utility.yul\":17901:17974   */\n      tag_348\n      jump\t// in\n    tag_605:\n        /* \"#utility.yul\":17893:17974   */\n      swap2\n      pop\n        /* \"#utility.yul\":17743:17985   */\n      pop\n        /* \"#utility.yul\":18069:18073   */\n      0x60\n        /* \"#utility.yul\":18062:18067   */\n      dup4\n        /* \"#utility.yul\":18058:18074   */\n      add\n        /* \"#utility.yul\":18052:18075   */\n      mload\n        /* \"#utility.yul\":18088:18151   */\n      tag_606\n        /* \"#utility.yul\":18145:18149   */\n      0x60\n        /* \"#utility.yul\":18140:18143   */\n      dup7\n        /* \"#utility.yul\":18136:18150   */\n      add\n        /* \"#utility.yul\":18122:18134   */\n      dup3\n        /* \"#utility.yul\":18088:18151   */\n      tag_321\n      jump\t// in\n    tag_606:\n        /* \"#utility.yul\":17995:18161   */\n      pop\n        /* \"#utility.yul\":18247:18251   */\n      0x80\n        /* \"#utility.yul\":18240:18245   */\n      dup4\n        /* \"#utility.yul\":18236:18252   */\n      add\n        /* \"#utility.yul\":18230:18253   */\n      mload\n        /* \"#utility.yul\":18266:18329   */\n      tag_607\n        /* \"#utility.yul\":18323:18327   */\n      0x80\n        /* \"#utility.yul\":18318:18321   */\n      dup7\n        /* \"#utility.yul\":18314:18328   */\n      add\n        /* \"#utility.yul\":18300:18312   */\n      dup3\n        /* \"#utility.yul\":18266:18329   */\n      tag_321\n      jump\t// in\n    tag_607:\n        /* \"#utility.yul\":18171:18339   */\n      pop\n        /* \"#utility.yul\":18432:18436   */\n      0xa0\n        /* \"#utility.yul\":18425:18430   */\n      dup4\n        /* \"#utility.yul\":18421:18437   */\n      add\n        /* \"#utility.yul\":18415:18438   */\n      mload\n        /* \"#utility.yul\":18451:18514   */\n      tag_608\n        /* \"#utility.yul\":18508:18512   */\n      0xa0\n        /* \"#utility.yul\":18503:18506   */\n      dup7\n        /* \"#utility.yul\":18499:18513   */\n      add\n        /* \"#utility.yul\":18485:18497   */\n      dup3\n        /* \"#utility.yul\":18451:18514   */\n      tag_321\n      jump\t// in\n    tag_608:\n        /* \"#utility.yul\":18349:18524   */\n      pop\n        /* \"#utility.yul\":18607:18611   */\n      0xc0\n        /* \"#utility.yul\":18600:18605   */\n      dup4\n        /* \"#utility.yul\":18596:18612   */\n      add\n        /* \"#utility.yul\":18590:18613   */\n      mload\n        /* \"#utility.yul\":18660:18663   */\n      dup5\n        /* \"#utility.yul\":18654:18658   */\n      dup3\n        /* \"#utility.yul\":18650:18664   */\n      sub\n        /* \"#utility.yul\":18643:18647   */\n      0xc0\n        /* \"#utility.yul\":18638:18641   */\n      dup7\n        /* \"#utility.yul\":18634:18648   */\n      add\n        /* \"#utility.yul\":18627:18665   */\n      mstore\n        /* \"#utility.yul\":18686:18759   */\n      tag_609\n        /* \"#utility.yul\":18754:18758   */\n      dup3\n        /* \"#utility.yul\":18740:18752   */\n      dup3\n        /* \"#utility.yul\":18686:18759   */\n      tag_348\n      jump\t// in\n    tag_609:\n        /* \"#utility.yul\":18678:18759   */\n      swap2\n      pop\n        /* \"#utility.yul\":18534:18770   */\n      pop\n        /* \"#utility.yul\":18856:18860   */\n      0xe0\n        /* \"#utility.yul\":18849:18854   */\n      dup4\n        /* \"#utility.yul\":18845:18861   */\n      add\n        /* \"#utility.yul\":18839:18862   */\n      mload\n        /* \"#utility.yul\":18909:18912   */\n      dup5\n        /* \"#utility.yul\":18903:18907   */\n      dup3\n        /* \"#utility.yul\":18899:18913   */\n      sub\n        /* \"#utility.yul\":18892:18896   */\n      0xe0\n        /* \"#utility.yul\":18887:18890   */\n      dup7\n        /* \"#utility.yul\":18883:18897   */\n      add\n        /* \"#utility.yul\":18876:18914   */\n      mstore\n        /* \"#utility.yul\":18935:19038   */\n      tag_610\n        /* \"#utility.yul\":19033:19037   */\n      dup3\n        /* \"#utility.yul\":19019:19031   */\n      dup3\n        /* \"#utility.yul\":18935:19038   */\n      tag_350\n      jump\t// in\n    tag_610:\n        /* \"#utility.yul\":18927:19038   */\n      swap2\n      pop\n        /* \"#utility.yul\":18780:19049   */\n      pop\n        /* \"#utility.yul\":19136:19142   */\n      0x0100\n        /* \"#utility.yul\":19129:19134   */\n      dup4\n        /* \"#utility.yul\":19125:19143   */\n      add\n        /* \"#utility.yul\":19119:19144   */\n      mload\n        /* \"#utility.yul\":19193:19196   */\n      dup5\n        /* \"#utility.yul\":19187:19191   */\n      dup3\n        /* \"#utility.yul\":19183:19197   */\n      sub\n        /* \"#utility.yul\":19174:19180   */\n      0x0100\n        /* \"#utility.yul\":19169:19172   */\n      dup7\n        /* \"#utility.yul\":19165:19181   */\n      add\n        /* \"#utility.yul\":19158:19198   */\n      mstore\n        /* \"#utility.yul\":19219:19322   */\n      tag_611\n        /* \"#utility.yul\":19317:19321   */\n      dup3\n        /* \"#utility.yul\":19303:19315   */\n      dup3\n        /* \"#utility.yul\":19219:19322   */\n      tag_352\n      jump\t// in\n    tag_611:\n        /* \"#utility.yul\":19211:19322   */\n      swap2\n      pop\n        /* \"#utility.yul\":19059:19333   */\n      pop\n        /* \"#utility.yul\":19416:19422   */\n      0x0120\n        /* \"#utility.yul\":19409:19414   */\n      dup4\n        /* \"#utility.yul\":19405:19423   */\n      add\n        /* \"#utility.yul\":19399:19424   */\n      mload\n        /* \"#utility.yul\":19473:19476   */\n      dup5\n        /* \"#utility.yul\":19467:19471   */\n      dup3\n        /* \"#utility.yul\":19463:19477   */\n      sub\n        /* \"#utility.yul\":19454:19460   */\n      0x0120\n        /* \"#utility.yul\":19449:19452   */\n      dup7\n        /* \"#utility.yul\":19445:19461   */\n      add\n        /* \"#utility.yul\":19438:19478   */\n      mstore\n        /* \"#utility.yul\":19499:19596   */\n      tag_612\n        /* \"#utility.yul\":19591:19595   */\n      dup3\n        /* \"#utility.yul\":19577:19589   */\n      dup3\n        /* \"#utility.yul\":19499:19596   */\n      tag_359\n      jump\t// in\n    tag_612:\n        /* \"#utility.yul\":19491:19596   */\n      swap2\n      pop\n        /* \"#utility.yul\":19343:19607   */\n      pop\n        /* \"#utility.yul\":19624:19628   */\n      dup1\n        /* \"#utility.yul\":19617:19628   */\n      swap2\n      pop\n        /* \"#utility.yul\":17274:19634   */\n      pop\n        /* \"#utility.yul\":17162:19634   */\n      swap3\n      swap2\n      pop\n      pop\n      jump\t// out\n        /* \"#utility.yul\":19640:19892   */\n    tag_361:\n        /* \"#utility.yul\":19757:19767   */\n      0x00\n        /* \"#utility.yul\":19792:19886   */\n      tag_614\n        /* \"#utility.yul\":19882:19885   */\n      dup4\n        /* \"#utility.yul\":19874:19880   */\n      dup4\n        /* \"#utility.yul\":19792:19886   */\n      tag_360\n      jump\t// in\n    tag_614:\n        /* \"#utility.yul\":19778:19886   */\n      swap1\n      pop\n        /* \"#utility.yul\":19640:19892   */\n      swap3\n      swap2\n      pop\n      pop\n      jump\t// out\n        /* \"#utility.yul\":19898:20035   */\n    tag_362:\n        /* \"#utility.yul\":19992:19996   */\n      0x00\n        /* \"#utility.yul\":20024:20028   */\n      0x20\n        /* \"#utility.yul\":20019:20022   */\n      dup3\n        /* \"#utility.yul\":20015:20029   */\n      add\n        /* \"#utility.yul\":20007:20029   */\n      swap1\n      pop\n        /* \"#utility.yul\":19898:20035   */\n      swap2\n      swap1\n      pop\n      jump\t// out\n        /* \"#utility.yul\":20113:21216   */\n    tag_363:\n        /* \"#utility.yul\":20280:20283   */\n      0x00\n        /* \"#utility.yul\":20309:20387   */\n      tag_617\n        /* \"#utility.yul\":20381:20386   */\n      dup3\n        /* \"#utility.yul\":20309:20387   */\n      tag_344\n      jump\t// in\n    tag_617:\n        /* \"#utility.yul\":20403:20513   */\n      tag_618\n        /* \"#utility.yul\":20506:20512   */\n      dup2\n        /* \"#utility.yul\":20501:20504   */\n      dup6\n        /* \"#utility.yul\":20403:20513   */\n      tag_345\n      jump\t// in\n    tag_618:\n        /* \"#utility.yul\":20396:20513   */\n      swap4\n      pop\n        /* \"#utility.yul\":20539:20542   */\n      dup4\n        /* \"#utility.yul\":20584:20588   */\n      0x20\n        /* \"#utility.yul\":20576:20582   */\n      dup3\n        /* \"#utility.yul\":20572:20589   */\n      mul\n        /* \"#utility.yul\":20567:20570   */\n      dup6\n        /* \"#utility.yul\":20563:20590   */\n      add\n        /* \"#utility.yul\":20614:20694   */\n      tag_619\n        /* \"#utility.yul\":20688:20693   */\n      dup6\n        /* \"#utility.yul\":20614:20694   */\n      tag_346\n      jump\t// in\n    tag_619:\n        /* \"#utility.yul\":20717:20724   */\n      dup1\n        /* \"#utility.yul\":20748:20749   */\n      0x00\n        /* \"#utility.yul\":20733:21171   */\n    tag_620:\n        /* \"#utility.yul\":20758:20764   */\n      dup6\n        /* \"#utility.yul\":20755:20756   */\n      dup2\n        /* \"#utility.yul\":20752:20765   */\n      lt\n        /* \"#utility.yul\":20733:21171   */\n      iszero\n      tag_622\n      jumpi\n        /* \"#utility.yul\":20829:20838   */\n      dup5\n        /* \"#utility.yul\":20823:20827   */\n      dup5\n        /* \"#utility.yul\":20819:20839   */\n      sub\n        /* \"#utility.yul\":20814:20817   */\n      dup10\n        /* \"#utility.yul\":20807:20840   */\n      mstore\n        /* \"#utility.yul\":20880:20886   */\n      dup2\n        /* \"#utility.yul\":20874:20887   */\n      mload\n        /* \"#utility.yul\":20908:21020   */\n      tag_623\n        /* \"#utility.yul\":21015:21019   */\n      dup6\n        /* \"#utility.yul\":21000:21013   */\n      dup3\n        /* \"#utility.yul\":20908:21020   */\n      tag_361\n      jump\t// in\n    tag_623:\n        /* \"#utility.yul\":20900:21020   */\n      swap5\n      pop\n        /* \"#utility.yul\":21043:21127   */\n      tag_624\n        /* \"#utility.yul\":21120:21126   */\n      dup4\n        /* \"#utility.yul\":21043:21127   */\n      tag_362\n      jump\t// in\n    tag_624:\n        /* \"#utility.yul\":21033:21127   */\n      swap3\n      pop\n        /* \"#utility.yul\":21156:21160   */\n      0x20\n        /* \"#utility.yul\":21151:21154   */\n      dup11\n        /* \"#utility.yul\":21147:21161   */\n      add\n        /* \"#utility.yul\":21140:21161   */\n      swap10\n      pop\n        /* \"#utility.yul\":20793:21171   */\n      pop\n        /* \"#utility.yul\":20780:20781   */\n      0x01\n        /* \"#utility.yul\":20777:20778   */\n      dup2\n        /* \"#utility.yul\":20773:20782   */\n      add\n        /* \"#utility.yul\":20768:20782   */\n      swap1\n      pop\n        /* \"#utility.yul\":20733:21171   */\n      jump(tag_620)\n    tag_622:\n        /* \"#utility.yul\":20737:20751   */\n      pop\n        /* \"#utility.yul\":21187:21191   */\n      dup3\n        /* \"#utility.yul\":21180:21191   */\n      swap8\n      pop\n        /* \"#utility.yul\":21207:21210   */\n      dup8\n        /* \"#utility.yul\":21200:21210   */\n      swap6\n      pop\n        /* \"#utility.yul\":20285:21216   */\n      pop\n      pop\n      pop\n      pop\n      pop\n        /* \"#utility.yul\":20113:21216   */\n      swap3\n      swap2\n      pop\n      pop\n      jump\t// out\n        /* \"#utility.yul\":21222:21691   */\n    tag_51:\n        /* \"#utility.yul\":21413:21417   */\n      0x00\n        /* \"#utility.yul\":21451:21453   */\n      0x20\n        /* \"#utility.yul\":21440:21449   */\n      dup3\n        /* \"#utility.yul\":21436:21454   */\n      add\n        /* \"#utility.yul\":21428:21454   */\n      swap1\n      pop\n        /* \"#utility.yul\":21500:21509   */\n      dup2\n        /* \"#utility.yul\":21494:21498   */\n      dup2\n        /* \"#utility.yul\":21490:21510   */\n      sub\n        /* \"#utility.yul\":21486:21487   */\n      0x00\n        /* \"#utility.yul\":21475:21484   */\n      dup4\n        /* \"#utility.yul\":21471:21488   */\n      add\n        /* \"#utility.yul\":21464:21511   */\n      mstore\n        /* \"#utility.yul\":21528:21684   */\n      tag_626\n        /* \"#utility.yul\":21679:21683   */\n      dup2\n        /* \"#utility.yul\":21670:21676   */\n      dup5\n        /* \"#utility.yul\":21528:21684   */\n      tag_363\n      jump\t// in\n    tag_626:\n        /* \"#utility.yul\":21520:21684   */\n      swap1\n      pop\n        /* \"#utility.yul\":21222:21691   */\n      swap3\n      swap2\n      pop\n      pop\n      jump\t// out\n        /* \"#utility.yul\":21697:21877   */\n    tag_364:\n        /* \"#utility.yul\":21745:21822   */\n      0x4e487b7100000000000000000000000000000000000000000000000000000000\n        /* \"#utility.yul\":21742:21743   */\n      0x00\n        /* \"#utility.yul\":21735:21823   */\n      mstore\n        /* \"#utility.yul\":21842:21846   */\n      0x22\n        /* \"#utility.yul\":21839:21840   */\n      0x04\n        /* \"#utility.yul\":21832:21847   */\n      mstore\n        /* \"#utility.yul\":21866:21870   */\n      0x24\n        /* \"#utility.yul\":21863:21864   */\n      0x00\n        /* \"#utility.yul\":21856:21871   */\n      revert\n        /* \"#utility.yul\":21883:22203   */\n    tag_58:\n        /* \"#utility.yul\":21927:21933   */\n      0x00\n        /* \"#utility.yul\":21964:21965   */\n      0x02\n        /* \"#utility.yul\":21958:21962   */\n      dup3\n        /* \"#utility.yul\":21954:21966   */\n      div\n        /* \"#utility.yul\":21944:21966   */\n      swap1\n      pop\n        /* \"#utility.yul\":22011:22012   */\n      0x01\n        /* \"#utility.yul\":22005:22009   */\n      dup3\n        /* \"#utility.yul\":22001:22013   */\n      and\n        /* \"#utility.yul\":22032:22050   */\n      dup1\n        /* \"#utility.yul\":22022:22103   */\n      tag_629\n      jumpi\n        /* \"#utility.yul\":22088:22092   */\n      0x7f\n        /* \"#utility.yul\":22080:22086   */\n      dup3\n        /* \"#utility.yul\":22076:22093   */\n      and\n        /* \"#utility.yul\":22066:22093   */\n      swap2\n      pop\n        /* \"#utility.yul\":22022:22103   */\n    tag_629:\n        /* \"#utility.yul\":22150:22152   */\n      0x20\n        /* \"#utility.yul\":22142:22148   */\n      dup3\n        /* \"#utility.yul\":22139:22153   */\n      lt\n        /* \"#utility.yul\":22119:22137   */\n      dup2\n        /* \"#utility.yul\":22116:22154   */\n      sub\n        /* \"#utility.yul\":22113:22197   */\n      tag_630\n      jumpi\n        /* \"#utility.yul\":22169:22187   */\n      tag_631\n      tag_364\n      jump\t// in\n    tag_631:\n        /* \"#utility.yul\":22113:22197   */\n    tag_630:\n        /* \"#utility.yul\":21934:22203   */\n      pop\n        /* \"#utility.yul\":21883:22203   */\n      swap2\n      swap1\n      pop\n      jump\t// out\n        /* \"#utility.yul\":22209:22389   */\n    tag_365:\n        /* \"#utility.yul\":22349:22381   */\n      0x4f6e6c79206f776e65722063616e2077697468647261772066756e64732e0000\n        /* \"#utility.yul\":22345:22346   */\n      0x00\n        /* \"#utility.yul\":22337:22343   */\n      dup3\n        /* \"#utility.yul\":22333:22347   */\n      add\n        /* \"#utility.yul\":22326:22382   */\n      mstore\n        /* \"#utility.yul\":22209:22389   */\n      pop\n      jump\t// out\n        /* \"#utility.yul\":22395:22761   */\n    tag_366:\n        /* \"#utility.yul\":22537:22540   */\n      0x00\n        /* \"#utility.yul\":22558:22625   */\n      tag_634\n        /* \"#utility.yul\":22622:22624   */\n      0x1e\n        /* \"#utility.yul\":22617:22620   */\n      dup4\n        /* \"#utility.yul\":22558:22625   */\n      tag_327\n      jump\t// in\n    tag_634:\n        /* \"#utility.yul\":22551:22625   */\n      swap2\n      pop\n        /* \"#utility.yul\":22634:22727   */\n      tag_635\n        /* \"#utility.yul\":22723:22726   */\n      dup3\n        /* \"#utility.yul\":22634:22727   */\n      tag_365\n      jump\t// in\n    tag_635:\n        /* \"#utility.yul\":22752:22754   */\n      0x20\n        /* \"#utility.yul\":22747:22750   */\n      dup3\n        /* \"#utility.yul\":22743:22755   */\n      add\n        /* \"#utility.yul\":22736:22755   */\n      swap1\n      pop\n        /* \"#utility.yul\":22395:22761   */\n      swap2\n      swap1\n      pop\n      jump\t// out\n        /* \"#utility.yul\":22767:23186   */\n    tag_76:\n        /* \"#utility.yul\":22933:22937   */\n      0x00\n        /* \"#utility.yul\":22971:22973   */\n      0x20\n        /* \"#utility.yul\":22960:22969   */\n      dup3\n        /* \"#utility.yul\":22956:22974   */\n      add\n        /* \"#utility.yul\":22948:22974   */\n      swap1\n      pop\n        /* \"#utility.yul\":23020:23029   */\n      dup2\n        /* \"#utility.yul\":23014:23018   */\n      dup2\n        /* \"#utility.yul\":23010:23030   */\n      sub\n        /* \"#utility.yul\":23006:23007   */\n      0x00\n        /* \"#utility.yul\":22995:23004   */\n      dup4\n        /* \"#utility.yul\":22991:23008   */\n      add\n        /* \"#utility.yul\":22984:23031   */\n      mstore\n        /* \"#utility.yul\":23048:23179   */\n      tag_637\n        /* \"#utility.yul\":23174:23178   */\n      dup2\n        /* \"#utility.yul\":23048:23179   */\n      tag_366\n      jump\t// in\n    tag_637:\n        /* \"#utility.yul\":23040:23179   */\n      swap1\n      pop\n        /* \"#utility.yul\":22767:23186   */\n      swap2\n      swap1\n      pop\n      jump\t// out\n        /* \"#utility.yul\":23192:23414   */\n    tag_367:\n        /* \"#utility.yul\":23332:23366   */\n      0x43616d706169676e20776173207375636365737366756c6c7920636f6d706c65\n        /* \"#utility.yul\":23328:23329   */\n      0x00\n        /* \"#utility.yul\":23320:23326   */\n      dup3\n        /* \"#utility.yul\":23316:23330   */\n      add\n        /* \"#utility.yul\":23309:23367   */\n      mstore\n        /* \"#utility.yul\":23401:23406   */\n      0x7465640000000000000000000000000000000000000000000000000000000000\n        /* \"#utility.yul\":23396:23398   */\n      0x20\n        /* \"#utility.yul\":23388:23394   */\n      dup3\n        /* \"#utility.yul\":23384:23399   */\n      add\n        /* \"#utility.yul\":23377:23407   */\n      mstore\n        /* \"#utility.yul\":23192:23414   */\n      pop\n      jump\t// out\n        /* \"#utility.yul\":23420:23786   */\n    tag_368:\n        /* \"#utility.yul\":23562:23565   */\n      0x00\n        /* \"#utility.yul\":23583:23650   */\n      tag_640\n        /* \"#utility.yul\":23647:23649   */\n      0x23\n        /* \"#utility.yul\":23642:23645   */\n      dup4\n        /* \"#utility.yul\":23583:23650   */\n      tag_327\n      jump\t// in\n    tag_640:\n        /* \"#utility.yul\":23576:23650   */\n      swap2\n      pop\n        /* \"#utility.yul\":23659:23752   */\n      tag_641\n        /* \"#utility.yul\":23748:23751   */\n      dup3\n        /* \"#utility.yul\":23659:23752   */\n      tag_367\n      jump\t// in\n    tag_641:\n        /* \"#utility.yul\":23777:23779   */\n      0x40\n        /* \"#utility.yul\":23772:23775   */\n      dup3\n        /* \"#utility.yul\":23768:23780   */\n      add\n        /* \"#utility.yul\":23761:23780   */\n      swap1\n      pop\n        /* \"#utility.yul\":23420:23786   */\n      swap2\n      swap1\n      pop\n      jump\t// out\n        /* \"#utility.yul\":23792:24211   */\n    tag_80:\n        /* \"#utility.yul\":23958:23962   */\n      0x00\n        /* \"#utility.yul\":23996:23998   */\n      0x20\n        /* \"#utility.yul\":23985:23994   */\n      dup3\n        /* \"#utility.yul\":23981:23999   */\n      add\n        /* \"#utility.yul\":23973:23999   */\n      swap1\n      pop\n        /* \"#utility.yul\":24045:24054   */\n      dup2\n        /* \"#utility.yul\":24039:24043   */\n      dup2\n        /* \"#utility.yul\":24035:24055   */\n      sub\n        /* \"#utility.yul\":24031:24032   */\n      0x00\n        /* \"#utility.yul\":24020:24029   */\n      dup4\n        /* \"#utility.yul\":24016:24033   */\n      add\n        /* \"#utility.yul\":24009:24056   */\n      mstore\n        /* \"#utility.yul\":24073:24204   */\n      tag_643\n        /* \"#utility.yul\":24199:24203   */\n      dup2\n        /* \"#utility.yul\":24073:24204   */\n      tag_368\n      jump\t// in\n    tag_643:\n        /* \"#utility.yul\":24065:24204   */\n      swap1\n      pop\n        /* \"#utility.yul\":23792:24211   */\n      swap2\n      swap1\n      pop\n      jump\t// out\n        /* \"#utility.yul\":24217:24383   */\n    tag_369:\n        /* \"#utility.yul\":24357:24375   */\n      0x446561646c696e65206e6f74206d657400000000000000000000000000000000\n        /* \"#utility.yul\":24353:24354   */\n      0x00\n        /* \"#utility.yul\":24345:24351   */\n      dup3\n        /* \"#utility.yul\":24341:24355   */\n      add\n        /* \"#utility.yul\":24334:24376   */\n      mstore\n        /* \"#utility.yul\":24217:24383   */\n      pop\n      jump\t// out\n        /* \"#utility.yul\":24389:24755   */\n    tag_370:\n        /* \"#utility.yul\":24531:24534   */\n      0x00\n        /* \"#utility.yul\":24552:24619   */\n      tag_646\n        /* \"#utility.yul\":24616:24618   */\n      0x10\n        /* \"#utility.yul\":24611:24614   */\n      dup4\n        /* \"#utility.yul\":24552:24619   */\n      tag_327\n      jump\t// in\n    tag_646:\n        /* \"#utility.yul\":24545:24619   */\n      swap2\n      pop\n        /* \"#utility.yul\":24628:24721   */\n      tag_647\n        /* \"#utility.yul\":24717:24720   */\n      dup3\n        /* \"#utility.yul\":24628:24721   */\n      tag_369\n      jump\t// in\n    tag_647:\n        /* \"#utility.yul\":24746:24748   */\n      0x20\n        /* \"#utility.yul\":24741:24744   */\n      dup3\n        /* \"#utility.yul\":24737:24749   */\n      add\n        /* \"#utility.yul\":24730:24749   */\n      swap1\n      pop\n        /* \"#utility.yul\":24389:24755   */\n      swap2\n      swap1\n      pop\n      jump\t// out\n        /* \"#utility.yul\":24761:25180   */\n    tag_83:\n        /* \"#utility.yul\":24927:24931   */\n      0x00\n        /* \"#utility.yul\":24965:24967   */\n      0x20\n        /* \"#utility.yul\":24954:24963   */\n      dup3\n        /* \"#utility.yul\":24950:24968   */\n      add\n        /* \"#utility.yul\":24942:24968   */\n      swap1\n      pop\n        /* \"#utility.yul\":25014:25023   */\n      dup2\n        /* \"#utility.yul\":25008:25012   */\n      dup2\n        /* \"#utility.yul\":25004:25024   */\n      sub\n        /* \"#utility.yul\":25000:25001   */\n      0x00\n        /* \"#utility.yul\":24989:24998   */\n      dup4\n        /* \"#utility.yul\":24985:25002   */\n      add\n        /* \"#utility.yul\":24978:25025   */\n      mstore\n        /* \"#utility.yul\":25042:25173   */\n      tag_649\n        /* \"#utility.yul\":25168:25172   */\n      dup2\n        /* \"#utility.yul\":25042:25173   */\n      tag_370\n      jump\t// in\n    tag_649:\n        /* \"#utility.yul\":25034:25173   */\n      swap1\n      pop\n        /* \"#utility.yul\":24761:25180   */\n      swap2\n      swap1\n      pop\n      jump\t// out\n        /* \"#utility.yul\":25186:25356   */\n    tag_371:\n        /* \"#utility.yul\":25326:25348   */\n      0x4e6f2066756e647320746f207769746864726177000000000000000000000000\n        /* \"#utility.yul\":25322:25323   */\n      0x00\n        /* \"#utility.yul\":25314:25320   */\n      dup3\n        /* \"#utility.yul\":25310:25324   */\n      add\n        /* \"#utility.yul\":25303:25349   */\n      mstore\n        /* \"#utility.yul\":25186:25356   */\n      pop\n      jump\t// out\n        /* \"#utility.yul\":25362:25728   */\n    tag_372:\n        /* \"#utility.yul\":25504:25507   */\n      0x00\n        /* \"#utility.yul\":25525:25592   */\n      tag_652\n        /* \"#utility.yul\":25589:25591   */\n      0x14\n        /* \"#utility.yul\":25584:25587   */\n      dup4\n        /* \"#utility.yul\":25525:25592   */\n      tag_327\n      jump\t// in\n    tag_652:\n        /* \"#utility.yul\":25518:25592   */\n      swap2\n      pop\n        /* \"#utility.yul\":25601:25694   */\n      tag_653\n        /* \"#utility.yul\":25690:25693   */\n      dup3\n        /* \"#utility.yul\":25601:25694   */\n      tag_371\n      jump\t// in\n    tag_653:\n        /* \"#utility.yul\":25719:25721   */\n      0x20\n        /* \"#utility.yul\":25714:25717   */\n      dup3\n        /* \"#utility.yul\":25710:25722   */\n      add\n        /* \"#utility.yul\":25703:25722   */\n      swap1\n      pop\n        /* \"#utility.yul\":25362:25728   */\n      swap2\n      swap1\n      pop\n      jump\t// out\n        /* \"#utility.yul\":25734:26153   */\n    tag_86:\n        /* \"#utility.yul\":25900:25904   */\n      0x00\n        /* \"#utility.yul\":25938:25940   */\n      0x20\n        /* \"#utility.yul\":25927:25936   */\n      dup3\n        /* \"#utility.yul\":25923:25941   */\n      add\n        /* \"#utility.yul\":25915:25941   */\n      swap1\n      pop\n        /* \"#utility.yul\":25987:25996   */\n      dup2\n        /* \"#utility.yul\":25981:25985   */\n      dup2\n        /* \"#utility.yul\":25977:25997   */\n      sub\n        /* \"#utility.yul\":25973:25974   */\n      0x00\n        /* \"#utility.yul\":25962:25971   */\n      dup4\n        /* \"#utility.yul\":25958:25975   */\n      add\n        /* \"#utility.yul\":25951:25998   */\n      mstore\n        /* \"#utility.yul\":26015:26146   */\n      tag_655\n        /* \"#utility.yul\":26141:26145   */\n      dup2\n        /* \"#utility.yul\":26015:26146   */\n      tag_372\n      jump\t// in\n    tag_655:\n        /* \"#utility.yul\":26007:26146   */\n      swap1\n      pop\n        /* \"#utility.yul\":25734:26153   */\n      swap2\n      swap1\n      pop\n      jump\t// out\n        /* \"#utility.yul\":26159:26339   */\n    tag_373:\n        /* \"#utility.yul\":26207:26284   */\n      0x4e487b7100000000000000000000000000000000000000000000000000000000\n        /* \"#utility.yul\":26204:26205   */\n      0x00\n        /* \"#utility.yul\":26197:26285   */\n      mstore\n        /* \"#utility.yul\":26304:26308   */\n      0x11\n        /* \"#utility.yul\":26301:26302   */\n      0x04\n        /* \"#utility.yul\":26294:26309   */\n      mstore\n        /* \"#utility.yul\":26328:26332   */\n      0x24\n        /* \"#utility.yul\":26325:26326   */\n      0x00\n        /* \"#utility.yul\":26318:26333   */\n      revert\n        /* \"#utility.yul\":26345:26755   */\n    tag_89:\n        /* \"#utility.yul\":26385:26392   */\n      0x00\n        /* \"#utility.yul\":26408:26428   */\n      tag_658\n        /* \"#utility.yul\":26426:26427   */\n      dup3\n        /* \"#utility.yul\":26408:26428   */\n      tag_302\n      jump\t// in\n    tag_658:\n        /* \"#utility.yul\":26403:26428   */\n      swap2\n      pop\n        /* \"#utility.yul\":26442:26462   */\n      tag_659\n        /* \"#utility.yul\":26460:26461   */\n      dup4\n        /* \"#utility.yul\":26442:26462   */\n      tag_302\n      jump\t// in\n    tag_659:\n        /* \"#utility.yul\":26437:26462   */\n      swap3\n      pop\n        /* \"#utility.yul\":26497:26498   */\n      dup3\n        /* \"#utility.yul\":26494:26495   */\n      dup3\n        /* \"#utility.yul\":26490:26499   */\n      mul\n        /* \"#utility.yul\":26519:26549   */\n      tag_660\n        /* \"#utility.yul\":26537:26548   */\n      dup2\n        /* \"#utility.yul\":26519:26549   */\n      tag_302\n      jump\t// in\n    tag_660:\n        /* \"#utility.yul\":26508:26549   */\n      swap2\n      pop\n        /* \"#utility.yul\":26698:26699   */\n      dup3\n        /* \"#utility.yul\":26689:26696   */\n      dup3\n        /* \"#utility.yul\":26685:26700   */\n      div\n        /* \"#utility.yul\":26682:26683   */\n      dup5\n        /* \"#utility.yul\":26679:26701   */\n      eq\n        /* \"#utility.yul\":26659:26660   */\n      dup4\n        /* \"#utility.yul\":26652:26661   */\n      iszero\n        /* \"#utility.yul\":26632:26715   */\n      or\n        /* \"#utility.yul\":26609:26748   */\n      tag_661\n      jumpi\n        /* \"#utility.yul\":26728:26746   */\n      tag_662\n      tag_373\n      jump\t// in\n    tag_662:\n        /* \"#utility.yul\":26609:26748   */\n    tag_661:\n        /* \"#utility.yul\":26393:26755   */\n      pop\n        /* \"#utility.yul\":26345:26755   */\n      swap3\n      swap2\n      pop\n      pop\n      jump\t// out\n        /* \"#utility.yul\":26761:26941   */\n    tag_374:\n        /* \"#utility.yul\":26809:26886   */\n      0x4e487b7100000000000000000000000000000000000000000000000000000000\n        /* \"#utility.yul\":26806:26807   */\n      0x00\n        /* \"#utility.yul\":26799:26887   */\n      mstore\n        /* \"#utility.yul\":26906:26910   */\n      0x12\n        /* \"#utility.yul\":26903:26904   */\n      0x04\n        /* \"#utility.yul\":26896:26911   */\n      mstore\n        /* \"#utility.yul\":26930:26934   */\n      0x24\n        /* \"#utility.yul\":26927:26928   */\n      0x00\n        /* \"#utility.yul\":26920:26935   */\n      revert\n        /* \"#utility.yul\":26947:27132   */\n    tag_91:\n        /* \"#utility.yul\":26987:26988   */\n      0x00\n        /* \"#utility.yul\":27004:27024   */\n      tag_665\n        /* \"#utility.yul\":27022:27023   */\n      dup3\n        /* \"#utility.yul\":27004:27024   */\n      tag_302\n      jump\t// in\n    tag_665:\n        /* \"#utility.yul\":26999:27024   */\n      swap2\n      pop\n        /* \"#utility.yul\":27038:27058   */\n      tag_666\n        /* \"#utility.yul\":27056:27057   */\n      dup4\n        /* \"#utility.yul\":27038:27058   */\n      tag_302\n      jump\t// in\n    tag_666:\n        /* \"#utility.yul\":27033:27058   */\n      swap3\n      pop\n        /* \"#utility.yul\":27077:27078   */\n      dup3\n        /* \"#utility.yul\":27067:27102   */\n      tag_667\n      jumpi\n        /* \"#utility.yul\":27082:27100   */\n      tag_668\n      tag_374\n      jump\t// in\n    tag_668:\n        /* \"#utility.yul\":27067:27102   */\n    tag_667:\n        /* \"#utility.yul\":27124:27125   */\n      dup3\n        /* \"#utility.yul\":27121:27122   */\n      dup3\n        /* \"#utility.yul\":27117:27126   */\n      div\n        /* \"#utility.yul\":27112:27126   */\n      swap1\n      pop\n        /* \"#utility.yul\":26947:27132   */\n      swap3\n      swap2\n      pop\n      pop\n      jump\t// out\n        /* \"#utility.yul\":27138:27318   */\n    tag_97:\n        /* \"#utility.yul\":27186:27263   */\n      0x4e487b7100000000000000000000000000000000000000000000000000000000\n        /* \"#utility.yul\":27183:27184   */\n      0x00\n        /* \"#utility.yul\":27176:27264   */\n      mstore\n        /* \"#utility.yul\":27283:27287   */\n      0x32\n        /* \"#utility.yul\":27280:27281   */\n      0x04\n        /* \"#utility.yul\":27273:27288   */\n      mstore\n        /* \"#utility.yul\":27307:27311   */\n      0x24\n        /* \"#utility.yul\":27304:27305   */\n      0x00\n        /* \"#utility.yul\":27297:27312   */\n      revert\n        /* \"#utility.yul\":27324:27557   */\n    tag_101:\n        /* \"#utility.yul\":27363:27366   */\n      0x00\n        /* \"#utility.yul\":27386:27410   */\n      tag_671\n        /* \"#utility.yul\":27404:27409   */\n      dup3\n        /* \"#utility.yul\":27386:27410   */\n      tag_302\n      jump\t// in\n    tag_671:\n        /* \"#utility.yul\":27377:27410   */\n      swap2\n      pop\n        /* \"#utility.yul\":27432:27498   */\n      0xffffffffffffffffffffffffffffffffffffffffffffffffffffffffffffffff\n        /* \"#utility.yul\":27425:27430   */\n      dup3\n        /* \"#utility.yul\":27422:27499   */\n      sub\n        /* \"#utility.yul\":27419:27522   */\n      tag_672\n      jumpi\n        /* \"#utility.yul\":27502:27520   */\n      tag_673\n      tag_373\n      jump\t// in\n    tag_673:\n        /* \"#utility.yul\":27419:27522   */\n    tag_672:\n        /* \"#utility.yul\":27549:27550   */\n      0x01\n        /* \"#utility.yul\":27542:27547   */\n      dup3\n        /* \"#utility.yul\":27538:27551   */\n      add\n        /* \"#utility.yul\":27531:27551   */\n      swap1\n      pop\n        /* \"#utility.yul\":27324:27557   */\n      swap2\n      swap1\n      pop\n      jump\t// out\n        /* \"#utility.yul\":27563:27733   */\n    tag_375:\n        /* \"#utility.yul\":27703:27725   */\n      0x496e73756666696369656e7420737570706f7274000000000000000000000000\n        /* \"#utility.yul\":27699:27700   */\n      0x00\n        /* \"#utility.yul\":27691:27697   */\n      dup3\n        /* \"#utility.yul\":27687:27701   */\n      add\n        /* \"#utility.yul\":27680:27726   */\n      mstore\n        /* \"#utility.yul\":27563:27733   */\n      pop\n      jump\t// out\n        /* \"#utility.yul\":27739:28105   */\n    tag_376:\n        /* \"#utility.yul\":27881:27884   */\n      0x00\n        /* \"#utility.yul\":27902:27969   */\n      tag_676\n        /* \"#utility.yul\":27966:27968   */\n      0x14\n        /* \"#utility.yul\":27961:27964   */\n      dup4\n        /* \"#utility.yul\":27902:27969   */\n      tag_327\n      jump\t// in\n    tag_676:\n        /* \"#utility.yul\":27895:27969   */\n      swap2\n      pop\n        /* \"#utility.yul\":27978:28071   */\n      tag_677\n        /* \"#utility.yul\":28067:28070   */\n      dup3\n        /* \"#utility.yul\":27978:28071   */\n      tag_375\n      jump\t// in\n    tag_677:\n        /* \"#utility.yul\":28096:28098   */\n      0x20\n        /* \"#utility.yul\":28091:28094   */\n      dup3\n        /* \"#utility.yul\":28087:28099   */\n      add\n        /* \"#utility.yul\":28080:28099   */\n      swap1\n      pop\n        /* \"#utility.yul\":27739:28105   */\n      swap2\n      swap1\n      pop\n      jump\t// out\n        /* \"#utility.yul\":28111:28530   */\n    tag_105:\n        /* \"#utility.yul\":28277:28281   */\n      0x00\n        /* \"#utility.yul\":28315:28317   */\n      0x20\n        /* \"#utility.yul\":28304:28313   */\n      dup3\n        /* \"#utility.yul\":28300:28318   */\n      add\n        /* \"#utility.yul\":28292:28318   */\n      swap1\n      pop\n        /* \"#utility.yul\":28364:28373   */\n      dup2\n        /* \"#utility.yul\":28358:28362   */\n      dup2\n        /* \"#utility.yul\":28354:28374   */\n      sub\n        /* \"#utility.yul\":28350:28351   */\n      0x00\n        /* \"#utility.yul\":28339:28348   */\n      dup4\n        /* \"#utility.yul\":28335:28352   */\n      add\n        /* \"#utility.yul\":28328:28375   */\n      mstore\n        /* \"#utility.yul\":28392:28523   */\n      tag_679\n        /* \"#utility.yul\":28518:28522   */\n      dup2\n        /* \"#utility.yul\":28392:28523   */\n      tag_376\n      jump\t// in\n    tag_679:\n        /* \"#utility.yul\":28384:28523   */\n      swap1\n      pop\n        /* \"#utility.yul\":28111:28530   */\n      swap2\n      swap1\n      pop\n      jump\t// out\n        /* \"#utility.yul\":28536:28683   */\n    tag_377:\n        /* \"#utility.yul\":28637:28648   */\n      0x00\n        /* \"#utility.yul\":28674:28677   */\n      dup2\n        /* \"#utility.yul\":28659:28677   */\n      swap1\n      pop\n        /* \"#utility.yul\":28536:28683   */\n      swap3\n      swap2\n      pop\n      pop\n      jump\t// out\n        /* \"#utility.yul\":28689:28803   */\n    tag_378:\n      pop\n      jump\t// out\n        /* \"#utility.yul\":28809:29207   */\n    tag_379:\n        /* \"#utility.yul\":28968:28971   */\n      0x00\n        /* \"#utility.yul\":28989:29072   */\n      tag_683\n        /* \"#utility.yul\":29070:29071   */\n      0x00\n        /* \"#utility.yul\":29065:29068   */\n      dup4\n        /* \"#utility.yul\":28989:29072   */\n      tag_377\n      jump\t// in\n    tag_683:\n        /* \"#utility.yul\":28982:29072   */\n      swap2\n      pop\n        /* \"#utility.yul\":29081:29174   */\n      tag_684\n        /* \"#utility.yul\":29170:29173   */\n      dup3\n        /* \"#utility.yul\":29081:29174   */\n      tag_378\n      jump\t// in\n    tag_684:\n        /* \"#utility.yul\":29199:29200   */\n      0x00\n        /* \"#utility.yul\":29194:29197   */\n      dup3\n        /* \"#utility.yul\":29190:29201   */\n      add\n        /* \"#utility.yul\":29183:29201   */\n      swap1\n      pop\n        /* \"#utility.yul\":28809:29207   */\n      swap2\n      swap1\n      pop\n      jump\t// out\n        /* \"#utility.yul\":29213:29592   */\n    tag_107:\n        /* \"#utility.yul\":29397:29400   */\n      0x00\n        /* \"#utility.yul\":29419:29566   */\n      tag_686\n        /* \"#utility.yul\":29562:29565   */\n      dup3\n        /* \"#utility.yul\":29419:29566   */\n      tag_379\n      jump\t// in\n    tag_686:\n        /* \"#utility.yul\":29412:29566   */\n      swap2\n      pop\n        /* \"#utility.yul\":29583:29586   */\n      dup2\n        /* \"#utility.yul\":29576:29586   */\n      swap1\n      pop\n        /* \"#utility.yul\":29213:29592   */\n      swap2\n      swap1\n      pop\n      jump\t// out\n        /* \"#utility.yul\":29598:29823   */\n    tag_380:\n        /* \"#utility.yul\":29738:29772   */\n      0x4661696c656420746f2073656e642066756e647320746f2063616d706169676e\n        /* \"#utility.yul\":29734:29735   */\n      0x00\n        /* \"#utility.yul\":29726:29732   */\n      dup3\n        /* \"#utility.yul\":29722:29736   */\n      add\n        /* \"#utility.yul\":29715:29773   */\n      mstore\n        /* \"#utility.yul\":29807:29815   */\n      0x206f776e65720000000000000000000000000000000000000000000000000000\n        /* \"#utility.yul\":29802:29804   */\n      0x20\n        /* \"#utility.yul\":29794:29800   */\n      dup3\n        /* \"#utility.yul\":29790:29805   */\n      add\n        /* \"#utility.yul\":29783:29816   */\n      mstore\n        /* \"#utility.yul\":29598:29823   */\n      pop\n      jump\t// out\n        /* \"#utility.yul\":29829:30195   */\n    tag_381:\n        /* \"#utility.yul\":29971:29974   */\n      0x00\n        /* \"#utility.yul\":29992:30059   */\n      tag_689\n        /* \"#utility.yul\":30056:30058   */\n      0x26\n        /* \"#utility.yul\":30051:30054   */\n      dup4\n        /* \"#utility.yul\":29992:30059   */\n      tag_327\n      jump\t// in\n    tag_689:\n        /* \"#utility.yul\":29985:30059   */\n      swap2\n      pop\n        /* \"#utility.yul\":30068:30161   */\n      tag_690\n        /* \"#utility.yul\":30157:30160   */\n      dup3\n        /* \"#utility.yul\":30068:30161   */\n      tag_380\n      jump\t// in\n    tag_690:\n        /* \"#utility.yul\":30186:30188   */\n      0x40\n        /* \"#utility.yul\":30181:30184   */\n      dup3\n        /* \"#utility.yul\":30177:30189   */\n      add\n        /* \"#utility.yul\":30170:30189   */\n      swap1\n      pop\n        /* \"#utility.yul\":29829:30195   */\n      swap2\n      swap1\n      pop\n      jump\t// out\n        /* \"#utility.yul\":30201:30620   */\n    tag_113:\n        /* \"#utility.yul\":30367:30371   */\n      0x00\n        /* \"#utility.yul\":30405:30407   */\n      0x20\n        /* \"#utility.yul\":30394:30403   */\n      dup3\n        /* \"#utility.yul\":30390:30408   */\n      add\n        /* \"#utility.yul\":30382:30408   */\n      swap1\n      pop\n        /* \"#utility.yul\":30454:30463   */\n      dup2\n        /* \"#utility.yul\":30448:30452   */\n      dup2\n        /* \"#utility.yul\":30444:30464   */\n      sub\n        /* \"#utility.yul\":30440:30441   */\n      0x00\n        /* \"#utility.yul\":30429:30438   */\n      dup4\n        /* \"#utility.yul\":30425:30442   */\n      add\n        /* \"#utility.yul\":30418:30465   */\n      mstore\n        /* \"#utility.yul\":30482:30613   */\n      tag_692\n        /* \"#utility.yul\":30608:30612   */\n      dup2\n        /* \"#utility.yul\":30482:30613   */\n      tag_381\n      jump\t// in\n    tag_692:\n        /* \"#utility.yul\":30474:30613   */\n      swap1\n      pop\n        /* \"#utility.yul\":30201:30620   */\n      swap2\n      swap1\n      pop\n      jump\t// out\n        /* \"#utility.yul\":30626:30921   */\n    tag_382:\n        /* \"#utility.yul\":30766:30800   */\n      0x5375636365737366756c6c792077697468647261776e2066756e64732066726f\n        /* \"#utility.yul\":30762:30763   */\n      0x00\n        /* \"#utility.yul\":30754:30760   */\n      dup3\n        /* \"#utility.yul\":30750:30764   */\n      add\n        /* \"#utility.yul\":30743:30801   */\n      mstore\n        /* \"#utility.yul\":30835:30869   */\n      0x6d2063616d706169676e206f776e65722c20627920646f6e61746f7273206167\n        /* \"#utility.yul\":30830:30832   */\n      0x20\n        /* \"#utility.yul\":30822:30828   */\n      dup3\n        /* \"#utility.yul\":30818:30833   */\n      add\n        /* \"#utility.yul\":30811:30870   */\n      mstore\n        /* \"#utility.yul\":30904:30913   */\n      0x7265656d656e7400000000000000000000000000000000000000000000000000\n        /* \"#utility.yul\":30899:30901   */\n      0x40\n        /* \"#utility.yul\":30891:30897   */\n      dup3\n        /* \"#utility.yul\":30887:30902   */\n      add\n        /* \"#utility.yul\":30880:30914   */\n      mstore\n        /* \"#utility.yul\":30626:30921   */\n      pop\n      jump\t// out\n        /* \"#utility.yul\":30927:31293   */\n    tag_383:\n        /* \"#utility.yul\":31069:31072   */\n      0x00\n        /* \"#utility.yul\":31090:31157   */\n      tag_695\n        /* \"#utility.yul\":31154:31156   */\n      0x47\n        /* \"#utility.yul\":31149:31152   */\n      dup4\n        /* \"#utility.yul\":31090:31157   */\n      tag_327\n      jump\t// in\n    tag_695:\n        /* \"#utility.yul\":31083:31157   */\n      swap2\n      pop\n        /* \"#utility.yul\":31166:31259   */\n      tag_696\n        /* \"#utility.yul\":31255:31258   */\n      dup3\n        /* \"#utility.yul\":31166:31259   */\n      tag_382\n      jump\t// in\n    tag_696:\n        /* \"#utility.yul\":31284:31286   */\n      0x60\n        /* \"#utility.yul\":31279:31282   */\n      dup3\n        /* \"#utility.yul\":31275:31287   */\n      add\n        /* \"#utility.yul\":31268:31287   */\n      swap1\n      pop\n        /* \"#utility.yul\":30927:31293   */\n      swap2\n      swap1\n      pop\n      jump\t// out\n        /* \"#utility.yul\":31299:31828   */\n    tag_115:\n        /* \"#utility.yul\":31493:31497   */\n      0x00\n        /* \"#utility.yul\":31531:31533   */\n      0x40\n        /* \"#utility.yul\":31520:31529   */\n      dup3\n        /* \"#utility.yul\":31516:31534   */\n      add\n        /* \"#utility.yul\":31508:31534   */\n      swap1\n      pop\n        /* \"#utility.yul\":31544:31615   */\n      tag_698\n        /* \"#utility.yul\":31612:31613   */\n      0x00\n        /* \"#utility.yul\":31601:31610   */\n      dup4\n        /* \"#utility.yul\":31597:31614   */\n      add\n        /* \"#utility.yul\":31588:31594   */\n      dup5\n        /* \"#utility.yul\":31544:31615   */\n      tag_303\n      jump\t// in\n    tag_698:\n        /* \"#utility.yul\":31662:31671   */\n      dup2\n        /* \"#utility.yul\":31656:31660   */\n      dup2\n        /* \"#utility.yul\":31652:31672   */\n      sub\n        /* \"#utility.yul\":31647:31649   */\n      0x20\n        /* \"#utility.yul\":31636:31645   */\n      dup4\n        /* \"#utility.yul\":31632:31650   */\n      add\n        /* \"#utility.yul\":31625:31673   */\n      mstore\n        /* \"#utility.yul\":31690:31821   */\n      tag_699\n        /* \"#utility.yul\":31816:31820   */\n      dup2\n        /* \"#utility.yul\":31690:31821   */\n      tag_383\n      jump\t// in\n    tag_699:\n        /* \"#utility.yul\":31682:31821   */\n      swap1\n      pop\n        /* \"#utility.yul\":31299:31828   */\n      swap3\n      swap2\n      pop\n      pop\n      jump\t// out\n        /* \"#utility.yul\":31834:32069   */\n    tag_384:\n        /* \"#utility.yul\":31974:32008   */\n      0x5375636365737366756c6c792077697468647261776e2066756e64732066726f\n        /* \"#utility.yul\":31970:31971   */\n      0x00\n        /* \"#utility.yul\":31962:31968   */\n      dup3\n        /* \"#utility.yul\":31958:31972   */\n      add\n        /* \"#utility.yul\":31951:32009   */\n      mstore\n        /* \"#utility.yul\":32043:32061   */\n      0x6d2063616d706169676e206f776e657200000000000000000000000000000000\n        /* \"#utility.yul\":32038:32040   */\n      0x20\n        /* \"#utility.yul\":32030:32036   */\n      dup3\n        /* \"#utility.yul\":32026:32041   */\n      add\n        /* \"#utility.yul\":32019:32062   */\n      mstore\n        /* \"#utility.yul\":31834:32069   */\n      pop\n      jump\t// out\n        /* \"#utility.yul\":32075:32441   */\n    tag_385:\n        /* \"#utility.yul\":32217:32220   */\n      0x00\n        /* \"#utility.yul\":32238:32305   */\n      tag_702\n        /* \"#utility.yul\":32302:32304   */\n      0x30\n        /* \"#utility.yul\":32297:32300   */\n      dup4\n        /* \"#utility.yul\":32238:32305   */\n      tag_327\n      jump\t// in\n    tag_702:\n        /* \"#utility.yul\":32231:32305   */\n      swap2\n      pop\n        /* \"#utility.yul\":32314:32407   */\n      tag_703\n        /* \"#utility.yul\":32403:32406   */\n      dup3\n        /* \"#utility.yul\":32314:32407   */\n      tag_384\n      jump\t// in\n    tag_703:\n        /* \"#utility.yul\":32432:32434   */\n      0x40\n        /* \"#utility.yul\":32427:32430   */\n      dup3\n        /* \"#utility.yul\":32423:32435   */\n      add\n        /* \"#utility.yul\":32416:32435   */\n      swap1\n      pop\n        /* \"#utility.yul\":32075:32441   */\n      swap2\n      swap1\n      pop\n      jump\t// out\n        /* \"#utility.yul\":32447:32976   */\n    tag_126:\n        /* \"#utility.yul\":32641:32645   */\n      0x00\n        /* \"#utility.yul\":32679:32681   */\n      0x40\n        /* \"#utility.yul\":32668:32677   */\n      dup3\n        /* \"#utility.yul\":32664:32682   */\n      add\n        /* \"#utility.yul\":32656:32682   */\n      swap1\n      pop\n        /* \"#utility.yul\":32692:32763   */\n      tag_705\n        /* \"#utility.yul\":32760:32761   */\n      0x00\n        /* \"#utility.yul\":32749:32758   */\n      dup4\n        /* \"#utility.yul\":32745:32762   */\n      add\n        /* \"#utility.yul\":32736:32742   */\n      dup5\n        /* \"#utility.yul\":32692:32763   */\n      tag_303\n      jump\t// in\n    tag_705:\n        /* \"#utility.yul\":32810:32819   */\n      dup2\n        /* \"#utility.yul\":32804:32808   */\n      dup2\n        /* \"#utility.yul\":32800:32820   */\n      sub\n        /* \"#utility.yul\":32795:32797   */\n      0x20\n        /* \"#utility.yul\":32784:32793   */\n      dup4\n        /* \"#utility.yul\":32780:32798   */\n      add\n        /* \"#utility.yul\":32773:32821   */\n      mstore\n        /* \"#utility.yul\":32838:32969   */\n      tag_706\n        /* \"#utility.yul\":32964:32968   */\n      dup2\n        /* \"#utility.yul\":32838:32969   */\n      tag_385\n      jump\t// in\n    tag_706:\n        /* \"#utility.yul\":32830:32969   */\n      swap1\n      pop\n        /* \"#utility.yul\":32447:32976   */\n      swap3\n      swap2\n      pop\n      pop\n      jump\t// out\n        /* \"#utility.yul\":32982:33146   */\n    tag_386:\n        /* \"#utility.yul\":33122:33138   */\n      0x5461726765742072656163686564000000000000000000000000000000000000\n        /* \"#utility.yul\":33118:33119   */\n      0x00\n        /* \"#utility.yul\":33110:33116   */\n      dup3\n        /* \"#utility.yul\":33106:33120   */\n      add\n        /* \"#utility.yul\":33099:33139   */\n      mstore\n        /* \"#utility.yul\":32982:33146   */\n      pop\n      jump\t// out\n        /* \"#utility.yul\":33152:33518   */\n    tag_387:\n        /* \"#utility.yul\":33294:33297   */\n      0x00\n        /* \"#utility.yul\":33315:33382   */\n      tag_709\n        /* \"#utility.yul\":33379:33381   */\n      0x0e\n        /* \"#utility.yul\":33374:33377   */\n      dup4\n        /* \"#utility.yul\":33315:33382   */\n      tag_327\n      jump\t// in\n    tag_709:\n        /* \"#utility.yul\":33308:33382   */\n      swap2\n      pop\n        /* \"#utility.yul\":33391:33484   */\n      tag_710\n        /* \"#utility.yul\":33480:33483   */\n      dup3\n        /* \"#utility.yul\":33391:33484   */\n      tag_386\n      jump\t// in\n    tag_710:\n        /* \"#utility.yul\":33509:33511   */\n      0x20\n        /* \"#utility.yul\":33504:33507   */\n      dup3\n        /* \"#utility.yul\":33500:33512   */\n      add\n        /* \"#utility.yul\":33493:33512   */\n      swap1\n      pop\n        /* \"#utility.yul\":33152:33518   */\n      swap2\n      swap1\n      pop\n      jump\t// out\n        /* \"#utility.yul\":33524:33943   */\n    tag_134:\n        /* \"#utility.yul\":33690:33694   */\n      0x00\n        /* \"#utility.yul\":33728:33730   */\n      0x20\n        /* \"#utility.yul\":33717:33726   */\n      dup3\n        /* \"#utility.yul\":33713:33731   */\n      add\n        /* \"#utility.yul\":33705:33731   */\n      swap1\n      pop\n        /* \"#utility.yul\":33777:33786   */\n      dup2\n        /* \"#utility.yul\":33771:33775   */\n      dup2\n        /* \"#utility.yul\":33767:33787   */\n      sub\n        /* \"#utility.yul\":33763:33764   */\n      0x00\n        /* \"#utility.yul\":33752:33761   */\n      dup4\n        /* \"#utility.yul\":33748:33765   */\n      add\n        /* \"#utility.yul\":33741:33788   */\n      mstore\n        /* \"#utility.yul\":33805:33936   */\n      tag_712\n        /* \"#utility.yul\":33931:33935   */\n      dup2\n        /* \"#utility.yul\":33805:33936   */\n      tag_387\n      jump\t// in\n    tag_712:\n        /* \"#utility.yul\":33797:33936   */\n      swap1\n      pop\n        /* \"#utility.yul\":33524:33943   */\n      swap2\n      swap1\n      pop\n      jump\t// out\n        /* \"#utility.yul\":33949:34127   */\n    tag_388:\n        /* \"#utility.yul\":34089:34119   */\n      0x4f776e65722063616e27742063616c6c207472616e73616374696f6e00000000\n        /* \"#utility.yul\":34085:34086   */\n      0x00\n        /* \"#utility.yul\":34077:34083   */\n      dup3\n        /* \"#utility.yul\":34073:34087   */\n      add\n        /* \"#utility.yul\":34066:34120   */\n      mstore\n        /* \"#utility.yul\":33949:34127   */\n      pop\n      jump\t// out\n        /* \"#utility.yul\":34133:34499   */\n    tag_389:\n        /* \"#utility.yul\":34275:34278   */\n      0x00\n        /* \"#utility.yul\":34296:34363   */\n      tag_715\n        /* \"#utility.yul\":34360:34362   */\n      0x1c\n        /* \"#utility.yul\":34355:34358   */\n      dup4\n        /* \"#utility.yul\":34296:34363   */\n      tag_327\n      jump\t// in\n    tag_715:\n        /* \"#utility.yul\":34289:34363   */\n      swap2\n      pop\n        /* \"#utility.yul\":34372:34465   */\n      tag_716\n        /* \"#utility.yul\":34461:34464   */\n      dup3\n        /* \"#utility.yul\":34372:34465   */\n      tag_388\n      jump\t// in\n    tag_716:\n        /* \"#utility.yul\":34490:34492   */\n      0x20\n        /* \"#utility.yul\":34485:34488   */\n      dup3\n        /* \"#utility.yul\":34481:34493   */\n      add\n        /* \"#utility.yul\":34474:34493   */\n      swap1\n      pop\n        /* \"#utility.yul\":34133:34499   */\n      swap2\n      swap1\n      pop\n      jump\t// out\n        /* \"#utility.yul\":34505:34924   */\n    tag_137:\n        /* \"#utility.yul\":34671:34675   */\n      0x00\n        /* \"#utility.yul\":34709:34711   */\n      0x20\n        /* \"#utility.yul\":34698:34707   */\n      dup3\n        /* \"#utility.yul\":34694:34712   */\n      add\n        /* \"#utility.yul\":34686:34712   */\n      swap1\n      pop\n        /* \"#utility.yul\":34758:34767   */\n      dup2\n        /* \"#utility.yul\":34752:34756   */\n      dup2\n        /* \"#utility.yul\":34748:34768   */\n      sub\n        /* \"#utility.yul\":34744:34745   */\n      0x00\n        /* \"#utility.yul\":34733:34742   */\n      dup4\n        /* \"#utility.yul\":34729:34746   */\n      add\n        /* \"#utility.yul\":34722:34769   */\n      mstore\n        /* \"#utility.yul\":34786:34917   */\n      tag_718\n        /* \"#utility.yul\":34912:34916   */\n      dup2\n        /* \"#utility.yul\":34786:34917   */\n      tag_389\n      jump\t// in\n    tag_718:\n        /* \"#utility.yul\":34778:34917   */\n      swap1\n      pop\n        /* \"#utility.yul\":34505:34924   */\n      swap2\n      swap1\n      pop\n      jump\t// out\n        /* \"#utility.yul\":34930:35168   */\n    tag_390:\n        /* \"#utility.yul\":35070:35104   */\n      0x416d6f756e742068617320616c7265616479206265656e207769746864726177\n        /* \"#utility.yul\":35066:35067   */\n      0x00\n        /* \"#utility.yul\":35058:35064   */\n      dup3\n        /* \"#utility.yul\":35054:35068   */\n      add\n        /* \"#utility.yul\":35047:35105   */\n      mstore\n        /* \"#utility.yul\":35139:35160   */\n      0x6e2062792063616d706169676e206f776e657200000000000000000000000000\n        /* \"#utility.yul\":35134:35136   */\n      0x20\n        /* \"#utility.yul\":35126:35132   */\n      dup3\n        /* \"#utility.yul\":35122:35137   */\n      add\n        /* \"#utility.yul\":35115:35161   */\n      mstore\n        /* \"#utility.yul\":34930:35168   */\n      pop\n      jump\t// out\n        /* \"#utility.yul\":35174:35540   */\n    tag_391:\n        /* \"#utility.yul\":35316:35319   */\n      0x00\n        /* \"#utility.yul\":35337:35404   */\n      tag_721\n        /* \"#utility.yul\":35401:35403   */\n      0x33\n        /* \"#utility.yul\":35396:35399   */\n      dup4\n        /* \"#utility.yul\":35337:35404   */\n      tag_327\n      jump\t// in\n    tag_721:\n        /* \"#utility.yul\":35330:35404   */\n      swap2\n      pop\n        /* \"#utility.yul\":35413:35506   */\n      tag_722\n        /* \"#utility.yul\":35502:35505   */\n      dup3\n        /* \"#utility.yul\":35413:35506   */\n      tag_390\n      jump\t// in\n    tag_722:\n        /* \"#utility.yul\":35531:35533   */\n      0x40\n        /* \"#utility.yul\":35526:35529   */\n      dup3\n        /* \"#utility.yul\":35522:35534   */\n      add\n        /* \"#utility.yul\":35515:35534   */\n      swap1\n      pop\n        /* \"#utility.yul\":35174:35540   */\n      swap2\n      swap1\n      pop\n      jump\t// out\n        /* \"#utility.yul\":35546:35965   */\n    tag_140:\n        /* \"#utility.yul\":35712:35716   */\n      0x00\n        /* \"#utility.yul\":35750:35752   */\n      0x20\n        /* \"#utility.yul\":35739:35748   */\n      dup3\n        /* \"#utility.yul\":35735:35753   */\n      add\n        /* \"#utility.yul\":35727:35753   */\n      swap1\n      pop\n        /* \"#utility.yul\":35799:35808   */\n      dup2\n        /* \"#utility.yul\":35793:35797   */\n      dup2\n        /* \"#utility.yul\":35789:35809   */\n      sub\n        /* \"#utility.yul\":35785:35786   */\n      0x00\n        /* \"#utility.yul\":35774:35783   */\n      dup4\n        /* \"#utility.yul\":35770:35787   */\n      add\n        /* \"#utility.yul\":35763:35810   */\n      mstore\n        /* \"#utility.yul\":35827:35958   */\n      tag_724\n        /* \"#utility.yul\":35953:35957   */\n      dup2\n        /* \"#utility.yul\":35827:35958   */\n      tag_391\n      jump\t// in\n    tag_724:\n        /* \"#utility.yul\":35819:35958   */\n      swap1\n      pop\n        /* \"#utility.yul\":35546:35965   */\n      swap2\n      swap1\n      pop\n      jump\t// out\n        /* \"#utility.yul\":35971:36197   */\n    tag_392:\n        /* \"#utility.yul\":36111:36145   */\n      0x596f7520686176656e277420646f6e6174656420746f207468652063616d7061\n        /* \"#utility.yul\":36107:36108   */\n      0x00\n        /* \"#utility.yul\":36099:36105   */\n      dup3\n        /* \"#utility.yul\":36095:36109   */\n      add\n        /* \"#utility.yul\":36088:36146   */\n      mstore\n        /* \"#utility.yul\":36180:36189   */\n      0x69676e2079657400000000000000000000000000000000000000000000000000\n        /* \"#utility.yul\":36175:36177   */\n      0x20\n        /* \"#utility.yul\":36167:36173   */\n      dup3\n        /* \"#utility.yul\":36163:36178   */\n      add\n        /* \"#utility.yul\":36156:36190   */\n      mstore\n        /* \"#utility.yul\":35971:36197   */\n      pop\n      jump\t// out\n        /* \"#utility.yul\":36203:36569   */\n    tag_393:\n        /* \"#utility.yul\":36345:36348   */\n      0x00\n        /* \"#utility.yul\":36366:36433   */\n      tag_727\n        /* \"#utility.yul\":36430:36432   */\n      0x27\n        /* \"#utility.yul\":36425:36428   */\n      dup4\n        /* \"#utility.yul\":36366:36433   */\n      tag_327\n      jump\t// in\n    tag_727:\n        /* \"#utility.yul\":36359:36433   */\n      swap2\n      pop\n        /* \"#utility.yul\":36442:36535   */\n      tag_728\n        /* \"#utility.yul\":36531:36534   */\n      dup3\n        /* \"#utility.yul\":36442:36535   */\n      tag_392\n      jump\t// in\n    tag_728:\n        /* \"#utility.yul\":36560:36562   */\n      0x40\n        /* \"#utility.yul\":36555:36558   */\n      dup3\n        /* \"#utility.yul\":36551:36563   */\n      add\n        /* \"#utility.yul\":36544:36563   */\n      swap1\n      pop\n        /* \"#utility.yul\":36203:36569   */\n      swap2\n      swap1\n      pop\n      jump\t// out\n        /* \"#utility.yul\":36575:36994   */\n    tag_151:\n        /* \"#utility.yul\":36741:36745   */\n      0x00\n        /* \"#utility.yul\":36779:36781   */\n      0x20\n        /* \"#utility.yul\":36768:36777   */\n      dup3\n        /* \"#utility.yul\":36764:36782   */\n      add\n        /* \"#utility.yul\":36756:36782   */\n      swap1\n      pop\n        /* \"#utility.yul\":36828:36837   */\n      dup2\n        /* \"#utility.yul\":36822:36826   */\n      dup2\n        /* \"#utility.yul\":36818:36838   */\n      sub\n        /* \"#utility.yul\":36814:36815   */\n      0x00\n        /* \"#utility.yul\":36803:36812   */\n      dup4\n        /* \"#utility.yul\":36799:36816   */\n      add\n        /* \"#utility.yul\":36792:36839   */\n      mstore\n        /* \"#utility.yul\":36856:36987   */\n      tag_730\n        /* \"#utility.yul\":36982:36986   */\n      dup2\n        /* \"#utility.yul\":36856:36987   */\n      tag_393\n      jump\t// in\n    tag_730:\n        /* \"#utility.yul\":36848:36987   */\n      swap1\n      pop\n        /* \"#utility.yul\":36575:36994   */\n      swap2\n      swap1\n      pop\n      jump\t// out\n        /* \"#utility.yul\":37000:37194   */\n    tag_156:\n        /* \"#utility.yul\":37040:37044   */\n      0x00\n        /* \"#utility.yul\":37060:37080   */\n      tag_732\n        /* \"#utility.yul\":37078:37079   */\n      dup3\n        /* \"#utility.yul\":37060:37080   */\n      tag_302\n      jump\t// in\n    tag_732:\n        /* \"#utility.yul\":37055:37080   */\n      swap2\n      pop\n        /* \"#utility.yul\":37094:37114   */\n      tag_733\n        /* \"#utility.yul\":37112:37113   */\n      dup4\n        /* \"#utility.yul\":37094:37114   */\n      tag_302\n      jump\t// in\n    tag_733:\n        /* \"#utility.yul\":37089:37114   */\n      swap3\n      pop\n        /* \"#utility.yul\":37138:37139   */\n      dup3\n        /* \"#utility.yul\":37135:37136   */\n      dup3\n        /* \"#utility.yul\":37131:37140   */\n      sub\n        /* \"#utility.yul\":37123:37140   */\n      swap1\n      pop\n        /* \"#utility.yul\":37162:37163   */\n      dup2\n        /* \"#utility.yul\":37156:37160   */\n      dup2\n        /* \"#utility.yul\":37153:37164   */\n      gt\n        /* \"#utility.yul\":37150:37187   */\n      iszero\n      tag_734\n      jumpi\n        /* \"#utility.yul\":37167:37185   */\n      tag_735\n      tag_373\n      jump\t// in\n    tag_735:\n        /* \"#utility.yul\":37150:37187   */\n    tag_734:\n        /* \"#utility.yul\":37000:37194   */\n      swap3\n      swap2\n      pop\n      pop\n      jump\t// out\n        /* \"#utility.yul\":37200:37380   */\n    tag_165:\n        /* \"#utility.yul\":37248:37325   */\n      0x4e487b7100000000000000000000000000000000000000000000000000000000\n        /* \"#utility.yul\":37245:37246   */\n      0x00\n        /* \"#utility.yul\":37238:37326   */\n      mstore\n        /* \"#utility.yul\":37345:37349   */\n      0x31\n        /* \"#utility.yul\":37342:37343   */\n      0x04\n        /* \"#utility.yul\":37335:37350   */\n      mstore\n        /* \"#utility.yul\":37369:37373   */\n      0x24\n        /* \"#utility.yul\":37366:37367   */\n      0x00\n        /* \"#utility.yul\":37359:37374   */\n      revert\n        /* \"#utility.yul\":37386:37557   */\n    tag_394:\n        /* \"#utility.yul\":37526:37549   */\n      0x4661696c656420746f2073656e6420726566756e640000000000000000000000\n        /* \"#utility.yul\":37522:37523   */\n      0x00\n        /* \"#utility.yul\":37514:37520   */\n      dup3\n        /* \"#utility.yul\":37510:37524   */\n      add\n        /* \"#utility.yul\":37503:37550   */\n      mstore\n        /* \"#utility.yul\":37386:37557   */\n      pop\n      jump\t// out\n        /* \"#utility.yul\":37563:37929   */\n    tag_395:\n        /* \"#utility.yul\":37705:37708   */\n      0x00\n        /* \"#utility.yul\":37726:37793   */\n      tag_739\n        /* \"#utility.yul\":37790:37792   */\n      0x15\n        /* \"#utility.yul\":37785:37788   */\n      dup4\n        /* \"#utility.yul\":37726:37793   */\n      tag_327\n      jump\t// in\n    tag_739:\n        /* \"#utility.yul\":37719:37793   */\n      swap2\n      pop\n        /* \"#utility.yul\":37802:37895   */\n      tag_740\n        /* \"#utility.yul\":37891:37894   */\n      dup3\n        /* \"#utility.yul\":37802:37895   */\n      tag_394\n      jump\t// in\n    tag_740:\n        /* \"#utility.yul\":37920:37922   */\n      0x20\n        /* \"#utility.yul\":37915:37918   */\n      dup3\n        /* \"#utility.yul\":37911:37923   */\n      add\n        /* \"#utility.yul\":37904:37923   */\n      swap1\n      pop\n        /* \"#utility.yul\":37563:37929   */\n      swap2\n      swap1\n      pop\n      jump\t// out\n        /* \"#utility.yul\":37935:38354   */\n    tag_183:\n        /* \"#utility.yul\":38101:38105   */\n      0x00\n        /* \"#utility.yul\":38139:38141   */\n      0x20\n        /* \"#utility.yul\":38128:38137   */\n      dup3\n        /* \"#utility.yul\":38124:38142   */\n      add\n        /* \"#utility.yul\":38116:38142   */\n      swap1\n      pop\n        /* \"#utility.yul\":38188:38197   */\n      dup2\n        /* \"#utility.yul\":38182:38186   */\n      dup2\n        /* \"#utility.yul\":38178:38198   */\n      sub\n        /* \"#utility.yul\":38174:38175   */\n      0x00\n        /* \"#utility.yul\":38163:38172   */\n      dup4\n        /* \"#utility.yul\":38159:38176   */\n      add\n        /* \"#utility.yul\":38152:38199   */\n      mstore\n        /* \"#utility.yul\":38216:38347   */\n      tag_742\n        /* \"#utility.yul\":38342:38346   */\n      dup2\n        /* \"#utility.yul\":38216:38347   */\n      tag_395\n      jump\t// in\n    tag_742:\n        /* \"#utility.yul\":38208:38347   */\n      swap1\n      pop\n        /* \"#utility.yul\":37935:38354   */\n      swap2\n      swap1\n      pop\n      jump\t// out\n        /* \"#utility.yul\":38360:38582   */\n    tag_396:\n        /* \"#utility.yul\":38500:38534   */\n      0x446561646c696e652073686f756c642062652061206461746520696e20667574\n        /* \"#utility.yul\":38496:38497   */\n      0x00\n        /* \"#utility.yul\":38488:38494   */\n      dup3\n        /* \"#utility.yul\":38484:38498   */\n      add\n        /* \"#utility.yul\":38477:38535   */\n      mstore\n        /* \"#utility.yul\":38569:38574   */\n      0x7572650000000000000000000000000000000000000000000000000000000000\n        /* \"#utility.yul\":38564:38566   */\n      0x20\n        /* \"#utility.yul\":38556:38562   */\n      dup3\n        /* \"#utility.yul\":38552:38567   */\n      add\n        /* \"#utility.yul\":38545:38575   */\n      mstore\n        /* \"#utility.yul\":38360:38582   */\n      pop\n      jump\t// out\n        /* \"#utility.yul\":38588:38954   */\n    tag_397:\n        /* \"#utility.yul\":38730:38733   */\n      0x00\n        /* \"#utility.yul\":38751:38818   */\n      tag_745\n        /* \"#utility.yul\":38815:38817   */\n      0x23\n        /* \"#utility.yul\":38810:38813   */\n      dup4\n        /* \"#utility.yul\":38751:38818   */\n      tag_327\n      jump\t// in\n    tag_745:\n        /* \"#utility.yul\":38744:38818   */\n      swap2\n      pop\n        /* \"#utility.yul\":38827:38920   */\n      tag_746\n        /* \"#utility.yul\":38916:38919   */\n      dup3\n        /* \"#utility.yul\":38827:38920   */\n      tag_396\n      jump\t// in\n    tag_746:\n        /* \"#utility.yul\":38945:38947   */\n      0x40\n        /* \"#utility.yul\":38940:38943   */\n      dup3\n        /* \"#utility.yul\":38936:38948   */\n      add\n        /* \"#utility.yul\":38929:38948   */\n      swap1\n      pop\n        /* \"#utility.yul\":38588:38954   */\n      swap2\n      swap1\n      pop\n      jump\t// out\n        /* \"#utility.yul\":38960:39379   */\n    tag_189:\n        /* \"#utility.yul\":39126:39130   */\n      0x00\n        /* \"#utility.yul\":39164:39166   */\n      0x20\n        /* \"#utility.yul\":39153:39162   */\n      dup3\n        /* \"#utility.yul\":39149:39167   */\n      add\n        /* \"#utility.yul\":39141:39167   */\n      swap1\n      pop\n        /* \"#utility.yul\":39213:39222   */\n      dup2\n        /* \"#utility.yul\":39207:39211   */\n      dup2\n        /* \"#utility.yul\":39203:39223   */\n      sub\n        /* \"#utility.yul\":39199:39200   */\n      0x00\n        /* \"#utility.yul\":39188:39197   */\n      dup4\n        /* \"#utility.yul\":39184:39201   */\n      add\n        /* \"#utility.yul\":39177:39224   */\n      mstore\n        /* \"#utility.yul\":39241:39372   */\n      tag_748\n        /* \"#utility.yul\":39367:39371   */\n      dup2\n        /* \"#utility.yul\":39241:39372   */\n      tag_397\n      jump\t// in\n    tag_748:\n        /* \"#utility.yul\":39233:39372   */\n      swap1\n      pop\n        /* \"#utility.yul\":38960:39379   */\n      swap2\n      swap1\n      pop\n      jump\t// out\n        /* \"#utility.yul\":39385:39612   */\n    tag_398:\n        /* \"#utility.yul\":39525:39559   */\n      0x5461726765742076616c75652073686f756c6420626520677265617465722074\n        /* \"#utility.yul\":39521:39522   */\n      0x00\n        /* \"#utility.yul\":39513:39519   */\n      dup3\n        /* \"#utility.yul\":39509:39523   */\n      add\n        /* \"#utility.yul\":39502:39560   */\n      mstore\n        /* \"#utility.yul\":39594:39604   */\n      0x68616e207a65726f000000000000000000000000000000000000000000000000\n        /* \"#utility.yul\":39589:39591   */\n      0x20\n        /* \"#utility.yul\":39581:39587   */\n      dup3\n        /* \"#utility.yul\":39577:39592   */\n      add\n        /* \"#utility.yul\":39570:39605   */\n      mstore\n        /* \"#utility.yul\":39385:39612   */\n      pop\n      jump\t// out\n        /* \"#utility.yul\":39618:39984   */\n    tag_399:\n        /* \"#utility.yul\":39760:39763   */\n      0x00\n        /* \"#utility.yul\":39781:39848   */\n      tag_751\n        /* \"#utility.yul\":39845:39847   */\n      0x28\n        /* \"#utility.yul\":39840:39843   */\n      dup4\n        /* \"#utility.yul\":39781:39848   */\n      tag_327\n      jump\t// in\n    tag_751:\n        /* \"#utility.yul\":39774:39848   */\n      swap2\n      pop\n        /* \"#utility.yul\":39857:39950   */\n      tag_752\n        /* \"#utility.yul\":39946:39949   */\n      dup3\n        /* \"#utility.yul\":39857:39950   */\n      tag_398\n      jump\t// in\n    tag_752:\n        /* \"#utility.yul\":39975:39977   */\n      0x40\n        /* \"#utility.yul\":39970:39973   */\n      dup3\n        /* \"#utility.yul\":39966:39978   */\n      add\n        /* \"#utility.yul\":39959:39978   */\n      swap1\n      pop\n        /* \"#utility.yul\":39618:39984   */\n      swap2\n      swap1\n      pop\n      jump\t// out\n        /* \"#utility.yul\":39990:40409   */\n    tag_192:\n        /* \"#utility.yul\":40156:40160   */\n      0x00\n        /* \"#utility.yul\":40194:40196   */\n      0x20\n        /* \"#utility.yul\":40183:40192   */\n      dup3\n        /* \"#utility.yul\":40179:40197   */\n      add\n        /* \"#utility.yul\":40171:40197   */\n      swap1\n      pop\n        /* \"#utility.yul\":40243:40252   */\n      dup2\n        /* \"#utility.yul\":40237:40241   */\n      dup2\n        /* \"#utility.yul\":40233:40253   */\n      sub\n        /* \"#utility.yul\":40229:40230   */\n      0x00\n        /* \"#utility.yul\":40218:40227   */\n      dup4\n        /* \"#utility.yul\":40214:40231   */\n      add\n        /* \"#utility.yul\":40207:40254   */\n      mstore\n        /* \"#utility.yul\":40271:40402   */\n      tag_754\n        /* \"#utility.yul\":40397:40401   */\n      dup2\n        /* \"#utility.yul\":40271:40402   */\n      tag_399\n      jump\t// in\n    tag_754:\n        /* \"#utility.yul\":40263:40402   */\n      swap1\n      pop\n        /* \"#utility.yul\":39990:40409   */\n      swap2\n      swap1\n      pop\n      jump\t// out\n        /* \"#utility.yul\":40415:40645   */\n    tag_400:\n        /* \"#utility.yul\":40555:40589   */\n      0x496e70757420706172616d657465722073686f756c64206e6f7420626520656d\n        /* \"#utility.yul\":40551:40552   */\n      0x00\n        /* \"#utility.yul\":40543:40549   */\n      dup3\n        /* \"#utility.yul\":40539:40553   */\n      add\n        /* \"#utility.yul\":40532:40590   */\n      mstore\n        /* \"#utility.yul\":40624:40637   */\n      0x707479206f72206e756c6c000000000000000000000000000000000000000000\n        /* \"#utility.yul\":40619:40621   */\n      0x20\n        /* \"#utility.yul\":40611:40617   */\n      dup3\n        /* \"#utility.yul\":40607:40622   */\n      add\n        /* \"#utility.yul\":40600:40638   */\n      mstore\n        /* \"#utility.yul\":40415:40645   */\n      pop\n      jump\t// out\n        /* \"#utility.yul\":40651:41017   */\n    tag_401:\n        /* \"#utility.yul\":40793:40796   */\n      0x00\n        /* \"#utility.yul\":40814:40881   */\n      tag_757\n        /* \"#utility.yul\":40878:40880   */\n      0x2b\n        /* \"#utility.yul\":40873:40876   */\n      dup4\n        /* \"#utility.yul\":40814:40881   */\n      tag_327\n      jump\t// in\n    tag_757:\n        /* \"#utility.yul\":40807:40881   */\n      swap2\n      pop\n        /* \"#utility.yul\":40890:40983   */\n      tag_758\n        /* \"#utility.yul\":40979:40982   */\n      dup3\n        /* \"#utility.yul\":40890:40983   */\n      tag_400\n      jump\t// in\n    tag_758:\n        /* \"#utility.yul\":41008:41010   */\n      0x40\n        /* \"#utility.yul\":41003:41006   */\n      dup3\n        /* \"#utility.yul\":40999:41011   */\n      add\n        /* \"#utility.yul\":40992:41011   */\n      swap1\n      pop\n        /* \"#utility.yul\":40651:41017   */\n      swap2\n      swap1\n      pop\n      jump\t// out\n        /* \"#utility.yul\":41023:41442   */\n    tag_197:\n        /* \"#utility.yul\":41189:41193   */\n      0x00\n        /* \"#utility.yul\":41227:41229   */\n      0x20\n        /* \"#utility.yul\":41216:41225   */\n      dup3\n        /* \"#utility.yul\":41212:41230   */\n      add\n        /* \"#utility.yul\":41204:41230   */\n      swap1\n      pop\n        /* \"#utility.yul\":41276:41285   */\n      dup2\n        /* \"#utility.yul\":41270:41274   */\n      dup2\n        /* \"#utility.yul\":41266:41286   */\n      sub\n        /* \"#utility.yul\":41262:41263   */\n      0x00\n        /* \"#utility.yul\":41251:41260   */\n      dup4\n        /* \"#utility.yul\":41247:41264   */\n      add\n        /* \"#utility.yul\":41240:41287   */\n      mstore\n        /* \"#utility.yul\":41304:41435   */\n      tag_760\n        /* \"#utility.yul\":41430:41434   */\n      dup2\n        /* \"#utility.yul\":41304:41435   */\n      tag_401\n      jump\t// in\n    tag_760:\n        /* \"#utility.yul\":41296:41435   */\n      swap1\n      pop\n        /* \"#utility.yul\":41023:41442   */\n      swap2\n      swap1\n      pop\n      jump\t// out\n        /* \"#utility.yul\":41448:41589   */\n    tag_402:\n        /* \"#utility.yul\":41497:41501   */\n      0x00\n        /* \"#utility.yul\":41520:41523   */\n      dup2\n        /* \"#utility.yul\":41512:41523   */\n      swap1\n      pop\n        /* \"#utility.yul\":41543:41546   */\n      dup2\n        /* \"#utility.yul\":41540:41541   */\n      0x00\n        /* \"#utility.yul\":41533:41547   */\n      mstore\n        /* \"#utility.yul\":41577:41581   */\n      0x20\n        /* \"#utility.yul\":41574:41575   */\n      0x00\n        /* \"#utility.yul\":41564:41582   */\n      keccak256\n        /* \"#utility.yul\":41556:41582   */\n      swap1\n      pop\n        /* \"#utility.yul\":41448:41589   */\n      swap2\n      swap1\n      pop\n      jump\t// out\n        /* \"#utility.yul\":41595:41688   */\n    tag_403:\n        /* \"#utility.yul\":41632:41638   */\n      0x00\n        /* \"#utility.yul\":41679:41681   */\n      0x20\n        /* \"#utility.yul\":41674:41676   */\n      0x1f\n        /* \"#utility.yul\":41667:41672   */\n      dup4\n        /* \"#utility.yul\":41663:41677   */\n      add\n        /* \"#utility.yul\":41659:41682   */\n      div\n        /* \"#utility.yul\":41649:41682   */\n      swap1\n      pop\n        /* \"#utility.yul\":41595:41688   */\n      swap2\n      swap1\n      pop\n      jump\t// out\n        /* \"#utility.yul\":41694:41801   */\n    tag_404:\n        /* \"#utility.yul\":41738:41746   */\n      0x00\n        /* \"#utility.yul\":41788:41793   */\n      dup3\n        /* \"#utility.yul\":41782:41786   */\n      dup3\n        /* \"#utility.yul\":41778:41794   */\n      shl\n        /* \"#utility.yul\":41757:41794   */\n      swap1\n      pop\n        /* \"#utility.yul\":41694:41801   */\n      swap3\n      swap2\n      pop\n      pop\n      jump\t// out\n        /* \"#utility.yul\":41807:42200   */\n    tag_405:\n        /* \"#utility.yul\":41876:41882   */\n      0x00\n        /* \"#utility.yul\":41926:41927   */\n      0x08\n        /* \"#utility.yul\":41914:41924   */\n      dup4\n        /* \"#utility.yul\":41910:41928   */\n      mul\n        /* \"#utility.yul\":41949:42046   */\n      tag_765\n        /* \"#utility.yul\":41979:42045   */\n      0xffffffffffffffffffffffffffffffffffffffffffffffffffffffffffffffff\n        /* \"#utility.yul\":41968:41977   */\n      dup3\n        /* \"#utility.yul\":41949:42046   */\n      tag_404\n      jump\t// in\n    tag_765:\n        /* \"#utility.yul\":42067:42106   */\n      tag_766\n        /* \"#utility.yul\":42097:42105   */\n      dup7\n        /* \"#utility.yul\":42086:42095   */\n      dup4\n        /* \"#utility.yul\":42067:42106   */\n      tag_404\n      jump\t// in\n    tag_766:\n        /* \"#utility.yul\":42055:42106   */\n      swap6\n      pop\n        /* \"#utility.yul\":42139:42143   */\n      dup1\n        /* \"#utility.yul\":42135:42144   */\n      not\n        /* \"#utility.yul\":42128:42133   */\n      dup5\n        /* \"#utility.yul\":42124:42145   */\n      and\n        /* \"#utility.yul\":42115:42145   */\n      swap4\n      pop\n        /* \"#utility.yul\":42188:42192   */\n      dup1\n        /* \"#utility.yul\":42178:42186   */\n      dup7\n        /* \"#utility.yul\":42174:42193   */\n      and\n        /* \"#utility.yul\":42167:42172   */\n      dup5\n        /* \"#utility.yul\":42164:42194   */\n      or\n        /* \"#utility.yul\":42154:42194   */\n      swap3\n      pop\n        /* \"#utility.yul\":41883:42200   */\n      pop\n      pop\n        /* \"#utility.yul\":41807:42200   */\n      swap4\n      swap3\n      pop\n      pop\n      pop\n      jump\t// out\n        /* \"#utility.yul\":42206:42266   */\n    tag_406:\n        /* \"#utility.yul\":42234:42237   */\n      0x00\n        /* \"#utility.yul\":42255:42260   */\n      dup2\n        /* \"#utility.yul\":42248:42260   */\n      swap1\n      pop\n        /* \"#utility.yul\":42206:42266   */\n      swap2\n      swap1\n      pop\n      jump\t// out\n        /* \"#utility.yul\":42272:42414   */\n    tag_407:\n        /* \"#utility.yul\":42322:42331   */\n      0x00\n        /* \"#utility.yul\":42355:42408   */\n      tag_769\n        /* \"#utility.yul\":42373:42407   */\n      tag_770\n        /* \"#utility.yul\":42382:42406   */\n      tag_771\n        /* \"#utility.yul\":42400:42405   */\n      dup5\n        /* \"#utility.yul\":42382:42406   */\n      tag_302\n      jump\t// in\n    tag_771:\n        /* \"#utility.yul\":42373:42407   */\n      tag_406\n      jump\t// in\n    tag_770:\n        /* \"#utility.yul\":42355:42408   */\n      tag_302\n      jump\t// in\n    tag_769:\n        /* \"#utility.yul\":42342:42408   */\n      swap1\n      pop\n        /* \"#utility.yul\":42272:42414   */\n      swap2\n      swap1\n      pop\n      jump\t// out\n        /* \"#utility.yul\":42420:42495   */\n    tag_408:\n        /* \"#utility.yul\":42463:42466   */\n      0x00\n        /* \"#utility.yul\":42484:42489   */\n      dup2\n        /* \"#utility.yul\":42477:42489   */\n      swap1\n      pop\n        /* \"#utility.yul\":42420:42495   */\n      swap2\n      swap1\n      pop\n      jump\t// out\n        /* \"#utility.yul\":42501:42770   */\n    tag_409:\n        /* \"#utility.yul\":42611:42650   */\n      tag_774\n        /* \"#utility.yul\":42642:42649   */\n      dup4\n        /* \"#utility.yul\":42611:42650   */\n      tag_407\n      jump\t// in\n    tag_774:\n        /* \"#utility.yul\":42672:42763   */\n      tag_775\n        /* \"#utility.yul\":42721:42762   */\n      tag_776\n        /* \"#utility.yul\":42745:42761   */\n      dup3\n        /* \"#utility.yul\":42721:42762   */\n      tag_408\n      jump\t// in\n    tag_776:\n        /* \"#utility.yul\":42713:42719   */\n      dup5\n        /* \"#utility.yul\":42706:42710   */\n      dup5\n        /* \"#utility.yul\":42700:42711   */\n      sload\n        /* \"#utility.yul\":42672:42763   */\n      tag_405\n      jump\t// in\n    tag_775:\n        /* \"#utility.yul\":42666:42670   */\n      dup3\n        /* \"#utility.yul\":42659:42764   */\n      sstore\n        /* \"#utility.yul\":42577:42770   */\n      pop\n        /* \"#utility.yul\":42501:42770   */\n      pop\n      pop\n      pop\n      jump\t// out\n        /* \"#utility.yul\":42776:42849   */\n    tag_410:\n        /* \"#utility.yul\":42821:42824   */\n      0x00\n        /* \"#utility.yul\":42776:42849   */\n      swap1\n      jump\t// out\n        /* \"#utility.yul\":42855:43044   */\n    tag_411:\n        /* \"#utility.yul\":42932:42964   */\n      tag_779\n      tag_410\n      jump\t// in\n    tag_779:\n        /* \"#utility.yul\":42973:43038   */\n      tag_780\n        /* \"#utility.yul\":43031:43037   */\n      dup2\n        /* \"#utility.yul\":43023:43029   */\n      dup5\n        /* \"#utility.yul\":43017:43021   */\n      dup5\n        /* \"#utility.yul\":42973:43038   */\n      tag_409\n      jump\t// in\n    tag_780:\n        /* \"#utility.yul\":42908:43044   */\n      pop\n        /* \"#utility.yul\":42855:43044   */\n      pop\n      pop\n      jump\t// out\n        /* \"#utility.yul\":43050:43236   */\n    tag_412:\n        /* \"#utility.yul\":43110:43230   */\n    tag_782:\n        /* \"#utility.yul\":43127:43130   */\n      dup2\n        /* \"#utility.yul\":43120:43125   */\n      dup2\n        /* \"#utility.yul\":43117:43131   */\n      lt\n        /* \"#utility.yul\":43110:43230   */\n      iszero\n      tag_784\n      jumpi\n        /* \"#utility.yul\":43181:43220   */\n      tag_785\n        /* \"#utility.yul\":43218:43219   */\n      0x00\n        /* \"#utility.yul\":43211:43216   */\n      dup3\n        /* \"#utility.yul\":43181:43220   */\n      tag_411\n      jump\t// in\n    tag_785:\n        /* \"#utility.yul\":43154:43155   */\n      0x01\n        /* \"#utility.yul\":43147:43152   */\n      dup2\n        /* \"#utility.yul\":43143:43156   */\n      add\n        /* \"#utility.yul\":43134:43156   */\n      swap1\n      pop\n        /* \"#utility.yul\":43110:43230   */\n      jump(tag_782)\n    tag_784:\n        /* \"#utility.yul\":43050:43236   */\n      pop\n      pop\n      jump\t// out\n        /* \"#utility.yul\":43242:43785   */\n    tag_413:\n        /* \"#utility.yul\":43343:43345   */\n      0x1f\n        /* \"#utility.yul\":43338:43341   */\n      dup3\n        /* \"#utility.yul\":43335:43346   */\n      gt\n        /* \"#utility.yul\":43332:43778   */\n      iszero\n      tag_787\n      jumpi\n        /* \"#utility.yul\":43377:43415   */\n      tag_788\n        /* \"#utility.yul\":43409:43414   */\n      dup2\n        /* \"#utility.yul\":43377:43415   */\n      tag_402\n      jump\t// in\n    tag_788:\n        /* \"#utility.yul\":43461:43490   */\n      tag_789\n        /* \"#utility.yul\":43479:43489   */\n      dup5\n        /* \"#utility.yul\":43461:43490   */\n      tag_403\n      jump\t// in\n    tag_789:\n        /* \"#utility.yul\":43451:43459   */\n      dup2\n        /* \"#utility.yul\":43447:43491   */\n      add\n        /* \"#utility.yul\":43644:43646   */\n      0x20\n        /* \"#utility.yul\":43632:43642   */\n      dup6\n        /* \"#utility.yul\":43629:43647   */\n      lt\n        /* \"#utility.yul\":43626:43675   */\n      iszero\n      tag_790\n      jumpi\n        /* \"#utility.yul\":43665:43673   */\n      dup2\n        /* \"#utility.yul\":43650:43673   */\n      swap1\n      pop\n        /* \"#utility.yul\":43626:43675   */\n    tag_790:\n        /* \"#utility.yul\":43688:43768   */\n      tag_791\n        /* \"#utility.yul\":43744:43766   */\n      tag_792\n        /* \"#utility.yul\":43762:43765   */\n      dup6\n        /* \"#utility.yul\":43744:43766   */\n      tag_403\n      jump\t// in\n    tag_792:\n        /* \"#utility.yul\":43734:43742   */\n      dup4\n        /* \"#utility.yul\":43730:43767   */\n      add\n        /* \"#utility.yul\":43717:43728   */\n      dup3\n        /* \"#utility.yul\":43688:43768   */\n      tag_412\n      jump\t// in\n    tag_791:\n        /* \"#utility.yul\":43347:43778   */\n      pop\n      pop\n        /* \"#utility.yul\":43332:43778   */\n    tag_787:\n        /* \"#utility.yul\":43242:43785   */\n      pop\n      pop\n      pop\n      jump\t// out\n        /* \"#utility.yul\":43791:43908   */\n    tag_414:\n        /* \"#utility.yul\":43845:43853   */\n      0x00\n        /* \"#utility.yul\":43895:43900   */\n      dup3\n        /* \"#utility.yul\":43889:43893   */\n      dup3\n        /* \"#utility.yul\":43885:43901   */\n      shr\n        /* \"#utility.yul\":43864:43901   */\n      swap1\n      pop\n        /* \"#utility.yul\":43791:43908   */\n      swap3\n      swap2\n      pop\n      pop\n      jump\t// out\n        /* \"#utility.yul\":43914:44083   */\n    tag_415:\n        /* \"#utility.yul\":43958:43964   */\n      0x00\n        /* \"#utility.yul\":43991:44042   */\n      tag_795\n        /* \"#utility.yul\":44039:44040   */\n      0x00\n        /* \"#utility.yul\":44035:44041   */\n      not\n        /* \"#utility.yul\":44027:44032   */\n      dup5\n        /* \"#utility.yul\":44024:44025   */\n      0x08\n        /* \"#utility.yul\":44020:44033   */\n      mul\n        /* \"#utility.yul\":43991:44042   */\n      tag_414\n      jump\t// in\n    tag_795:\n        /* \"#utility.yul\":43987:44043   */\n      not\n        /* \"#utility.yul\":44072:44076   */\n      dup1\n        /* \"#utility.yul\":44066:44070   */\n      dup4\n        /* \"#utility.yul\":44062:44077   */\n      and\n        /* \"#utility.yul\":44052:44077   */\n      swap2\n      pop\n        /* \"#utility.yul\":43965:44083   */\n      pop\n        /* \"#utility.yul\":43914:44083   */\n      swap3\n      swap2\n      pop\n      pop\n      jump\t// out\n        /* \"#utility.yul\":44088:44383   */\n    tag_416:\n        /* \"#utility.yul\":44164:44168   */\n      0x00\n        /* \"#utility.yul\":44310:44339   */\n      tag_797\n        /* \"#utility.yul\":44335:44338   */\n      dup4\n        /* \"#utility.yul\":44329:44333   */\n      dup4\n        /* \"#utility.yul\":44310:44339   */\n      tag_415\n      jump\t// in\n    tag_797:\n        /* \"#utility.yul\":44302:44339   */\n      swap2\n      pop\n        /* \"#utility.yul\":44372:44375   */\n      dup3\n        /* \"#utility.yul\":44369:44370   */\n      0x02\n        /* \"#utility.yul\":44365:44376   */\n      mul\n        /* \"#utility.yul\":44359:44363   */\n      dup3\n        /* \"#utility.yul\":44356:44377   */\n      or\n        /* \"#utility.yul\":44348:44377   */\n      swap1\n      pop\n        /* \"#utility.yul\":44088:44383   */\n      swap3\n      swap2\n      pop\n      pop\n      jump\t// out\n        /* \"#utility.yul\":44388:45783   */\n    tag_199:\n        /* \"#utility.yul\":44505:44542   */\n      tag_799\n        /* \"#utility.yul\":44538:44541   */\n      dup3\n        /* \"#utility.yul\":44505:44542   */\n      tag_326\n      jump\t// in\n    tag_799:\n        /* \"#utility.yul\":44607:44625   */\n      0xffffffffffffffff\n        /* \"#utility.yul\":44599:44605   */\n      dup2\n        /* \"#utility.yul\":44596:44626   */\n      gt\n        /* \"#utility.yul\":44593:44649   */\n      iszero\n      tag_800\n      jumpi\n        /* \"#utility.yul\":44629:44647   */\n      tag_801\n      tag_246\n      jump\t// in\n    tag_801:\n        /* \"#utility.yul\":44593:44649   */\n    tag_800:\n        /* \"#utility.yul\":44673:44711   */\n      tag_802\n        /* \"#utility.yul\":44705:44709   */\n      dup3\n        /* \"#utility.yul\":44699:44710   */\n      sload\n        /* \"#utility.yul\":44673:44711   */\n      tag_58\n      jump\t// in\n    tag_802:\n        /* \"#utility.yul\":44758:44825   */\n      tag_803\n        /* \"#utility.yul\":44818:44824   */\n      dup3\n        /* \"#utility.yul\":44810:44816   */\n      dup3\n        /* \"#utility.yul\":44804:44808   */\n      dup6\n        /* \"#utility.yul\":44758:44825   */\n      tag_413\n      jump\t// in\n    tag_803:\n        /* \"#utility.yul\":44852:44853   */\n      0x00\n        /* \"#utility.yul\":44876:44880   */\n      0x20\n        /* \"#utility.yul\":44863:44880   */\n      swap1\n      pop\n        /* \"#utility.yul\":44908:44910   */\n      0x1f\n        /* \"#utility.yul\":44900:44906   */\n      dup4\n        /* \"#utility.yul\":44897:44911   */\n      gt\n        /* \"#utility.yul\":44925:44926   */\n      0x01\n        /* \"#utility.yul\":44920:45538   */\n      dup2\n      eq\n      tag_805\n      jumpi\n        /* \"#utility.yul\":45582:45583   */\n      0x00\n        /* \"#utility.yul\":45599:45605   */\n      dup5\n        /* \"#utility.yul\":45596:45673   */\n      iszero\n      tag_806\n      jumpi\n        /* \"#utility.yul\":45648:45657   */\n      dup3\n        /* \"#utility.yul\":45643:45646   */\n      dup8\n        /* \"#utility.yul\":45639:45658   */\n      add\n        /* \"#utility.yul\":45633:45659   */\n      mload\n        /* \"#utility.yul\":45624:45659   */\n      swap1\n      pop\n        /* \"#utility.yul\":45596:45673   */\n    tag_806:\n        /* \"#utility.yul\":45699:45766   */\n      tag_807\n        /* \"#utility.yul\":45759:45765   */\n      dup6\n        /* \"#utility.yul\":45752:45757   */\n      dup3\n        /* \"#utility.yul\":45699:45766   */\n      tag_416\n      jump\t// in\n    tag_807:\n        /* \"#utility.yul\":45693:45697   */\n      dup7\n        /* \"#utility.yul\":45686:45767   */\n      sstore\n        /* \"#utility.yul\":45555:45777   */\n      pop\n        /* \"#utility.yul\":44890:45777   */\n      jump(tag_804)\n        /* \"#utility.yul\":44920:45538   */\n    tag_805:\n        /* \"#utility.yul\":44972:44976   */\n      0x1f\n        /* \"#utility.yul\":44968:44977   */\n      not\n        /* \"#utility.yul\":44960:44966   */\n      dup5\n        /* \"#utility.yul\":44956:44978   */\n      and\n        /* \"#utility.yul\":45006:45043   */\n      tag_808\n        /* \"#utility.yul\":45038:45042   */\n      dup7\n        /* \"#utility.yul\":45006:45043   */\n      tag_402\n      jump\t// in\n    tag_808:\n        /* \"#utility.yul\":45065:45066   */\n      0x00\n        /* \"#utility.yul\":45079:45287   */\n    tag_809:\n        /* \"#utility.yul\":45093:45100   */\n      dup3\n        /* \"#utility.yul\":45090:45091   */\n      dup2\n        /* \"#utility.yul\":45087:45101   */\n      lt\n        /* \"#utility.yul\":45079:45287   */\n      iszero\n      tag_811\n      jumpi\n        /* \"#utility.yul\":45172:45181   */\n      dup5\n        /* \"#utility.yul\":45167:45170   */\n      dup10\n        /* \"#utility.yul\":45163:45182   */\n      add\n        /* \"#utility.yul\":45157:45183   */\n      mload\n        /* \"#utility.yul\":45149:45155   */\n      dup3\n        /* \"#utility.yul\":45142:45184   */\n      sstore\n        /* \"#utility.yul\":45223:45224   */\n      0x01\n        /* \"#utility.yul\":45215:45221   */\n      dup3\n        /* \"#utility.yul\":45211:45225   */\n      add\n        /* \"#utility.yul\":45201:45225   */\n      swap2\n      pop\n        /* \"#utility.yul\":45270:45272   */\n      0x20\n        /* \"#utility.yul\":45259:45268   */\n      dup6\n        /* \"#utility.yul\":45255:45273   */\n      add\n        /* \"#utility.yul\":45242:45273   */\n      swap5\n      pop\n        /* \"#utility.yul\":45116:45120   */\n      0x20\n        /* \"#utility.yul\":45113:45114   */\n      dup2\n        /* \"#utility.yul\":45109:45121   */\n      add\n        /* \"#utility.yul\":45104:45121   */\n      swap1\n      pop\n        /* \"#utility.yul\":45079:45287   */\n      jump(tag_809)\n    tag_811:\n        /* \"#utility.yul\":45315:45321   */\n      dup7\n        /* \"#utility.yul\":45306:45313   */\n      dup4\n        /* \"#utility.yul\":45303:45322   */\n      lt\n        /* \"#utility.yul\":45300:45479   */\n      iszero\n      tag_812\n      jumpi\n        /* \"#utility.yul\":45373:45382   */\n      dup5\n        /* \"#utility.yul\":45368:45371   */\n      dup10\n        /* \"#utility.yul\":45364:45383   */\n      add\n        /* \"#utility.yul\":45358:45384   */\n      mload\n        /* \"#utility.yul\":45416:45464   */\n      tag_813\n        /* \"#utility.yul\":45458:45462   */\n      0x1f\n        /* \"#utility.yul\":45450:45456   */\n      dup10\n        /* \"#utility.yul\":45446:45463   */\n      and\n        /* \"#utility.yul\":45435:45444   */\n      dup3\n        /* \"#utility.yul\":45416:45464   */\n      tag_415\n      jump\t// in\n    tag_813:\n        /* \"#utility.yul\":45408:45414   */\n      dup4\n        /* \"#utility.yul\":45401:45465   */\n      sstore\n        /* \"#utility.yul\":45323:45479   */\n      pop\n        /* \"#utility.yul\":45300:45479   */\n    tag_812:\n        /* \"#utility.yul\":45525:45526   */\n      0x01\n        /* \"#utility.yul\":45521:45522   */\n      0x02\n        /* \"#utility.yul\":45513:45519   */\n      dup9\n        /* \"#utility.yul\":45509:45523   */\n      mul\n        /* \"#utility.yul\":45505:45527   */\n      add\n        /* \"#utility.yul\":45499:45503   */\n      dup9\n        /* \"#utility.yul\":45492:45528   */\n      sstore\n        /* \"#utility.yul\":44927:45538   */\n      pop\n      pop\n      pop\n        /* \"#utility.yul\":44890:45777   */\n    tag_804:\n      pop\n        /* \"#utility.yul\":44480:45783   */\n      pop\n      pop\n      pop\n        /* \"#utility.yul\":44388:45783   */\n      pop\n      pop\n      jump\t// out\n        /* \"#utility.yul\":45789:46726   */\n    tag_203:\n        /* \"#utility.yul\":46054:46058   */\n      0x00\n        /* \"#utility.yul\":46092:46095   */\n      0xa0\n        /* \"#utility.yul\":46081:46090   */\n      dup3\n        /* \"#utility.yul\":46077:46096   */\n      add\n        /* \"#utility.yul\":46069:46096   */\n      swap1\n      pop\n        /* \"#utility.yul\":46142:46151   */\n      dup2\n        /* \"#utility.yul\":46136:46140   */\n      dup2\n        /* \"#utility.yul\":46132:46152   */\n      sub\n        /* \"#utility.yul\":46128:46129   */\n      0x00\n        /* \"#utility.yul\":46117:46126   */\n      dup4\n        /* \"#utility.yul\":46113:46130   */\n      add\n        /* \"#utility.yul\":46106:46153   */\n      mstore\n        /* \"#utility.yul\":46170:46248   */\n      tag_815\n        /* \"#utility.yul\":46243:46247   */\n      dup2\n        /* \"#utility.yul\":46234:46240   */\n      dup9\n        /* \"#utility.yul\":46170:46248   */\n      tag_330\n      jump\t// in\n    tag_815:\n        /* \"#utility.yul\":46162:46248   */\n      swap1\n      pop\n        /* \"#utility.yul\":46295:46304   */\n      dup2\n        /* \"#utility.yul\":46289:46293   */\n      dup2\n        /* \"#utility.yul\":46285:46305   */\n      sub\n        /* \"#utility.yul\":46280:46282   */\n      0x20\n        /* \"#utility.yul\":46269:46278   */\n      dup4\n        /* \"#utility.yul\":46265:46283   */\n      add\n        /* \"#utility.yul\":46258:46306   */\n      mstore\n        /* \"#utility.yul\":46323:46401   */\n      tag_816\n        /* \"#utility.yul\":46396:46400   */\n      dup2\n        /* \"#utility.yul\":46387:46393   */\n      dup8\n        /* \"#utility.yul\":46323:46401   */\n      tag_330\n      jump\t// in\n    tag_816:\n        /* \"#utility.yul\":46315:46401   */\n      swap1\n      pop\n        /* \"#utility.yul\":46411:46483   */\n      tag_817\n        /* \"#utility.yul\":46479:46481   */\n      0x40\n        /* \"#utility.yul\":46468:46477   */\n      dup4\n        /* \"#utility.yul\":46464:46482   */\n      add\n        /* \"#utility.yul\":46455:46461   */\n      dup7\n        /* \"#utility.yul\":46411:46483   */\n      tag_303\n      jump\t// in\n    tag_817:\n        /* \"#utility.yul\":46493:46565   */\n      tag_818\n        /* \"#utility.yul\":46561:46563   */\n      0x60\n        /* \"#utility.yul\":46550:46559   */\n      dup4\n        /* \"#utility.yul\":46546:46564   */\n      add\n        /* \"#utility.yul\":46537:46543   */\n      dup6\n        /* \"#utility.yul\":46493:46565   */\n      tag_303\n      jump\t// in\n    tag_818:\n        /* \"#utility.yul\":46613:46622   */\n      dup2\n        /* \"#utility.yul\":46607:46611   */\n      dup2\n        /* \"#utility.yul\":46603:46623   */\n      sub\n        /* \"#utility.yul\":46597:46600   */\n      0x80\n        /* \"#utility.yul\":46586:46595   */\n      dup4\n        /* \"#utility.yul\":46582:46601   */\n      add\n        /* \"#utility.yul\":46575:46624   */\n      mstore\n        /* \"#utility.yul\":46641:46719   */\n      tag_819\n        /* \"#utility.yul\":46714:46718   */\n      dup2\n        /* \"#utility.yul\":46705:46711   */\n      dup5\n        /* \"#utility.yul\":46641:46719   */\n      tag_330\n      jump\t// in\n    tag_819:\n        /* \"#utility.yul\":46633:46719   */\n      swap1\n      pop\n        /* \"#utility.yul\":45789:46726   */\n      swap7\n      swap6\n      pop\n      pop\n      pop\n      pop\n      pop\n      pop\n      jump\t// out\n        /* \"#utility.yul\":46732:46902   */\n    tag_417:\n        /* \"#utility.yul\":46872:46894   */\n      0x646561646c696e6520616c7265616479206d6574000000000000000000000000\n        /* \"#utility.yul\":46868:46869   */\n      0x00\n        /* \"#utility.yul\":46860:46866   */\n      dup3\n        /* \"#utility.yul\":46856:46870   */\n      add\n        /* \"#utility.yul\":46849:46895   */\n      mstore\n        /* \"#utility.yul\":46732:46902   */\n      pop\n      jump\t// out\n        /* \"#utility.yul\":46908:47274   */\n    tag_418:\n        /* \"#utility.yul\":47050:47053   */\n      0x00\n        /* \"#utility.yul\":47071:47138   */\n      tag_822\n        /* \"#utility.yul\":47135:47137   */\n      0x14\n        /* \"#utility.yul\":47130:47133   */\n      dup4\n        /* \"#utility.yul\":47071:47138   */\n      tag_327\n      jump\t// in\n    tag_822:\n        /* \"#utility.yul\":47064:47138   */\n      swap2\n      pop\n        /* \"#utility.yul\":47147:47240   */\n      tag_823\n        /* \"#utility.yul\":47236:47239   */\n      dup3\n        /* \"#utility.yul\":47147:47240   */\n      tag_417\n      jump\t// in\n    tag_823:\n        /* \"#utility.yul\":47265:47267   */\n      0x20\n        /* \"#utility.yul\":47260:47263   */\n      dup3\n        /* \"#utility.yul\":47256:47268   */\n      add\n        /* \"#utility.yul\":47249:47268   */\n      swap1\n      pop\n        /* \"#utility.yul\":46908:47274   */\n      swap2\n      swap1\n      pop\n      jump\t// out\n        /* \"#utility.yul\":47280:47699   */\n    tag_211:\n        /* \"#utility.yul\":47446:47450   */\n      0x00\n        /* \"#utility.yul\":47484:47486   */\n      0x20\n        /* \"#utility.yul\":47473:47482   */\n      dup3\n        /* \"#utility.yul\":47469:47487   */\n      add\n        /* \"#utility.yul\":47461:47487   */\n      swap1\n      pop\n        /* \"#utility.yul\":47533:47542   */\n      dup2\n        /* \"#utility.yul\":47527:47531   */\n      dup2\n        /* \"#utility.yul\":47523:47543   */\n      sub\n        /* \"#utility.yul\":47519:47520   */\n      0x00\n        /* \"#utility.yul\":47508:47517   */\n      dup4\n        /* \"#utility.yul\":47504:47521   */\n      add\n        /* \"#utility.yul\":47497:47544   */\n      mstore\n        /* \"#utility.yul\":47561:47692   */\n      tag_825\n        /* \"#utility.yul\":47687:47691   */\n      dup2\n        /* \"#utility.yul\":47561:47692   */\n      tag_418\n      jump\t// in\n    tag_825:\n        /* \"#utility.yul\":47553:47692   */\n      swap1\n      pop\n        /* \"#utility.yul\":47280:47699   */\n      swap2\n      swap1\n      pop\n      jump\t// out\n        /* \"#utility.yul\":47705:47896   */\n    tag_234:\n        /* \"#utility.yul\":47745:47748   */\n      0x00\n        /* \"#utility.yul\":47764:47784   */\n      tag_827\n        /* \"#utility.yul\":47782:47783   */\n      dup3\n        /* \"#utility.yul\":47764:47784   */\n      tag_302\n      jump\t// in\n    tag_827:\n        /* \"#utility.yul\":47759:47784   */\n      swap2\n      pop\n        /* \"#utility.yul\":47798:47818   */\n      tag_828\n        /* \"#utility.yul\":47816:47817   */\n      dup4\n        /* \"#utility.yul\":47798:47818   */\n      tag_302\n      jump\t// in\n    tag_828:\n        /* \"#utility.yul\":47793:47818   */\n      swap3\n      pop\n        /* \"#utility.yul\":47841:47842   */\n      dup3\n        /* \"#utility.yul\":47838:47839   */\n      dup3\n        /* \"#utility.yul\":47834:47843   */\n      add\n        /* \"#utility.yul\":47827:47843   */\n      swap1\n      pop\n        /* \"#utility.yul\":47862:47865   */\n      dup1\n        /* \"#utility.yul\":47859:47860   */\n      dup3\n        /* \"#utility.yul\":47856:47866   */\n      gt\n        /* \"#utility.yul\":47853:47889   */\n      iszero\n      tag_829\n      jumpi\n        /* \"#utility.yul\":47869:47887   */\n      tag_830\n      tag_373\n      jump\t// in\n    tag_830:\n        /* \"#utility.yul\":47853:47889   */\n    tag_829:\n        /* \"#utility.yul\":47705:47896   */\n      swap3\n      swap2\n      pop\n      pop\n      jump\t// out\n        /* \"#utility.yul\":47902:48011   */\n    tag_419:\n        /* \"#utility.yul\":47983:48004   */\n      tag_832\n        /* \"#utility.yul\":47998:48003   */\n      dup2\n        /* \"#utility.yul\":47983:48004   */\n      tag_341\n      jump\t// in\n    tag_832:\n        /* \"#utility.yul\":47978:47981   */\n      dup3\n        /* \"#utility.yul\":47971:48005   */\n      mstore\n        /* \"#utility.yul\":47902:48011   */\n      pop\n      pop\n      jump\t// out\n        /* \"#utility.yul\":48017:48337   */\n    tag_241:\n        /* \"#utility.yul\":48132:48136   */\n      0x00\n        /* \"#utility.yul\":48170:48172   */\n      0x40\n        /* \"#utility.yul\":48159:48168   */\n      dup3\n        /* \"#utility.yul\":48155:48173   */\n      add\n        /* \"#utility.yul\":48147:48173   */\n      swap1\n      pop\n        /* \"#utility.yul\":48183:48254   */\n      tag_834\n        /* \"#utility.yul\":48251:48252   */\n      0x00\n        /* \"#utility.yul\":48240:48249   */\n      dup4\n        /* \"#utility.yul\":48236:48253   */\n      add\n        /* \"#utility.yul\":48227:48233   */\n      dup6\n        /* \"#utility.yul\":48183:48254   */\n      tag_303\n      jump\t// in\n    tag_834:\n        /* \"#utility.yul\":48264:48330   */\n      tag_835\n        /* \"#utility.yul\":48326:48328   */\n      0x20\n        /* \"#utility.yul\":48315:48324   */\n      dup4\n        /* \"#utility.yul\":48311:48329   */\n      add\n        /* \"#utility.yul\":48302:48308   */\n      dup5\n        /* \"#utility.yul\":48264:48330   */\n      tag_419\n      jump\t// in\n    tag_835:\n        /* \"#utility.yul\":48017:48337   */\n      swap4\n      swap3\n      pop\n      pop\n      pop\n      jump\t// out\n\n    auxdata: 0xa26469706673582212207c7fcba910c244ed24e0682b89f6c8ecd7969fd2fcedc51e0fcbfa214bfb44e164736f6c63430008120033\n}\n",
				"bytecode": {
					"linkReferences": {},
					"object": "6080604052600060015534801561001557600080fd5b50613569806100256000396000f3fe60806040526004361061007b5760003560e01c8063278ecde11161004e578063278ecde1146101555780639943e3a11461017e578063a256580e146101bb578063a6b03633146101d75761007b565b806307ca140d146100805780630fa91fa9146100ab578063141961bc146100e9578063155dd5ee1461012c575b600080fd5b34801561008c57600080fd5b50610095610202565b6040516100a29190611cbb565b60405180910390f35b3480156100b757600080fd5b506100d260048036038101906100cd9190611d16565b610208565b6040516100e0929190611ef1565b60405180910390f35b3480156100f557600080fd5b50610110600480360381019061010b9190611d16565b610318565b6040516101239796959493929190611fc7565b60405180910390f35b34801561013857600080fd5b50610153600480360381019061014e9190611d16565b610512565b005b34801561016157600080fd5b5061017c60048036038101906101779190611d16565b610a3a565b005b34801561018a57600080fd5b506101a560048036038101906101a091906121ac565b611002565b6040516101b29190611cbb565b60405180910390f35b6101d560048036038101906101d091906122c5565b611213565b005b3480156101e357600080fd5b506101ec611668565b6040516101f991906126aa565b60405180910390f35b60015481565b606080600080848152602001908152602001600020600701600080858152602001908152602001600020600801818054806020026020016040519081016040528092919081815260200182805480156102b657602002820191906000526020600020905b8160009054906101000a900473ffffffffffffffffffffffffffffffffffffffff1673ffffffffffffffffffffffffffffffffffffffff168152602001906001019080831161026c575b505050505091508080548060200260200160405190810160405280929190818152602001828054801561030857602002820191906000526020600020905b8154815260200190600101908083116102f4575b5050505050905091509150915091565b60006020528060005260406000206000915090508060000160009054906101000a900473ffffffffffffffffffffffffffffffffffffffff1690806001018054610361906126fb565b80601f016020809104026020016040519081016040528092919081815260200182805461038d906126fb565b80156103da5780601f106103af576101008083540402835291602001916103da565b820191906000526020600020905b8154815290600101906020018083116103bd57829003601f168201915b5050505050908060020180546103ef906126fb565b80601f016020809104026020016040519081016040528092919081815260200182805461041b906126fb565b80156104685780601f1061043d57610100808354040283529160200191610468565b820191906000526020600020905b81548152906001019060200180831161044b57829003601f168201915b50505050509080600301549080600401549080600501549080600601805461048f906126fb565b80601f01602080910402602001604051908101604052809291908181526020018280546104bb906126fb565b80156105085780601f106104dd57610100808354040283529160200191610508565b820191906000526020600020905b8154815290600101906020018083116104eb57829003601f168201915b5050505050905087565b80600080600083815260200190815260200160002090508060000160009054906101000a900473ffffffffffffffffffffffffffffffffffffffff1673ffffffffffffffffffffffffffffffffffffffff163373ffffffffffffffffffffffffffffffffffffffff16146105bb576040517f08c379a00000000000000000000000000000000000000000000000000000000081526004016105b290612778565b60405180910390fd5b60008060008581526020019081526020016000209050600073ffffffffffffffffffffffffffffffffffffffff168160000160009054906101000a900473ffffffffffffffffffffffffffffffffffffffff1673ffffffffffffffffffffffffffffffffffffffff1603610664576040517f08c379a000000000000000000000000000000000000000000000000000000000815260040161065b9061280a565b60405180910390fd5b806004015442116106aa576040517f08c379a00000000000000000000000000000000000000000000000000000000081526004016106a190612876565b60405180910390fd5b60008160050154116106f1576040517f08c379a00000000000000000000000000000000000000000000000000000000081526004016106e8906128e2565b60405180910390fd5b806003015481600501541015610908576000816007018054905090506000606460338361071e9190612931565b61072891906129a2565b90506000805b8381101561079f57600085600901828154811061074e5761074d6129d3565b5b90600052602060002090602091828204019190069054906101000a900460ff169050600115158115150361078b57828061078790612a02565b9350505b50808061079790612a02565b91505061072e565b50818110156107e3576040517f08c379a00000000000000000000000000000000000000000000000000000000081526004016107da90612a96565b60405180910390fd5b60008460000160009054906101000a900473ffffffffffffffffffffffffffffffffffffffff1673ffffffffffffffffffffffffffffffffffffffff16856005015460405161083190612ae7565b60006040518083038185875af1925050503d806000811461086e576040519150601f19603f3d011682016040523d82523d6000602084013e610873565b606091505b5050905060011515811515146108be576040517f08c379a00000000000000000000000000000000000000000000000000000000081526004016108b590612b6e565b60405180910390fd5b7f5beff99a090cde8c7147f5287b6dcb2b32ac614b205ba849cb155f19bea596b1886040516108ed9190612c26565b60405180910390a16000856005018190555050505050610a34565b60008160000160009054906101000a900473ffffffffffffffffffffffffffffffffffffffff1673ffffffffffffffffffffffffffffffffffffffff1682600501546127109060405161095a90612ae7565b600060405180830381858888f193505050503d8060008114610998576040519150601f19603f3d011682016040523d82523d6000602084013e61099d565b606091505b5050905060011515811515146109e8576040517f08c379a00000000000000000000000000000000000000000000000000000000081526004016109df90612b6e565b60405180910390fd5b6109f185611abb565b7f5beff99a090cde8c7147f5287b6dcb2b32ac614b205ba849cb155f19bea596b185604051610a209190612cc6565b60405180910390a160008260050181905550505b50505050565b60008060008381526020019081526020016000209050600073ffffffffffffffffffffffffffffffffffffffff168160000160009054906101000a900473ffffffffffffffffffffffffffffffffffffffff1673ffffffffffffffffffffffffffffffffffffffff1603610ae3576040517f08c379a0000000000000000000000000000000000000000000000000000000008152600401610ada9061280a565b60405180910390fd5b42816004015410610b29576040517f08c379a0000000000000000000000000000000000000000000000000000000008152600401610b2090612876565b60405180910390fd5b8060030154816005015410610b73576040517f08c379a0000000000000000000000000000000000000000000000000000000008152600401610b6a90612d40565b60405180910390fd5b8060000160009054906101000a900473ffffffffffffffffffffffffffffffffffffffff1673ffffffffffffffffffffffffffffffffffffffff163373ffffffffffffffffffffffffffffffffffffffff1603610c05576040517f08c379a0000000000000000000000000000000000000000000000000000000008152600401610bfc90612dac565b60405180910390fd5b6000816005015411610c4c576040517f08c379a0000000000000000000000000000000000000000000000000000000008152600401610c4390612e3e565b60405180910390fd5b60008060005b8360070180549050811015610cf3573373ffffffffffffffffffffffffffffffffffffffff16846007018281548110610c8e57610c8d6129d3565b5b9060005260206000200160009054906101000a900473ffffffffffffffffffffffffffffffffffffffff1673ffffffffffffffffffffffffffffffffffffffff1603610ce05780925060019150610cf3565b8080610ceb90612a02565b915050610c52565b506001151581151514610d3b576040517f08c379a0000000000000000000000000000000000000000000000000000000008152600401610d3290612ed0565b60405180910390fd5b6000836008018381548110610d5357610d526129d3565b5b906000526020600020015490508360070160018560070180549050610d789190612ef0565b81548110610d8957610d886129d3565b5b9060005260206000200160009054906101000a900473ffffffffffffffffffffffffffffffffffffffff16846007018481548110610dca57610dc96129d3565b5b9060005260206000200160006101000a81548173ffffffffffffffffffffffffffffffffffffffff021916908373ffffffffffffffffffffffffffffffffffffffff16021790555083600701805480610e2657610e25612f24565b5b6001900381819060005260206000200160006101000a81549073ffffffffffffffffffffffffffffffffffffffff021916905590558360080160018560080180549050610e739190612ef0565b81548110610e8457610e836129d3565b5b9060005260206000200154846008018481548110610ea557610ea46129d3565b5b906000526020600020018190555083600801805480610ec757610ec6612f24565b5b6001900381819060005260206000200160009055905560003373ffffffffffffffffffffffffffffffffffffffff1682604051610f0390612ae7565b60006040518083038185875af1925050503d8060008114610f40576040519150601f19603f3d011682016040523d82523d6000602084013e610f45565b606091505b505090506001151581151514610f90576040517f08c379a0000000000000000000000000000000000000000000000000000000008152600401610f8790612f9f565b60405180910390fd5b3373ffffffffffffffffffffffffffffffffffffffff16867f7a482fdeb6bc9a1376f597068a214a7a39472bb2eff1b8cad21ba04f49ddca1b84604051610fd79190611cbb565b60405180910390a381856005016000828254610ff39190612ef0565b92505081905550505050505050565b6000428311611046576040517f08c379a000000000000000000000000000000000000000000000000000000000815260040161103d90613031565b60405180910390fd5b60008411611089576040517f08c379a0000000000000000000000000000000000000000000000000000000008152600401611080906130c3565b60405180910390fd5b6000865111801561109b575060008551115b80156110a8575060008251115b6110e7576040517f08c379a00000000000000000000000000000000000000000000000000000000081526004016110de90613155565b60405180910390fd5b600080600060015481526020019081526020016000209050878160000160006101000a81548173ffffffffffffffffffffffffffffffffffffffff021916908373ffffffffffffffffffffffffffffffffffffffff160217905550868160010190816111539190613321565b50858160020190816111659190613321565b50848160030181905550838160040181905550828160060190816111899190613321565b508773ffffffffffffffffffffffffffffffffffffffff167fac19613078b51501aaa270ef8c4878d3ef375fdd93e7f2b7d7e67926fae841c888888888886040516111d89594939291906133f3565b60405180910390a2600160008154809291906111f390612a02565b9190505550600180546112069190612ef0565b9150509695505050505050565b600034905060008060008581526020019081526020016000209050600073ffffffffffffffffffffffffffffffffffffffff168160000160009054906101000a900473ffffffffffffffffffffffffffffffffffffffff1673ffffffffffffffffffffffffffffffffffffffff16036112c1576040517f08c379a00000000000000000000000000000000000000000000000000000000081526004016112b89061280a565b60405180910390fd5b42816004015411611307576040517f08c379a00000000000000000000000000000000000000000000000000000000081526004016112fe906134a7565b60405180910390fd5b8060000160009054906101000a900473ffffffffffffffffffffffffffffffffffffffff1673ffffffffffffffffffffffffffffffffffffffff163373ffffffffffffffffffffffffffffffffffffffff1603611399576040517f08c379a000000000000000000000000000000000000000000000000000000000815260040161139090612dac565b60405180910390fd5b6000805b8260070180549050811015611437578260070181815481106113c2576113c16129d3565b5b9060005260206000200160009054906101000a900473ffffffffffffffffffffffffffffffffffffffff1673ffffffffffffffffffffffffffffffffffffffff163373ffffffffffffffffffffffffffffffffffffffff160361142457600191505b808061142f90612a02565b91505061139d565b50600115158115150361151e5760005b82600701805490508110156115185782600701818154811061146c5761146b6129d3565b5b9060005260206000200160009054906101000a900473ffffffffffffffffffffffffffffffffffffffff1673ffffffffffffffffffffffffffffffffffffffff163373ffffffffffffffffffffffffffffffffffffffff160361150557838360080182815481106114e0576114df6129d3565b5b9060005260206000200160008282546114f991906134c7565b92505081905550611518565b808061151090612a02565b915050611447565b506115f5565b81600701339080600181540180825580915050600190039060005260206000200160009091909190916101000a81548173ffffffffffffffffffffffffffffffffffffffff021916908373ffffffffffffffffffffffffffffffffffffffff16021790555081600801839080600181540180825580915050600190039060005260206000200160009091909190915055816009018490806001815401808255809150506001900390600052602060002090602091828204019190069091909190916101000a81548160ff0219169083151502179055505b3373ffffffffffffffffffffffffffffffffffffffff16857f665ae3d7b1878285ba5b24aad2297e9585ab3110185e2d75a78f33772084e9b5858760405161163e92919061350a565b60405180910390a38282600501600082825461165a91906134c7565b925050819055505050505050565b6060600060015467ffffffffffffffff81111561168857611687612081565b5b6040519080825280602002602001820160405280156116c157816020015b6116ae611b72565b8152602001906001900390816116a65790505b50905060005b600154811015611ab3576000806000838152602001908152602001600020905080604051806101400160405290816000820160009054906101000a900473ffffffffffffffffffffffffffffffffffffffff1673ffffffffffffffffffffffffffffffffffffffff1673ffffffffffffffffffffffffffffffffffffffff16815260200160018201805461175a906126fb565b80601f0160208091040260200160405190810160405280929190818152602001828054611786906126fb565b80156117d35780601f106117a8576101008083540402835291602001916117d3565b820191906000526020600020905b8154815290600101906020018083116117b657829003601f168201915b505050505081526020016002820180546117ec906126fb565b80601f0160208091040260200160405190810160405280929190818152602001828054611818906126fb565b80156118655780601f1061183a57610100808354040283529160200191611865565b820191906000526020600020905b81548152906001019060200180831161184857829003601f168201915b5050505050815260200160038201548152602001600482015481526020016005820154815260200160068201805461189c906126fb565b80601f01602080910402602001604051908101604052809291908181526020018280546118c8906126fb565b80156119155780601f106118ea57610100808354040283529160200191611915565b820191906000526020600020905b8154815290600101906020018083116118f857829003601f168201915b50505050508152602001600782018054806020026020016040519081016040528092919081815260200182805480156119a357602002820191906000526020600020905b8160009054906101000a900473ffffffffffffffffffffffffffffffffffffffff1673ffffffffffffffffffffffffffffffffffffffff1681526020019060010190808311611959575b50505050508152602001600882018054806020026020016040519081016040528092919081815260200182805480156119fb57602002820191906000526020600020905b8154815260200190600101908083116119e7575b5050505050815260200160098201805480602002602001604051908101604052809291908181526020018280548015611a7857602002820191906000526020600020906000905b82829054906101000a900460ff16151581526020019060010190602082600001049283019260010382029150808411611a425790505b505050505081525050838381518110611a9457611a936129d3565b5b6020026020010181905250508080611aab90612a02565b9150506116c7565b508091505090565b600080828152602001908152602001600020600080820160006101000a81549073ffffffffffffffffffffffffffffffffffffffff0219169055600182016000611b059190611bdb565b600282016000611b159190611bdb565b600382016000905560048201600090556005820160009055600682016000611b3d9190611bdb565b600782016000611b4d9190611c1b565b600882016000611b5d9190611c3c565b600982016000611b6d9190611c5d565b505050565b604051806101400160405280600073ffffffffffffffffffffffffffffffffffffffff1681526020016060815260200160608152602001600081526020016000815260200160008152602001606081526020016060815260200160608152602001606081525090565b508054611be7906126fb565b6000825580601f10611bf95750611c18565b601f016020900490600052602060002090810190611c179190611c85565b5b50565b5080546000825590600052602060002090810190611c399190611c85565b50565b5080546000825590600052602060002090810190611c5a9190611c85565b50565b50805460008255601f016020900490600052602060002090810190611c829190611c85565b50565b5b80821115611c9e576000816000905550600101611c86565b5090565b6000819050919050565b611cb581611ca2565b82525050565b6000602082019050611cd06000830184611cac565b92915050565b6000604051905090565b600080fd5b600080fd5b611cf381611ca2565b8114611cfe57600080fd5b50565b600081359050611d1081611cea565b92915050565b600060208284031215611d2c57611d2b611ce0565b5b6000611d3a84828501611d01565b91505092915050565b600081519050919050565b600082825260208201905092915050565b6000819050602082019050919050565b600073ffffffffffffffffffffffffffffffffffffffff82169050919050565b6000611d9a82611d6f565b9050919050565b611daa81611d8f565b82525050565b6000611dbc8383611da1565b60208301905092915050565b6000602082019050919050565b6000611de082611d43565b611dea8185611d4e565b9350611df583611d5f565b8060005b83811015611e26578151611e0d8882611db0565b9750611e1883611dc8565b925050600181019050611df9565b5085935050505092915050565b600081519050919050565b600082825260208201905092915050565b6000819050602082019050919050565b611e6881611ca2565b82525050565b6000611e7a8383611e5f565b60208301905092915050565b6000602082019050919050565b6000611e9e82611e33565b611ea88185611e3e565b9350611eb383611e4f565b8060005b83811015611ee4578151611ecb8882611e6e565b9750611ed683611e86565b925050600181019050611eb7565b5085935050505092915050565b60006040820190508181036000830152611f0b8185611dd5565b90508181036020830152611f1f8184611e93565b90509392505050565b611f3181611d8f565b82525050565b600081519050919050565b600082825260208201905092915050565b60005b83811015611f71578082015181840152602081019050611f56565b60008484015250505050565b6000601f19601f8301169050919050565b6000611f9982611f37565b611fa38185611f42565b9350611fb3818560208601611f53565b611fbc81611f7d565b840191505092915050565b600060e082019050611fdc600083018a611f28565b8181036020830152611fee8189611f8e565b905081810360408301526120028188611f8e565b90506120116060830187611cac565b61201e6080830186611cac565b61202b60a0830185611cac565b81810360c083015261203d8184611f8e565b905098975050505050505050565b61205481611d8f565b811461205f57600080fd5b50565b6000813590506120718161204b565b92915050565b600080fd5b600080fd5b7f4e487b7100000000000000000000000000000000000000000000000000000000600052604160045260246000fd5b6120b982611f7d565b810181811067ffffffffffffffff821117156120d8576120d7612081565b5b80604052505050565b60006120eb611cd6565b90506120f782826120b0565b919050565b600067ffffffffffffffff82111561211757612116612081565b5b61212082611f7d565b9050602081019050919050565b82818337600083830152505050565b600061214f61214a846120fc565b6120e1565b90508281526020810184848401111561216b5761216a61207c565b5b61217684828561212d565b509392505050565b600082601f83011261219357612192612077565b5b81356121a384826020860161213c565b91505092915050565b60008060008060008060c087890312156121c9576121c8611ce0565b5b60006121d789828a01612062565b965050602087013567ffffffffffffffff8111156121f8576121f7611ce5565b5b61220489828a0161217e565b955050604087013567ffffffffffffffff81111561222557612224611ce5565b5b61223189828a0161217e565b945050606061224289828a01611d01565b935050608061225389828a01611d01565b92505060a087013567ffffffffffffffff81111561227457612273611ce5565b5b61228089828a0161217e565b9150509295509295509295565b60008115159050919050565b6122a28161228d565b81146122ad57600080fd5b50565b6000813590506122bf81612299565b92915050565b600080604083850312156122dc576122db611ce0565b5b60006122ea85828601611d01565b92505060206122fb858286016122b0565b9150509250929050565b600081519050919050565b600082825260208201905092915050565b6000819050602082019050919050565b600082825260208201905092915050565b600061234d82611f37565b6123578185612331565b9350612367818560208601611f53565b61237081611f7d565b840191505092915050565b600082825260208201905092915050565b600061239782611d43565b6123a1818561237b565b93506123ac83611d5f565b8060005b838110156123dd5781516123c48882611db0565b97506123cf83611dc8565b9250506001810190506123b0565b5085935050505092915050565b600082825260208201905092915050565b600061240682611e33565b61241081856123ea565b935061241b83611e4f565b8060005b8381101561244c5781516124338882611e6e565b975061243e83611e86565b92505060018101905061241f565b5085935050505092915050565b600081519050919050565b600082825260208201905092915050565b6000819050602082019050919050565b61248e8161228d565b82525050565b60006124a08383612485565b60208301905092915050565b6000602082019050919050565b60006124c482612459565b6124ce8185612464565b93506124d983612475565b8060005b8381101561250a5781516124f18882612494565b97506124fc836124ac565b9250506001810190506124dd565b5085935050505092915050565b6000610140830160008301516125306000860182611da1565b50602083015184820360208601526125488282612342565b915050604083015184820360408601526125628282612342565b91505060608301516125776060860182611e5f565b50608083015161258a6080860182611e5f565b5060a083015161259d60a0860182611e5f565b5060c083015184820360c08601526125b58282612342565b91505060e083015184820360e08601526125cf828261238c565b9150506101008301518482036101008601526125eb82826123fb565b91505061012083015184820361012086015261260782826124b9565b9150508091505092915050565b60006126208383612517565b905092915050565b6000602082019050919050565b600061264082612305565b61264a8185612310565b93508360208202850161265c85612321565b8060005b8581101561269857848403895281516126798582612614565b945061268483612628565b925060208a01995050600181019050612660565b50829750879550505050505092915050565b600060208201905081810360008301526126c48184612635565b905092915050565b7f4e487b7100000000000000000000000000000000000000000000000000000000600052602260045260246000fd5b6000600282049050600182168061271357607f821691505b602082108103612726576127256126cc565b5b50919050565b7f4f6e6c79206f776e65722063616e2077697468647261772066756e64732e0000600082015250565b6000612762601e83611f42565b915061276d8261272c565b602082019050919050565b6000602082019050818103600083015261279181612755565b9050919050565b7f43616d706169676e20776173207375636365737366756c6c7920636f6d706c6560008201527f7465640000000000000000000000000000000000000000000000000000000000602082015250565b60006127f4602383611f42565b91506127ff82612798565b604082019050919050565b60006020820190508181036000830152612823816127e7565b9050919050565b7f446561646c696e65206e6f74206d657400000000000000000000000000000000600082015250565b6000612860601083611f42565b915061286b8261282a565b602082019050919050565b6000602082019050818103600083015261288f81612853565b9050919050565b7f4e6f2066756e647320746f207769746864726177000000000000000000000000600082015250565b60006128cc601483611f42565b91506128d782612896565b602082019050919050565b600060208201905081810360008301526128fb816128bf565b9050919050565b7f4e487b7100000000000000000000000000000000000000000000000000000000600052601160045260246000fd5b600061293c82611ca2565b915061294783611ca2565b925082820261295581611ca2565b9150828204841483151761296c5761296b612902565b5b5092915050565b7f4e487b7100000000000000000000000000000000000000000000000000000000600052601260045260246000fd5b60006129ad82611ca2565b91506129b883611ca2565b9250826129c8576129c7612973565b5b828204905092915050565b7f4e487b7100000000000000000000000000000000000000000000000000000000600052603260045260246000fd5b6000612a0d82611ca2565b91507fffffffffffffffffffffffffffffffffffffffffffffffffffffffffffffffff8203612a3f57612a3e612902565b5b600182019050919050565b7f496e73756666696369656e7420737570706f7274000000000000000000000000600082015250565b6000612a80601483611f42565b9150612a8b82612a4a565b602082019050919050565b60006020820190508181036000830152612aaf81612a73565b9050919050565b600081905092915050565b50565b6000612ad1600083612ab6565b9150612adc82612ac1565b600082019050919050565b6000612af282612ac4565b9150819050919050565b7f4661696c656420746f2073656e642066756e647320746f2063616d706169676e60008201527f206f776e65720000000000000000000000000000000000000000000000000000602082015250565b6000612b58602683611f42565b9150612b6382612afc565b604082019050919050565b60006020820190508181036000830152612b8781612b4b565b9050919050565b7f5375636365737366756c6c792077697468647261776e2066756e64732066726f60008201527f6d2063616d706169676e206f776e65722c20627920646f6e61746f727320616760208201527f7265656d656e7400000000000000000000000000000000000000000000000000604082015250565b6000612c10604783611f42565b9150612c1b82612b8e565b606082019050919050565b6000604082019050612c3b6000830184611cac565b8181036020830152612c4c81612c03565b905092915050565b7f5375636365737366756c6c792077697468647261776e2066756e64732066726f60008201527f6d2063616d706169676e206f776e657200000000000000000000000000000000602082015250565b6000612cb0603083611f42565b9150612cbb82612c54565b604082019050919050565b6000604082019050612cdb6000830184611cac565b8181036020830152612cec81612ca3565b905092915050565b7f5461726765742072656163686564000000000000000000000000000000000000600082015250565b6000612d2a600e83611f42565b9150612d3582612cf4565b602082019050919050565b60006020820190508181036000830152612d5981612d1d565b9050919050565b7f4f776e65722063616e27742063616c6c207472616e73616374696f6e00000000600082015250565b6000612d96601c83611f42565b9150612da182612d60565b602082019050919050565b60006020820190508181036000830152612dc581612d89565b9050919050565b7f416d6f756e742068617320616c7265616479206265656e20776974686472617760008201527f6e2062792063616d706169676e206f776e657200000000000000000000000000602082015250565b6000612e28603383611f42565b9150612e3382612dcc565b604082019050919050565b60006020820190508181036000830152612e5781612e1b565b9050919050565b7f596f7520686176656e277420646f6e6174656420746f207468652063616d706160008201527f69676e2079657400000000000000000000000000000000000000000000000000602082015250565b6000612eba602783611f42565b9150612ec582612e5e565b604082019050919050565b60006020820190508181036000830152612ee981612ead565b9050919050565b6000612efb82611ca2565b9150612f0683611ca2565b9250828203905081811115612f1e57612f1d612902565b5b92915050565b7f4e487b7100000000000000000000000000000000000000000000000000000000600052603160045260246000fd5b7f4661696c656420746f2073656e6420726566756e640000000000000000000000600082015250565b6000612f89601583611f42565b9150612f9482612f53565b602082019050919050565b60006020820190508181036000830152612fb881612f7c565b9050919050565b7f446561646c696e652073686f756c642062652061206461746520696e2066757460008201527f7572650000000000000000000000000000000000000000000000000000000000602082015250565b600061301b602383611f42565b915061302682612fbf565b604082019050919050565b6000602082019050818103600083015261304a8161300e565b9050919050565b7f5461726765742076616c75652073686f756c642062652067726561746572207460008201527f68616e207a65726f000000000000000000000000000000000000000000000000602082015250565b60006130ad602883611f42565b91506130b882613051565b604082019050919050565b600060208201905081810360008301526130dc816130a0565b9050919050565b7f496e70757420706172616d657465722073686f756c64206e6f7420626520656d60008201527f707479206f72206e756c6c000000000000000000000000000000000000000000602082015250565b600061313f602b83611f42565b915061314a826130e3565b604082019050919050565b6000602082019050818103600083015261316e81613132565b9050919050565b60008190508160005260206000209050919050565b60006020601f8301049050919050565b600082821b905092915050565b6000600883026131d77fffffffffffffffffffffffffffffffffffffffffffffffffffffffffffffffff8261319a565b6131e1868361319a565b95508019841693508086168417925050509392505050565b6000819050919050565b600061321e61321961321484611ca2565b6131f9565b611ca2565b9050919050565b6000819050919050565b61323883613203565b61324c61324482613225565b8484546131a7565b825550505050565b600090565b613261613254565b61326c81848461322f565b505050565b5b8181101561329057613285600082613259565b600181019050613272565b5050565b601f8211156132d5576132a681613175565b6132af8461318a565b810160208510156132be578190505b6132d26132ca8561318a565b830182613271565b50505b505050565b600082821c905092915050565b60006132f8600019846008026132da565b1980831691505092915050565b600061331183836132e7565b9150826002028217905092915050565b61332a82611f37565b67ffffffffffffffff81111561334357613342612081565b5b61334d82546126fb565b613358828285613294565b600060209050601f83116001811461338b5760008415613379578287015190505b6133838582613305565b8655506133eb565b601f19841661339986613175565b60005b828110156133c15784890151825560018201915060208501945060208101905061339c565b868310156133de57848901516133da601f8916826132e7565b8355505b6001600288020188555050505b505050505050565b600060a082019050818103600083015261340d8188611f8e565b905081810360208301526134218187611f8e565b90506134306040830186611cac565b61343d6060830185611cac565b818103608083015261344f8184611f8e565b90509695505050505050565b7f646561646c696e6520616c7265616479206d6574000000000000000000000000600082015250565b6000613491601483611f42565b915061349c8261345b565b602082019050919050565b600060208201905081810360008301526134c081613484565b9050919050565b60006134d282611ca2565b91506134dd83611ca2565b92508282019050808211156134f5576134f4612902565b5b92915050565b6135048161228d565b82525050565b600060408201905061351f6000830185611cac565b61352c60208301846134fb565b939250505056fea26469706673582212207c7fcba910c244ed24e0682b89f6c8ecd7969fd2fcedc51e0fcbfa214bfb44e164736f6c63430008120033",
					"opcodes": "PUSH1 0x80 PUSH1 0x40 MSTORE PUSH1 0x0 PUSH1 0x1 SSTORE CALLVALUE DUP1 ISZERO PUSH2 0x15 JUMPI PUSH1 0x0 DUP1 REVERT JUMPDEST POP PUSH2 0x3569 DUP1 PUSH2 0x25 PUSH1 0x0 CODECOPY PUSH1 0x0 RETURN INVALID PUSH1 0x80 PUSH1 0x40 MSTORE PUSH1 0x4 CALLDATASIZE LT PUSH2 0x7B JUMPI PUSH1 0x0 CALLDATALOAD PUSH1 0xE0 SHR DUP1 PUSH4 0x278ECDE1 GT PUSH2 0x4E JUMPI DUP1 PUSH4 0x278ECDE1 EQ PUSH2 0x155 JUMPI DUP1 PUSH4 0x9943E3A1 EQ PUSH2 0x17E JUMPI DUP1 PUSH4 0xA256580E EQ PUSH2 0x1BB JUMPI DUP1 PUSH4 0xA6B03633 EQ PUSH2 0x1D7 JUMPI PUSH2 0x7B JUMP JUMPDEST DUP1 PUSH4 0x7CA140D EQ PUSH2 0x80 JUMPI DUP1 PUSH4 0xFA91FA9 EQ PUSH2 0xAB JUMPI DUP1 PUSH4 0x141961BC EQ PUSH2 0xE9 JUMPI DUP1 PUSH4 0x155DD5EE EQ PUSH2 0x12C JUMPI JUMPDEST PUSH1 0x0 DUP1 REVERT JUMPDEST CALLVALUE DUP1 ISZERO PUSH2 0x8C JUMPI PUSH1 0x0 DUP1 REVERT JUMPDEST POP PUSH2 0x95 PUSH2 0x202 JUMP JUMPDEST PUSH1 0x40 MLOAD PUSH2 0xA2 SWAP2 SWAP1 PUSH2 0x1CBB JUMP JUMPDEST PUSH1 0x40 MLOAD DUP1 SWAP2 SUB SWAP1 RETURN JUMPDEST CALLVALUE DUP1 ISZERO PUSH2 0xB7 JUMPI PUSH1 0x0 DUP1 REVERT JUMPDEST POP PUSH2 0xD2 PUSH1 0x4 DUP1 CALLDATASIZE SUB DUP2 ADD SWAP1 PUSH2 0xCD SWAP2 SWAP1 PUSH2 0x1D16 JUMP JUMPDEST PUSH2 0x208 JUMP JUMPDEST PUSH1 0x40 MLOAD PUSH2 0xE0 SWAP3 SWAP2 SWAP1 PUSH2 0x1EF1 JUMP JUMPDEST PUSH1 0x40 MLOAD DUP1 SWAP2 SUB SWAP1 RETURN JUMPDEST CALLVALUE DUP1 ISZERO PUSH2 0xF5 JUMPI PUSH1 0x0 DUP1 REVERT JUMPDEST POP PUSH2 0x110 PUSH1 0x4 DUP1 CALLDATASIZE SUB DUP2 ADD SWAP1 PUSH2 0x10B SWAP2 SWAP1 PUSH2 0x1D16 JUMP JUMPDEST PUSH2 0x318 JUMP JUMPDEST PUSH1 0x40 MLOAD PUSH2 0x123 SWAP8 SWAP7 SWAP6 SWAP5 SWAP4 SWAP3 SWAP2 SWAP1 PUSH2 0x1FC7 JUMP JUMPDEST PUSH1 0x40 MLOAD DUP1 SWAP2 SUB SWAP1 RETURN JUMPDEST CALLVALUE DUP1 ISZERO PUSH2 0x138 JUMPI PUSH1 0x0 DUP1 REVERT JUMPDEST POP PUSH2 0x153 PUSH1 0x4 DUP1 CALLDATASIZE SUB DUP2 ADD SWAP1 PUSH2 0x14E SWAP2 SWAP1 PUSH2 0x1D16 JUMP JUMPDEST PUSH2 0x512 JUMP JUMPDEST STOP JUMPDEST CALLVALUE DUP1 ISZERO PUSH2 0x161 JUMPI PUSH1 0x0 DUP1 REVERT JUMPDEST POP PUSH2 0x17C PUSH1 0x4 DUP1 CALLDATASIZE SUB DUP2 ADD SWAP1 PUSH2 0x177 SWAP2 SWAP1 PUSH2 0x1D16 JUMP JUMPDEST PUSH2 0xA3A JUMP JUMPDEST STOP JUMPDEST CALLVALUE DUP1 ISZERO PUSH2 0x18A JUMPI PUSH1 0x0 DUP1 REVERT JUMPDEST POP PUSH2 0x1A5 PUSH1 0x4 DUP1 CALLDATASIZE SUB DUP2 ADD SWAP1 PUSH2 0x1A0 SWAP2 SWAP1 PUSH2 0x21AC JUMP JUMPDEST PUSH2 0x1002 JUMP JUMPDEST PUSH1 0x40 MLOAD PUSH2 0x1B2 SWAP2 SWAP1 PUSH2 0x1CBB JUMP JUMPDEST PUSH1 0x40 MLOAD DUP1 SWAP2 SUB SWAP1 RETURN JUMPDEST PUSH2 0x1D5 PUSH1 0x4 DUP1 CALLDATASIZE SUB DUP2 ADD SWAP1 PUSH2 0x1D0 SWAP2 SWAP1 PUSH2 0x22C5 JUMP JUMPDEST PUSH2 0x1213 JUMP JUMPDEST STOP JUMPDEST CALLVALUE DUP1 ISZERO PUSH2 0x1E3 JUMPI PUSH1 0x0 DUP1 REVERT JUMPDEST POP PUSH2 0x1EC PUSH2 0x1668 JUMP JUMPDEST PUSH1 0x40 MLOAD PUSH2 0x1F9 SWAP2 SWAP1 PUSH2 0x26AA JUMP JUMPDEST PUSH1 0x40 MLOAD DUP1 SWAP2 SUB SWAP1 RETURN JUMPDEST PUSH1 0x1 SLOAD DUP2 JUMP JUMPDEST PUSH1 0x60 DUP1 PUSH1 0x0 DUP1 DUP5 DUP2 MSTORE PUSH1 0x20 ADD SWAP1 DUP2 MSTORE PUSH1 0x20 ADD PUSH1 0x0 KECCAK256 PUSH1 0x7 ADD PUSH1 0x0 DUP1 DUP6 DUP2 MSTORE PUSH1 0x20 ADD SWAP1 DUP2 MSTORE PUSH1 0x20 ADD PUSH1 0x0 KECCAK256 PUSH1 0x8 ADD DUP2 DUP1 SLOAD DUP1 PUSH1 0x20 MUL PUSH1 0x20 ADD PUSH1 0x40 MLOAD SWAP1 DUP2 ADD PUSH1 0x40 MSTORE DUP1 SWAP3 SWAP2 SWAP1 DUP2 DUP2 MSTORE PUSH1 0x20 ADD DUP3 DUP1 SLOAD DUP1 ISZERO PUSH2 0x2B6 JUMPI PUSH1 0x20 MUL DUP3 ADD SWAP2 SWAP1 PUSH1 0x0 MSTORE PUSH1 0x20 PUSH1 0x0 KECCAK256 SWAP1 JUMPDEST DUP2 PUSH1 0x0 SWAP1 SLOAD SWAP1 PUSH2 0x100 EXP SWAP1 DIV PUSH20 0xFFFFFFFFFFFFFFFFFFFFFFFFFFFFFFFFFFFFFFFF AND PUSH20 0xFFFFFFFFFFFFFFFFFFFFFFFFFFFFFFFFFFFFFFFF AND DUP2 MSTORE PUSH1 0x20 ADD SWAP1 PUSH1 0x1 ADD SWAP1 DUP1 DUP4 GT PUSH2 0x26C JUMPI JUMPDEST POP POP POP POP POP SWAP2 POP DUP1 DUP1 SLOAD DUP1 PUSH1 0x20 MUL PUSH1 0x20 ADD PUSH1 0x40 MLOAD SWAP1 DUP2 ADD PUSH1 0x40 MSTORE DUP1 SWAP3 SWAP2 SWAP1 DUP2 DUP2 MSTORE PUSH1 0x20 ADD DUP3 DUP1 SLOAD DUP1 ISZERO PUSH2 0x308 JUMPI PUSH1 0x20 MUL DUP3 ADD SWAP2 SWAP1 PUSH1 0x0 MSTORE PUSH1 0x20 PUSH1 0x0 KECCAK256 SWAP1 JUMPDEST DUP2 SLOAD DUP2 MSTORE PUSH1 0x20 ADD SWAP1 PUSH1 0x1 ADD SWAP1 DUP1 DUP4 GT PUSH2 0x2F4 JUMPI JUMPDEST POP POP POP POP POP SWAP1 POP SWAP2 POP SWAP2 POP SWAP2 POP SWAP2 JUMP JUMPDEST PUSH1 0x0 PUSH1 0x20 MSTORE DUP1 PUSH1 0x0 MSTORE PUSH1 0x40 PUSH1 0x0 KECCAK256 PUSH1 0x0 SWAP2 POP SWAP1 POP DUP1 PUSH1 0x0 ADD PUSH1 0x0 SWAP1 SLOAD SWAP1 PUSH2 0x100 EXP SWAP1 DIV PUSH20 0xFFFFFFFFFFFFFFFFFFFFFFFFFFFFFFFFFFFFFFFF AND SWAP1 DUP1 PUSH1 0x1 ADD DUP1 SLOAD PUSH2 0x361 SWAP1 PUSH2 0x26FB JUMP JUMPDEST DUP1 PUSH1 0x1F ADD PUSH1 0x20 DUP1 SWAP2 DIV MUL PUSH1 0x20 ADD PUSH1 0x40 MLOAD SWAP1 DUP2 ADD PUSH1 0x40 MSTORE DUP1 SWAP3 SWAP2 SWAP1 DUP2 DUP2 MSTORE PUSH1 0x20 ADD DUP3 DUP1 SLOAD PUSH2 0x38D SWAP1 PUSH2 0x26FB JUMP JUMPDEST DUP1 ISZERO PUSH2 0x3DA JUMPI DUP1 PUSH1 0x1F LT PUSH2 0x3AF JUMPI PUSH2 0x100 DUP1 DUP4 SLOAD DIV MUL DUP4 MSTORE SWAP2 PUSH1 0x20 ADD SWAP2 PUSH2 0x3DA JUMP JUMPDEST DUP3 ADD SWAP2 SWAP1 PUSH1 0x0 MSTORE PUSH1 0x20 PUSH1 0x0 KECCAK256 SWAP1 JUMPDEST DUP2 SLOAD DUP2 MSTORE SWAP1 PUSH1 0x1 ADD SWAP1 PUSH1 0x20 ADD DUP1 DUP4 GT PUSH2 0x3BD JUMPI DUP3 SWAP1 SUB PUSH1 0x1F AND DUP3 ADD SWAP2 JUMPDEST POP POP POP POP POP SWAP1 DUP1 PUSH1 0x2 ADD DUP1 SLOAD PUSH2 0x3EF SWAP1 PUSH2 0x26FB JUMP JUMPDEST DUP1 PUSH1 0x1F ADD PUSH1 0x20 DUP1 SWAP2 DIV MUL PUSH1 0x20 ADD PUSH1 0x40 MLOAD SWAP1 DUP2 ADD PUSH1 0x40 MSTORE DUP1 SWAP3 SWAP2 SWAP1 DUP2 DUP2 MSTORE PUSH1 0x20 ADD DUP3 DUP1 SLOAD PUSH2 0x41B SWAP1 PUSH2 0x26FB JUMP JUMPDEST DUP1 ISZERO PUSH2 0x468 JUMPI DUP1 PUSH1 0x1F LT PUSH2 0x43D JUMPI PUSH2 0x100 DUP1 DUP4 SLOAD DIV MUL DUP4 MSTORE SWAP2 PUSH1 0x20 ADD SWAP2 PUSH2 0x468 JUMP JUMPDEST DUP3 ADD SWAP2 SWAP1 PUSH1 0x0 MSTORE PUSH1 0x20 PUSH1 0x0 KECCAK256 SWAP1 JUMPDEST DUP2 SLOAD DUP2 MSTORE SWAP1 PUSH1 0x1 ADD SWAP1 PUSH1 0x20 ADD DUP1 DUP4 GT PUSH2 0x44B JUMPI DUP3 SWAP1 SUB PUSH1 0x1F AND DUP3 ADD SWAP2 JUMPDEST POP POP POP POP POP SWAP1 DUP1 PUSH1 0x3 ADD SLOAD SWAP1 DUP1 PUSH1 0x4 ADD SLOAD SWAP1 DUP1 PUSH1 0x5 ADD SLOAD SWAP1 DUP1 PUSH1 0x6 ADD DUP1 SLOAD PUSH2 0x48F SWAP1 PUSH2 0x26FB JUMP JUMPDEST DUP1 PUSH1 0x1F ADD PUSH1 0x20 DUP1 SWAP2 DIV MUL PUSH1 0x20 ADD PUSH1 0x40 MLOAD SWAP1 DUP2 ADD PUSH1 0x40 MSTORE DUP1 SWAP3 SWAP2 SWAP1 DUP2 DUP2 MSTORE PUSH1 0x20 ADD DUP3 DUP1 SLOAD PUSH2 0x4BB SWAP1 PUSH2 0x26FB JUMP JUMPDEST DUP1 ISZERO PUSH2 0x508 JUMPI DUP1 PUSH1 0x1F LT PUSH2 0x4DD JUMPI PUSH2 0x100 DUP1 DUP4 SLOAD DIV MUL DUP4 MSTORE SWAP2 PUSH1 0x20 ADD SWAP2 PUSH2 0x508 JUMP JUMPDEST DUP3 ADD SWAP2 SWAP1 PUSH1 0x0 MSTORE PUSH1 0x20 PUSH1 0x0 KECCAK256 SWAP1 JUMPDEST DUP2 SLOAD DUP2 MSTORE SWAP1 PUSH1 0x1 ADD SWAP1 PUSH1 0x20 ADD DUP1 DUP4 GT PUSH2 0x4EB JUMPI DUP3 SWAP1 SUB PUSH1 0x1F AND DUP3 ADD SWAP2 JUMPDEST POP POP POP POP POP SWAP1 POP DUP8 JUMP JUMPDEST DUP1 PUSH1 0x0 DUP1 PUSH1 0x0 DUP4 DUP2 MSTORE PUSH1 0x20 ADD SWAP1 DUP2 MSTORE PUSH1 0x20 ADD PUSH1 0x0 KECCAK256 SWAP1 POP DUP1 PUSH1 0x0 ADD PUSH1 0x0 SWAP1 SLOAD SWAP1 PUSH2 0x100 EXP SWAP1 DIV PUSH20 0xFFFFFFFFFFFFFFFFFFFFFFFFFFFFFFFFFFFFFFFF AND PUSH20 0xFFFFFFFFFFFFFFFFFFFFFFFFFFFFFFFFFFFFFFFF AND CALLER PUSH20 0xFFFFFFFFFFFFFFFFFFFFFFFFFFFFFFFFFFFFFFFF AND EQ PUSH2 0x5BB JUMPI PUSH1 0x40 MLOAD PUSH32 0x8C379A000000000000000000000000000000000000000000000000000000000 DUP2 MSTORE PUSH1 0x4 ADD PUSH2 0x5B2 SWAP1 PUSH2 0x2778 JUMP JUMPDEST PUSH1 0x40 MLOAD DUP1 SWAP2 SUB SWAP1 REVERT JUMPDEST PUSH1 0x0 DUP1 PUSH1 0x0 DUP6 DUP2 MSTORE PUSH1 0x20 ADD SWAP1 DUP2 MSTORE PUSH1 0x20 ADD PUSH1 0x0 KECCAK256 SWAP1 POP PUSH1 0x0 PUSH20 0xFFFFFFFFFFFFFFFFFFFFFFFFFFFFFFFFFFFFFFFF AND DUP2 PUSH1 0x0 ADD PUSH1 0x0 SWAP1 SLOAD SWAP1 PUSH2 0x100 EXP SWAP1 DIV PUSH20 0xFFFFFFFFFFFFFFFFFFFFFFFFFFFFFFFFFFFFFFFF AND PUSH20 0xFFFFFFFFFFFFFFFFFFFFFFFFFFFFFFFFFFFFFFFF AND SUB PUSH2 0x664 JUMPI PUSH1 0x40 MLOAD PUSH32 0x8C379A000000000000000000000000000000000000000000000000000000000 DUP2 MSTORE PUSH1 0x4 ADD PUSH2 0x65B SWAP1 PUSH2 0x280A JUMP JUMPDEST PUSH1 0x40 MLOAD DUP1 SWAP2 SUB SWAP1 REVERT JUMPDEST DUP1 PUSH1 0x4 ADD SLOAD TIMESTAMP GT PUSH2 0x6AA JUMPI PUSH1 0x40 MLOAD PUSH32 0x8C379A000000000000000000000000000000000000000000000000000000000 DUP2 MSTORE PUSH1 0x4 ADD PUSH2 0x6A1 SWAP1 PUSH2 0x2876 JUMP JUMPDEST PUSH1 0x40 MLOAD DUP1 SWAP2 SUB SWAP1 REVERT JUMPDEST PUSH1 0x0 DUP2 PUSH1 0x5 ADD SLOAD GT PUSH2 0x6F1 JUMPI PUSH1 0x40 MLOAD PUSH32 0x8C379A000000000000000000000000000000000000000000000000000000000 DUP2 MSTORE PUSH1 0x4 ADD PUSH2 0x6E8 SWAP1 PUSH2 0x28E2 JUMP JUMPDEST PUSH1 0x40 MLOAD DUP1 SWAP2 SUB SWAP1 REVERT JUMPDEST DUP1 PUSH1 0x3 ADD SLOAD DUP2 PUSH1 0x5 ADD SLOAD LT ISZERO PUSH2 0x908 JUMPI PUSH1 0x0 DUP2 PUSH1 0x7 ADD DUP1 SLOAD SWAP1 POP SWAP1 POP PUSH1 0x0 PUSH1 0x64 PUSH1 0x33 DUP4 PUSH2 0x71E SWAP2 SWAP1 PUSH2 0x2931 JUMP JUMPDEST PUSH2 0x728 SWAP2 SWAP1 PUSH2 0x29A2 JUMP JUMPDEST SWAP1 POP PUSH1 0x0 DUP1 JUMPDEST DUP4 DUP2 LT ISZERO PUSH2 0x79F JUMPI PUSH1 0x0 DUP6 PUSH1 0x9 ADD DUP3 DUP2 SLOAD DUP2 LT PUSH2 0x74E JUMPI PUSH2 0x74D PUSH2 0x29D3 JUMP JUMPDEST JUMPDEST SWAP1 PUSH1 0x0 MSTORE PUSH1 0x20 PUSH1 0x0 KECCAK256 SWAP1 PUSH1 0x20 SWAP2 DUP3 DUP3 DIV ADD SWAP2 SWAP1 MOD SWAP1 SLOAD SWAP1 PUSH2 0x100 EXP SWAP1 DIV PUSH1 0xFF AND SWAP1 POP PUSH1 0x1 ISZERO ISZERO DUP2 ISZERO ISZERO SUB PUSH2 0x78B JUMPI DUP3 DUP1 PUSH2 0x787 SWAP1 PUSH2 0x2A02 JUMP JUMPDEST SWAP4 POP POP JUMPDEST POP DUP1 DUP1 PUSH2 0x797 SWAP1 PUSH2 0x2A02 JUMP JUMPDEST SWAP2 POP POP PUSH2 0x72E JUMP JUMPDEST POP DUP2 DUP2 LT ISZERO PUSH2 0x7E3 JUMPI PUSH1 0x40 MLOAD PUSH32 0x8C379A000000000000000000000000000000000000000000000000000000000 DUP2 MSTORE PUSH1 0x4 ADD PUSH2 0x7DA SWAP1 PUSH2 0x2A96 JUMP JUMPDEST PUSH1 0x40 MLOAD DUP1 SWAP2 SUB SWAP1 REVERT JUMPDEST PUSH1 0x0 DUP5 PUSH1 0x0 ADD PUSH1 0x0 SWAP1 SLOAD SWAP1 PUSH2 0x100 EXP SWAP1 DIV PUSH20 0xFFFFFFFFFFFFFFFFFFFFFFFFFFFFFFFFFFFFFFFF AND PUSH20 0xFFFFFFFFFFFFFFFFFFFFFFFFFFFFFFFFFFFFFFFF AND DUP6 PUSH1 0x5 ADD SLOAD PUSH1 0x40 MLOAD PUSH2 0x831 SWAP1 PUSH2 0x2AE7 JUMP JUMPDEST PUSH1 0x0 PUSH1 0x40 MLOAD DUP1 DUP4 SUB DUP2 DUP6 DUP8 GAS CALL SWAP3 POP POP POP RETURNDATASIZE DUP1 PUSH1 0x0 DUP2 EQ PUSH2 0x86E JUMPI PUSH1 0x40 MLOAD SWAP2 POP PUSH1 0x1F NOT PUSH1 0x3F RETURNDATASIZE ADD AND DUP3 ADD PUSH1 0x40 MSTORE RETURNDATASIZE DUP3 MSTORE RETURNDATASIZE PUSH1 0x0 PUSH1 0x20 DUP5 ADD RETURNDATACOPY PUSH2 0x873 JUMP JUMPDEST PUSH1 0x60 SWAP2 POP JUMPDEST POP POP SWAP1 POP PUSH1 0x1 ISZERO ISZERO DUP2 ISZERO ISZERO EQ PUSH2 0x8BE JUMPI PUSH1 0x40 MLOAD PUSH32 0x8C379A000000000000000000000000000000000000000000000000000000000 DUP2 MSTORE PUSH1 0x4 ADD PUSH2 0x8B5 SWAP1 PUSH2 0x2B6E JUMP JUMPDEST PUSH1 0x40 MLOAD DUP1 SWAP2 SUB SWAP1 REVERT JUMPDEST PUSH32 0x5BEFF99A090CDE8C7147F5287B6DCB2B32AC614B205BA849CB155F19BEA596B1 DUP9 PUSH1 0x40 MLOAD PUSH2 0x8ED SWAP2 SWAP1 PUSH2 0x2C26 JUMP JUMPDEST PUSH1 0x40 MLOAD DUP1 SWAP2 SUB SWAP1 LOG1 PUSH1 0x0 DUP6 PUSH1 0x5 ADD DUP2 SWAP1 SSTORE POP POP POP POP POP PUSH2 0xA34 JUMP JUMPDEST PUSH1 0x0 DUP2 PUSH1 0x0 ADD PUSH1 0x0 SWAP1 SLOAD SWAP1 PUSH2 0x100 EXP SWAP1 DIV PUSH20 0xFFFFFFFFFFFFFFFFFFFFFFFFFFFFFFFFFFFFFFFF AND PUSH20 0xFFFFFFFFFFFFFFFFFFFFFFFFFFFFFFFFFFFFFFFF AND DUP3 PUSH1 0x5 ADD SLOAD PUSH2 0x2710 SWAP1 PUSH1 0x40 MLOAD PUSH2 0x95A SWAP1 PUSH2 0x2AE7 JUMP JUMPDEST PUSH1 0x0 PUSH1 0x40 MLOAD DUP1 DUP4 SUB DUP2 DUP6 DUP9 DUP9 CALL SWAP4 POP POP POP POP RETURNDATASIZE DUP1 PUSH1 0x0 DUP2 EQ PUSH2 0x998 JUMPI PUSH1 0x40 MLOAD SWAP2 POP PUSH1 0x1F NOT PUSH1 0x3F RETURNDATASIZE ADD AND DUP3 ADD PUSH1 0x40 MSTORE RETURNDATASIZE DUP3 MSTORE RETURNDATASIZE PUSH1 0x0 PUSH1 0x20 DUP5 ADD RETURNDATACOPY PUSH2 0x99D JUMP JUMPDEST PUSH1 0x60 SWAP2 POP JUMPDEST POP POP SWAP1 POP PUSH1 0x1 ISZERO ISZERO DUP2 ISZERO ISZERO EQ PUSH2 0x9E8 JUMPI PUSH1 0x40 MLOAD PUSH32 0x8C379A000000000000000000000000000000000000000000000000000000000 DUP2 MSTORE PUSH1 0x4 ADD PUSH2 0x9DF SWAP1 PUSH2 0x2B6E JUMP JUMPDEST PUSH1 0x40 MLOAD DUP1 SWAP2 SUB SWAP1 REVERT JUMPDEST PUSH2 0x9F1 DUP6 PUSH2 0x1ABB JUMP JUMPDEST PUSH32 0x5BEFF99A090CDE8C7147F5287B6DCB2B32AC614B205BA849CB155F19BEA596B1 DUP6 PUSH1 0x40 MLOAD PUSH2 0xA20 SWAP2 SWAP1 PUSH2 0x2CC6 JUMP JUMPDEST PUSH1 0x40 MLOAD DUP1 SWAP2 SUB SWAP1 LOG1 PUSH1 0x0 DUP3 PUSH1 0x5 ADD DUP2 SWAP1 SSTORE POP POP JUMPDEST POP POP POP POP JUMP JUMPDEST PUSH1 0x0 DUP1 PUSH1 0x0 DUP4 DUP2 MSTORE PUSH1 0x20 ADD SWAP1 DUP2 MSTORE PUSH1 0x20 ADD PUSH1 0x0 KECCAK256 SWAP1 POP PUSH1 0x0 PUSH20 0xFFFFFFFFFFFFFFFFFFFFFFFFFFFFFFFFFFFFFFFF AND DUP2 PUSH1 0x0 ADD PUSH1 0x0 SWAP1 SLOAD SWAP1 PUSH2 0x100 EXP SWAP1 DIV PUSH20 0xFFFFFFFFFFFFFFFFFFFFFFFFFFFFFFFFFFFFFFFF AND PUSH20 0xFFFFFFFFFFFFFFFFFFFFFFFFFFFFFFFFFFFFFFFF AND SUB PUSH2 0xAE3 JUMPI PUSH1 0x40 MLOAD PUSH32 0x8C379A000000000000000000000000000000000000000000000000000000000 DUP2 MSTORE PUSH1 0x4 ADD PUSH2 0xADA SWAP1 PUSH2 0x280A JUMP JUMPDEST PUSH1 0x40 MLOAD DUP1 SWAP2 SUB SWAP1 REVERT JUMPDEST TIMESTAMP DUP2 PUSH1 0x4 ADD SLOAD LT PUSH2 0xB29 JUMPI PUSH1 0x40 MLOAD PUSH32 0x8C379A000000000000000000000000000000000000000000000000000000000 DUP2 MSTORE PUSH1 0x4 ADD PUSH2 0xB20 SWAP1 PUSH2 0x2876 JUMP JUMPDEST PUSH1 0x40 MLOAD DUP1 SWAP2 SUB SWAP1 REVERT JUMPDEST DUP1 PUSH1 0x3 ADD SLOAD DUP2 PUSH1 0x5 ADD SLOAD LT PUSH2 0xB73 JUMPI PUSH1 0x40 MLOAD PUSH32 0x8C379A000000000000000000000000000000000000000000000000000000000 DUP2 MSTORE PUSH1 0x4 ADD PUSH2 0xB6A SWAP1 PUSH2 0x2D40 JUMP JUMPDEST PUSH1 0x40 MLOAD DUP1 SWAP2 SUB SWAP1 REVERT JUMPDEST DUP1 PUSH1 0x0 ADD PUSH1 0x0 SWAP1 SLOAD SWAP1 PUSH2 0x100 EXP SWAP1 DIV PUSH20 0xFFFFFFFFFFFFFFFFFFFFFFFFFFFFFFFFFFFFFFFF AND PUSH20 0xFFFFFFFFFFFFFFFFFFFFFFFFFFFFFFFFFFFFFFFF AND CALLER PUSH20 0xFFFFFFFFFFFFFFFFFFFFFFFFFFFFFFFFFFFFFFFF AND SUB PUSH2 0xC05 JUMPI PUSH1 0x40 MLOAD PUSH32 0x8C379A000000000000000000000000000000000000000000000000000000000 DUP2 MSTORE PUSH1 0x4 ADD PUSH2 0xBFC SWAP1 PUSH2 0x2DAC JUMP JUMPDEST PUSH1 0x40 MLOAD DUP1 SWAP2 SUB SWAP1 REVERT JUMPDEST PUSH1 0x0 DUP2 PUSH1 0x5 ADD SLOAD GT PUSH2 0xC4C JUMPI PUSH1 0x40 MLOAD PUSH32 0x8C379A000000000000000000000000000000000000000000000000000000000 DUP2 MSTORE PUSH1 0x4 ADD PUSH2 0xC43 SWAP1 PUSH2 0x2E3E JUMP JUMPDEST PUSH1 0x40 MLOAD DUP1 SWAP2 SUB SWAP1 REVERT JUMPDEST PUSH1 0x0 DUP1 PUSH1 0x0 JUMPDEST DUP4 PUSH1 0x7 ADD DUP1 SLOAD SWAP1 POP DUP2 LT ISZERO PUSH2 0xCF3 JUMPI CALLER PUSH20 0xFFFFFFFFFFFFFFFFFFFFFFFFFFFFFFFFFFFFFFFF AND DUP5 PUSH1 0x7 ADD DUP3 DUP2 SLOAD DUP2 LT PUSH2 0xC8E JUMPI PUSH2 0xC8D PUSH2 0x29D3 JUMP JUMPDEST JUMPDEST SWAP1 PUSH1 0x0 MSTORE PUSH1 0x20 PUSH1 0x0 KECCAK256 ADD PUSH1 0x0 SWAP1 SLOAD SWAP1 PUSH2 0x100 EXP SWAP1 DIV PUSH20 0xFFFFFFFFFFFFFFFFFFFFFFFFFFFFFFFFFFFFFFFF AND PUSH20 0xFFFFFFFFFFFFFFFFFFFFFFFFFFFFFFFFFFFFFFFF AND SUB PUSH2 0xCE0 JUMPI DUP1 SWAP3 POP PUSH1 0x1 SWAP2 POP PUSH2 0xCF3 JUMP JUMPDEST DUP1 DUP1 PUSH2 0xCEB SWAP1 PUSH2 0x2A02 JUMP JUMPDEST SWAP2 POP POP PUSH2 0xC52 JUMP JUMPDEST POP PUSH1 0x1 ISZERO ISZERO DUP2 ISZERO ISZERO EQ PUSH2 0xD3B JUMPI PUSH1 0x40 MLOAD PUSH32 0x8C379A000000000000000000000000000000000000000000000000000000000 DUP2 MSTORE PUSH1 0x4 ADD PUSH2 0xD32 SWAP1 PUSH2 0x2ED0 JUMP JUMPDEST PUSH1 0x40 MLOAD DUP1 SWAP2 SUB SWAP1 REVERT JUMPDEST PUSH1 0x0 DUP4 PUSH1 0x8 ADD DUP4 DUP2 SLOAD DUP2 LT PUSH2 0xD53 JUMPI PUSH2 0xD52 PUSH2 0x29D3 JUMP JUMPDEST JUMPDEST SWAP1 PUSH1 0x0 MSTORE PUSH1 0x20 PUSH1 0x0 KECCAK256 ADD SLOAD SWAP1 POP DUP4 PUSH1 0x7 ADD PUSH1 0x1 DUP6 PUSH1 0x7 ADD DUP1 SLOAD SWAP1 POP PUSH2 0xD78 SWAP2 SWAP1 PUSH2 0x2EF0 JUMP JUMPDEST DUP2 SLOAD DUP2 LT PUSH2 0xD89 JUMPI PUSH2 0xD88 PUSH2 0x29D3 JUMP JUMPDEST JUMPDEST SWAP1 PUSH1 0x0 MSTORE PUSH1 0x20 PUSH1 0x0 KECCAK256 ADD PUSH1 0x0 SWAP1 SLOAD SWAP1 PUSH2 0x100 EXP SWAP1 DIV PUSH20 0xFFFFFFFFFFFFFFFFFFFFFFFFFFFFFFFFFFFFFFFF AND DUP5 PUSH1 0x7 ADD DUP5 DUP2 SLOAD DUP2 LT PUSH2 0xDCA JUMPI PUSH2 0xDC9 PUSH2 0x29D3 JUMP JUMPDEST JUMPDEST SWAP1 PUSH1 0x0 MSTORE PUSH1 0x20 PUSH1 0x0 KECCAK256 ADD PUSH1 0x0 PUSH2 0x100 EXP DUP2 SLOAD DUP2 PUSH20 0xFFFFFFFFFFFFFFFFFFFFFFFFFFFFFFFFFFFFFFFF MUL NOT AND SWAP1 DUP4 PUSH20 0xFFFFFFFFFFFFFFFFFFFFFFFFFFFFFFFFFFFFFFFF AND MUL OR SWAP1 SSTORE POP DUP4 PUSH1 0x7 ADD DUP1 SLOAD DUP1 PUSH2 0xE26 JUMPI PUSH2 0xE25 PUSH2 0x2F24 JUMP JUMPDEST JUMPDEST PUSH1 0x1 SWAP1 SUB DUP2 DUP2 SWAP1 PUSH1 0x0 MSTORE PUSH1 0x20 PUSH1 0x0 KECCAK256 ADD PUSH1 0x0 PUSH2 0x100 EXP DUP2 SLOAD SWAP1 PUSH20 0xFFFFFFFFFFFFFFFFFFFFFFFFFFFFFFFFFFFFFFFF MUL NOT AND SWAP1 SSTORE SWAP1 SSTORE DUP4 PUSH1 0x8 ADD PUSH1 0x1 DUP6 PUSH1 0x8 ADD DUP1 SLOAD SWAP1 POP PUSH2 0xE73 SWAP2 SWAP1 PUSH2 0x2EF0 JUMP JUMPDEST DUP2 SLOAD DUP2 LT PUSH2 0xE84 JUMPI PUSH2 0xE83 PUSH2 0x29D3 JUMP JUMPDEST JUMPDEST SWAP1 PUSH1 0x0 MSTORE PUSH1 0x20 PUSH1 0x0 KECCAK256 ADD SLOAD DUP5 PUSH1 0x8 ADD DUP5 DUP2 SLOAD DUP2 LT PUSH2 0xEA5 JUMPI PUSH2 0xEA4 PUSH2 0x29D3 JUMP JUMPDEST JUMPDEST SWAP1 PUSH1 0x0 MSTORE PUSH1 0x20 PUSH1 0x0 KECCAK256 ADD DUP2 SWAP1 SSTORE POP DUP4 PUSH1 0x8 ADD DUP1 SLOAD DUP1 PUSH2 0xEC7 JUMPI PUSH2 0xEC6 PUSH2 0x2F24 JUMP JUMPDEST JUMPDEST PUSH1 0x1 SWAP1 SUB DUP2 DUP2 SWAP1 PUSH1 0x0 MSTORE PUSH1 0x20 PUSH1 0x0 KECCAK256 ADD PUSH1 0x0 SWAP1 SSTORE SWAP1 SSTORE PUSH1 0x0 CALLER PUSH20 0xFFFFFFFFFFFFFFFFFFFFFFFFFFFFFFFFFFFFFFFF AND DUP3 PUSH1 0x40 MLOAD PUSH2 0xF03 SWAP1 PUSH2 0x2AE7 JUMP JUMPDEST PUSH1 0x0 PUSH1 0x40 MLOAD DUP1 DUP4 SUB DUP2 DUP6 DUP8 GAS CALL SWAP3 POP POP POP RETURNDATASIZE DUP1 PUSH1 0x0 DUP2 EQ PUSH2 0xF40 JUMPI PUSH1 0x40 MLOAD SWAP2 POP PUSH1 0x1F NOT PUSH1 0x3F RETURNDATASIZE ADD AND DUP3 ADD PUSH1 0x40 MSTORE RETURNDATASIZE DUP3 MSTORE RETURNDATASIZE PUSH1 0x0 PUSH1 0x20 DUP5 ADD RETURNDATACOPY PUSH2 0xF45 JUMP JUMPDEST PUSH1 0x60 SWAP2 POP JUMPDEST POP POP SWAP1 POP PUSH1 0x1 ISZERO ISZERO DUP2 ISZERO ISZERO EQ PUSH2 0xF90 JUMPI PUSH1 0x40 MLOAD PUSH32 0x8C379A000000000000000000000000000000000000000000000000000000000 DUP2 MSTORE PUSH1 0x4 ADD PUSH2 0xF87 SWAP1 PUSH2 0x2F9F JUMP JUMPDEST PUSH1 0x40 MLOAD DUP1 SWAP2 SUB SWAP1 REVERT JUMPDEST CALLER PUSH20 0xFFFFFFFFFFFFFFFFFFFFFFFFFFFFFFFFFFFFFFFF AND DUP7 PUSH32 0x7A482FDEB6BC9A1376F597068A214A7A39472BB2EFF1B8CAD21BA04F49DDCA1B DUP5 PUSH1 0x40 MLOAD PUSH2 0xFD7 SWAP2 SWAP1 PUSH2 0x1CBB JUMP JUMPDEST PUSH1 0x40 MLOAD DUP1 SWAP2 SUB SWAP1 LOG3 DUP2 DUP6 PUSH1 0x5 ADD PUSH1 0x0 DUP3 DUP3 SLOAD PUSH2 0xFF3 SWAP2 SWAP1 PUSH2 0x2EF0 JUMP JUMPDEST SWAP3 POP POP DUP2 SWAP1 SSTORE POP POP POP POP POP POP POP JUMP JUMPDEST PUSH1 0x0 TIMESTAMP DUP4 GT PUSH2 0x1046 JUMPI PUSH1 0x40 MLOAD PUSH32 0x8C379A000000000000000000000000000000000000000000000000000000000 DUP2 MSTORE PUSH1 0x4 ADD PUSH2 0x103D SWAP1 PUSH2 0x3031 JUMP JUMPDEST PUSH1 0x40 MLOAD DUP1 SWAP2 SUB SWAP1 REVERT JUMPDEST PUSH1 0x0 DUP5 GT PUSH2 0x1089 JUMPI PUSH1 0x40 MLOAD PUSH32 0x8C379A000000000000000000000000000000000000000000000000000000000 DUP2 MSTORE PUSH1 0x4 ADD PUSH2 0x1080 SWAP1 PUSH2 0x30C3 JUMP JUMPDEST PUSH1 0x40 MLOAD DUP1 SWAP2 SUB SWAP1 REVERT JUMPDEST PUSH1 0x0 DUP7 MLOAD GT DUP1 ISZERO PUSH2 0x109B JUMPI POP PUSH1 0x0 DUP6 MLOAD GT JUMPDEST DUP1 ISZERO PUSH2 0x10A8 JUMPI POP PUSH1 0x0 DUP3 MLOAD GT JUMPDEST PUSH2 0x10E7 JUMPI PUSH1 0x40 MLOAD PUSH32 0x8C379A000000000000000000000000000000000000000000000000000000000 DUP2 MSTORE PUSH1 0x4 ADD PUSH2 0x10DE SWAP1 PUSH2 0x3155 JUMP JUMPDEST PUSH1 0x40 MLOAD DUP1 SWAP2 SUB SWAP1 REVERT JUMPDEST PUSH1 0x0 DUP1 PUSH1 0x0 PUSH1 0x1 SLOAD DUP2 MSTORE PUSH1 0x20 ADD SWAP1 DUP2 MSTORE PUSH1 0x20 ADD PUSH1 0x0 KECCAK256 SWAP1 POP DUP8 DUP2 PUSH1 0x0 ADD PUSH1 0x0 PUSH2 0x100 EXP DUP2 SLOAD DUP2 PUSH20 0xFFFFFFFFFFFFFFFFFFFFFFFFFFFFFFFFFFFFFFFF MUL NOT AND SWAP1 DUP4 PUSH20 0xFFFFFFFFFFFFFFFFFFFFFFFFFFFFFFFFFFFFFFFF AND MUL OR SWAP1 SSTORE POP DUP7 DUP2 PUSH1 0x1 ADD SWAP1 DUP2 PUSH2 0x1153 SWAP2 SWAP1 PUSH2 0x3321 JUMP JUMPDEST POP DUP6 DUP2 PUSH1 0x2 ADD SWAP1 DUP2 PUSH2 0x1165 SWAP2 SWAP1 PUSH2 0x3321 JUMP JUMPDEST POP DUP5 DUP2 PUSH1 0x3 ADD DUP2 SWAP1 SSTORE POP DUP4 DUP2 PUSH1 0x4 ADD DUP2 SWAP1 SSTORE POP DUP3 DUP2 PUSH1 0x6 ADD SWAP1 DUP2 PUSH2 0x1189 SWAP2 SWAP1 PUSH2 0x3321 JUMP JUMPDEST POP DUP8 PUSH20 0xFFFFFFFFFFFFFFFFFFFFFFFFFFFFFFFFFFFFFFFF AND PUSH32 0xAC19613078B51501AAA270EF8C4878D3EF375FDD93E7F2B7D7E67926FAE841C8 DUP9 DUP9 DUP9 DUP9 DUP9 PUSH1 0x40 MLOAD PUSH2 0x11D8 SWAP6 SWAP5 SWAP4 SWAP3 SWAP2 SWAP1 PUSH2 0x33F3 JUMP JUMPDEST PUSH1 0x40 MLOAD DUP1 SWAP2 SUB SWAP1 LOG2 PUSH1 0x1 PUSH1 0x0 DUP2 SLOAD DUP1 SWAP3 SWAP2 SWAP1 PUSH2 0x11F3 SWAP1 PUSH2 0x2A02 JUMP JUMPDEST SWAP2 SWAP1 POP SSTORE POP PUSH1 0x1 DUP1 SLOAD PUSH2 0x1206 SWAP2 SWAP1 PUSH2 0x2EF0 JUMP JUMPDEST SWAP2 POP POP SWAP7 SWAP6 POP POP POP POP POP POP JUMP JUMPDEST PUSH1 0x0 CALLVALUE SWAP1 POP PUSH1 0x0 DUP1 PUSH1 0x0 DUP6 DUP2 MSTORE PUSH1 0x20 ADD SWAP1 DUP2 MSTORE PUSH1 0x20 ADD PUSH1 0x0 KECCAK256 SWAP1 POP PUSH1 0x0 PUSH20 0xFFFFFFFFFFFFFFFFFFFFFFFFFFFFFFFFFFFFFFFF AND DUP2 PUSH1 0x0 ADD PUSH1 0x0 SWAP1 SLOAD SWAP1 PUSH2 0x100 EXP SWAP1 DIV PUSH20 0xFFFFFFFFFFFFFFFFFFFFFFFFFFFFFFFFFFFFFFFF AND PUSH20 0xFFFFFFFFFFFFFFFFFFFFFFFFFFFFFFFFFFFFFFFF AND SUB PUSH2 0x12C1 JUMPI PUSH1 0x40 MLOAD PUSH32 0x8C379A000000000000000000000000000000000000000000000000000000000 DUP2 MSTORE PUSH1 0x4 ADD PUSH2 0x12B8 SWAP1 PUSH2 0x280A JUMP JUMPDEST PUSH1 0x40 MLOAD DUP1 SWAP2 SUB SWAP1 REVERT JUMPDEST TIMESTAMP DUP2 PUSH1 0x4 ADD SLOAD GT PUSH2 0x1307 JUMPI PUSH1 0x40 MLOAD PUSH32 0x8C379A000000000000000000000000000000000000000000000000000000000 DUP2 MSTORE PUSH1 0x4 ADD PUSH2 0x12FE SWAP1 PUSH2 0x34A7 JUMP JUMPDEST PUSH1 0x40 MLOAD DUP1 SWAP2 SUB SWAP1 REVERT JUMPDEST DUP1 PUSH1 0x0 ADD PUSH1 0x0 SWAP1 SLOAD SWAP1 PUSH2 0x100 EXP SWAP1 DIV PUSH20 0xFFFFFFFFFFFFFFFFFFFFFFFFFFFFFFFFFFFFFFFF AND PUSH20 0xFFFFFFFFFFFFFFFFFFFFFFFFFFFFFFFFFFFFFFFF AND CALLER PUSH20 0xFFFFFFFFFFFFFFFFFFFFFFFFFFFFFFFFFFFFFFFF AND SUB PUSH2 0x1399 JUMPI PUSH1 0x40 MLOAD PUSH32 0x8C379A000000000000000000000000000000000000000000000000000000000 DUP2 MSTORE PUSH1 0x4 ADD PUSH2 0x1390 SWAP1 PUSH2 0x2DAC JUMP JUMPDEST PUSH1 0x40 MLOAD DUP1 SWAP2 SUB SWAP1 REVERT JUMPDEST PUSH1 0x0 DUP1 JUMPDEST DUP3 PUSH1 0x7 ADD DUP1 SLOAD SWAP1 POP DUP2 LT ISZERO PUSH2 0x1437 JUMPI DUP3 PUSH1 0x7 ADD DUP2 DUP2 SLOAD DUP2 LT PUSH2 0x13C2 JUMPI PUSH2 0x13C1 PUSH2 0x29D3 JUMP JUMPDEST JUMPDEST SWAP1 PUSH1 0x0 MSTORE PUSH1 0x20 PUSH1 0x0 KECCAK256 ADD PUSH1 0x0 SWAP1 SLOAD SWAP1 PUSH2 0x100 EXP SWAP1 DIV PUSH20 0xFFFFFFFFFFFFFFFFFFFFFFFFFFFFFFFFFFFFFFFF AND PUSH20 0xFFFFFFFFFFFFFFFFFFFFFFFFFFFFFFFFFFFFFFFF AND CALLER PUSH20 0xFFFFFFFFFFFFFFFFFFFFFFFFFFFFFFFFFFFFFFFF AND SUB PUSH2 0x1424 JUMPI PUSH1 0x1 SWAP2 POP JUMPDEST DUP1 DUP1 PUSH2 0x142F SWAP1 PUSH2 0x2A02 JUMP JUMPDEST SWAP2 POP POP PUSH2 0x139D JUMP JUMPDEST POP PUSH1 0x1 ISZERO ISZERO DUP2 ISZERO ISZERO SUB PUSH2 0x151E JUMPI PUSH1 0x0 JUMPDEST DUP3 PUSH1 0x7 ADD DUP1 SLOAD SWAP1 POP DUP2 LT ISZERO PUSH2 0x1518 JUMPI DUP3 PUSH1 0x7 ADD DUP2 DUP2 SLOAD DUP2 LT PUSH2 0x146C JUMPI PUSH2 0x146B PUSH2 0x29D3 JUMP JUMPDEST JUMPDEST SWAP1 PUSH1 0x0 MSTORE PUSH1 0x20 PUSH1 0x0 KECCAK256 ADD PUSH1 0x0 SWAP1 SLOAD SWAP1 PUSH2 0x100 EXP SWAP1 DIV PUSH20 0xFFFFFFFFFFFFFFFFFFFFFFFFFFFFFFFFFFFFFFFF AND PUSH20 0xFFFFFFFFFFFFFFFFFFFFFFFFFFFFFFFFFFFFFFFF AND CALLER PUSH20 0xFFFFFFFFFFFFFFFFFFFFFFFFFFFFFFFFFFFFFFFF AND SUB PUSH2 0x1505 JUMPI DUP4 DUP4 PUSH1 0x8 ADD DUP3 DUP2 SLOAD DUP2 LT PUSH2 0x14E0 JUMPI PUSH2 0x14DF PUSH2 0x29D3 JUMP JUMPDEST JUMPDEST SWAP1 PUSH1 0x0 MSTORE PUSH1 0x20 PUSH1 0x0 KECCAK256 ADD PUSH1 0x0 DUP3 DUP3 SLOAD PUSH2 0x14F9 SWAP2 SWAP1 PUSH2 0x34C7 JUMP JUMPDEST SWAP3 POP POP DUP2 SWAP1 SSTORE POP PUSH2 0x1518 JUMP JUMPDEST DUP1 DUP1 PUSH2 0x1510 SWAP1 PUSH2 0x2A02 JUMP JUMPDEST SWAP2 POP POP PUSH2 0x1447 JUMP JUMPDEST POP PUSH2 0x15F5 JUMP JUMPDEST DUP2 PUSH1 0x7 ADD CALLER SWAP1 DUP1 PUSH1 0x1 DUP2 SLOAD ADD DUP1 DUP3 SSTORE DUP1 SWAP2 POP POP PUSH1 0x1 SWAP1 SUB SWAP1 PUSH1 0x0 MSTORE PUSH1 0x20 PUSH1 0x0 KECCAK256 ADD PUSH1 0x0 SWAP1 SWAP2 SWAP1 SWAP2 SWAP1 SWAP2 PUSH2 0x100 EXP DUP2 SLOAD DUP2 PUSH20 0xFFFFFFFFFFFFFFFFFFFFFFFFFFFFFFFFFFFFFFFF MUL NOT AND SWAP1 DUP4 PUSH20 0xFFFFFFFFFFFFFFFFFFFFFFFFFFFFFFFFFFFFFFFF AND MUL OR SWAP1 SSTORE POP DUP2 PUSH1 0x8 ADD DUP4 SWAP1 DUP1 PUSH1 0x1 DUP2 SLOAD ADD DUP1 DUP3 SSTORE DUP1 SWAP2 POP POP PUSH1 0x1 SWAP1 SUB SWAP1 PUSH1 0x0 MSTORE PUSH1 0x20 PUSH1 0x0 KECCAK256 ADD PUSH1 0x0 SWAP1 SWAP2 SWAP1 SWAP2 SWAP1 SWAP2 POP SSTORE DUP2 PUSH1 0x9 ADD DUP5 SWAP1 DUP1 PUSH1 0x1 DUP2 SLOAD ADD DUP1 DUP3 SSTORE DUP1 SWAP2 POP POP PUSH1 0x1 SWAP1 SUB SWAP1 PUSH1 0x0 MSTORE PUSH1 0x20 PUSH1 0x0 KECCAK256 SWAP1 PUSH1 0x20 SWAP2 DUP3 DUP3 DIV ADD SWAP2 SWAP1 MOD SWAP1 SWAP2 SWAP1 SWAP2 SWAP1 SWAP2 PUSH2 0x100 EXP DUP2 SLOAD DUP2 PUSH1 0xFF MUL NOT AND SWAP1 DUP4 ISZERO ISZERO MUL OR SWAP1 SSTORE POP JUMPDEST CALLER PUSH20 0xFFFFFFFFFFFFFFFFFFFFFFFFFFFFFFFFFFFFFFFF AND DUP6 PUSH32 0x665AE3D7B1878285BA5B24AAD2297E9585AB3110185E2D75A78F33772084E9B5 DUP6 DUP8 PUSH1 0x40 MLOAD PUSH2 0x163E SWAP3 SWAP2 SWAP1 PUSH2 0x350A JUMP JUMPDEST PUSH1 0x40 MLOAD DUP1 SWAP2 SUB SWAP1 LOG3 DUP3 DUP3 PUSH1 0x5 ADD PUSH1 0x0 DUP3 DUP3 SLOAD PUSH2 0x165A SWAP2 SWAP1 PUSH2 0x34C7 JUMP JUMPDEST SWAP3 POP POP DUP2 SWAP1 SSTORE POP POP POP POP POP POP JUMP JUMPDEST PUSH1 0x60 PUSH1 0x0 PUSH1 0x1 SLOAD PUSH8 0xFFFFFFFFFFFFFFFF DUP2 GT ISZERO PUSH2 0x1688 JUMPI PUSH2 0x1687 PUSH2 0x2081 JUMP JUMPDEST JUMPDEST PUSH1 0x40 MLOAD SWAP1 DUP1 DUP3 MSTORE DUP1 PUSH1 0x20 MUL PUSH1 0x20 ADD DUP3 ADD PUSH1 0x40 MSTORE DUP1 ISZERO PUSH2 0x16C1 JUMPI DUP2 PUSH1 0x20 ADD JUMPDEST PUSH2 0x16AE PUSH2 0x1B72 JUMP JUMPDEST DUP2 MSTORE PUSH1 0x20 ADD SWAP1 PUSH1 0x1 SWAP1 SUB SWAP1 DUP2 PUSH2 0x16A6 JUMPI SWAP1 POP JUMPDEST POP SWAP1 POP PUSH1 0x0 JUMPDEST PUSH1 0x1 SLOAD DUP2 LT ISZERO PUSH2 0x1AB3 JUMPI PUSH1 0x0 DUP1 PUSH1 0x0 DUP4 DUP2 MSTORE PUSH1 0x20 ADD SWAP1 DUP2 MSTORE PUSH1 0x20 ADD PUSH1 0x0 KECCAK256 SWAP1 POP DUP1 PUSH1 0x40 MLOAD DUP1 PUSH2 0x140 ADD PUSH1 0x40 MSTORE SWAP1 DUP2 PUSH1 0x0 DUP3 ADD PUSH1 0x0 SWAP1 SLOAD SWAP1 PUSH2 0x100 EXP SWAP1 DIV PUSH20 0xFFFFFFFFFFFFFFFFFFFFFFFFFFFFFFFFFFFFFFFF AND PUSH20 0xFFFFFFFFFFFFFFFFFFFFFFFFFFFFFFFFFFFFFFFF AND PUSH20 0xFFFFFFFFFFFFFFFFFFFFFFFFFFFFFFFFFFFFFFFF AND DUP2 MSTORE PUSH1 0x20 ADD PUSH1 0x1 DUP3 ADD DUP1 SLOAD PUSH2 0x175A SWAP1 PUSH2 0x26FB JUMP JUMPDEST DUP1 PUSH1 0x1F ADD PUSH1 0x20 DUP1 SWAP2 DIV MUL PUSH1 0x20 ADD PUSH1 0x40 MLOAD SWAP1 DUP2 ADD PUSH1 0x40 MSTORE DUP1 SWAP3 SWAP2 SWAP1 DUP2 DUP2 MSTORE PUSH1 0x20 ADD DUP3 DUP1 SLOAD PUSH2 0x1786 SWAP1 PUSH2 0x26FB JUMP JUMPDEST DUP1 ISZERO PUSH2 0x17D3 JUMPI DUP1 PUSH1 0x1F LT PUSH2 0x17A8 JUMPI PUSH2 0x100 DUP1 DUP4 SLOAD DIV MUL DUP4 MSTORE SWAP2 PUSH1 0x20 ADD SWAP2 PUSH2 0x17D3 JUMP JUMPDEST DUP3 ADD SWAP2 SWAP1 PUSH1 0x0 MSTORE PUSH1 0x20 PUSH1 0x0 KECCAK256 SWAP1 JUMPDEST DUP2 SLOAD DUP2 MSTORE SWAP1 PUSH1 0x1 ADD SWAP1 PUSH1 0x20 ADD DUP1 DUP4 GT PUSH2 0x17B6 JUMPI DUP3 SWAP1 SUB PUSH1 0x1F AND DUP3 ADD SWAP2 JUMPDEST POP POP POP POP POP DUP2 MSTORE PUSH1 0x20 ADD PUSH1 0x2 DUP3 ADD DUP1 SLOAD PUSH2 0x17EC SWAP1 PUSH2 0x26FB JUMP JUMPDEST DUP1 PUSH1 0x1F ADD PUSH1 0x20 DUP1 SWAP2 DIV MUL PUSH1 0x20 ADD PUSH1 0x40 MLOAD SWAP1 DUP2 ADD PUSH1 0x40 MSTORE DUP1 SWAP3 SWAP2 SWAP1 DUP2 DUP2 MSTORE PUSH1 0x20 ADD DUP3 DUP1 SLOAD PUSH2 0x1818 SWAP1 PUSH2 0x26FB JUMP JUMPDEST DUP1 ISZERO PUSH2 0x1865 JUMPI DUP1 PUSH1 0x1F LT PUSH2 0x183A JUMPI PUSH2 0x100 DUP1 DUP4 SLOAD DIV MUL DUP4 MSTORE SWAP2 PUSH1 0x20 ADD SWAP2 PUSH2 0x1865 JUMP JUMPDEST DUP3 ADD SWAP2 SWAP1 PUSH1 0x0 MSTORE PUSH1 0x20 PUSH1 0x0 KECCAK256 SWAP1 JUMPDEST DUP2 SLOAD DUP2 MSTORE SWAP1 PUSH1 0x1 ADD SWAP1 PUSH1 0x20 ADD DUP1 DUP4 GT PUSH2 0x1848 JUMPI DUP3 SWAP1 SUB PUSH1 0x1F AND DUP3 ADD SWAP2 JUMPDEST POP POP POP POP POP DUP2 MSTORE PUSH1 0x20 ADD PUSH1 0x3 DUP3 ADD SLOAD DUP2 MSTORE PUSH1 0x20 ADD PUSH1 0x4 DUP3 ADD SLOAD DUP2 MSTORE PUSH1 0x20 ADD PUSH1 0x5 DUP3 ADD SLOAD DUP2 MSTORE PUSH1 0x20 ADD PUSH1 0x6 DUP3 ADD DUP1 SLOAD PUSH2 0x189C SWAP1 PUSH2 0x26FB JUMP JUMPDEST DUP1 PUSH1 0x1F ADD PUSH1 0x20 DUP1 SWAP2 DIV MUL PUSH1 0x20 ADD PUSH1 0x40 MLOAD SWAP1 DUP2 ADD PUSH1 0x40 MSTORE DUP1 SWAP3 SWAP2 SWAP1 DUP2 DUP2 MSTORE PUSH1 0x20 ADD DUP3 DUP1 SLOAD PUSH2 0x18C8 SWAP1 PUSH2 0x26FB JUMP JUMPDEST DUP1 ISZERO PUSH2 0x1915 JUMPI DUP1 PUSH1 0x1F LT PUSH2 0x18EA JUMPI PUSH2 0x100 DUP1 DUP4 SLOAD DIV MUL DUP4 MSTORE SWAP2 PUSH1 0x20 ADD SWAP2 PUSH2 0x1915 JUMP JUMPDEST DUP3 ADD SWAP2 SWAP1 PUSH1 0x0 MSTORE PUSH1 0x20 PUSH1 0x0 KECCAK256 SWAP1 JUMPDEST DUP2 SLOAD DUP2 MSTORE SWAP1 PUSH1 0x1 ADD SWAP1 PUSH1 0x20 ADD DUP1 DUP4 GT PUSH2 0x18F8 JUMPI DUP3 SWAP1 SUB PUSH1 0x1F AND DUP3 ADD SWAP2 JUMPDEST POP POP POP POP POP DUP2 MSTORE PUSH1 0x20 ADD PUSH1 0x7 DUP3 ADD DUP1 SLOAD DUP1 PUSH1 0x20 MUL PUSH1 0x20 ADD PUSH1 0x40 MLOAD SWAP1 DUP2 ADD PUSH1 0x40 MSTORE DUP1 SWAP3 SWAP2 SWAP1 DUP2 DUP2 MSTORE PUSH1 0x20 ADD DUP3 DUP1 SLOAD DUP1 ISZERO PUSH2 0x19A3 JUMPI PUSH1 0x20 MUL DUP3 ADD SWAP2 SWAP1 PUSH1 0x0 MSTORE PUSH1 0x20 PUSH1 0x0 KECCAK256 SWAP1 JUMPDEST DUP2 PUSH1 0x0 SWAP1 SLOAD SWAP1 PUSH2 0x100 EXP SWAP1 DIV PUSH20 0xFFFFFFFFFFFFFFFFFFFFFFFFFFFFFFFFFFFFFFFF AND PUSH20 0xFFFFFFFFFFFFFFFFFFFFFFFFFFFFFFFFFFFFFFFF AND DUP2 MSTORE PUSH1 0x20 ADD SWAP1 PUSH1 0x1 ADD SWAP1 DUP1 DUP4 GT PUSH2 0x1959 JUMPI JUMPDEST POP POP POP POP POP DUP2 MSTORE PUSH1 0x20 ADD PUSH1 0x8 DUP3 ADD DUP1 SLOAD DUP1 PUSH1 0x20 MUL PUSH1 0x20 ADD PUSH1 0x40 MLOAD SWAP1 DUP2 ADD PUSH1 0x40 MSTORE DUP1 SWAP3 SWAP2 SWAP1 DUP2 DUP2 MSTORE PUSH1 0x20 ADD DUP3 DUP1 SLOAD DUP1 ISZERO PUSH2 0x19FB JUMPI PUSH1 0x20 MUL DUP3 ADD SWAP2 SWAP1 PUSH1 0x0 MSTORE PUSH1 0x20 PUSH1 0x0 KECCAK256 SWAP1 JUMPDEST DUP2 SLOAD DUP2 MSTORE PUSH1 0x20 ADD SWAP1 PUSH1 0x1 ADD SWAP1 DUP1 DUP4 GT PUSH2 0x19E7 JUMPI JUMPDEST POP POP POP POP POP DUP2 MSTORE PUSH1 0x20 ADD PUSH1 0x9 DUP3 ADD DUP1 SLOAD DUP1 PUSH1 0x20 MUL PUSH1 0x20 ADD PUSH1 0x40 MLOAD SWAP1 DUP2 ADD PUSH1 0x40 MSTORE DUP1 SWAP3 SWAP2 SWAP1 DUP2 DUP2 MSTORE PUSH1 0x20 ADD DUP3 DUP1 SLOAD DUP1 ISZERO PUSH2 0x1A78 JUMPI PUSH1 0x20 MUL DUP3 ADD SWAP2 SWAP1 PUSH1 0x0 MSTORE PUSH1 0x20 PUSH1 0x0 KECCAK256 SWAP1 PUSH1 0x0 SWAP1 JUMPDEST DUP3 DUP3 SWAP1 SLOAD SWAP1 PUSH2 0x100 EXP SWAP1 DIV PUSH1 0xFF AND ISZERO ISZERO DUP2 MSTORE PUSH1 0x20 ADD SWAP1 PUSH1 0x1 ADD SWAP1 PUSH1 0x20 DUP3 PUSH1 0x0 ADD DIV SWAP3 DUP4 ADD SWAP3 PUSH1 0x1 SUB DUP3 MUL SWAP2 POP DUP1 DUP5 GT PUSH2 0x1A42 JUMPI SWAP1 POP JUMPDEST POP POP POP POP POP DUP2 MSTORE POP POP DUP4 DUP4 DUP2 MLOAD DUP2 LT PUSH2 0x1A94 JUMPI PUSH2 0x1A93 PUSH2 0x29D3 JUMP JUMPDEST JUMPDEST PUSH1 0x20 MUL PUSH1 0x20 ADD ADD DUP2 SWAP1 MSTORE POP POP DUP1 DUP1 PUSH2 0x1AAB SWAP1 PUSH2 0x2A02 JUMP JUMPDEST SWAP2 POP POP PUSH2 0x16C7 JUMP JUMPDEST POP DUP1 SWAP2 POP POP SWAP1 JUMP JUMPDEST PUSH1 0x0 DUP1 DUP3 DUP2 MSTORE PUSH1 0x20 ADD SWAP1 DUP2 MSTORE PUSH1 0x20 ADD PUSH1 0x0 KECCAK256 PUSH1 0x0 DUP1 DUP3 ADD PUSH1 0x0 PUSH2 0x100 EXP DUP2 SLOAD SWAP1 PUSH20 0xFFFFFFFFFFFFFFFFFFFFFFFFFFFFFFFFFFFFFFFF MUL NOT AND SWAP1 SSTORE PUSH1 0x1 DUP3 ADD PUSH1 0x0 PUSH2 0x1B05 SWAP2 SWAP1 PUSH2 0x1BDB JUMP JUMPDEST PUSH1 0x2 DUP3 ADD PUSH1 0x0 PUSH2 0x1B15 SWAP2 SWAP1 PUSH2 0x1BDB JUMP JUMPDEST PUSH1 0x3 DUP3 ADD PUSH1 0x0 SWAP1 SSTORE PUSH1 0x4 DUP3 ADD PUSH1 0x0 SWAP1 SSTORE PUSH1 0x5 DUP3 ADD PUSH1 0x0 SWAP1 SSTORE PUSH1 0x6 DUP3 ADD PUSH1 0x0 PUSH2 0x1B3D SWAP2 SWAP1 PUSH2 0x1BDB JUMP JUMPDEST PUSH1 0x7 DUP3 ADD PUSH1 0x0 PUSH2 0x1B4D SWAP2 SWAP1 PUSH2 0x1C1B JUMP JUMPDEST PUSH1 0x8 DUP3 ADD PUSH1 0x0 PUSH2 0x1B5D SWAP2 SWAP1 PUSH2 0x1C3C JUMP JUMPDEST PUSH1 0x9 DUP3 ADD PUSH1 0x0 PUSH2 0x1B6D SWAP2 SWAP1 PUSH2 0x1C5D JUMP JUMPDEST POP POP POP JUMP JUMPDEST PUSH1 0x40 MLOAD DUP1 PUSH2 0x140 ADD PUSH1 0x40 MSTORE DUP1 PUSH1 0x0 PUSH20 0xFFFFFFFFFFFFFFFFFFFFFFFFFFFFFFFFFFFFFFFF AND DUP2 MSTORE PUSH1 0x20 ADD PUSH1 0x60 DUP2 MSTORE PUSH1 0x20 ADD PUSH1 0x60 DUP2 MSTORE PUSH1 0x20 ADD PUSH1 0x0 DUP2 MSTORE PUSH1 0x20 ADD PUSH1 0x0 DUP2 MSTORE PUSH1 0x20 ADD PUSH1 0x0 DUP2 MSTORE PUSH1 0x20 ADD PUSH1 0x60 DUP2 MSTORE PUSH1 0x20 ADD PUSH1 0x60 DUP2 MSTORE PUSH1 0x20 ADD PUSH1 0x60 DUP2 MSTORE PUSH1 0x20 ADD PUSH1 0x60 DUP2 MSTORE POP SWAP1 JUMP JUMPDEST POP DUP1 SLOAD PUSH2 0x1BE7 SWAP1 PUSH2 0x26FB JUMP JUMPDEST PUSH1 0x0 DUP3 SSTORE DUP1 PUSH1 0x1F LT PUSH2 0x1BF9 JUMPI POP PUSH2 0x1C18 JUMP JUMPDEST PUSH1 0x1F ADD PUSH1 0x20 SWAP1 DIV SWAP1 PUSH1 0x0 MSTORE PUSH1 0x20 PUSH1 0x0 KECCAK256 SWAP1 DUP2 ADD SWAP1 PUSH2 0x1C17 SWAP2 SWAP1 PUSH2 0x1C85 JUMP JUMPDEST JUMPDEST POP JUMP JUMPDEST POP DUP1 SLOAD PUSH1 0x0 DUP3 SSTORE SWAP1 PUSH1 0x0 MSTORE PUSH1 0x20 PUSH1 0x0 KECCAK256 SWAP1 DUP2 ADD SWAP1 PUSH2 0x1C39 SWAP2 SWAP1 PUSH2 0x1C85 JUMP JUMPDEST POP JUMP JUMPDEST POP DUP1 SLOAD PUSH1 0x0 DUP3 SSTORE SWAP1 PUSH1 0x0 MSTORE PUSH1 0x20 PUSH1 0x0 KECCAK256 SWAP1 DUP2 ADD SWAP1 PUSH2 0x1C5A SWAP2 SWAP1 PUSH2 0x1C85 JUMP JUMPDEST POP JUMP JUMPDEST POP DUP1 SLOAD PUSH1 0x0 DUP3 SSTORE PUSH1 0x1F ADD PUSH1 0x20 SWAP1 DIV SWAP1 PUSH1 0x0 MSTORE PUSH1 0x20 PUSH1 0x0 KECCAK256 SWAP1 DUP2 ADD SWAP1 PUSH2 0x1C82 SWAP2 SWAP1 PUSH2 0x1C85 JUMP JUMPDEST POP JUMP JUMPDEST JUMPDEST DUP1 DUP3 GT ISZERO PUSH2 0x1C9E JUMPI PUSH1 0x0 DUP2 PUSH1 0x0 SWAP1 SSTORE POP PUSH1 0x1 ADD PUSH2 0x1C86 JUMP JUMPDEST POP SWAP1 JUMP JUMPDEST PUSH1 0x0 DUP2 SWAP1 POP SWAP2 SWAP1 POP JUMP JUMPDEST PUSH2 0x1CB5 DUP2 PUSH2 0x1CA2 JUMP JUMPDEST DUP3 MSTORE POP POP JUMP JUMPDEST PUSH1 0x0 PUSH1 0x20 DUP3 ADD SWAP1 POP PUSH2 0x1CD0 PUSH1 0x0 DUP4 ADD DUP5 PUSH2 0x1CAC JUMP JUMPDEST SWAP3 SWAP2 POP POP JUMP JUMPDEST PUSH1 0x0 PUSH1 0x40 MLOAD SWAP1 POP SWAP1 JUMP JUMPDEST PUSH1 0x0 DUP1 REVERT JUMPDEST PUSH1 0x0 DUP1 REVERT JUMPDEST PUSH2 0x1CF3 DUP2 PUSH2 0x1CA2 JUMP JUMPDEST DUP2 EQ PUSH2 0x1CFE JUMPI PUSH1 0x0 DUP1 REVERT JUMPDEST POP JUMP JUMPDEST PUSH1 0x0 DUP2 CALLDATALOAD SWAP1 POP PUSH2 0x1D10 DUP2 PUSH2 0x1CEA JUMP JUMPDEST SWAP3 SWAP2 POP POP JUMP JUMPDEST PUSH1 0x0 PUSH1 0x20 DUP3 DUP5 SUB SLT ISZERO PUSH2 0x1D2C JUMPI PUSH2 0x1D2B PUSH2 0x1CE0 JUMP JUMPDEST JUMPDEST PUSH1 0x0 PUSH2 0x1D3A DUP5 DUP3 DUP6 ADD PUSH2 0x1D01 JUMP JUMPDEST SWAP2 POP POP SWAP3 SWAP2 POP POP JUMP JUMPDEST PUSH1 0x0 DUP2 MLOAD SWAP1 POP SWAP2 SWAP1 POP JUMP JUMPDEST PUSH1 0x0 DUP3 DUP3 MSTORE PUSH1 0x20 DUP3 ADD SWAP1 POP SWAP3 SWAP2 POP POP JUMP JUMPDEST PUSH1 0x0 DUP2 SWAP1 POP PUSH1 0x20 DUP3 ADD SWAP1 POP SWAP2 SWAP1 POP JUMP JUMPDEST PUSH1 0x0 PUSH20 0xFFFFFFFFFFFFFFFFFFFFFFFFFFFFFFFFFFFFFFFF DUP3 AND SWAP1 POP SWAP2 SWAP1 POP JUMP JUMPDEST PUSH1 0x0 PUSH2 0x1D9A DUP3 PUSH2 0x1D6F JUMP JUMPDEST SWAP1 POP SWAP2 SWAP1 POP JUMP JUMPDEST PUSH2 0x1DAA DUP2 PUSH2 0x1D8F JUMP JUMPDEST DUP3 MSTORE POP POP JUMP JUMPDEST PUSH1 0x0 PUSH2 0x1DBC DUP4 DUP4 PUSH2 0x1DA1 JUMP JUMPDEST PUSH1 0x20 DUP4 ADD SWAP1 POP SWAP3 SWAP2 POP POP JUMP JUMPDEST PUSH1 0x0 PUSH1 0x20 DUP3 ADD SWAP1 POP SWAP2 SWAP1 POP JUMP JUMPDEST PUSH1 0x0 PUSH2 0x1DE0 DUP3 PUSH2 0x1D43 JUMP JUMPDEST PUSH2 0x1DEA DUP2 DUP6 PUSH2 0x1D4E JUMP JUMPDEST SWAP4 POP PUSH2 0x1DF5 DUP4 PUSH2 0x1D5F JUMP JUMPDEST DUP1 PUSH1 0x0 JUMPDEST DUP4 DUP2 LT ISZERO PUSH2 0x1E26 JUMPI DUP2 MLOAD PUSH2 0x1E0D DUP9 DUP3 PUSH2 0x1DB0 JUMP JUMPDEST SWAP8 POP PUSH2 0x1E18 DUP4 PUSH2 0x1DC8 JUMP JUMPDEST SWAP3 POP POP PUSH1 0x1 DUP2 ADD SWAP1 POP PUSH2 0x1DF9 JUMP JUMPDEST POP DUP6 SWAP4 POP POP POP POP SWAP3 SWAP2 POP POP JUMP JUMPDEST PUSH1 0x0 DUP2 MLOAD SWAP1 POP SWAP2 SWAP1 POP JUMP JUMPDEST PUSH1 0x0 DUP3 DUP3 MSTORE PUSH1 0x20 DUP3 ADD SWAP1 POP SWAP3 SWAP2 POP POP JUMP JUMPDEST PUSH1 0x0 DUP2 SWAP1 POP PUSH1 0x20 DUP3 ADD SWAP1 POP SWAP2 SWAP1 POP JUMP JUMPDEST PUSH2 0x1E68 DUP2 PUSH2 0x1CA2 JUMP JUMPDEST DUP3 MSTORE POP POP JUMP JUMPDEST PUSH1 0x0 PUSH2 0x1E7A DUP4 DUP4 PUSH2 0x1E5F JUMP JUMPDEST PUSH1 0x20 DUP4 ADD SWAP1 POP SWAP3 SWAP2 POP POP JUMP JUMPDEST PUSH1 0x0 PUSH1 0x20 DUP3 ADD SWAP1 POP SWAP2 SWAP1 POP JUMP JUMPDEST PUSH1 0x0 PUSH2 0x1E9E DUP3 PUSH2 0x1E33 JUMP JUMPDEST PUSH2 0x1EA8 DUP2 DUP6 PUSH2 0x1E3E JUMP JUMPDEST SWAP4 POP PUSH2 0x1EB3 DUP4 PUSH2 0x1E4F JUMP JUMPDEST DUP1 PUSH1 0x0 JUMPDEST DUP4 DUP2 LT ISZERO PUSH2 0x1EE4 JUMPI DUP2 MLOAD PUSH2 0x1ECB DUP9 DUP3 PUSH2 0x1E6E JUMP JUMPDEST SWAP8 POP PUSH2 0x1ED6 DUP4 PUSH2 0x1E86 JUMP JUMPDEST SWAP3 POP POP PUSH1 0x1 DUP2 ADD SWAP1 POP PUSH2 0x1EB7 JUMP JUMPDEST POP DUP6 SWAP4 POP POP POP POP SWAP3 SWAP2 POP POP JUMP JUMPDEST PUSH1 0x0 PUSH1 0x40 DUP3 ADD SWAP1 POP DUP2 DUP2 SUB PUSH1 0x0 DUP4 ADD MSTORE PUSH2 0x1F0B DUP2 DUP6 PUSH2 0x1DD5 JUMP JUMPDEST SWAP1 POP DUP2 DUP2 SUB PUSH1 0x20 DUP4 ADD MSTORE PUSH2 0x1F1F DUP2 DUP5 PUSH2 0x1E93 JUMP JUMPDEST SWAP1 POP SWAP4 SWAP3 POP POP POP JUMP JUMPDEST PUSH2 0x1F31 DUP2 PUSH2 0x1D8F JUMP JUMPDEST DUP3 MSTORE POP POP JUMP JUMPDEST PUSH1 0x0 DUP2 MLOAD SWAP1 POP SWAP2 SWAP1 POP JUMP JUMPDEST PUSH1 0x0 DUP3 DUP3 MSTORE PUSH1 0x20 DUP3 ADD SWAP1 POP SWAP3 SWAP2 POP POP JUMP JUMPDEST PUSH1 0x0 JUMPDEST DUP4 DUP2 LT ISZERO PUSH2 0x1F71 JUMPI DUP1 DUP3 ADD MLOAD DUP2 DUP5 ADD MSTORE PUSH1 0x20 DUP2 ADD SWAP1 POP PUSH2 0x1F56 JUMP JUMPDEST PUSH1 0x0 DUP5 DUP5 ADD MSTORE POP POP POP POP JUMP JUMPDEST PUSH1 0x0 PUSH1 0x1F NOT PUSH1 0x1F DUP4 ADD AND SWAP1 POP SWAP2 SWAP1 POP JUMP JUMPDEST PUSH1 0x0 PUSH2 0x1F99 DUP3 PUSH2 0x1F37 JUMP JUMPDEST PUSH2 0x1FA3 DUP2 DUP6 PUSH2 0x1F42 JUMP JUMPDEST SWAP4 POP PUSH2 0x1FB3 DUP2 DUP6 PUSH1 0x20 DUP7 ADD PUSH2 0x1F53 JUMP JUMPDEST PUSH2 0x1FBC DUP2 PUSH2 0x1F7D JUMP JUMPDEST DUP5 ADD SWAP2 POP POP SWAP3 SWAP2 POP POP JUMP JUMPDEST PUSH1 0x0 PUSH1 0xE0 DUP3 ADD SWAP1 POP PUSH2 0x1FDC PUSH1 0x0 DUP4 ADD DUP11 PUSH2 0x1F28 JUMP JUMPDEST DUP2 DUP2 SUB PUSH1 0x20 DUP4 ADD MSTORE PUSH2 0x1FEE DUP2 DUP10 PUSH2 0x1F8E JUMP JUMPDEST SWAP1 POP DUP2 DUP2 SUB PUSH1 0x40 DUP4 ADD MSTORE PUSH2 0x2002 DUP2 DUP9 PUSH2 0x1F8E JUMP JUMPDEST SWAP1 POP PUSH2 0x2011 PUSH1 0x60 DUP4 ADD DUP8 PUSH2 0x1CAC JUMP JUMPDEST PUSH2 0x201E PUSH1 0x80 DUP4 ADD DUP7 PUSH2 0x1CAC JUMP JUMPDEST PUSH2 0x202B PUSH1 0xA0 DUP4 ADD DUP6 PUSH2 0x1CAC JUMP JUMPDEST DUP2 DUP2 SUB PUSH1 0xC0 DUP4 ADD MSTORE PUSH2 0x203D DUP2 DUP5 PUSH2 0x1F8E JUMP JUMPDEST SWAP1 POP SWAP9 SWAP8 POP POP POP POP POP POP POP POP JUMP JUMPDEST PUSH2 0x2054 DUP2 PUSH2 0x1D8F JUMP JUMPDEST DUP2 EQ PUSH2 0x205F JUMPI PUSH1 0x0 DUP1 REVERT JUMPDEST POP JUMP JUMPDEST PUSH1 0x0 DUP2 CALLDATALOAD SWAP1 POP PUSH2 0x2071 DUP2 PUSH2 0x204B JUMP JUMPDEST SWAP3 SWAP2 POP POP JUMP JUMPDEST PUSH1 0x0 DUP1 REVERT JUMPDEST PUSH1 0x0 DUP1 REVERT JUMPDEST PUSH32 0x4E487B7100000000000000000000000000000000000000000000000000000000 PUSH1 0x0 MSTORE PUSH1 0x41 PUSH1 0x4 MSTORE PUSH1 0x24 PUSH1 0x0 REVERT JUMPDEST PUSH2 0x20B9 DUP3 PUSH2 0x1F7D JUMP JUMPDEST DUP2 ADD DUP2 DUP2 LT PUSH8 0xFFFFFFFFFFFFFFFF DUP3 GT OR ISZERO PUSH2 0x20D8 JUMPI PUSH2 0x20D7 PUSH2 0x2081 JUMP JUMPDEST JUMPDEST DUP1 PUSH1 0x40 MSTORE POP POP POP JUMP JUMPDEST PUSH1 0x0 PUSH2 0x20EB PUSH2 0x1CD6 JUMP JUMPDEST SWAP1 POP PUSH2 0x20F7 DUP3 DUP3 PUSH2 0x20B0 JUMP JUMPDEST SWAP2 SWAP1 POP JUMP JUMPDEST PUSH1 0x0 PUSH8 0xFFFFFFFFFFFFFFFF DUP3 GT ISZERO PUSH2 0x2117 JUMPI PUSH2 0x2116 PUSH2 0x2081 JUMP JUMPDEST JUMPDEST PUSH2 0x2120 DUP3 PUSH2 0x1F7D JUMP JUMPDEST SWAP1 POP PUSH1 0x20 DUP2 ADD SWAP1 POP SWAP2 SWAP1 POP JUMP JUMPDEST DUP3 DUP2 DUP4 CALLDATACOPY PUSH1 0x0 DUP4 DUP4 ADD MSTORE POP POP POP JUMP JUMPDEST PUSH1 0x0 PUSH2 0x214F PUSH2 0x214A DUP5 PUSH2 0x20FC JUMP JUMPDEST PUSH2 0x20E1 JUMP JUMPDEST SWAP1 POP DUP3 DUP2 MSTORE PUSH1 0x20 DUP2 ADD DUP5 DUP5 DUP5 ADD GT ISZERO PUSH2 0x216B JUMPI PUSH2 0x216A PUSH2 0x207C JUMP JUMPDEST JUMPDEST PUSH2 0x2176 DUP5 DUP3 DUP6 PUSH2 0x212D JUMP JUMPDEST POP SWAP4 SWAP3 POP POP POP JUMP JUMPDEST PUSH1 0x0 DUP3 PUSH1 0x1F DUP4 ADD SLT PUSH2 0x2193 JUMPI PUSH2 0x2192 PUSH2 0x2077 JUMP JUMPDEST JUMPDEST DUP2 CALLDATALOAD PUSH2 0x21A3 DUP5 DUP3 PUSH1 0x20 DUP7 ADD PUSH2 0x213C JUMP JUMPDEST SWAP2 POP POP SWAP3 SWAP2 POP POP JUMP JUMPDEST PUSH1 0x0 DUP1 PUSH1 0x0 DUP1 PUSH1 0x0 DUP1 PUSH1 0xC0 DUP8 DUP10 SUB SLT ISZERO PUSH2 0x21C9 JUMPI PUSH2 0x21C8 PUSH2 0x1CE0 JUMP JUMPDEST JUMPDEST PUSH1 0x0 PUSH2 0x21D7 DUP10 DUP3 DUP11 ADD PUSH2 0x2062 JUMP JUMPDEST SWAP7 POP POP PUSH1 0x20 DUP8 ADD CALLDATALOAD PUSH8 0xFFFFFFFFFFFFFFFF DUP2 GT ISZERO PUSH2 0x21F8 JUMPI PUSH2 0x21F7 PUSH2 0x1CE5 JUMP JUMPDEST JUMPDEST PUSH2 0x2204 DUP10 DUP3 DUP11 ADD PUSH2 0x217E JUMP JUMPDEST SWAP6 POP POP PUSH1 0x40 DUP8 ADD CALLDATALOAD PUSH8 0xFFFFFFFFFFFFFFFF DUP2 GT ISZERO PUSH2 0x2225 JUMPI PUSH2 0x2224 PUSH2 0x1CE5 JUMP JUMPDEST JUMPDEST PUSH2 0x2231 DUP10 DUP3 DUP11 ADD PUSH2 0x217E JUMP JUMPDEST SWAP5 POP POP PUSH1 0x60 PUSH2 0x2242 DUP10 DUP3 DUP11 ADD PUSH2 0x1D01 JUMP JUMPDEST SWAP4 POP POP PUSH1 0x80 PUSH2 0x2253 DUP10 DUP3 DUP11 ADD PUSH2 0x1D01 JUMP JUMPDEST SWAP3 POP POP PUSH1 0xA0 DUP8 ADD CALLDATALOAD PUSH8 0xFFFFFFFFFFFFFFFF DUP2 GT ISZERO PUSH2 0x2274 JUMPI PUSH2 0x2273 PUSH2 0x1CE5 JUMP JUMPDEST JUMPDEST PUSH2 0x2280 DUP10 DUP3 DUP11 ADD PUSH2 0x217E JUMP JUMPDEST SWAP2 POP POP SWAP3 SWAP6 POP SWAP3 SWAP6 POP SWAP3 SWAP6 JUMP JUMPDEST PUSH1 0x0 DUP2 ISZERO ISZERO SWAP1 POP SWAP2 SWAP1 POP JUMP JUMPDEST PUSH2 0x22A2 DUP2 PUSH2 0x228D JUMP JUMPDEST DUP2 EQ PUSH2 0x22AD JUMPI PUSH1 0x0 DUP1 REVERT JUMPDEST POP JUMP JUMPDEST PUSH1 0x0 DUP2 CALLDATALOAD SWAP1 POP PUSH2 0x22BF DUP2 PUSH2 0x2299 JUMP JUMPDEST SWAP3 SWAP2 POP POP JUMP JUMPDEST PUSH1 0x0 DUP1 PUSH1 0x40 DUP4 DUP6 SUB SLT ISZERO PUSH2 0x22DC JUMPI PUSH2 0x22DB PUSH2 0x1CE0 JUMP JUMPDEST JUMPDEST PUSH1 0x0 PUSH2 0x22EA DUP6 DUP3 DUP7 ADD PUSH2 0x1D01 JUMP JUMPDEST SWAP3 POP POP PUSH1 0x20 PUSH2 0x22FB DUP6 DUP3 DUP7 ADD PUSH2 0x22B0 JUMP JUMPDEST SWAP2 POP POP SWAP3 POP SWAP3 SWAP1 POP JUMP JUMPDEST PUSH1 0x0 DUP2 MLOAD SWAP1 POP SWAP2 SWAP1 POP JUMP JUMPDEST PUSH1 0x0 DUP3 DUP3 MSTORE PUSH1 0x20 DUP3 ADD SWAP1 POP SWAP3 SWAP2 POP POP JUMP JUMPDEST PUSH1 0x0 DUP2 SWAP1 POP PUSH1 0x20 DUP3 ADD SWAP1 POP SWAP2 SWAP1 POP JUMP JUMPDEST PUSH1 0x0 DUP3 DUP3 MSTORE PUSH1 0x20 DUP3 ADD SWAP1 POP SWAP3 SWAP2 POP POP JUMP JUMPDEST PUSH1 0x0 PUSH2 0x234D DUP3 PUSH2 0x1F37 JUMP JUMPDEST PUSH2 0x2357 DUP2 DUP6 PUSH2 0x2331 JUMP JUMPDEST SWAP4 POP PUSH2 0x2367 DUP2 DUP6 PUSH1 0x20 DUP7 ADD PUSH2 0x1F53 JUMP JUMPDEST PUSH2 0x2370 DUP2 PUSH2 0x1F7D JUMP JUMPDEST DUP5 ADD SWAP2 POP POP SWAP3 SWAP2 POP POP JUMP JUMPDEST PUSH1 0x0 DUP3 DUP3 MSTORE PUSH1 0x20 DUP3 ADD SWAP1 POP SWAP3 SWAP2 POP POP JUMP JUMPDEST PUSH1 0x0 PUSH2 0x2397 DUP3 PUSH2 0x1D43 JUMP JUMPDEST PUSH2 0x23A1 DUP2 DUP6 PUSH2 0x237B JUMP JUMPDEST SWAP4 POP PUSH2 0x23AC DUP4 PUSH2 0x1D5F JUMP JUMPDEST DUP1 PUSH1 0x0 JUMPDEST DUP4 DUP2 LT ISZERO PUSH2 0x23DD JUMPI DUP2 MLOAD PUSH2 0x23C4 DUP9 DUP3 PUSH2 0x1DB0 JUMP JUMPDEST SWAP8 POP PUSH2 0x23CF DUP4 PUSH2 0x1DC8 JUMP JUMPDEST SWAP3 POP POP PUSH1 0x1 DUP2 ADD SWAP1 POP PUSH2 0x23B0 JUMP JUMPDEST POP DUP6 SWAP4 POP POP POP POP SWAP3 SWAP2 POP POP JUMP JUMPDEST PUSH1 0x0 DUP3 DUP3 MSTORE PUSH1 0x20 DUP3 ADD SWAP1 POP SWAP3 SWAP2 POP POP JUMP JUMPDEST PUSH1 0x0 PUSH2 0x2406 DUP3 PUSH2 0x1E33 JUMP JUMPDEST PUSH2 0x2410 DUP2 DUP6 PUSH2 0x23EA JUMP JUMPDEST SWAP4 POP PUSH2 0x241B DUP4 PUSH2 0x1E4F JUMP JUMPDEST DUP1 PUSH1 0x0 JUMPDEST DUP4 DUP2 LT ISZERO PUSH2 0x244C JUMPI DUP2 MLOAD PUSH2 0x2433 DUP9 DUP3 PUSH2 0x1E6E JUMP JUMPDEST SWAP8 POP PUSH2 0x243E DUP4 PUSH2 0x1E86 JUMP JUMPDEST SWAP3 POP POP PUSH1 0x1 DUP2 ADD SWAP1 POP PUSH2 0x241F JUMP JUMPDEST POP DUP6 SWAP4 POP POP POP POP SWAP3 SWAP2 POP POP JUMP JUMPDEST PUSH1 0x0 DUP2 MLOAD SWAP1 POP SWAP2 SWAP1 POP JUMP JUMPDEST PUSH1 0x0 DUP3 DUP3 MSTORE PUSH1 0x20 DUP3 ADD SWAP1 POP SWAP3 SWAP2 POP POP JUMP JUMPDEST PUSH1 0x0 DUP2 SWAP1 POP PUSH1 0x20 DUP3 ADD SWAP1 POP SWAP2 SWAP1 POP JUMP JUMPDEST PUSH2 0x248E DUP2 PUSH2 0x228D JUMP JUMPDEST DUP3 MSTORE POP POP JUMP JUMPDEST PUSH1 0x0 PUSH2 0x24A0 DUP4 DUP4 PUSH2 0x2485 JUMP JUMPDEST PUSH1 0x20 DUP4 ADD SWAP1 POP SWAP3 SWAP2 POP POP JUMP JUMPDEST PUSH1 0x0 PUSH1 0x20 DUP3 ADD SWAP1 POP SWAP2 SWAP1 POP JUMP JUMPDEST PUSH1 0x0 PUSH2 0x24C4 DUP3 PUSH2 0x2459 JUMP JUMPDEST PUSH2 0x24CE DUP2 DUP6 PUSH2 0x2464 JUMP JUMPDEST SWAP4 POP PUSH2 0x24D9 DUP4 PUSH2 0x2475 JUMP JUMPDEST DUP1 PUSH1 0x0 JUMPDEST DUP4 DUP2 LT ISZERO PUSH2 0x250A JUMPI DUP2 MLOAD PUSH2 0x24F1 DUP9 DUP3 PUSH2 0x2494 JUMP JUMPDEST SWAP8 POP PUSH2 0x24FC DUP4 PUSH2 0x24AC JUMP JUMPDEST SWAP3 POP POP PUSH1 0x1 DUP2 ADD SWAP1 POP PUSH2 0x24DD JUMP JUMPDEST POP DUP6 SWAP4 POP POP POP POP SWAP3 SWAP2 POP POP JUMP JUMPDEST PUSH1 0x0 PUSH2 0x140 DUP4 ADD PUSH1 0x0 DUP4 ADD MLOAD PUSH2 0x2530 PUSH1 0x0 DUP7 ADD DUP3 PUSH2 0x1DA1 JUMP JUMPDEST POP PUSH1 0x20 DUP4 ADD MLOAD DUP5 DUP3 SUB PUSH1 0x20 DUP7 ADD MSTORE PUSH2 0x2548 DUP3 DUP3 PUSH2 0x2342 JUMP JUMPDEST SWAP2 POP POP PUSH1 0x40 DUP4 ADD MLOAD DUP5 DUP3 SUB PUSH1 0x40 DUP7 ADD MSTORE PUSH2 0x2562 DUP3 DUP3 PUSH2 0x2342 JUMP JUMPDEST SWAP2 POP POP PUSH1 0x60 DUP4 ADD MLOAD PUSH2 0x2577 PUSH1 0x60 DUP7 ADD DUP3 PUSH2 0x1E5F JUMP JUMPDEST POP PUSH1 0x80 DUP4 ADD MLOAD PUSH2 0x258A PUSH1 0x80 DUP7 ADD DUP3 PUSH2 0x1E5F JUMP JUMPDEST POP PUSH1 0xA0 DUP4 ADD MLOAD PUSH2 0x259D PUSH1 0xA0 DUP7 ADD DUP3 PUSH2 0x1E5F JUMP JUMPDEST POP PUSH1 0xC0 DUP4 ADD MLOAD DUP5 DUP3 SUB PUSH1 0xC0 DUP7 ADD MSTORE PUSH2 0x25B5 DUP3 DUP3 PUSH2 0x2342 JUMP JUMPDEST SWAP2 POP POP PUSH1 0xE0 DUP4 ADD MLOAD DUP5 DUP3 SUB PUSH1 0xE0 DUP7 ADD MSTORE PUSH2 0x25CF DUP3 DUP3 PUSH2 0x238C JUMP JUMPDEST SWAP2 POP POP PUSH2 0x100 DUP4 ADD MLOAD DUP5 DUP3 SUB PUSH2 0x100 DUP7 ADD MSTORE PUSH2 0x25EB DUP3 DUP3 PUSH2 0x23FB JUMP JUMPDEST SWAP2 POP POP PUSH2 0x120 DUP4 ADD MLOAD DUP5 DUP3 SUB PUSH2 0x120 DUP7 ADD MSTORE PUSH2 0x2607 DUP3 DUP3 PUSH2 0x24B9 JUMP JUMPDEST SWAP2 POP POP DUP1 SWAP2 POP POP SWAP3 SWAP2 POP POP JUMP JUMPDEST PUSH1 0x0 PUSH2 0x2620 DUP4 DUP4 PUSH2 0x2517 JUMP JUMPDEST SWAP1 POP SWAP3 SWAP2 POP POP JUMP JUMPDEST PUSH1 0x0 PUSH1 0x20 DUP3 ADD SWAP1 POP SWAP2 SWAP1 POP JUMP JUMPDEST PUSH1 0x0 PUSH2 0x2640 DUP3 PUSH2 0x2305 JUMP JUMPDEST PUSH2 0x264A DUP2 DUP6 PUSH2 0x2310 JUMP JUMPDEST SWAP4 POP DUP4 PUSH1 0x20 DUP3 MUL DUP6 ADD PUSH2 0x265C DUP6 PUSH2 0x2321 JUMP JUMPDEST DUP1 PUSH1 0x0 JUMPDEST DUP6 DUP2 LT ISZERO PUSH2 0x2698 JUMPI DUP5 DUP5 SUB DUP10 MSTORE DUP2 MLOAD PUSH2 0x2679 DUP6 DUP3 PUSH2 0x2614 JUMP JUMPDEST SWAP5 POP PUSH2 0x2684 DUP4 PUSH2 0x2628 JUMP JUMPDEST SWAP3 POP PUSH1 0x20 DUP11 ADD SWAP10 POP POP PUSH1 0x1 DUP2 ADD SWAP1 POP PUSH2 0x2660 JUMP JUMPDEST POP DUP3 SWAP8 POP DUP8 SWAP6 POP POP POP POP POP POP SWAP3 SWAP2 POP POP JUMP JUMPDEST PUSH1 0x0 PUSH1 0x20 DUP3 ADD SWAP1 POP DUP2 DUP2 SUB PUSH1 0x0 DUP4 ADD MSTORE PUSH2 0x26C4 DUP2 DUP5 PUSH2 0x2635 JUMP JUMPDEST SWAP1 POP SWAP3 SWAP2 POP POP JUMP JUMPDEST PUSH32 0x4E487B7100000000000000000000000000000000000000000000000000000000 PUSH1 0x0 MSTORE PUSH1 0x22 PUSH1 0x4 MSTORE PUSH1 0x24 PUSH1 0x0 REVERT JUMPDEST PUSH1 0x0 PUSH1 0x2 DUP3 DIV SWAP1 POP PUSH1 0x1 DUP3 AND DUP1 PUSH2 0x2713 JUMPI PUSH1 0x7F DUP3 AND SWAP2 POP JUMPDEST PUSH1 0x20 DUP3 LT DUP2 SUB PUSH2 0x2726 JUMPI PUSH2 0x2725 PUSH2 0x26CC JUMP JUMPDEST JUMPDEST POP SWAP2 SWAP1 POP JUMP JUMPDEST PUSH32 0x4F6E6C79206F776E65722063616E2077697468647261772066756E64732E0000 PUSH1 0x0 DUP3 ADD MSTORE POP JUMP JUMPDEST PUSH1 0x0 PUSH2 0x2762 PUSH1 0x1E DUP4 PUSH2 0x1F42 JUMP JUMPDEST SWAP2 POP PUSH2 0x276D DUP3 PUSH2 0x272C JUMP JUMPDEST PUSH1 0x20 DUP3 ADD SWAP1 POP SWAP2 SWAP1 POP JUMP JUMPDEST PUSH1 0x0 PUSH1 0x20 DUP3 ADD SWAP1 POP DUP2 DUP2 SUB PUSH1 0x0 DUP4 ADD MSTORE PUSH2 0x2791 DUP2 PUSH2 0x2755 JUMP JUMPDEST SWAP1 POP SWAP2 SWAP1 POP JUMP JUMPDEST PUSH32 0x43616D706169676E20776173207375636365737366756C6C7920636F6D706C65 PUSH1 0x0 DUP3 ADD MSTORE PUSH32 0x7465640000000000000000000000000000000000000000000000000000000000 PUSH1 0x20 DUP3 ADD MSTORE POP JUMP JUMPDEST PUSH1 0x0 PUSH2 0x27F4 PUSH1 0x23 DUP4 PUSH2 0x1F42 JUMP JUMPDEST SWAP2 POP PUSH2 0x27FF DUP3 PUSH2 0x2798 JUMP JUMPDEST PUSH1 0x40 DUP3 ADD SWAP1 POP SWAP2 SWAP1 POP JUMP JUMPDEST PUSH1 0x0 PUSH1 0x20 DUP3 ADD SWAP1 POP DUP2 DUP2 SUB PUSH1 0x0 DUP4 ADD MSTORE PUSH2 0x2823 DUP2 PUSH2 0x27E7 JUMP JUMPDEST SWAP1 POP SWAP2 SWAP1 POP JUMP JUMPDEST PUSH32 0x446561646C696E65206E6F74206D657400000000000000000000000000000000 PUSH1 0x0 DUP3 ADD MSTORE POP JUMP JUMPDEST PUSH1 0x0 PUSH2 0x2860 PUSH1 0x10 DUP4 PUSH2 0x1F42 JUMP JUMPDEST SWAP2 POP PUSH2 0x286B DUP3 PUSH2 0x282A JUMP JUMPDEST PUSH1 0x20 DUP3 ADD SWAP1 POP SWAP2 SWAP1 POP JUMP JUMPDEST PUSH1 0x0 PUSH1 0x20 DUP3 ADD SWAP1 POP DUP2 DUP2 SUB PUSH1 0x0 DUP4 ADD MSTORE PUSH2 0x288F DUP2 PUSH2 0x2853 JUMP JUMPDEST SWAP1 POP SWAP2 SWAP1 POP JUMP JUMPDEST PUSH32 0x4E6F2066756E647320746F207769746864726177000000000000000000000000 PUSH1 0x0 DUP3 ADD MSTORE POP JUMP JUMPDEST PUSH1 0x0 PUSH2 0x28CC PUSH1 0x14 DUP4 PUSH2 0x1F42 JUMP JUMPDEST SWAP2 POP PUSH2 0x28D7 DUP3 PUSH2 0x2896 JUMP JUMPDEST PUSH1 0x20 DUP3 ADD SWAP1 POP SWAP2 SWAP1 POP JUMP JUMPDEST PUSH1 0x0 PUSH1 0x20 DUP3 ADD SWAP1 POP DUP2 DUP2 SUB PUSH1 0x0 DUP4 ADD MSTORE PUSH2 0x28FB DUP2 PUSH2 0x28BF JUMP JUMPDEST SWAP1 POP SWAP2 SWAP1 POP JUMP JUMPDEST PUSH32 0x4E487B7100000000000000000000000000000000000000000000000000000000 PUSH1 0x0 MSTORE PUSH1 0x11 PUSH1 0x4 MSTORE PUSH1 0x24 PUSH1 0x0 REVERT JUMPDEST PUSH1 0x0 PUSH2 0x293C DUP3 PUSH2 0x1CA2 JUMP JUMPDEST SWAP2 POP PUSH2 0x2947 DUP4 PUSH2 0x1CA2 JUMP JUMPDEST SWAP3 POP DUP3 DUP3 MUL PUSH2 0x2955 DUP2 PUSH2 0x1CA2 JUMP JUMPDEST SWAP2 POP DUP3 DUP3 DIV DUP5 EQ DUP4 ISZERO OR PUSH2 0x296C JUMPI PUSH2 0x296B PUSH2 0x2902 JUMP JUMPDEST JUMPDEST POP SWAP3 SWAP2 POP POP JUMP JUMPDEST PUSH32 0x4E487B7100000000000000000000000000000000000000000000000000000000 PUSH1 0x0 MSTORE PUSH1 0x12 PUSH1 0x4 MSTORE PUSH1 0x24 PUSH1 0x0 REVERT JUMPDEST PUSH1 0x0 PUSH2 0x29AD DUP3 PUSH2 0x1CA2 JUMP JUMPDEST SWAP2 POP PUSH2 0x29B8 DUP4 PUSH2 0x1CA2 JUMP JUMPDEST SWAP3 POP DUP3 PUSH2 0x29C8 JUMPI PUSH2 0x29C7 PUSH2 0x2973 JUMP JUMPDEST JUMPDEST DUP3 DUP3 DIV SWAP1 POP SWAP3 SWAP2 POP POP JUMP JUMPDEST PUSH32 0x4E487B7100000000000000000000000000000000000000000000000000000000 PUSH1 0x0 MSTORE PUSH1 0x32 PUSH1 0x4 MSTORE PUSH1 0x24 PUSH1 0x0 REVERT JUMPDEST PUSH1 0x0 PUSH2 0x2A0D DUP3 PUSH2 0x1CA2 JUMP JUMPDEST SWAP2 POP PUSH32 0xFFFFFFFFFFFFFFFFFFFFFFFFFFFFFFFFFFFFFFFFFFFFFFFFFFFFFFFFFFFFFFFF DUP3 SUB PUSH2 0x2A3F JUMPI PUSH2 0x2A3E PUSH2 0x2902 JUMP JUMPDEST JUMPDEST PUSH1 0x1 DUP3 ADD SWAP1 POP SWAP2 SWAP1 POP JUMP JUMPDEST PUSH32 0x496E73756666696369656E7420737570706F7274000000000000000000000000 PUSH1 0x0 DUP3 ADD MSTORE POP JUMP JUMPDEST PUSH1 0x0 PUSH2 0x2A80 PUSH1 0x14 DUP4 PUSH2 0x1F42 JUMP JUMPDEST SWAP2 POP PUSH2 0x2A8B DUP3 PUSH2 0x2A4A JUMP JUMPDEST PUSH1 0x20 DUP3 ADD SWAP1 POP SWAP2 SWAP1 POP JUMP JUMPDEST PUSH1 0x0 PUSH1 0x20 DUP3 ADD SWAP1 POP DUP2 DUP2 SUB PUSH1 0x0 DUP4 ADD MSTORE PUSH2 0x2AAF DUP2 PUSH2 0x2A73 JUMP JUMPDEST SWAP1 POP SWAP2 SWAP1 POP JUMP JUMPDEST PUSH1 0x0 DUP2 SWAP1 POP SWAP3 SWAP2 POP POP JUMP JUMPDEST POP JUMP JUMPDEST PUSH1 0x0 PUSH2 0x2AD1 PUSH1 0x0 DUP4 PUSH2 0x2AB6 JUMP JUMPDEST SWAP2 POP PUSH2 0x2ADC DUP3 PUSH2 0x2AC1 JUMP JUMPDEST PUSH1 0x0 DUP3 ADD SWAP1 POP SWAP2 SWAP1 POP JUMP JUMPDEST PUSH1 0x0 PUSH2 0x2AF2 DUP3 PUSH2 0x2AC4 JUMP JUMPDEST SWAP2 POP DUP2 SWAP1 POP SWAP2 SWAP1 POP JUMP JUMPDEST PUSH32 0x4661696C656420746F2073656E642066756E647320746F2063616D706169676E PUSH1 0x0 DUP3 ADD MSTORE PUSH32 0x206F776E65720000000000000000000000000000000000000000000000000000 PUSH1 0x20 DUP3 ADD MSTORE POP JUMP JUMPDEST PUSH1 0x0 PUSH2 0x2B58 PUSH1 0x26 DUP4 PUSH2 0x1F42 JUMP JUMPDEST SWAP2 POP PUSH2 0x2B63 DUP3 PUSH2 0x2AFC JUMP JUMPDEST PUSH1 0x40 DUP3 ADD SWAP1 POP SWAP2 SWAP1 POP JUMP JUMPDEST PUSH1 0x0 PUSH1 0x20 DUP3 ADD SWAP1 POP DUP2 DUP2 SUB PUSH1 0x0 DUP4 ADD MSTORE PUSH2 0x2B87 DUP2 PUSH2 0x2B4B JUMP JUMPDEST SWAP1 POP SWAP2 SWAP1 POP JUMP JUMPDEST PUSH32 0x5375636365737366756C6C792077697468647261776E2066756E64732066726F PUSH1 0x0 DUP3 ADD MSTORE PUSH32 0x6D2063616D706169676E206F776E65722C20627920646F6E61746F7273206167 PUSH1 0x20 DUP3 ADD MSTORE PUSH32 0x7265656D656E7400000000000000000000000000000000000000000000000000 PUSH1 0x40 DUP3 ADD MSTORE POP JUMP JUMPDEST PUSH1 0x0 PUSH2 0x2C10 PUSH1 0x47 DUP4 PUSH2 0x1F42 JUMP JUMPDEST SWAP2 POP PUSH2 0x2C1B DUP3 PUSH2 0x2B8E JUMP JUMPDEST PUSH1 0x60 DUP3 ADD SWAP1 POP SWAP2 SWAP1 POP JUMP JUMPDEST PUSH1 0x0 PUSH1 0x40 DUP3 ADD SWAP1 POP PUSH2 0x2C3B PUSH1 0x0 DUP4 ADD DUP5 PUSH2 0x1CAC JUMP JUMPDEST DUP2 DUP2 SUB PUSH1 0x20 DUP4 ADD MSTORE PUSH2 0x2C4C DUP2 PUSH2 0x2C03 JUMP JUMPDEST SWAP1 POP SWAP3 SWAP2 POP POP JUMP JUMPDEST PUSH32 0x5375636365737366756C6C792077697468647261776E2066756E64732066726F PUSH1 0x0 DUP3 ADD MSTORE PUSH32 0x6D2063616D706169676E206F776E657200000000000000000000000000000000 PUSH1 0x20 DUP3 ADD MSTORE POP JUMP JUMPDEST PUSH1 0x0 PUSH2 0x2CB0 PUSH1 0x30 DUP4 PUSH2 0x1F42 JUMP JUMPDEST SWAP2 POP PUSH2 0x2CBB DUP3 PUSH2 0x2C54 JUMP JUMPDEST PUSH1 0x40 DUP3 ADD SWAP1 POP SWAP2 SWAP1 POP JUMP JUMPDEST PUSH1 0x0 PUSH1 0x40 DUP3 ADD SWAP1 POP PUSH2 0x2CDB PUSH1 0x0 DUP4 ADD DUP5 PUSH2 0x1CAC JUMP JUMPDEST DUP2 DUP2 SUB PUSH1 0x20 DUP4 ADD MSTORE PUSH2 0x2CEC DUP2 PUSH2 0x2CA3 JUMP JUMPDEST SWAP1 POP SWAP3 SWAP2 POP POP JUMP JUMPDEST PUSH32 0x5461726765742072656163686564000000000000000000000000000000000000 PUSH1 0x0 DUP3 ADD MSTORE POP JUMP JUMPDEST PUSH1 0x0 PUSH2 0x2D2A PUSH1 0xE DUP4 PUSH2 0x1F42 JUMP JUMPDEST SWAP2 POP PUSH2 0x2D35 DUP3 PUSH2 0x2CF4 JUMP JUMPDEST PUSH1 0x20 DUP3 ADD SWAP1 POP SWAP2 SWAP1 POP JUMP JUMPDEST PUSH1 0x0 PUSH1 0x20 DUP3 ADD SWAP1 POP DUP2 DUP2 SUB PUSH1 0x0 DUP4 ADD MSTORE PUSH2 0x2D59 DUP2 PUSH2 0x2D1D JUMP JUMPDEST SWAP1 POP SWAP2 SWAP1 POP JUMP JUMPDEST PUSH32 0x4F776E65722063616E27742063616C6C207472616E73616374696F6E00000000 PUSH1 0x0 DUP3 ADD MSTORE POP JUMP JUMPDEST PUSH1 0x0 PUSH2 0x2D96 PUSH1 0x1C DUP4 PUSH2 0x1F42 JUMP JUMPDEST SWAP2 POP PUSH2 0x2DA1 DUP3 PUSH2 0x2D60 JUMP JUMPDEST PUSH1 0x20 DUP3 ADD SWAP1 POP SWAP2 SWAP1 POP JUMP JUMPDEST PUSH1 0x0 PUSH1 0x20 DUP3 ADD SWAP1 POP DUP2 DUP2 SUB PUSH1 0x0 DUP4 ADD MSTORE PUSH2 0x2DC5 DUP2 PUSH2 0x2D89 JUMP JUMPDEST SWAP1 POP SWAP2 SWAP1 POP JUMP JUMPDEST PUSH32 0x416D6F756E742068617320616C7265616479206265656E207769746864726177 PUSH1 0x0 DUP3 ADD MSTORE PUSH32 0x6E2062792063616D706169676E206F776E657200000000000000000000000000 PUSH1 0x20 DUP3 ADD MSTORE POP JUMP JUMPDEST PUSH1 0x0 PUSH2 0x2E28 PUSH1 0x33 DUP4 PUSH2 0x1F42 JUMP JUMPDEST SWAP2 POP PUSH2 0x2E33 DUP3 PUSH2 0x2DCC JUMP JUMPDEST PUSH1 0x40 DUP3 ADD SWAP1 POP SWAP2 SWAP1 POP JUMP JUMPDEST PUSH1 0x0 PUSH1 0x20 DUP3 ADD SWAP1 POP DUP2 DUP2 SUB PUSH1 0x0 DUP4 ADD MSTORE PUSH2 0x2E57 DUP2 PUSH2 0x2E1B JUMP JUMPDEST SWAP1 POP SWAP2 SWAP1 POP JUMP JUMPDEST PUSH32 0x596F7520686176656E277420646F6E6174656420746F207468652063616D7061 PUSH1 0x0 DUP3 ADD MSTORE PUSH32 0x69676E2079657400000000000000000000000000000000000000000000000000 PUSH1 0x20 DUP3 ADD MSTORE POP JUMP JUMPDEST PUSH1 0x0 PUSH2 0x2EBA PUSH1 0x27 DUP4 PUSH2 0x1F42 JUMP JUMPDEST SWAP2 POP PUSH2 0x2EC5 DUP3 PUSH2 0x2E5E JUMP JUMPDEST PUSH1 0x40 DUP3 ADD SWAP1 POP SWAP2 SWAP1 POP JUMP JUMPDEST PUSH1 0x0 PUSH1 0x20 DUP3 ADD SWAP1 POP DUP2 DUP2 SUB PUSH1 0x0 DUP4 ADD MSTORE PUSH2 0x2EE9 DUP2 PUSH2 0x2EAD JUMP JUMPDEST SWAP1 POP SWAP2 SWAP1 POP JUMP JUMPDEST PUSH1 0x0 PUSH2 0x2EFB DUP3 PUSH2 0x1CA2 JUMP JUMPDEST SWAP2 POP PUSH2 0x2F06 DUP4 PUSH2 0x1CA2 JUMP JUMPDEST SWAP3 POP DUP3 DUP3 SUB SWAP1 POP DUP2 DUP2 GT ISZERO PUSH2 0x2F1E JUMPI PUSH2 0x2F1D PUSH2 0x2902 JUMP JUMPDEST JUMPDEST SWAP3 SWAP2 POP POP JUMP JUMPDEST PUSH32 0x4E487B7100000000000000000000000000000000000000000000000000000000 PUSH1 0x0 MSTORE PUSH1 0x31 PUSH1 0x4 MSTORE PUSH1 0x24 PUSH1 0x0 REVERT JUMPDEST PUSH32 0x4661696C656420746F2073656E6420726566756E640000000000000000000000 PUSH1 0x0 DUP3 ADD MSTORE POP JUMP JUMPDEST PUSH1 0x0 PUSH2 0x2F89 PUSH1 0x15 DUP4 PUSH2 0x1F42 JUMP JUMPDEST SWAP2 POP PUSH2 0x2F94 DUP3 PUSH2 0x2F53 JUMP JUMPDEST PUSH1 0x20 DUP3 ADD SWAP1 POP SWAP2 SWAP1 POP JUMP JUMPDEST PUSH1 0x0 PUSH1 0x20 DUP3 ADD SWAP1 POP DUP2 DUP2 SUB PUSH1 0x0 DUP4 ADD MSTORE PUSH2 0x2FB8 DUP2 PUSH2 0x2F7C JUMP JUMPDEST SWAP1 POP SWAP2 SWAP1 POP JUMP JUMPDEST PUSH32 0x446561646C696E652073686F756C642062652061206461746520696E20667574 PUSH1 0x0 DUP3 ADD MSTORE PUSH32 0x7572650000000000000000000000000000000000000000000000000000000000 PUSH1 0x20 DUP3 ADD MSTORE POP JUMP JUMPDEST PUSH1 0x0 PUSH2 0x301B PUSH1 0x23 DUP4 PUSH2 0x1F42 JUMP JUMPDEST SWAP2 POP PUSH2 0x3026 DUP3 PUSH2 0x2FBF JUMP JUMPDEST PUSH1 0x40 DUP3 ADD SWAP1 POP SWAP2 SWAP1 POP JUMP JUMPDEST PUSH1 0x0 PUSH1 0x20 DUP3 ADD SWAP1 POP DUP2 DUP2 SUB PUSH1 0x0 DUP4 ADD MSTORE PUSH2 0x304A DUP2 PUSH2 0x300E JUMP JUMPDEST SWAP1 POP SWAP2 SWAP1 POP JUMP JUMPDEST PUSH32 0x5461726765742076616C75652073686F756C6420626520677265617465722074 PUSH1 0x0 DUP3 ADD MSTORE PUSH32 0x68616E207A65726F000000000000000000000000000000000000000000000000 PUSH1 0x20 DUP3 ADD MSTORE POP JUMP JUMPDEST PUSH1 0x0 PUSH2 0x30AD PUSH1 0x28 DUP4 PUSH2 0x1F42 JUMP JUMPDEST SWAP2 POP PUSH2 0x30B8 DUP3 PUSH2 0x3051 JUMP JUMPDEST PUSH1 0x40 DUP3 ADD SWAP1 POP SWAP2 SWAP1 POP JUMP JUMPDEST PUSH1 0x0 PUSH1 0x20 DUP3 ADD SWAP1 POP DUP2 DUP2 SUB PUSH1 0x0 DUP4 ADD MSTORE PUSH2 0x30DC DUP2 PUSH2 0x30A0 JUMP JUMPDEST SWAP1 POP SWAP2 SWAP1 POP JUMP JUMPDEST PUSH32 0x496E70757420706172616D657465722073686F756C64206E6F7420626520656D PUSH1 0x0 DUP3 ADD MSTORE PUSH32 0x707479206F72206E756C6C000000000000000000000000000000000000000000 PUSH1 0x20 DUP3 ADD MSTORE POP JUMP JUMPDEST PUSH1 0x0 PUSH2 0x313F PUSH1 0x2B DUP4 PUSH2 0x1F42 JUMP JUMPDEST SWAP2 POP PUSH2 0x314A DUP3 PUSH2 0x30E3 JUMP JUMPDEST PUSH1 0x40 DUP3 ADD SWAP1 POP SWAP2 SWAP1 POP JUMP JUMPDEST PUSH1 0x0 PUSH1 0x20 DUP3 ADD SWAP1 POP DUP2 DUP2 SUB PUSH1 0x0 DUP4 ADD MSTORE PUSH2 0x316E DUP2 PUSH2 0x3132 JUMP JUMPDEST SWAP1 POP SWAP2 SWAP1 POP JUMP JUMPDEST PUSH1 0x0 DUP2 SWAP1 POP DUP2 PUSH1 0x0 MSTORE PUSH1 0x20 PUSH1 0x0 KECCAK256 SWAP1 POP SWAP2 SWAP1 POP JUMP JUMPDEST PUSH1 0x0 PUSH1 0x20 PUSH1 0x1F DUP4 ADD DIV SWAP1 POP SWAP2 SWAP1 POP JUMP JUMPDEST PUSH1 0x0 DUP3 DUP3 SHL SWAP1 POP SWAP3 SWAP2 POP POP JUMP JUMPDEST PUSH1 0x0 PUSH1 0x8 DUP4 MUL PUSH2 0x31D7 PUSH32 0xFFFFFFFFFFFFFFFFFFFFFFFFFFFFFFFFFFFFFFFFFFFFFFFFFFFFFFFFFFFFFFFF DUP3 PUSH2 0x319A JUMP JUMPDEST PUSH2 0x31E1 DUP7 DUP4 PUSH2 0x319A JUMP JUMPDEST SWAP6 POP DUP1 NOT DUP5 AND SWAP4 POP DUP1 DUP7 AND DUP5 OR SWAP3 POP POP POP SWAP4 SWAP3 POP POP POP JUMP JUMPDEST PUSH1 0x0 DUP2 SWAP1 POP SWAP2 SWAP1 POP JUMP JUMPDEST PUSH1 0x0 PUSH2 0x321E PUSH2 0x3219 PUSH2 0x3214 DUP5 PUSH2 0x1CA2 JUMP JUMPDEST PUSH2 0x31F9 JUMP JUMPDEST PUSH2 0x1CA2 JUMP JUMPDEST SWAP1 POP SWAP2 SWAP1 POP JUMP JUMPDEST PUSH1 0x0 DUP2 SWAP1 POP SWAP2 SWAP1 POP JUMP JUMPDEST PUSH2 0x3238 DUP4 PUSH2 0x3203 JUMP JUMPDEST PUSH2 0x324C PUSH2 0x3244 DUP3 PUSH2 0x3225 JUMP JUMPDEST DUP5 DUP5 SLOAD PUSH2 0x31A7 JUMP JUMPDEST DUP3 SSTORE POP POP POP POP JUMP JUMPDEST PUSH1 0x0 SWAP1 JUMP JUMPDEST PUSH2 0x3261 PUSH2 0x3254 JUMP JUMPDEST PUSH2 0x326C DUP2 DUP5 DUP5 PUSH2 0x322F JUMP JUMPDEST POP POP POP JUMP JUMPDEST JUMPDEST DUP2 DUP2 LT ISZERO PUSH2 0x3290 JUMPI PUSH2 0x3285 PUSH1 0x0 DUP3 PUSH2 0x3259 JUMP JUMPDEST PUSH1 0x1 DUP2 ADD SWAP1 POP PUSH2 0x3272 JUMP JUMPDEST POP POP JUMP JUMPDEST PUSH1 0x1F DUP3 GT ISZERO PUSH2 0x32D5 JUMPI PUSH2 0x32A6 DUP2 PUSH2 0x3175 JUMP JUMPDEST PUSH2 0x32AF DUP5 PUSH2 0x318A JUMP JUMPDEST DUP2 ADD PUSH1 0x20 DUP6 LT ISZERO PUSH2 0x32BE JUMPI DUP2 SWAP1 POP JUMPDEST PUSH2 0x32D2 PUSH2 0x32CA DUP6 PUSH2 0x318A JUMP JUMPDEST DUP4 ADD DUP3 PUSH2 0x3271 JUMP JUMPDEST POP POP JUMPDEST POP POP POP JUMP JUMPDEST PUSH1 0x0 DUP3 DUP3 SHR SWAP1 POP SWAP3 SWAP2 POP POP JUMP JUMPDEST PUSH1 0x0 PUSH2 0x32F8 PUSH1 0x0 NOT DUP5 PUSH1 0x8 MUL PUSH2 0x32DA JUMP JUMPDEST NOT DUP1 DUP4 AND SWAP2 POP POP SWAP3 SWAP2 POP POP JUMP JUMPDEST PUSH1 0x0 PUSH2 0x3311 DUP4 DUP4 PUSH2 0x32E7 JUMP JUMPDEST SWAP2 POP DUP3 PUSH1 0x2 MUL DUP3 OR SWAP1 POP SWAP3 SWAP2 POP POP JUMP JUMPDEST PUSH2 0x332A DUP3 PUSH2 0x1F37 JUMP JUMPDEST PUSH8 0xFFFFFFFFFFFFFFFF DUP2 GT ISZERO PUSH2 0x3343 JUMPI PUSH2 0x3342 PUSH2 0x2081 JUMP JUMPDEST JUMPDEST PUSH2 0x334D DUP3 SLOAD PUSH2 0x26FB JUMP JUMPDEST PUSH2 0x3358 DUP3 DUP3 DUP6 PUSH2 0x3294 JUMP JUMPDEST PUSH1 0x0 PUSH1 0x20 SWAP1 POP PUSH1 0x1F DUP4 GT PUSH1 0x1 DUP2 EQ PUSH2 0x338B JUMPI PUSH1 0x0 DUP5 ISZERO PUSH2 0x3379 JUMPI DUP3 DUP8 ADD MLOAD SWAP1 POP JUMPDEST PUSH2 0x3383 DUP6 DUP3 PUSH2 0x3305 JUMP JUMPDEST DUP7 SSTORE POP PUSH2 0x33EB JUMP JUMPDEST PUSH1 0x1F NOT DUP5 AND PUSH2 0x3399 DUP7 PUSH2 0x3175 JUMP JUMPDEST PUSH1 0x0 JUMPDEST DUP3 DUP2 LT ISZERO PUSH2 0x33C1 JUMPI DUP5 DUP10 ADD MLOAD DUP3 SSTORE PUSH1 0x1 DUP3 ADD SWAP2 POP PUSH1 0x20 DUP6 ADD SWAP5 POP PUSH1 0x20 DUP2 ADD SWAP1 POP PUSH2 0x339C JUMP JUMPDEST DUP7 DUP4 LT ISZERO PUSH2 0x33DE JUMPI DUP5 DUP10 ADD MLOAD PUSH2 0x33DA PUSH1 0x1F DUP10 AND DUP3 PUSH2 0x32E7 JUMP JUMPDEST DUP4 SSTORE POP JUMPDEST PUSH1 0x1 PUSH1 0x2 DUP9 MUL ADD DUP9 SSTORE POP POP POP JUMPDEST POP POP POP POP POP POP JUMP JUMPDEST PUSH1 0x0 PUSH1 0xA0 DUP3 ADD SWAP1 POP DUP2 DUP2 SUB PUSH1 0x0 DUP4 ADD MSTORE PUSH2 0x340D DUP2 DUP9 PUSH2 0x1F8E JUMP JUMPDEST SWAP1 POP DUP2 DUP2 SUB PUSH1 0x20 DUP4 ADD MSTORE PUSH2 0x3421 DUP2 DUP8 PUSH2 0x1F8E JUMP JUMPDEST SWAP1 POP PUSH2 0x3430 PUSH1 0x40 DUP4 ADD DUP7 PUSH2 0x1CAC JUMP JUMPDEST PUSH2 0x343D PUSH1 0x60 DUP4 ADD DUP6 PUSH2 0x1CAC JUMP JUMPDEST DUP2 DUP2 SUB PUSH1 0x80 DUP4 ADD MSTORE PUSH2 0x344F DUP2 DUP5 PUSH2 0x1F8E JUMP JUMPDEST SWAP1 POP SWAP7 SWAP6 POP POP POP POP POP POP JUMP JUMPDEST PUSH32 0x646561646C696E6520616C7265616479206D6574000000000000000000000000 PUSH1 0x0 DUP3 ADD MSTORE POP JUMP JUMPDEST PUSH1 0x0 PUSH2 0x3491 PUSH1 0x14 DUP4 PUSH2 0x1F42 JUMP JUMPDEST SWAP2 POP PUSH2 0x349C DUP3 PUSH2 0x345B JUMP JUMPDEST PUSH1 0x20 DUP3 ADD SWAP1 POP SWAP2 SWAP1 POP JUMP JUMPDEST PUSH1 0x0 PUSH1 0x20 DUP3 ADD SWAP1 POP DUP2 DUP2 SUB PUSH1 0x0 DUP4 ADD MSTORE PUSH2 0x34C0 DUP2 PUSH2 0x3484 JUMP JUMPDEST SWAP1 POP SWAP2 SWAP1 POP JUMP JUMPDEST PUSH1 0x0 PUSH2 0x34D2 DUP3 PUSH2 0x1CA2 JUMP JUMPDEST SWAP2 POP PUSH2 0x34DD DUP4 PUSH2 0x1CA2 JUMP JUMPDEST SWAP3 POP DUP3 DUP3 ADD SWAP1 POP DUP1 DUP3 GT ISZERO PUSH2 0x34F5 JUMPI PUSH2 0x34F4 PUSH2 0x2902 JUMP JUMPDEST JUMPDEST SWAP3 SWAP2 POP POP JUMP JUMPDEST PUSH2 0x3504 DUP2 PUSH2 0x228D JUMP JUMPDEST DUP3 MSTORE POP POP JUMP JUMPDEST PUSH1 0x0 PUSH1 0x40 DUP3 ADD SWAP1 POP PUSH2 0x351F PUSH1 0x0 DUP4 ADD DUP6 PUSH2 0x1CAC JUMP JUMPDEST PUSH2 0x352C PUSH1 0x20 DUP4 ADD DUP5 PUSH2 0x34FB JUMP JUMPDEST SWAP4 SWAP3 POP POP POP JUMP INVALID LOG2 PUSH5 0x6970667358 0x22 SLT KECCAK256 PUSH29 0x7FCBA910C244ED24E0682B89F6C8ECD7969FD2FCEDC51E0FCBFA214BFB PREVRANDAO 0xE1 PUSH5 0x736F6C6343 STOP ADDMOD SLT STOP CALLER "
				},
				"gasEstimates": {
					"creation": {
						"codeDepositCost": "2734600",
						"executionCost": "7982",
						"totalCost": "2742582"
					},
					"external": {
						"campaigns(uint256)": "infinite",
						"createCampaign(address,string,string,uint256,uint256,string)": "infinite",
						"donateToCampaign(uint256,bool)": "infinite",
						"getCampaigns()": "infinite",
						"getDonators(uint256)": "infinite",
						"numberOfCampaigns()": "2430",
						"refund(uint256)": "infinite",
						"withdrawFunds(uint256)": "infinite"
					},
					"internal": {
						"destroyCampaign(uint256)": "infinite"
					}
				},
				"methodIdentifiers": {
					"campaigns(uint256)": "141961bc",
					"createCampaign(address,string,string,uint256,uint256,string)": "9943e3a1",
					"donateToCampaign(uint256,bool)": "a256580e",
					"getCampaigns()": "a6b03633",
					"getDonators(uint256)": "0fa91fa9",
					"numberOfCampaigns()": "07ca140d",
					"refund(uint256)": "278ecde1",
					"withdrawFunds(uint256)": "155dd5ee"
				}
			},
			"storageLayout": {
				"storage": [
					{
						"astId": 30,
						"contract": "CrowdFunding.sol:CrowdFunding",
						"label": "campaigns",
						"offset": 0,
						"slot": "0",
						"type": "t_mapping(t_uint256,t_struct(Campaign)25_storage)"
					},
					{
						"astId": 104,
						"contract": "CrowdFunding.sol:CrowdFunding",
						"label": "numberOfCampaigns",
						"offset": 0,
						"slot": "1",
						"type": "t_uint256"
					}
				],
				"types": {
					"t_address": {
						"encoding": "inplace",
						"label": "address",
						"numberOfBytes": "20"
					},
					"t_array(t_address)dyn_storage": {
						"base": "t_address",
						"encoding": "dynamic_array",
						"label": "address[]",
						"numberOfBytes": "32"
					},
					"t_array(t_bool)dyn_storage": {
						"base": "t_bool",
						"encoding": "dynamic_array",
						"label": "bool[]",
						"numberOfBytes": "32"
					},
					"t_array(t_uint256)dyn_storage": {
						"base": "t_uint256",
						"encoding": "dynamic_array",
						"label": "uint256[]",
						"numberOfBytes": "32"
					},
					"t_bool": {
						"encoding": "inplace",
						"label": "bool",
						"numberOfBytes": "1"
					},
					"t_mapping(t_uint256,t_struct(Campaign)25_storage)": {
						"encoding": "mapping",
						"key": "t_uint256",
						"label": "mapping(uint256 => struct CrowdFunding.Campaign)",
						"numberOfBytes": "32",
						"value": "t_struct(Campaign)25_storage"
					},
					"t_string_storage": {
						"encoding": "bytes",
						"label": "string",
						"numberOfBytes": "32"
					},
					"t_struct(Campaign)25_storage": {
						"encoding": "inplace",
						"label": "struct CrowdFunding.Campaign",
						"members": [
							{
								"astId": 3,
								"contract": "CrowdFunding.sol:CrowdFunding",
								"label": "owner",
								"offset": 0,
								"slot": "0",
								"type": "t_address"
							},
							{
								"astId": 5,
								"contract": "CrowdFunding.sol:CrowdFunding",
								"label": "title",
								"offset": 0,
								"slot": "1",
								"type": "t_string_storage"
							},
							{
								"astId": 7,
								"contract": "CrowdFunding.sol:CrowdFunding",
								"label": "description",
								"offset": 0,
								"slot": "2",
								"type": "t_string_storage"
							},
							{
								"astId": 9,
								"contract": "CrowdFunding.sol:CrowdFunding",
								"label": "target",
								"offset": 0,
								"slot": "3",
								"type": "t_uint256"
							},
							{
								"astId": 11,
								"contract": "CrowdFunding.sol:CrowdFunding",
								"label": "deadline",
								"offset": 0,
								"slot": "4",
								"type": "t_uint256"
							},
							{
								"astId": 13,
								"contract": "CrowdFunding.sol:CrowdFunding",
								"label": "AmountCollected",
								"offset": 0,
								"slot": "5",
								"type": "t_uint256"
							},
							{
								"astId": 15,
								"contract": "CrowdFunding.sol:CrowdFunding",
								"label": "image",
								"offset": 0,
								"slot": "6",
								"type": "t_string_storage"
							},
							{
								"astId": 18,
								"contract": "CrowdFunding.sol:CrowdFunding",
								"label": "donators",
								"offset": 0,
								"slot": "7",
								"type": "t_array(t_address)dyn_storage"
							},
							{
								"astId": 21,
								"contract": "CrowdFunding.sol:CrowdFunding",
								"label": "donations",
								"offset": 0,
								"slot": "8",
								"type": "t_array(t_uint256)dyn_storage"
							},
							{
								"astId": 24,
								"contract": "CrowdFunding.sol:CrowdFunding",
								"label": "agree",
								"offset": 0,
								"slot": "9",
								"type": "t_array(t_bool)dyn_storage"
							}
						],
						"numberOfBytes": "320"
					},
					"t_uint256": {
						"encoding": "inplace",
						"label": "uint256",
						"numberOfBytes": "32"
					}
				}
			},
			"userdoc": {
				"kind": "user",
				"methods": {},
				"version": 1
			}
		}
	}
}