{
	"data": {
		"bytecode": {
			"linkReferences": {},
			"object": "6080604052600060015534801561001557600080fd5b50610882806100256000396000f3fe608060405234801561001057600080fd5b50600436106100415760003560e01c8063975181c314610046578063d0675ae314610062578063e62a0c2914610094575b600080fd5b610060600480360381019061005b9190610374565b6100b2565b005b61007c600480360381019061007791906103e3565b61012c565b60405161008b9392919061049e565b60405180910390f35b61009c6101de565b6040516100a991906104dc565b60405180910390f35b8260008060015481526020019081526020016000206000018190555081600080600154815260200190815260200160002060010181905550806000806001548152602001908152602001600020600201908161010e9190610703565b506001600081548092919061012290610804565b9190505550505050565b600060205280600052604060002060009150905080600001549080600101549080600201805461015b90610526565b80601f016020809104026020016040519081016040528092919081815260200182805461018790610526565b80156101d45780601f106101a9576101008083540402835291602001916101d4565b820191906000526020600020905b8154815290600101906020018083116101b757829003601f168201915b5050505050905083565b60015481565b6000604051905090565b600080fd5b600080fd5b6000819050919050565b61020b816101f8565b811461021657600080fd5b50565b60008135905061022881610202565b92915050565b600080fd5b600080fd5b6000601f19601f8301169050919050565b7f4e487b7100000000000000000000000000000000000000000000000000000000600052604160045260246000fd5b61028182610238565b810181811067ffffffffffffffff821117156102a05761029f610249565b5b80604052505050565b60006102b36101e4565b90506102bf8282610278565b919050565b600067ffffffffffffffff8211156102df576102de610249565b5b6102e882610238565b9050602081019050919050565b82818337600083830152505050565b6000610317610312846102c4565b6102a9565b90508281526020810184848401111561033357610332610233565b5b61033e8482856102f5565b509392505050565b600082601f83011261035b5761035a61022e565b5b813561036b848260208601610304565b91505092915050565b60008060006060848603121561038d5761038c6101ee565b5b600061039b86828701610219565b93505060206103ac86828701610219565b925050604084013567ffffffffffffffff8111156103cd576103cc6101f3565b5b6103d986828701610346565b9150509250925092565b6000602082840312156103f9576103f86101ee565b5b600061040784828501610219565b91505092915050565b610419816101f8565b82525050565b600081519050919050565b600082825260208201905092915050565b60005b8381101561045957808201518184015260208101905061043e565b60008484015250505050565b60006104708261041f565b61047a818561042a565b935061048a81856020860161043b565b61049381610238565b840191505092915050565b60006060820190506104b36000830186610410565b6104c06020830185610410565b81810360408301526104d28184610465565b9050949350505050565b60006020820190506104f16000830184610410565b92915050565b7f4e487b7100000000000000000000000000000000000000000000000000000000600052602260045260246000fd5b6000600282049050600182168061053e57607f821691505b602082108103610551576105506104f7565b5b50919050565b60008190508160005260206000209050919050565b60006020601f8301049050919050565b600082821b905092915050565b6000600883026105b97fffffffffffffffffffffffffffffffffffffffffffffffffffffffffffffffff8261057c565b6105c3868361057c565b95508019841693508086168417925050509392505050565b6000819050919050565b60006106006105fb6105f6846101f8565b6105db565b6101f8565b9050919050565b6000819050919050565b61061a836105e5565b61062e61062682610607565b848454610589565b825550505050565b600090565b610643610636565b61064e818484610611565b505050565b5b818110156106725761066760008261063b565b600181019050610654565b5050565b601f8211156106b75761068881610557565b6106918461056c565b810160208510156106a0578190505b6106b46106ac8561056c565b830182610653565b50505b505050565b600082821c905092915050565b60006106da600019846008026106bc565b1980831691505092915050565b60006106f383836106c9565b9150826002028217905092915050565b61070c8261041f565b67ffffffffffffffff81111561072557610724610249565b5b61072f8254610526565b61073a828285610676565b600060209050601f83116001811461076d576000841561075b578287015190505b61076585826106e7565b8655506107cd565b601f19841661077b86610557565b60005b828110156107a35784890151825560018201915060208501945060208101905061077e565b868310156107c057848901516107bc601f8916826106c9565b8355505b6001600288020188555050505b505050505050565b7f4e487b7100000000000000000000000000000000000000000000000000000000600052601160045260246000fd5b600061080f826101f8565b91507fffffffffffffffffffffffffffffffffffffffffffffffffffffffffffffffff8203610841576108406107d5565b5b60018201905091905056fea264697066735822122079228a986d174a312f1ed16dcee192195c7c0010540d8a32fdcf9cf4ced6612864736f6c63430008120033",
			"opcodes": "PUSH1 0x80 PUSH1 0x40 MSTORE PUSH1 0x0 PUSH1 0x1 SSTORE CALLVALUE DUP1 ISZERO PUSH2 0x15 JUMPI PUSH1 0x0 DUP1 REVERT JUMPDEST POP PUSH2 0x882 DUP1 PUSH2 0x25 PUSH1 0x0 CODECOPY PUSH1 0x0 RETURN INVALID PUSH1 0x80 PUSH1 0x40 MSTORE CALLVALUE DUP1 ISZERO PUSH2 0x10 JUMPI PUSH1 0x0 DUP1 REVERT JUMPDEST POP PUSH1 0x4 CALLDATASIZE LT PUSH2 0x41 JUMPI PUSH1 0x0 CALLDATALOAD PUSH1 0xE0 SHR DUP1 PUSH4 0x975181C3 EQ PUSH2 0x46 JUMPI DUP1 PUSH4 0xD0675AE3 EQ PUSH2 0x62 JUMPI DUP1 PUSH4 0xE62A0C29 EQ PUSH2 0x94 JUMPI JUMPDEST PUSH1 0x0 DUP1 REVERT JUMPDEST PUSH2 0x60 PUSH1 0x4 DUP1 CALLDATASIZE SUB DUP2 ADD SWAP1 PUSH2 0x5B SWAP2 SWAP1 PUSH2 0x374 JUMP JUMPDEST PUSH2 0xB2 JUMP JUMPDEST STOP JUMPDEST PUSH2 0x7C PUSH1 0x4 DUP1 CALLDATASIZE SUB DUP2 ADD SWAP1 PUSH2 0x77 SWAP2 SWAP1 PUSH2 0x3E3 JUMP JUMPDEST PUSH2 0x12C JUMP JUMPDEST PUSH1 0x40 MLOAD PUSH2 0x8B SWAP4 SWAP3 SWAP2 SWAP1 PUSH2 0x49E JUMP JUMPDEST PUSH1 0x40 MLOAD DUP1 SWAP2 SUB SWAP1 RETURN JUMPDEST PUSH2 0x9C PUSH2 0x1DE JUMP JUMPDEST PUSH1 0x40 MLOAD PUSH2 0xA9 SWAP2 SWAP1 PUSH2 0x4DC JUMP JUMPDEST PUSH1 0x40 MLOAD DUP1 SWAP2 SUB SWAP1 RETURN JUMPDEST DUP3 PUSH1 0x0 DUP1 PUSH1 0x1 SLOAD DUP2 MSTORE PUSH1 0x20 ADD SWAP1 DUP2 MSTORE PUSH1 0x20 ADD PUSH1 0x0 KECCAK256 PUSH1 0x0 ADD DUP2 SWAP1 SSTORE POP DUP2 PUSH1 0x0 DUP1 PUSH1 0x1 SLOAD DUP2 MSTORE PUSH1 0x20 ADD SWAP1 DUP2 MSTORE PUSH1 0x20 ADD PUSH1 0x0 KECCAK256 PUSH1 0x1 ADD DUP2 SWAP1 SSTORE POP DUP1 PUSH1 0x0 DUP1 PUSH1 0x1 SLOAD DUP2 MSTORE PUSH1 0x20 ADD SWAP1 DUP2 MSTORE PUSH1 0x20 ADD PUSH1 0x0 KECCAK256 PUSH1 0x2 ADD SWAP1 DUP2 PUSH2 0x10E SWAP2 SWAP1 PUSH2 0x703 JUMP JUMPDEST POP PUSH1 0x1 PUSH1 0x0 DUP2 SLOAD DUP1 SWAP3 SWAP2 SWAP1 PUSH2 0x122 SWAP1 PUSH2 0x804 JUMP JUMPDEST SWAP2 SWAP1 POP SSTORE POP POP POP POP JUMP JUMPDEST PUSH1 0x0 PUSH1 0x20 MSTORE DUP1 PUSH1 0x0 MSTORE PUSH1 0x40 PUSH1 0x0 KECCAK256 PUSH1 0x0 SWAP2 POP SWAP1 POP DUP1 PUSH1 0x0 ADD SLOAD SWAP1 DUP1 PUSH1 0x1 ADD SLOAD SWAP1 DUP1 PUSH1 0x2 ADD DUP1 SLOAD PUSH2 0x15B SWAP1 PUSH2 0x526 JUMP JUMPDEST DUP1 PUSH1 0x1F ADD PUSH1 0x20 DUP1 SWAP2 DIV MUL PUSH1 0x20 ADD PUSH1 0x40 MLOAD SWAP1 DUP2 ADD PUSH1 0x40 MSTORE DUP1 SWAP3 SWAP2 SWAP1 DUP2 DUP2 MSTORE PUSH1 0x20 ADD DUP3 DUP1 SLOAD PUSH2 0x187 SWAP1 PUSH2 0x526 JUMP JUMPDEST DUP1 ISZERO PUSH2 0x1D4 JUMPI DUP1 PUSH1 0x1F LT PUSH2 0x1A9 JUMPI PUSH2 0x100 DUP1 DUP4 SLOAD DIV MUL DUP4 MSTORE SWAP2 PUSH1 0x20 ADD SWAP2 PUSH2 0x1D4 JUMP JUMPDEST DUP3 ADD SWAP2 SWAP1 PUSH1 0x0 MSTORE PUSH1 0x20 PUSH1 0x0 KECCAK256 SWAP1 JUMPDEST DUP2 SLOAD DUP2 MSTORE SWAP1 PUSH1 0x1 ADD SWAP1 PUSH1 0x20 ADD DUP1 DUP4 GT PUSH2 0x1B7 JUMPI DUP3 SWAP1 SUB PUSH1 0x1F AND DUP3 ADD SWAP2 JUMPDEST POP POP POP POP POP SWAP1 POP DUP4 JUMP JUMPDEST PUSH1 0x1 SLOAD DUP2 JUMP JUMPDEST PUSH1 0x0 PUSH1 0x40 MLOAD SWAP1 POP SWAP1 JUMP JUMPDEST PUSH1 0x0 DUP1 REVERT JUMPDEST PUSH1 0x0 DUP1 REVERT JUMPDEST PUSH1 0x0 DUP2 SWAP1 POP SWAP2 SWAP1 POP JUMP JUMPDEST PUSH2 0x20B DUP2 PUSH2 0x1F8 JUMP JUMPDEST DUP2 EQ PUSH2 0x216 JUMPI PUSH1 0x0 DUP1 REVERT JUMPDEST POP JUMP JUMPDEST PUSH1 0x0 DUP2 CALLDATALOAD SWAP1 POP PUSH2 0x228 DUP2 PUSH2 0x202 JUMP JUMPDEST SWAP3 SWAP2 POP POP JUMP JUMPDEST PUSH1 0x0 DUP1 REVERT JUMPDEST PUSH1 0x0 DUP1 REVERT JUMPDEST PUSH1 0x0 PUSH1 0x1F NOT PUSH1 0x1F DUP4 ADD AND SWAP1 POP SWAP2 SWAP1 POP JUMP JUMPDEST PUSH32 0x4E487B7100000000000000000000000000000000000000000000000000000000 PUSH1 0x0 MSTORE PUSH1 0x41 PUSH1 0x4 MSTORE PUSH1 0x24 PUSH1 0x0 REVERT JUMPDEST PUSH2 0x281 DUP3 PUSH2 0x238 JUMP JUMPDEST DUP2 ADD DUP2 DUP2 LT PUSH8 0xFFFFFFFFFFFFFFFF DUP3 GT OR ISZERO PUSH2 0x2A0 JUMPI PUSH2 0x29F PUSH2 0x249 JUMP JUMPDEST JUMPDEST DUP1 PUSH1 0x40 MSTORE POP POP POP JUMP JUMPDEST PUSH1 0x0 PUSH2 0x2B3 PUSH2 0x1E4 JUMP JUMPDEST SWAP1 POP PUSH2 0x2BF DUP3 DUP3 PUSH2 0x278 JUMP JUMPDEST SWAP2 SWAP1 POP JUMP JUMPDEST PUSH1 0x0 PUSH8 0xFFFFFFFFFFFFFFFF DUP3 GT ISZERO PUSH2 0x2DF JUMPI PUSH2 0x2DE PUSH2 0x249 JUMP JUMPDEST JUMPDEST PUSH2 0x2E8 DUP3 PUSH2 0x238 JUMP JUMPDEST SWAP1 POP PUSH1 0x20 DUP2 ADD SWAP1 POP SWAP2 SWAP1 POP JUMP JUMPDEST DUP3 DUP2 DUP4 CALLDATACOPY PUSH1 0x0 DUP4 DUP4 ADD MSTORE POP POP POP JUMP JUMPDEST PUSH1 0x0 PUSH2 0x317 PUSH2 0x312 DUP5 PUSH2 0x2C4 JUMP JUMPDEST PUSH2 0x2A9 JUMP JUMPDEST SWAP1 POP DUP3 DUP2 MSTORE PUSH1 0x20 DUP2 ADD DUP5 DUP5 DUP5 ADD GT ISZERO PUSH2 0x333 JUMPI PUSH2 0x332 PUSH2 0x233 JUMP JUMPDEST JUMPDEST PUSH2 0x33E DUP5 DUP3 DUP6 PUSH2 0x2F5 JUMP JUMPDEST POP SWAP4 SWAP3 POP POP POP JUMP JUMPDEST PUSH1 0x0 DUP3 PUSH1 0x1F DUP4 ADD SLT PUSH2 0x35B JUMPI PUSH2 0x35A PUSH2 0x22E JUMP JUMPDEST JUMPDEST DUP2 CALLDATALOAD PUSH2 0x36B DUP5 DUP3 PUSH1 0x20 DUP7 ADD PUSH2 0x304 JUMP JUMPDEST SWAP2 POP POP SWAP3 SWAP2 POP POP JUMP JUMPDEST PUSH1 0x0 DUP1 PUSH1 0x0 PUSH1 0x60 DUP5 DUP7 SUB SLT ISZERO PUSH2 0x38D JUMPI PUSH2 0x38C PUSH2 0x1EE JUMP JUMPDEST JUMPDEST PUSH1 0x0 PUSH2 0x39B DUP7 DUP3 DUP8 ADD PUSH2 0x219 JUMP JUMPDEST SWAP4 POP POP PUSH1 0x20 PUSH2 0x3AC DUP7 DUP3 DUP8 ADD PUSH2 0x219 JUMP JUMPDEST SWAP3 POP POP PUSH1 0x40 DUP5 ADD CALLDATALOAD PUSH8 0xFFFFFFFFFFFFFFFF DUP2 GT ISZERO PUSH2 0x3CD JUMPI PUSH2 0x3CC PUSH2 0x1F3 JUMP JUMPDEST JUMPDEST PUSH2 0x3D9 DUP7 DUP3 DUP8 ADD PUSH2 0x346 JUMP JUMPDEST SWAP2 POP POP SWAP3 POP SWAP3 POP SWAP3 JUMP JUMPDEST PUSH1 0x0 PUSH1 0x20 DUP3 DUP5 SUB SLT ISZERO PUSH2 0x3F9 JUMPI PUSH2 0x3F8 PUSH2 0x1EE JUMP JUMPDEST JUMPDEST PUSH1 0x0 PUSH2 0x407 DUP5 DUP3 DUP6 ADD PUSH2 0x219 JUMP JUMPDEST SWAP2 POP POP SWAP3 SWAP2 POP POP JUMP JUMPDEST PUSH2 0x419 DUP2 PUSH2 0x1F8 JUMP JUMPDEST DUP3 MSTORE POP POP JUMP JUMPDEST PUSH1 0x0 DUP2 MLOAD SWAP1 POP SWAP2 SWAP1 POP JUMP JUMPDEST PUSH1 0x0 DUP3 DUP3 MSTORE PUSH1 0x20 DUP3 ADD SWAP1 POP SWAP3 SWAP2 POP POP JUMP JUMPDEST PUSH1 0x0 JUMPDEST DUP4 DUP2 LT ISZERO PUSH2 0x459 JUMPI DUP1 DUP3 ADD MLOAD DUP2 DUP5 ADD MSTORE PUSH1 0x20 DUP2 ADD SWAP1 POP PUSH2 0x43E JUMP JUMPDEST PUSH1 0x0 DUP5 DUP5 ADD MSTORE POP POP POP POP JUMP JUMPDEST PUSH1 0x0 PUSH2 0x470 DUP3 PUSH2 0x41F JUMP JUMPDEST PUSH2 0x47A DUP2 DUP6 PUSH2 0x42A JUMP JUMPDEST SWAP4 POP PUSH2 0x48A DUP2 DUP6 PUSH1 0x20 DUP7 ADD PUSH2 0x43B JUMP JUMPDEST PUSH2 0x493 DUP2 PUSH2 0x238 JUMP JUMPDEST DUP5 ADD SWAP2 POP POP SWAP3 SWAP2 POP POP JUMP JUMPDEST PUSH1 0x0 PUSH1 0x60 DUP3 ADD SWAP1 POP PUSH2 0x4B3 PUSH1 0x0 DUP4 ADD DUP7 PUSH2 0x410 JUMP JUMPDEST PUSH2 0x4C0 PUSH1 0x20 DUP4 ADD DUP6 PUSH2 0x410 JUMP JUMPDEST DUP2 DUP2 SUB PUSH1 0x40 DUP4 ADD MSTORE PUSH2 0x4D2 DUP2 DUP5 PUSH2 0x465 JUMP JUMPDEST SWAP1 POP SWAP5 SWAP4 POP POP POP POP JUMP JUMPDEST PUSH1 0x0 PUSH1 0x20 DUP3 ADD SWAP1 POP PUSH2 0x4F1 PUSH1 0x0 DUP4 ADD DUP5 PUSH2 0x410 JUMP JUMPDEST SWAP3 SWAP2 POP POP JUMP JUMPDEST PUSH32 0x4E487B7100000000000000000000000000000000000000000000000000000000 PUSH1 0x0 MSTORE PUSH1 0x22 PUSH1 0x4 MSTORE PUSH1 0x24 PUSH1 0x0 REVERT JUMPDEST PUSH1 0x0 PUSH1 0x2 DUP3 DIV SWAP1 POP PUSH1 0x1 DUP3 AND DUP1 PUSH2 0x53E JUMPI PUSH1 0x7F DUP3 AND SWAP2 POP JUMPDEST PUSH1 0x20 DUP3 LT DUP2 SUB PUSH2 0x551 JUMPI PUSH2 0x550 PUSH2 0x4F7 JUMP JUMPDEST JUMPDEST POP SWAP2 SWAP1 POP JUMP JUMPDEST PUSH1 0x0 DUP2 SWAP1 POP DUP2 PUSH1 0x0 MSTORE PUSH1 0x20 PUSH1 0x0 KECCAK256 SWAP1 POP SWAP2 SWAP1 POP JUMP JUMPDEST PUSH1 0x0 PUSH1 0x20 PUSH1 0x1F DUP4 ADD DIV SWAP1 POP SWAP2 SWAP1 POP JUMP JUMPDEST PUSH1 0x0 DUP3 DUP3 SHL SWAP1 POP SWAP3 SWAP2 POP POP JUMP JUMPDEST PUSH1 0x0 PUSH1 0x8 DUP4 MUL PUSH2 0x5B9 PUSH32 0xFFFFFFFFFFFFFFFFFFFFFFFFFFFFFFFFFFFFFFFFFFFFFFFFFFFFFFFFFFFFFFFF DUP3 PUSH2 0x57C JUMP JUMPDEST PUSH2 0x5C3 DUP7 DUP4 PUSH2 0x57C JUMP JUMPDEST SWAP6 POP DUP1 NOT DUP5 AND SWAP4 POP DUP1 DUP7 AND DUP5 OR SWAP3 POP POP POP SWAP4 SWAP3 POP POP POP JUMP JUMPDEST PUSH1 0x0 DUP2 SWAP1 POP SWAP2 SWAP1 POP JUMP JUMPDEST PUSH1 0x0 PUSH2 0x600 PUSH2 0x5FB PUSH2 0x5F6 DUP5 PUSH2 0x1F8 JUMP JUMPDEST PUSH2 0x5DB JUMP JUMPDEST PUSH2 0x1F8 JUMP JUMPDEST SWAP1 POP SWAP2 SWAP1 POP JUMP JUMPDEST PUSH1 0x0 DUP2 SWAP1 POP SWAP2 SWAP1 POP JUMP JUMPDEST PUSH2 0x61A DUP4 PUSH2 0x5E5 JUMP JUMPDEST PUSH2 0x62E PUSH2 0x626 DUP3 PUSH2 0x607 JUMP JUMPDEST DUP5 DUP5 SLOAD PUSH2 0x589 JUMP JUMPDEST DUP3 SSTORE POP POP POP POP JUMP JUMPDEST PUSH1 0x0 SWAP1 JUMP JUMPDEST PUSH2 0x643 PUSH2 0x636 JUMP JUMPDEST PUSH2 0x64E DUP2 DUP5 DUP5 PUSH2 0x611 JUMP JUMPDEST POP POP POP JUMP JUMPDEST JUMPDEST DUP2 DUP2 LT ISZERO PUSH2 0x672 JUMPI PUSH2 0x667 PUSH1 0x0 DUP3 PUSH2 0x63B JUMP JUMPDEST PUSH1 0x1 DUP2 ADD SWAP1 POP PUSH2 0x654 JUMP JUMPDEST POP POP JUMP JUMPDEST PUSH1 0x1F DUP3 GT ISZERO PUSH2 0x6B7 JUMPI PUSH2 0x688 DUP2 PUSH2 0x557 JUMP JUMPDEST PUSH2 0x691 DUP5 PUSH2 0x56C JUMP JUMPDEST DUP2 ADD PUSH1 0x20 DUP6 LT ISZERO PUSH2 0x6A0 JUMPI DUP2 SWAP1 POP JUMPDEST PUSH2 0x6B4 PUSH2 0x6AC DUP6 PUSH2 0x56C JUMP JUMPDEST DUP4 ADD DUP3 PUSH2 0x653 JUMP JUMPDEST POP POP JUMPDEST POP POP POP JUMP JUMPDEST PUSH1 0x0 DUP3 DUP3 SHR SWAP1 POP SWAP3 SWAP2 POP POP JUMP JUMPDEST PUSH1 0x0 PUSH2 0x6DA PUSH1 0x0 NOT DUP5 PUSH1 0x8 MUL PUSH2 0x6BC JUMP JUMPDEST NOT DUP1 DUP4 AND SWAP2 POP POP SWAP3 SWAP2 POP POP JUMP JUMPDEST PUSH1 0x0 PUSH2 0x6F3 DUP4 DUP4 PUSH2 0x6C9 JUMP JUMPDEST SWAP2 POP DUP3 PUSH1 0x2 MUL DUP3 OR SWAP1 POP SWAP3 SWAP2 POP POP JUMP JUMPDEST PUSH2 0x70C DUP3 PUSH2 0x41F JUMP JUMPDEST PUSH8 0xFFFFFFFFFFFFFFFF DUP2 GT ISZERO PUSH2 0x725 JUMPI PUSH2 0x724 PUSH2 0x249 JUMP JUMPDEST JUMPDEST PUSH2 0x72F DUP3 SLOAD PUSH2 0x526 JUMP JUMPDEST PUSH2 0x73A DUP3 DUP3 DUP6 PUSH2 0x676 JUMP JUMPDEST PUSH1 0x0 PUSH1 0x20 SWAP1 POP PUSH1 0x1F DUP4 GT PUSH1 0x1 DUP2 EQ PUSH2 0x76D JUMPI PUSH1 0x0 DUP5 ISZERO PUSH2 0x75B JUMPI DUP3 DUP8 ADD MLOAD SWAP1 POP JUMPDEST PUSH2 0x765 DUP6 DUP3 PUSH2 0x6E7 JUMP JUMPDEST DUP7 SSTORE POP PUSH2 0x7CD JUMP JUMPDEST PUSH1 0x1F NOT DUP5 AND PUSH2 0x77B DUP7 PUSH2 0x557 JUMP JUMPDEST PUSH1 0x0 JUMPDEST DUP3 DUP2 LT ISZERO PUSH2 0x7A3 JUMPI DUP5 DUP10 ADD MLOAD DUP3 SSTORE PUSH1 0x1 DUP3 ADD SWAP2 POP PUSH1 0x20 DUP6 ADD SWAP5 POP PUSH1 0x20 DUP2 ADD SWAP1 POP PUSH2 0x77E JUMP JUMPDEST DUP7 DUP4 LT ISZERO PUSH2 0x7C0 JUMPI DUP5 DUP10 ADD MLOAD PUSH2 0x7BC PUSH1 0x1F DUP10 AND DUP3 PUSH2 0x6C9 JUMP JUMPDEST DUP4 SSTORE POP JUMPDEST PUSH1 0x1 PUSH1 0x2 DUP9 MUL ADD DUP9 SSTORE POP POP POP JUMPDEST POP POP POP POP POP POP JUMP JUMPDEST PUSH32 0x4E487B7100000000000000000000000000000000000000000000000000000000 PUSH1 0x0 MSTORE PUSH1 0x11 PUSH1 0x4 MSTORE PUSH1 0x24 PUSH1 0x0 REVERT JUMPDEST PUSH1 0x0 PUSH2 0x80F DUP3 PUSH2 0x1F8 JUMP JUMPDEST SWAP2 POP PUSH32 0xFFFFFFFFFFFFFFFFFFFFFFFFFFFFFFFFFFFFFFFFFFFFFFFFFFFFFFFFFFFFFFFF DUP3 SUB PUSH2 0x841 JUMPI PUSH2 0x840 PUSH2 0x7D5 JUMP JUMPDEST JUMPDEST PUSH1 0x1 DUP3 ADD SWAP1 POP SWAP2 SWAP1 POP JUMP INVALID LOG2 PUSH5 0x6970667358 0x22 SLT KECCAK256 PUSH26 0x228A986D174A312F1ED16DCEE192195C7C0010540D8A32FDCF9C DELEGATECALL 0xCE 0xD6 PUSH2 0x2864 PUSH20 0x6F6C634300081200330000000000000000000000 "
		},
		"gasEstimates": {
			"creation": {
				"codeDepositCost": "435600",
				"executionCost": "5480",
				"totalCost": "441080"
			},
			"external": {
				"addNewMobile(uint256,uint256,string)": "infinite",
				"mobiles(uint256)": "infinite",
				"numberOfMobiles()": "2451"
			}
		},
		"methodIdentifiers": {
			"addNewMobile(uint256,uint256,string)": "975181c3",
			"mobiles(uint256)": "d0675ae3",
			"numberOfMobiles()": "e62a0c29"
		}
	},
	"abi": [
		{
			"inputs": [
				{
					"internalType": "uint256",
					"name": "_price",
					"type": "uint256"
				},
				{
					"internalType": "uint256",
					"name": "_cameras",
					"type": "uint256"
				},
				{
					"internalType": "string",
					"name": "_processor",
					"type": "string"
				}
			],
			"name": "addNewMobile",
			"outputs": [],
			"stateMutability": "nonpayable",
			"type": "function"
		},
		{
			"inputs": [
				{
					"internalType": "uint256",
					"name": "",
					"type": "uint256"
				}
			],
			"name": "mobiles",
			"outputs": [
				{
					"internalType": "uint256",
					"name": "price",
					"type": "uint256"
				},
				{
					"internalType": "uint256",
					"name": "cameras",
					"type": "uint256"
				},
				{
					"internalType": "string",
					"name": "processor",
					"type": "string"
				}
			],
			"stateMutability": "view",
			"type": "function"
		},
		{
			"inputs": [],
			"name": "numberOfMobiles",
			"outputs": [
				{
					"internalType": "uint256",
					"name": "",
					"type": "uint256"
				}
			],
			"stateMutability": "view",
			"type": "function"
		}
	]
}